{
  "contractName": "KingdomFactory",
  "abi": [
    {
      "inputs": [],
      "payable": false,
      "stateMutability": "nonpayable",
      "type": "constructor"
    },
    {
      "anonymous": false,
      "inputs": [
        {
          "indexed": false,
          "name": "kingdomId",
          "type": "uint256"
        },
        {
          "indexed": false,
          "name": "name",
          "type": "string"
        },
        {
          "indexed": false,
          "name": "race",
          "type": "uint256"
        }
      ],
      "name": "NewKingdom",
      "type": "event"
    },
    {
      "anonymous": false,
      "inputs": [
        {
          "indexed": false,
          "name": "kingdomId",
          "type": "uint256"
        },
        {
          "indexed": false,
          "name": "weaponLevel",
          "type": "uint256"
        }
      ],
      "name": "UpgradeWeapon",
      "type": "event"
    },
    {
      "anonymous": false,
      "inputs": [
        {
          "indexed": false,
          "name": "kingdomId",
          "type": "uint256"
        },
        {
          "indexed": false,
          "name": "fortressLevel",
          "type": "uint256"
        }
      ],
      "name": "UpgradeFortress",
      "type": "event"
    },
    {
      "anonymous": false,
      "inputs": [
        {
          "indexed": false,
          "name": "battleId",
          "type": "uint256"
        }
      ],
      "name": "BattleCompleted",
      "type": "event"
    },
    {
      "anonymous": false,
      "inputs": [
        {
          "indexed": false,
          "name": "kingdomId",
          "type": "uint256"
        }
      ],
      "name": "Recruit",
      "type": "event"
    },
    {
      "anonymous": false,
      "inputs": [
        {
          "indexed": false,
          "name": "kingdomId",
          "type": "uint256"
        },
        {
          "indexed": false,
          "name": "count",
          "type": "uint256"
        }
      ],
      "name": "TrainedSpies",
      "type": "event"
    },
    {
      "anonymous": false,
      "inputs": [
        {
          "indexed": false,
          "name": "kingdomId",
          "type": "uint256"
        },
        {
          "indexed": false,
          "name": "count",
          "type": "uint256"
        }
      ],
      "name": "TrainedSentries",
      "type": "event"
    },
    {
      "constant": false,
      "inputs": [
        {
          "name": "_name",
          "type": "string"
        },
        {
          "name": "_race",
          "type": "uint256"
        }
      ],
      "name": "createNewKingdom",
      "outputs": [
        {
          "name": "",
          "type": "uint256"
        }
      ],
      "payable": false,
      "stateMutability": "nonpayable",
      "type": "function"
    },
    {
      "constant": true,
      "inputs": [
        {
          "name": "_id",
          "type": "uint256"
        }
      ],
      "name": "getKingdomTest",
      "outputs": [
        {
          "name": "",
          "type": "bytes"
        },
        {
          "name": "",
          "type": "uint8"
        },
        {
          "name": "",
          "type": "uint256"
        },
        {
          "name": "",
          "type": "uint8"
        },
        {
          "name": "",
          "type": "uint8"
        },
        {
          "name": "",
          "type": "uint256"
        },
        {
          "name": "",
          "type": "uint256"
        },
        {
          "name": "",
          "type": "bytes"
        }
      ],
      "payable": false,
      "stateMutability": "view",
      "type": "function"
    },
    {
      "constant": true,
      "inputs": [
        {
          "name": "_id",
          "type": "uint256"
        }
      ],
      "name": "getKingdom",
      "outputs": [
        {
          "name": "",
          "type": "string"
        },
        {
          "name": "",
          "type": "uint8"
        },
        {
          "name": "",
          "type": "uint256"
        },
        {
          "name": "",
          "type": "uint8"
        },
        {
          "name": "",
          "type": "uint8"
        },
        {
          "name": "",
          "type": "uint256"
        },
        {
          "name": "",
          "type": "uint256"
        },
        {
          "name": "",
          "type": "string"
        }
      ],
      "payable": false,
      "stateMutability": "view",
      "type": "function"
    },
    {
      "constant": true,
      "inputs": [
        {
          "name": "_id",
          "type": "uint256"
        }
      ],
      "name": "getPersonnel",
      "outputs": [
        {
          "name": "",
          "type": "uint256"
        },
        {
          "name": "",
          "type": "uint256"
        },
        {
          "name": "",
          "type": "uint256"
        }
      ],
      "payable": false,
      "stateMutability": "view",
      "type": "function"
    },
    {
      "constant": true,
      "inputs": [],
      "name": "getWeaponMultiplier",
      "outputs": [
        {
          "name": "",
          "type": "uint8"
        }
      ],
      "payable": false,
      "stateMutability": "view",
      "type": "function"
    },
    {
      "constant": true,
      "inputs": [],
      "name": "getFortressMultiplier",
      "outputs": [
        {
          "name": "",
          "type": "uint8"
        }
      ],
      "payable": false,
      "stateMutability": "view",
      "type": "function"
    },
    {
      "constant": true,
      "inputs": [
        {
          "name": "_commanderId",
          "type": "uint256"
        }
      ],
      "name": "getOfficers",
      "outputs": [
        {
          "name": "",
          "type": "uint256[]"
        }
      ],
      "payable": false,
      "stateMutability": "view",
      "type": "function"
    },
    {
      "constant": true,
      "inputs": [],
      "name": "getMyOfficers",
      "outputs": [
        {
          "name": "",
          "type": "uint256[]"
        }
      ],
      "payable": false,
      "stateMutability": "view",
      "type": "function"
    },
    {
      "constant": true,
      "inputs": [],
      "name": "haveKingdom",
      "outputs": [
        {
          "name": "",
          "type": "bool"
        }
      ],
      "payable": false,
      "stateMutability": "view",
      "type": "function"
    },
    {
      "constant": true,
      "inputs": [],
      "name": "getMyKingdomId",
      "outputs": [
        {
          "name": "",
          "type": "uint256"
        }
      ],
      "payable": false,
      "stateMutability": "view",
      "type": "function"
    },
    {
      "constant": true,
      "inputs": [],
      "name": "getMyKingdom",
      "outputs": [
        {
          "name": "",
          "type": "string"
        },
        {
          "name": "",
          "type": "uint8"
        },
        {
          "name": "",
          "type": "uint256"
        },
        {
          "name": "",
          "type": "uint8"
        },
        {
          "name": "",
          "type": "uint8"
        },
        {
          "name": "",
          "type": "uint256"
        },
        {
          "name": "",
          "type": "uint256"
        },
        {
          "name": "",
          "type": "string"
        }
      ],
      "payable": false,
      "stateMutability": "view",
      "type": "function"
    },
    {
      "constant": true,
      "inputs": [],
      "name": "getMyPersonnel",
      "outputs": [
        {
          "name": "",
          "type": "uint256"
        },
        {
          "name": "",
          "type": "uint256"
        },
        {
          "name": "",
          "type": "uint256"
        }
      ],
      "payable": false,
      "stateMutability": "view",
      "type": "function"
    },
    {
      "constant": true,
      "inputs": [],
      "name": "getKingdomCount",
      "outputs": [
        {
          "name": "",
          "type": "uint256"
        }
      ],
      "payable": false,
      "stateMutability": "view",
      "type": "function"
    },
    {
      "constant": false,
      "inputs": [
        {
          "name": "_commanderId",
          "type": "uint256"
        }
      ],
      "name": "assignCommander",
      "outputs": [],
      "payable": false,
      "stateMutability": "nonpayable",
      "type": "function"
    },
    {
      "constant": false,
      "inputs": [],
      "name": "ditchCommander",
      "outputs": [],
      "payable": false,
      "stateMutability": "nonpayable",
      "type": "function"
    },
    {
      "constant": true,
      "inputs": [
        {
          "name": "_id",
          "type": "uint256"
        }
      ],
      "name": "isCommander",
      "outputs": [
        {
          "name": "",
          "type": "bool"
        }
      ],
      "payable": false,
      "stateMutability": "view",
      "type": "function"
    },
    {
      "constant": false,
      "inputs": [],
      "name": "upgradeWeapon",
      "outputs": [],
      "payable": false,
      "stateMutability": "nonpayable",
      "type": "function"
    },
    {
      "constant": false,
      "inputs": [],
      "name": "upgradeFortress",
      "outputs": [],
      "payable": false,
      "stateMutability": "nonpayable",
      "type": "function"
    },
    {
      "constant": true,
      "inputs": [
        {
          "name": "_id",
          "type": "uint256"
        }
      ],
      "name": "strikeAction",
      "outputs": [
        {
          "name": "",
          "type": "uint256"
        }
      ],
      "payable": false,
      "stateMutability": "view",
      "type": "function"
    },
    {
      "constant": true,
      "inputs": [],
      "name": "myStrikeAction",
      "outputs": [
        {
          "name": "",
          "type": "uint256"
        }
      ],
      "payable": false,
      "stateMutability": "view",
      "type": "function"
    },
    {
      "constant": true,
      "inputs": [
        {
          "name": "_id",
          "type": "uint256"
        }
      ],
      "name": "defensiveAction",
      "outputs": [
        {
          "name": "",
          "type": "uint256"
        }
      ],
      "payable": false,
      "stateMutability": "view",
      "type": "function"
    },
    {
      "constant": true,
      "inputs": [],
      "name": "myDefensiveAction",
      "outputs": [
        {
          "name": "",
          "type": "uint256"
        }
      ],
      "payable": false,
      "stateMutability": "view",
      "type": "function"
    },
    {
      "constant": true,
      "inputs": [
        {
          "name": "_id",
          "type": "uint256"
        }
      ],
      "name": "spyRating",
      "outputs": [
        {
          "name": "",
          "type": "uint256"
        }
      ],
      "payable": false,
      "stateMutability": "view",
      "type": "function"
    },
    {
      "constant": true,
      "inputs": [],
      "name": "mySpyRating",
      "outputs": [
        {
          "name": "",
          "type": "uint256"
        }
      ],
      "payable": false,
      "stateMutability": "view",
      "type": "function"
    },
    {
      "constant": true,
      "inputs": [
        {
          "name": "_id",
          "type": "uint256"
        }
      ],
      "name": "sentryRating",
      "outputs": [
        {
          "name": "",
          "type": "uint256"
        }
      ],
      "payable": false,
      "stateMutability": "view",
      "type": "function"
    },
    {
      "constant": true,
      "inputs": [],
      "name": "mySentryRating",
      "outputs": [
        {
          "name": "",
          "type": "uint256"
        }
      ],
      "payable": false,
      "stateMutability": "view",
      "type": "function"
    },
    {
      "constant": false,
      "inputs": [
        {
          "name": "_targetID",
          "type": "uint256"
        }
      ],
      "name": "attack",
      "outputs": [],
      "payable": false,
      "stateMutability": "nonpayable",
      "type": "function"
    },
    {
      "constant": true,
      "inputs": [
        {
          "name": "_id",
          "type": "uint256"
        }
      ],
      "name": "getBattle",
      "outputs": [
        {
          "name": "",
          "type": "uint256"
        },
        {
          "name": "",
          "type": "uint256"
        },
        {
          "name": "",
          "type": "uint256"
        },
        {
          "name": "",
          "type": "uint256"
        },
        {
          "name": "",
          "type": "uint256"
        },
        {
          "name": "",
          "type": "uint256"
        },
        {
          "name": "",
          "type": "bool"
        }
      ],
      "payable": false,
      "stateMutability": "view",
      "type": "function"
    },
    {
      "constant": true,
      "inputs": [
        {
          "name": "_id",
          "type": "uint256"
        }
      ],
      "name": "getRecentAttacks",
      "outputs": [
        {
          "name": "",
          "type": "uint256[2][5]"
        },
        {
          "name": "",
          "type": "uint256"
        }
      ],
      "payable": false,
      "stateMutability": "view",
      "type": "function"
    },
    {
      "constant": true,
      "inputs": [],
      "name": "getMyRecentAttacks",
      "outputs": [
        {
          "name": "",
          "type": "uint256[2][5]"
        },
        {
          "name": "",
          "type": "uint256"
        }
      ],
      "payable": false,
      "stateMutability": "view",
      "type": "function"
    },
    {
      "constant": true,
      "inputs": [
        {
          "name": "_id",
          "type": "uint256"
        }
      ],
      "name": "getRecent10IncomingAttacks",
      "outputs": [
        {
          "name": "",
          "type": "uint256[2][10]"
        },
        {
          "name": "",
          "type": "uint256"
        }
      ],
      "payable": false,
      "stateMutability": "view",
      "type": "function"
    },
    {
      "constant": true,
      "inputs": [
        {
          "name": "_id",
          "type": "uint256"
        }
      ],
      "name": "getRecent10OutgoingAttacks",
      "outputs": [
        {
          "name": "",
          "type": "uint256[2][10]"
        },
        {
          "name": "",
          "type": "uint256"
        }
      ],
      "payable": false,
      "stateMutability": "view",
      "type": "function"
    },
    {
      "constant": true,
      "inputs": [],
      "name": "getMyRecent10IncomingAttacks",
      "outputs": [
        {
          "name": "",
          "type": "uint256[2][10]"
        },
        {
          "name": "",
          "type": "uint256"
        }
      ],
      "payable": false,
      "stateMutability": "view",
      "type": "function"
    },
    {
      "constant": true,
      "inputs": [],
      "name": "getMyRecent10OutgoingAttacks",
      "outputs": [
        {
          "name": "",
          "type": "uint256[2][10]"
        },
        {
          "name": "",
          "type": "uint256"
        }
      ],
      "payable": false,
      "stateMutability": "view",
      "type": "function"
    },
    {
      "constant": true,
      "inputs": [],
      "name": "canRecruit",
      "outputs": [
        {
          "name": "",
          "type": "bool"
        },
        {
          "name": "",
          "type": "uint256"
        }
      ],
      "payable": false,
      "stateMutability": "view",
      "type": "function"
    },
    {
      "constant": false,
      "inputs": [],
      "name": "recruit",
      "outputs": [],
      "payable": false,
      "stateMutability": "nonpayable",
      "type": "function"
    },
    {
      "constant": false,
      "inputs": [
        {
          "name": "_count",
          "type": "uint256"
        }
      ],
      "name": "trainSpies",
      "outputs": [],
      "payable": false,
      "stateMutability": "nonpayable",
      "type": "function"
    },
    {
      "constant": false,
      "inputs": [
        {
          "name": "_count",
          "type": "uint256"
        }
      ],
      "name": "trainSentries",
      "outputs": [],
      "payable": false,
      "stateMutability": "nonpayable",
      "type": "function"
    }
  ],
  "bytecode": "0x6060604052601e600660006101000a81548160ff021916908360ff1602179055506019600660016101000a81548160ff021916908360ff16021790555061012c60075560c060405190810160405280600060ff168152602001601e60ff168152602001600f60ff168152602001600060ff168152602001600060ff168152602001600060ff1681525060089060066200009a92919062000645565b5060c060405190810160405280606460ff168152602001600060ff168152602001600060ff168152602001600060ff168152602001602360ff168152602001600060ff168152506009906006620000f392919062000645565b5060c060405190810160405280606460ff168152602001600060ff168152602001602860ff168152602001600060ff168152602001601460ff168152602001600060ff16815250600a9060066200014c92919062000645565b5060c060405190810160405280606460ff168152602001602360ff168152602001600060ff168152602001602d60ff168152602001600060ff168152602001600060ff16815250600b906006620001a592919062000645565b5060c060405190810160405280606460ff168152602001600060ff168152602001600060ff168152602001600060ff168152602001600060ff168152602001602360ff16815250600c906006620001fe92919062000645565b5060c060405190810160405280603260ff168152602001600060ff168152602001600060ff168152602001604660ff168152602001600060ff168152602001605560ff16815250600d9060066200025792919062000645565b5034156200026457600080fd5b620002c86040805190810160405280600381526020017f476f6400000000000000000000000000000000000000000000000000000000008152506000600e6010620f4240612710806000620003996401000000000262002821176401000000009004565b506200032d6040805190810160405280601081526020017f476f6427732052696768742048616e64000000000000000000000000000000008152506000600c600e620186a06103e8806000620003996401000000000262002821176401000000009004565b50620003926040805190810160405280600f81526020017f476f642773204c6566742048616e6400000000000000000000000000000000008152506000600c600e620186a06103e8806000620003996401000000000262002821176401000000009004565b50620008ee565b600080600160008054806001018281620003b49190620006f3565b91600052602060002090600702016000610120604051908101604052808f81526020018e60ff1681526020018d60ff1681526020018c60ff1681526020018b81526020018a81526020018981526020016000815260200188815250909190915060008201518160000190805190602001906200043292919062000728565b5060208201518160010160006101000a81548160ff021916908360ff16021790555060408201518160010160016101000a81548160ff021916908360ff16021790555060608201518160010160026101000a81548160ff021916908360ff1602179055506080820151816002015560a0820151816003015560c0820151816004015560e0820151816005015561010082015181600601555050039050336003600083815260200190815260200160002060006101000a81548173ffffffffffffffffffffffffffffffffffffffff021916908373ffffffffffffffffffffffffffffffffffffffff16021790555080600260003373ffffffffffffffffffffffffffffffffffffffff1673ffffffffffffffffffffffffffffffffffffffff16815260200190815260200160002081905550600160046000858152602001908152602001600020600082825401925050819055507f8903d00f136209d2fb29b581df936c8cbc1f7f2f70aafe69e061eff9527d7cbd818b8b6040518084815260200180602001838152602001828103825284818151815260200191508051906020019080838360005b83811015620005f8578082015181840152602081019050620005db565b50505050905090810190601f168015620006265780820380516001836020036101000a031916815260200191505b5094505050505060405180910390a18091505098975050505050505050565b82805482825590600052602060002090601f01602090048101928215620006e05791602002820160005b83821115620006af57835183826101000a81548160ff021916908360ff16021790555092602001926001016020816000010492830192600103026200066f565b8015620006de5782816101000a81549060ff0219169055600101602081600001049283019260010302620006af565b505b509050620006ef9190620007af565b5090565b8154818355818115116200072357600702816007028360005260206000209182019101620007229190620007e2565b5b505050565b828054600181600116156101000203166002900490600052602060002090601f016020900481019282601f106200076b57805160ff19168380011785556200079c565b828001600101855582156200079c579182015b828111156200079b5782518255916020019190600101906200077e565b5b509050620007ab91906200087a565b5090565b620007df91905b80821115620007db57600081816101000a81549060ff021916905550600101620007b6565b5090565b90565b6200087791905b80821115620008735760008082016000620008059190620008a2565b6001820160006101000a81549060ff02191690556001820160016101000a81549060ff02191690556001820160026101000a81549060ff02191690556002820160009055600382016000905560048201600090556005820160009055600682016000905550600701620007e9565b5090565b90565b6200089f91905b808211156200089b57600081600090555060010162000881565b5090565b90565b50805460018160011615610100020316600290046000825580601f10620008ca5750620008eb565b601f016020900490600052602060002090810190620008ea91906200087a565b5b50565b612e0280620008fe6000396000f3006060604052600436106101d7576000357c0100000000000000000000000000000000000000000000000000000000900463ffffffff16806270379b146101dc57806305ddb4e0146101ff5780630b8d16d5146102775780630ca62a8a146103bb5780630eb70db1146103f25780631185f5af1461042d5780631758f5221461046457806318070857146104935780631e7d6558146104bc578063214d23c8146104d157806326275974146104e65780635796f2801461056f5780635c30d351146105e957806364dd891a14610612578063689f8c5c146106355780636a0f54401461064a5780636d7ce0a21461067e5780636dd0ce7a146107c25780637f8680ab1461082757806384d2d4be1461095d5780638c56c5f8146109e65780638d9c842f14610a0f5780638e40607214610a3257806394bff99114610a5b578063a153d91814610ae4578063acff8da514610b0d578063ca4afd0214610b88578063cbfc956514610bcd578063d99b587614610bfc578063daa3784714610c66578063de73ea1914610c9d578063e42e638814610d18578063e5dcdf9b14610d2d578063e7711dde14610d56578063ed5b7e5e14610d79578063f2ed2dff14610db0578063f328dbbb14610ddd578063fca1efec14610e58575b600080fd5b34156101e757600080fd5b6101fd6004808035906020019091905050610e8f565b005b341561020a57600080fd5b6102206004808035906020019091905050610f7d565b6040518080602001828103825283818151815260200191508051906020019060200280838360005b83811015610263578082015181840152602081019050610248565b505050509050019250505060405180910390f35b341561028257600080fd5b6102986004808035906020019091905050611077565b60405180806020018960ff1660ff1681526020018881526020018760ff1660ff1681526020018660ff1660ff1681526020018581526020018481526020018060200183810383528b818151815260200191508051906020019080838360005b838110156103125780820151818401526020810190506102f7565b50505050905090810190601f16801561033f5780820380516001836020036101000a031916815260200191505b50838103825284818151815260200191508051906020019080838360005b8381101561037857808201518184015260208101905061035d565b50505050905090810190601f1680156103a55780820380516001836020036101000a031916815260200191505b509a505050505050505050505060405180910390f35b34156103c657600080fd5b6103dc6004808035906020019091905050611277565b6040518082815260200191505060405180910390f35b34156103fd57600080fd5b61041360048080359060200190919050506112fc565b604051808215151515815260200191505060405180910390f35b341561043857600080fd5b61044e6004808035906020019091905050611367565b6040518082815260200191505060405180910390f35b341561046f57600080fd5b61047761143b565b604051808260ff1660ff16815260200191505060405180910390f35b341561049e57600080fd5b6104a6611452565b6040518082815260200191505060405180910390f35b34156104c757600080fd5b6104cf6114b5565b005b34156104dc57600080fd5b6104e46115d0565b005b34156104f157600080fd5b610507600480803590602001909190505061173a565b6040518083600a6000925b818410156105585782846020020151600260200280838360005b8381101561054757808201518184015260208101905061052c565b505050509050019260010192610512565b925050508281526020019250505060405180910390f35b341561057a57600080fd5b6105d3600480803590602001908201803590602001908080601f01602080910402602001604051908101604052809392919081815260200183838082843782019150505050505091908035906020019091905050611824565b6040518082815260200191505060405180910390f35b34156105f457600080fd5b6105fc61188e565b6040518082815260200191505060405180910390f35b341561061d57600080fd5b61063360048080359060200190919050506118f1565b005b341561064057600080fd5b610648611a82565b005b341561065557600080fd5b61065d611b93565b60405180831515151581526020018281526020019250505060405180910390f35b341561068957600080fd5b61069f6004808035906020019091905050611c1a565b60405180806020018960ff1660ff1681526020018881526020018760ff1660ff1681526020018660ff1660ff1681526020018581526020018481526020018060200183810383528b818151815260200191508051906020019080838360005b838110156107195780820151818401526020810190506106fe565b50505050905090810190601f1680156107465780820380516001836020036101000a031916815260200191505b50838103825284818151815260200191508051906020019080838360005b8381101561077f578082015181840152602081019050610764565b50505050905090810190601f1680156107ac5780820380516001836020036101000a031916815260200191505b509a505050505050505050505060405180910390f35b34156107cd57600080fd5b6107e36004808035906020019091905050611e1a565b604051808881526020018781526020018681526020018581526020018481526020018381526020018215151515815260200197505050505050505060405180910390f35b341561083257600080fd5b61083a611e8f565b60405180806020018960ff1660ff1681526020018881526020018760ff1660ff1681526020018660ff1660ff1681526020018581526020018481526020018060200183810383528b818151815260200191508051906020019080838360005b838110156108b4578082015181840152602081019050610899565b50505050905090810190601f1680156108e15780820380516001836020036101000a031916815260200191505b50838103825284818151815260200191508051906020019080838360005b8381101561091a5780820151818401526020810190506108ff565b50505050905090810190601f1680156109475780820380516001836020036101000a031916815260200191505b509a505050505050505050505060405180910390f35b341561096857600080fd5b61097e6004808035906020019091905050611f1f565b6040518083600a6000925b818410156109cf5782846020020151600260200280838360005b838110156109be5780820151818401526020810190506109a3565b505050509050019260010192610989565b925050508281526020019250505060405180910390f35b34156109f157600080fd5b6109f9612009565b6040518082815260200191505060405180910390f35b3415610a1a57600080fd5b610a30600480803590602001909190505061206c565b005b3415610a3d57600080fd5b610a4561216b565b6040518082815260200191505060405180910390f35b3415610a6657600080fd5b610a7c6004808035906020019091905050612177565b604051808360056000925b81841015610acd5782846020020151600260200280838360005b83811015610abc578082015181840152602081019050610aa1565b505050509050019260010192610a87565b925050508281526020019250505060405180910390f35b3415610aef57600080fd5b610af7612262565b6040518082815260200191505060405180910390f35b3415610b1857600080fd5b610b206122c5565b604051808360056000925b81841015610b715782846020020151600260200280838360005b83811015610b60578082015181840152602081019050610b45565b505050509050019260010192610b2b565b925050508281526020019250505060405180910390f35b3415610b9357600080fd5b610ba96004808035906020019091905050612333565b60405180848152602001838152602001828152602001935050505060405180910390f35b3415610bd857600080fd5b610be0612375565b604051808260ff1660ff16815260200191505060405180910390f35b3415610c0757600080fd5b610c0f61238c565b6040518080602001828103825283818151815260200191508051906020019060200280838360005b83811015610c52578082015181840152602081019050610c37565b505050509050019250505060405180910390f35b3415610c7157600080fd5b610c8760048080359060200190919050506123f6565b6040518082815260200191505060405180910390f35b3415610ca857600080fd5b610cb06124ca565b6040518083600a6000925b81841015610d015782846020020151600260200280838360005b83811015610cf0578082015181840152602081019050610cd5565b505050509050019260010192610cbb565b925050508281526020019250505060405180910390f35b3415610d2357600080fd5b610d2b612538565b005b3415610d3857600080fd5b610d40612544565b6040518082815260200191505060405180910390f35b3415610d6157600080fd5b610d77600480803590602001909190505061258b565b005b3415610d8457600080fd5b610d8c612679565b60405180848152602001838152602001828152602001935050505060405180910390f35b3415610dbb57600080fd5b610dc36126e5565b604051808215151515815260200191505060405180910390f35b3415610de857600080fd5b610df061272e565b6040518083600a6000925b81841015610e415782846020020151600260200280838360005b83811015610e30578082015181840152602081019050610e15565b505050509050019260010192610dfb565b925050508281526020019250505060405180910390f35b3415610e6357600080fd5b610e79600480803590602001909190505061279c565b6040518082815260200191505060405180910390f35b600080600260003373ffffffffffffffffffffffffffffffffffffffff1673ffffffffffffffffffffffffffffffffffffffff168152602001908152602001600020549150600082111515610ee357600080fd5b600082815481101515610ef257fe5b9060005260206000209060070201905082816002015410151515610f1557600080fd5b8281600201600082825403925050819055508281600401600082825401925050819055507fa69a32d5b1ceff1703230cea48ee9c074ec2703823d3f2529c0c711510d6e8568284604051808381526020018281526020019250505060405180910390a1505050565b610f85612ac6565b6000806000610f92612ac6565b600460008781526020019081526020016000205492506000831415610fd8576000604051805910610fc05750595b9080825280602002602001820160405250945061106e565b6000915082604051805910610fea5750595b90808252806020026020018201604052509050600093505b60008054905084101561106a578560008581548110151561101f57fe5b906000526020600020906007020160060154141561105d5783818381518110151561104657fe5b906020019060200201818152505081806001019250505b8380600101945050611002565b8094505b50505050919050565b61107f612ada565b600080600080600080611090612ada565b60008060008b8154811015156110a257fe5b90600052602060002090600702019150600082600601548154811015156110c557fe5b90600052602060002090600702016000019050816000018260010160009054906101000a900460ff1683600201548460010160019054906101000a900460ff168560010160029054906101000a900460ff168660050154876006015487878054600181600116156101000203166002900480601f0160208091040260200160405190810160405280929190818152602001828054600181600116156101000203166002900480156111b75780601f1061118c576101008083540402835291602001916111b7565b820191906000526020600020905b81548152906001019060200180831161119a57829003601f168201915b50505050509750808054600181600116156101000203166002900480601f0160208091040260200160405190810160405280929190818152602001828054600181600116156101000203166002900480156112535780601f1061122857610100808354040283529160200191611253565b820191906000526020600020905b81548152906001019060200180831161123657829003601f168201915b50505050509050995099509950995099509950995099505050919395975091939597565b60008060008381548110151561128957fe5b906000526020600020906007020190506064600b8260010160009054906101000a900460ff1660ff168154811015156112be57fe5b90600052602060002090602091828204019190069054906101000a900460ff1660640160ff168260030154028115156112f357fe5b04915050919050565b6000816000600260003373ffffffffffffffffffffffffffffffffffffffff1673ffffffffffffffffffffffffffffffffffffffff1681526020019081526020016000205481548110151561134d57fe5b906000526020600020906007020160060154149050919050565b60008060008381548110151561137957fe5b906000526020600020906007020190508060010160019054906101000a900460ff1660ff1660640a8160010160019054906101000a900460ff1660ff16600660009054906101000a900460ff1660640160ff160a606460098460010160009054906101000a900460ff1660ff168154811015156113f257fe5b90600052602060002090602091828204019190069054906101000a900460ff1660640160ff1684600201540281151561142757fe5b040281151561143257fe5b04915050919050565b6000600660009054906101000a900460ff16905090565b600080600260003373ffffffffffffffffffffffffffffffffffffffff1673ffffffffffffffffffffffffffffffffffffffff1681526020019081526020016000205490506000811115156114a657600080fd5b6114af81611367565b91505090565b600080600260003373ffffffffffffffffffffffffffffffffffffffff1673ffffffffffffffffffffffffffffffffffffffff16815260200190815260200160002054915060008211151561150957600080fd5b60008281548110151561151857fe5b906000526020600020906007020160010160019054906101000a900460ff169050600e8160ff1610151561154b57600080fd5b6001810190508060008381548110151561156157fe5b906000526020600020906007020160010160016101000a81548160ff021916908360ff1602179055507fc1951a752c7ea5b127e5d8611a8fc5624a02db238afe91956ffb73be75cdd4f58282604051808381526020018260ff1681526020019250505060405180910390a15050565b6000806000600260003373ffffffffffffffffffffffffffffffffffffffff1673ffffffffffffffffffffffffffffffffffffffff168152602001908152602001600020541415151561162257600080fd5b600260003373ffffffffffffffffffffffffffffffffffffffff1673ffffffffffffffffffffffffffffffffffffffff16815260200190815260200160002054915060008211151561167357600080fd5b60008281548110151561168257fe5b906000526020600020906007020160010160029054906101000a900460ff16905060108160ff161015156116b557600080fd5b600181019050806000838154811015156116cb57fe5b906000526020600020906007020160010160026101000a81548160ff021916908360ff1602179055507f3faf8d366ab416cfcf9718489c90f5b4c1ec9a8b968eab74cc30ee2f1c61b6908282604051808381526020018260ff1681526020019250505060405180910390a15050565b611742612aee565b600061174c612aee565b600080600080925060018054905091505b60008211801561176d5750600a83105b1561181557600180830381548110151561178357fe5b90600052602060002090600802019050868160010154141561180757806000015442038484600a811015156117b457fe5b602002015160006002811015156117c757fe5b602002018181525050600182038484600a811015156117e257fe5b602002015160016002811015156117f557fe5b60200201818152505082806001019350505b81806001900392505061175d565b83839550955050505050915091565b600080600260003373ffffffffffffffffffffffffffffffffffffffff1673ffffffffffffffffffffffffffffffffffffffff1681526020019081526020016000205414151561187357600080fd5b6118868383600080600080600080612821565b905092915050565b600080600260003373ffffffffffffffffffffffffffffffffffffffff1673ffffffffffffffffffffffffffffffffffffffff1681526020019081526020016000205490506000811115156118e257600080fd5b6118eb81611277565b91505090565b6000806000806000806000600260003373ffffffffffffffffffffffffffffffffffffffff1673ffffffffffffffffffffffffffffffffffffffff16815260200190815260200160002054965087871415151561194d57600080fd5b611955611452565b9550611960886123f6565b94506000935060009250848611915060018080548060010182816119849190612b1d565b91600052602060002090600802016000610100604051908101604052804281526020018c81526020018d81526020018b81526020018a81526020018981526020018881526020018715158152509091909150600082015181600001556020820151816001015560408201518160020155606082015181600301556080820151816004015560a0820151816005015560c0820151816006015560e08201518160070160006101000a81548160ff02191690831515021790555050500390507f2698d75f814df009b510df39d03c901a6e830c6dfd50922c8fe6bbb794967843816040518082815260200191505060405180910390a15050505050505050565b6000600260003373ffffffffffffffffffffffffffffffffffffffff1673ffffffffffffffffffffffffffffffffffffffff168152602001908152602001600020549050600081111515611ad557600080fd5b60075460056000838152602001908152602001600020544203111515611afa57600080fd5b6004600082815260200190815260200160002054600101606402600082815481101515611b2357fe5b9060005260206000209060070201600201600082825401925050819055504260056000838152602001908152602001600020819055507f60e7be082d1721960e15a9ebd82c9f2e704d97b328525ff70a15e402f40410fb816040518082815260200191505060405180910390a150565b600080600060056000600260003373ffffffffffffffffffffffffffffffffffffffff1673ffffffffffffffffffffffffffffffffffffffff1681526020019081526020016000205481526020019081526020016000205442039050600754811115611c09576001600080905092509250611c15565b60008160075403925092505b509091565b611c22612b4f565b600080600080600080611c33612b4f565b60008060008b815481101515611c4557fe5b9060005260206000209060070201915060008260060154815481101515611c6857fe5b90600052602060002090600702016000019050816000018260010160009054906101000a900460ff1683600201548460010160019054906101000a900460ff168560010160029054906101000a900460ff168660050154876006015487878054600181600116156101000203166002900480601f016020809104026020016040519081016040528092919081815260200182805460018160011615610100020316600290048015611d5a5780601f10611d2f57610100808354040283529160200191611d5a565b820191906000526020600020905b815481529060010190602001808311611d3d57829003601f168201915b50505050509750808054600181600116156101000203166002900480601f016020809104026020016040519081016040528092919081815260200182805460018160011615610100020316600290048015611df65780601f10611dcb57610100808354040283529160200191611df6565b820191906000526020600020905b815481529060010190602001808311611dd957829003601f168201915b50505050509050995099509950995099509950995099505050919395975091939597565b600080600080600080600080600189815481101515611e3557fe5b906000526020600020906008020190508060010154816002015482600301548360040154846005015485600601548660070160009054906101000a900460ff16975097509750975097509750975050919395979092949650565b611e97612ada565b600080600080600080611ea8612ada565b6000600260003373ffffffffffffffffffffffffffffffffffffffff1673ffffffffffffffffffffffffffffffffffffffff168152602001908152602001600020549050600081111515611efb57600080fd5b611f0481611077565b98509850985098509850985098509850509091929394959697565b611f27612aee565b6000611f31612aee565b600080600080925060018054905091505b600082118015611f525750600a83105b15611ffa576001808303815481101515611f6857fe5b906000526020600020906008020190508681600201541415611fec57806000015442038484600a81101515611f9957fe5b60200201516000600281101515611fac57fe5b602002018181525050600182038484600a81101515611fc757fe5b60200201516001600281101515611fda57fe5b60200201818152505082806001019350505b818060019003925050611f42565b83839550955050505050915091565b600080600260003373ffffffffffffffffffffffffffffffffffffffff1673ffffffffffffffffffffffffffffffffffffffff16815260200190815260200160002054905060008111151561205d57600080fd5b6120668161279c565b91505090565b6000600260003373ffffffffffffffffffffffffffffffffffffffff1673ffffffffffffffffffffffffffffffffffffffff168152602001908152602001600020549050816000828154811015156120c057fe5b906000526020600020906007020160060154141515156120df57600080fd5b60016004600080848154811015156120f357fe5b906000526020600020906007020160060154815260200190815260200160002060008282540392505081905550600160046000848152602001908152602001600020600082825401925050819055508160008281548110151561215257fe5b9060005260206000209060070201600601819055505050565b60008080549050905090565b61217f612b63565b6000612189612b63565b600080600080925060018054905091505b6000821180156121aa5750600583105b156122535760018083038154811015156121c057fe5b906000526020600020906008020190508681600201541415612245578060000154420384846005811015156121f157fe5b6020020151600060028110151561220457fe5b6020020181815250508060010154848460058110151561222057fe5b6020020151600160028110151561223357fe5b60200201818152505082806001019350505b81806001900392505061219a565b83839550955050505050915091565b600080600260003373ffffffffffffffffffffffffffffffffffffffff1673ffffffffffffffffffffffffffffffffffffffff1681526020019081526020016000205490506000811115156122b657600080fd5b6122bf816123f6565b91505090565b6122cd612b63565b600080600260003373ffffffffffffffffffffffffffffffffffffffff1673ffffffffffffffffffffffffffffffffffffffff16815260200190815260200160002054905060008111151561232157600080fd5b61232a81612177565b92509250509091565b60008060008060008581548110151561234857fe5b90600052602060002090600702019050806002015481600301548260040154935093509350509193909250565b6000600660019054906101000a900460ff16905090565b612394612ac6565b6000600260003373ffffffffffffffffffffffffffffffffffffffff1673ffffffffffffffffffffffffffffffffffffffff1681526020019081526020016000205490506000811115156123e757600080fd5b6123f081610f7d565b91505090565b60008060008381548110151561240857fe5b906000526020600020906007020190508060010160029054906101000a900460ff1660ff1660640a8160010160029054906101000a900460ff1660ff16600660019054906101000a900460ff1660640160ff160a6064600a8460010160009054906101000a900460ff1660ff1681548110151561248157fe5b90600052602060002090602091828204019190069054906101000a900460ff1660640160ff168460020154028115156124b657fe5b04028115156124c157fe5b04915050919050565b6124d2612aee565b600080600260003373ffffffffffffffffffffffffffffffffffffffff1673ffffffffffffffffffffffffffffffffffffffff16815260200190815260200160002054905060008111151561252657600080fd5b61252f8161173a565b92509250509091565b612542600061206c565b565b6000600260003373ffffffffffffffffffffffffffffffffffffffff1673ffffffffffffffffffffffffffffffffffffffff16815260200190815260200160002054905090565b600080600260003373ffffffffffffffffffffffffffffffffffffffff1673ffffffffffffffffffffffffffffffffffffffff1681526020019081526020016000205491506000821115156125df57600080fd5b6000828154811015156125ee57fe5b906000526020600020906007020190508281600201541015151561261157600080fd5b8281600201600082825403925050819055508281600301600082825401925050819055507f298f72ff5878642622d1b6189cf8abc10cfa20471bc3fb0ccc3e28ff74e24d238284604051808381526020018281526020019250505060405180910390a1505050565b600080600080600260003373ffffffffffffffffffffffffffffffffffffffff1673ffffffffffffffffffffffffffffffffffffffff1681526020019081526020016000205490506000811115156126d057600080fd5b6126d981612333565b93509350935050909192565b600080600260003373ffffffffffffffffffffffffffffffffffffffff1673ffffffffffffffffffffffffffffffffffffffff1681526020019081526020016000205411905090565b612736612aee565b600080600260003373ffffffffffffffffffffffffffffffffffffffff1673ffffffffffffffffffffffffffffffffffffffff16815260200190815260200160002054905060008111151561278a57600080fd5b61279381611f1f565b92509250509091565b6000806000838154811015156127ae57fe5b906000526020600020906007020190506064600c8260010160009054906101000a900460ff1660ff168154811015156127e357fe5b90600052602060002090602091828204019190069054906101000a900460ff1660640160ff1682600401540281151561281857fe5b04915050919050565b60008060016000805480600101828161283a9190612b92565b91600052602060002090600702016000610120604051908101604052808f81526020018e60ff1681526020018d60ff1681526020018c60ff1681526020018b81526020018a81526020018981526020016000815260200188815250909190915060008201518160000190805190602001906128b6929190612bc4565b5060208201518160010160006101000a81548160ff021916908360ff16021790555060408201518160010160016101000a81548160ff021916908360ff16021790555060608201518160010160026101000a81548160ff021916908360ff1602179055506080820151816002015560a0820151816003015560c0820151816004015560e0820151816005015561010082015181600601555050039050336003600083815260200190815260200160002060006101000a81548173ffffffffffffffffffffffffffffffffffffffff021916908373ffffffffffffffffffffffffffffffffffffffff16021790555080600260003373ffffffffffffffffffffffffffffffffffffffff1673ffffffffffffffffffffffffffffffffffffffff16815260200190815260200160002081905550600160046000858152602001908152602001600020600082825401925050819055507f8903d00f136209d2fb29b581df936c8cbc1f7f2f70aafe69e061eff9527d7cbd818b8b6040518084815260200180602001838152602001828103825284818151815260200191508051906020019080838360005b83811015612a7a578082015181840152602081019050612a5f565b50505050905090810190601f168015612aa75780820380516001836020036101000a031916815260200191505b5094505050505060405180910390a18091505098975050505050505050565b602060405190810160405280600081525090565b602060405190810160405280600081525090565b61028060405190810160405280600a905b612b07612c44565b815260200190600190039081612aff5790505090565b815481835581811511612b4a57600802816008028360005260206000209182019101612b499190612c6b565b5b505050565b602060405190810160405280600081525090565b610140604051908101604052806005905b612b7c612c44565b815260200190600190039081612b745790505090565b815481835581811511612bbf57600702816007028360005260206000209182019101612bbe9190612cd6565b5b505050565b828054600181600116156101000203166002900490600052602060002090601f016020900481019282601f10612c0557805160ff1916838001178555612c33565b82800160010185558215612c33579182015b82811115612c32578251825591602001919060010190612c17565b5b509050612c409190612d69565b5090565b60408051908101604052806002905b6000815260200190600190039081612c535790505090565b612cd391905b80821115612ccf576000808201600090556001820160009055600282016000905560038201600090556004820160009055600582016000905560068201600090556007820160006101000a81549060ff021916905550600801612c71565b5090565b90565b612d6691905b80821115612d625760008082016000612cf59190612d8e565b6001820160006101000a81549060ff02191690556001820160016101000a81549060ff02191690556001820160026101000a81549060ff02191690556002820160009055600382016000905560048201600090556005820160009055600682016000905550600701612cdc565b5090565b90565b612d8b91905b80821115612d87576000816000905550600101612d6f565b5090565b90565b50805460018160011615610100020316600290046000825580601f10612db45750612dd3565b601f016020900490600052602060002090810190612dd29190612d69565b5b505600a165627a7a72305820976516c0cd68b77389b7e11aaadc6317eefba481ddedce4f141cc489909c598d0029",
  "source": "pragma solidity ^0.4.17;\n\ncontract KingdomFactory {\n\n    event NewKingdom(uint kingdomId, string name, uint race);\n    event UpgradeWeapon(uint kingdomId, uint weaponLevel);\n    event UpgradeFortress(uint kingdomId, uint fortressLevel);\n    event BattleCompleted(uint battleId);\n    event Recruit(uint kingdomId);\n    event TrainedSpies(uint kingdomId, uint count);\n    event TrainedSentries(uint kingdomId, uint count);\n\n    Kingdom[] private kingdoms;\n    Battle[] private battles;\n\n    mapping (address => uint256) private kingdomOf;\n    mapping (uint256 => address) private kingdomToOwner;\n    mapping (uint256 => uint256) private numOfOfficers;\n    mapping (uint256 => uint256) private recruitTime;\n\n    uint8 private weaponMultiplier = 30;\n    uint8 private fortressMultiplier = 25;\n    uint256 private recruitCooldown = 5 minutes; // 6 hours;\n\n    uint8[] private incomeBonus     = [  0, 30, 15,  0,  0,  0];\n    uint8[] private attackBonus     = [100,  0,  0,  0, 35,  0];\n    uint8[] private defenseBonus    = [100,  0, 40,  0, 20,  0];\n    uint8[] private spyBonus        = [100, 35,  0, 45,  0,  0];\n    uint8[] private sentryBonus     = [100,  0,  0,  0,  0, 35];\n    uint8[] private fewerCasualties = [ 50,  0,  0, 70,  0, 85];\n    \n\n    struct Kingdom {\n      string name;\n      uint8 race; //0 - human; 1 - dwarves; \n      uint8 weaponLevel;\n      uint8 fortressLevel;\n      uint256 numOfSoldiers;\n      uint256 numOfSpies;\n      uint256 numOfSentries;\n      uint256 gold;\n      uint256 commander;\n    }\n\n    struct Battle {\n      uint256 time;\n      uint256 attacker;\n      uint256 defender;\n      uint256 attacker_damage;\n      uint256 defender_damage;\n      uint256 attacker_casualties;\n      uint256 defender_casualties;\n      bool success;\n    }\n\n    modifier onlyUser(uint _id){\n      require(msg.sender == kingdomToOwner[_id]);\n      _;\n    }\n\n    function KingdomFactory() public {\n      _createKingdom(\"God\", 0, 14, 16, 1000000, 10000, 10000, 0);\n      _createKingdom(\"God\\'s Right Hand\", 0, 12, 14, 100000, 1000, 1000, 0);\n      _createKingdom(\"God\\'s Left Hand\", 0, 12, 14, 100000, 1000, 1000, 0);\n    }\n\n    function _createKingdom(string _name, uint _race, uint8 weaponLevel, uint8 fortressLevel,\n      uint _numOfSoldiers, uint _numOfSpies, uint _numOfSentries, uint _commander) private returns (uint){\n\n      uint id = kingdoms.push(Kingdom(_name, uint8(_race), weaponLevel, fortressLevel, _numOfSoldiers, _numOfSpies, _numOfSentries, 0, _commander)) - 1;\n      kingdomToOwner[id] = msg.sender;\n      kingdomOf[msg.sender] = id;\n      numOfOfficers[_commander] += 1;\n      NewKingdom(id, _name, _race);\n      return id;\n    }\n\n    function createNewKingdom(string _name, uint _race) public returns (uint){\n      require(kingdomOf[msg.sender] == 0);\n      return _createKingdom(_name, _race, 0, 0, 0, 0, 0, 0);\n    }\n\n    function getKingdomTest(uint _id) public view returns (bytes, uint8, uint, uint8, uint8, uint, uint, bytes) {\n      var kingdom = kingdoms[_id];\n      var commanderName = kingdoms[kingdom.commander].name;\n      return (bytes(kingdom.name), kingdom.race, kingdom.numOfSoldiers,\n          kingdom.weaponLevel, kingdom.fortressLevel, kingdom.gold,\n          kingdom.commander, bytes(commanderName));\n    }\n\n    function getKingdom(uint _id) public view returns (string, uint8, uint, uint8, uint8, uint, uint, string) {\n      var kingdom = kingdoms[_id];\n      var commanderName = kingdoms[kingdom.commander].name;\n      return (kingdom.name, kingdom.race, kingdom.numOfSoldiers,\n          kingdom.weaponLevel, kingdom.fortressLevel, kingdom.gold,\n          kingdom.commander, commanderName);\n    }\n\n    function getPersonnel(uint _id) public view returns (uint256, uint256, uint256) {\n      var kingdom = kingdoms[_id];\n      return (kingdom.numOfSoldiers, kingdom.numOfSpies, kingdom.numOfSentries);\n    }\n\n    function getWeaponMultiplier() public view returns (uint8) {\n      return weaponMultiplier;\n    }\n\n    function getFortressMultiplier() public view returns (uint8) {\n      return fortressMultiplier;\n    }\n\n\n    /// @notice Returns a list of all kingdom IDs that are officers of target commander.\n    /// @param _commanderId The ID of the commander we are interested in.\n    /// @dev This method MUST NEVER be called by smart contract code. First, it's fairly\n    ///  expensive (it walks the entire kingdoms array looking for kingdoms belonging to commander),\n    ///  but it also returns a dynamic array, which is only supported for web3 calls, and\n    ///  not contract-to-contract calls.\n    function getOfficers(uint _commanderId) public view returns (uint[]){\n      uint256 id;\n      uint256 officerCount = numOfOfficers[_commanderId];\n      if(officerCount == 0){\n        // Return an empty array\n        return new uint256[](0);\n      } else {\n        uint256 officerIndex = 0;\n        uint256[] memory officers = new uint256[](officerCount);\n\n        // We count on the fact that all kingdoms have IDs starting at 1 and increasing\n        // sequentially up to kingdoms.length.\n        for(id = 0; id < kingdoms.length; id++){\n          if(kingdoms[id].commander == _commanderId){\n            officers[officerIndex] = id;\n            officerIndex++;\n          }\n        }\n        return officers;\n      }\n    }\n\n    function getMyOfficers() external view returns (uint[]){\n      uint256 id = kingdomOf[msg.sender];\n      require(id > 0);\n      return getOfficers(id);\n    }\n\n    function haveKingdom() public view returns (bool) {\n      return (kingdomOf[msg.sender] > 0);\n    }\n\n    function getMyKingdomId() public view returns (uint){\n      return (kingdomOf[msg.sender]);\n    }\n\n    function getMyKingdom() public view returns (string, uint8, uint, uint8, uint8, uint, uint, string) {\n      uint256 id = kingdomOf[msg.sender];\n      require(id > 0);\n      return getKingdom(id);\n    }\n\n    function getMyPersonnel() public view returns (uint256, uint256, uint256) {\n      uint256 id = kingdomOf[msg.sender];\n      require(id > 0);\n      return getPersonnel(id);\n    }\n\n    function getKingdomCount() public view returns (uint) {\n      return kingdoms.length;\n    }\n\n    /********** User-Specific Actions **********\n      #assignCommander - Assign new commander\n      #upgradeWeapon   - Upgrade weapon by 1 level\n      #upgradeFortress - Upgrade fortress by 1 level\n    */\n\n    function assignCommander(uint _commanderId) public {\n      uint256 id = kingdomOf[msg.sender];\n      require(kingdoms[id].commander != _commanderId);\n      numOfOfficers[kingdoms[id].commander] -= 1;\n      numOfOfficers[_commanderId] += 1;\n      kingdoms[id].commander = _commanderId;\n    }\n\n    function ditchCommander() public {\n      assignCommander(0);\n    }\n\n    function isCommander(uint _id) public view returns (bool) {\n      return (kingdoms[kingdomOf[msg.sender]].commander == _id);\n    }\n\n    function upgradeWeapon() public {\n      uint256 id = kingdomOf[msg.sender];\n      require(id > 0);\n      uint8 level = kingdoms[id].weaponLevel;\n      require(level < 14);\n      level += 1;\n      kingdoms[id].weaponLevel = level;\n      UpgradeWeapon(id, level);\n    }\n\n    function upgradeFortress() public {\n      require(kingdomOf[msg.sender] != 0);\n      uint256 id = kingdomOf[msg.sender];\n      require(id > 0);\n      uint8 level = kingdoms[id].fortressLevel;\n      require(level < 16);\n      level += 1;\n      kingdoms[id].fortressLevel = level;\n      UpgradeFortress(id, level);\n    }\n\n    function strikeAction(uint256 _id) public view returns (uint256) {\n        var kingdom = kingdoms[_id];\n        return kingdom.numOfSoldiers * (100 + attackBonus[kingdom.race]) / 100 * (uint256(100 + weaponMultiplier) ** uint256(kingdom.weaponLevel)) / (100 ** uint256(kingdom.weaponLevel));\n    }\n\n    function myStrikeAction() public view returns (uint256) {\n      var id = kingdomOf[msg.sender];\n      require(id > 0);\n      return strikeAction(id);\n    }\n\n    function defensiveAction(uint256 _id) public view returns (uint256) {\n        var kingdom = kingdoms[_id];\n        return kingdom.numOfSoldiers * (100 + defenseBonus[kingdom.race]) / 100 * (uint256(100 + fortressMultiplier) ** uint256(kingdom.fortressLevel)) / (100 ** uint256(kingdom.fortressLevel));\n    }\n\n    function myDefensiveAction() public view returns (uint256) {\n      var id = kingdomOf[msg.sender];\n      require(id > 0);\n      return defensiveAction(id);\n    }\n\n    function spyRating(uint256 _id) public view returns (uint256) {\n        var kingdom = kingdoms[_id];\n        return kingdom.numOfSpies * (100 + spyBonus[kingdom.race]) / 100;\n    }\n\n    function mySpyRating() public view returns (uint256) {\n      var id = kingdomOf[msg.sender];\n      require(id > 0);\n      return spyRating(id);\n    }\n\n    function sentryRating(uint256 _id) public view returns (uint256) {\n        var kingdom = kingdoms[_id];\n        return kingdom.numOfSentries * (100 + sentryBonus[kingdom.race]) / 100;\n    }\n\n    function mySentryRating() public view returns (uint256) {\n      var id = kingdomOf[msg.sender];\n      require(id > 0);\n      return sentryRating(id);\n    }\n\n    function attack(uint256 _targetID) public {\n      uint256 attacker = kingdomOf[msg.sender];\n      require(attacker != _targetID);\n      uint256 attacker_damage = myStrikeAction();\n      uint256 defender_damage = defensiveAction(_targetID);\n      uint256 attacker_casualties = 0;\n      uint256 defender_casualties = 0;\n      bool success = attacker_damage > defender_damage;\n      uint256 battleID = battles.push(Battle(now, attacker, _targetID, attacker_damage, defender_damage, attacker_casualties, defender_casualties, success)) - 1;\n      BattleCompleted(battleID);\n    }\n\n    function getBattle(uint _id) public view returns (uint256, uint256, uint256, uint256, uint256, uint256, bool) {\n      var battle = battles[_id];\n      return (battle.attacker, battle.defender, battle.attacker_damage, battle.defender_damage,\n          battle.attacker_casualties, battle.defender_casualties, battle.success);\n    }\n\n    function getRecentAttacks(uint _id) public view returns(uint[2][5], uint){\n      uint[2][5] memory result;\n      uint count = 0;\n      uint battleId;\n\n      for(battleId = battles.length; battleId > 0 && count < 5; battleId--){\n        var battle = battles[battleId - 1];\n        if(battle.defender == _id){\n          //result[count] = battleId - 1;\n          result[count][0] = now - battle.time;\n          result[count][1] = battle.attacker;\n          count++;\n        }\n      }\n      return (result, count);\n    }\n\n    function getMyRecentAttacks() public view returns(uint[2][5], uint){\n      var id = kingdomOf[msg.sender];\n      require(id > 0);\n      return getRecentAttacks(id);\n    }\n\n    function getRecent10IncomingAttacks(uint _id) public view returns(uint[2][10], uint){\n      uint[2][10] memory result;\n      uint count = 0;\n      uint battleId;\n\n      for(battleId = battles.length; battleId > 0 && count < 10; battleId--){\n        var battle = battles[battleId - 1];\n        if(battle.defender == _id){\n          result[count][0] = now - battle.time;\n          result[count][1] = battleId - 1;\n          count++;\n        }\n      }\n      return (result, count);\n    }\n\n    function getRecent10OutgoingAttacks(uint _id) public view returns(uint[2][10], uint){\n      uint[2][10] memory result;\n      uint count = 0;\n      uint battleId;\n\n      for(battleId = battles.length; battleId > 0 && count < 10; battleId--){\n        var battle = battles[battleId - 1];\n        if(battle.attacker == _id){\n          result[count][0] = now - battle.time;\n          result[count][1] = battleId - 1;\n          count++;\n        }\n      }\n      return (result, count);\n    }\n\n    function getMyRecent10IncomingAttacks() public view returns(uint[2][10], uint){\n      var id = kingdomOf[msg.sender];\n      require(id > 0);\n      return getRecent10IncomingAttacks(id);\n    }\n\n    function getMyRecent10OutgoingAttacks() public view returns(uint[2][10], uint){\n      var id = kingdomOf[msg.sender];\n      require(id > 0);\n      return getRecent10OutgoingAttacks(id);\n    }\n\n    //returns true,0 if can recruit, otherwise returns false and number of seconds remaining\n    function canRecruit() public view returns (bool, uint256){\n      uint256 timePassed = now - recruitTime[kingdomOf[msg.sender]];\n      if(timePassed > recruitCooldown){\n        return (true, 0);\n      }\n      return (false, recruitCooldown - timePassed);\n    }\n\n    function recruit() public {\n      var id = kingdomOf[msg.sender];\n      require(id > 0);\n      require (now - recruitTime[id] > recruitCooldown);\n      kingdoms[id].numOfSoldiers += 100 * (1 + numOfOfficers[id]);\n      recruitTime[id] = now;\n      Recruit(id);\n    }\n\n    function trainSpies(uint256 _count) public {\n      var id = kingdomOf[msg.sender];\n      require(id > 0);\n      var kingdom = kingdoms[id];\n      require (kingdom.numOfSoldiers >= _count);\n      kingdom.numOfSoldiers -= _count;\n      kingdom.numOfSpies += _count;\n      TrainedSpies(id, _count);\n    }\n\n    function trainSentries(uint256 _count) public {\n      var id = kingdomOf[msg.sender];\n      require(id > 0);\n      var kingdom = kingdoms[id];\n      require (kingdom.numOfSoldiers >= _count);\n      kingdom.numOfSoldiers -= _count;\n      kingdom.numOfSentries += _count;\n      TrainedSentries(id, _count);\n    }\n}",
  "sourcePath": "/home/kevinlee/Data/Personal/KingsOfChaos/contracts/KingdomFactory.sol",
  "compiler": {
    "name": "solc",
    "version": "0.4.19+commit.c4cbbb05.Emscripten.clang"
  },
  "schemaVersion": "1.0.1",
  "updatedAt": "2018-03-01T00:57:43.479Z"
}