{
  "contractName": "KingdomFactory4",
  "abi": [
    {
      "inputs": [],
      "payable": false,
      "stateMutability": "nonpayable",
      "type": "constructor"
    },
    {
      "anonymous": false,
      "inputs": [
        {
          "indexed": false,
          "name": "kingdomId",
          "type": "uint256"
        },
        {
          "indexed": false,
          "name": "name",
          "type": "string"
        },
        {
          "indexed": false,
          "name": "race",
          "type": "uint256"
        }
      ],
      "name": "NewKingdom",
      "type": "event"
    },
    {
      "anonymous": false,
      "inputs": [
        {
          "indexed": false,
          "name": "kingdomId",
          "type": "uint256"
        },
        {
          "indexed": false,
          "name": "race",
          "type": "uint256"
        }
      ],
      "name": "ChangedRace",
      "type": "event"
    },
    {
      "anonymous": false,
      "inputs": [
        {
          "indexed": false,
          "name": "kingdomId",
          "type": "uint256"
        },
        {
          "indexed": false,
          "name": "weaponLevel",
          "type": "uint256"
        }
      ],
      "name": "UpgradeWeapon",
      "type": "event"
    },
    {
      "anonymous": false,
      "inputs": [
        {
          "indexed": false,
          "name": "kingdomId",
          "type": "uint256"
        },
        {
          "indexed": false,
          "name": "fortressLevel",
          "type": "uint256"
        }
      ],
      "name": "UpgradeFortress",
      "type": "event"
    },
    {
      "anonymous": false,
      "inputs": [
        {
          "indexed": false,
          "name": "kingdomId",
          "type": "uint256"
        },
        {
          "indexed": false,
          "name": "covertLevel",
          "type": "uint256"
        }
      ],
      "name": "UpgradeCovert",
      "type": "event"
    },
    {
      "anonymous": false,
      "inputs": [
        {
          "indexed": false,
          "name": "battleId",
          "type": "uint256"
        }
      ],
      "name": "BattleCompleted",
      "type": "event"
    },
    {
      "anonymous": false,
      "inputs": [
        {
          "indexed": false,
          "name": "kingdomId",
          "type": "uint256"
        }
      ],
      "name": "Recruit",
      "type": "event"
    },
    {
      "anonymous": false,
      "inputs": [
        {
          "indexed": false,
          "name": "kingdomId",
          "type": "uint256"
        },
        {
          "indexed": false,
          "name": "commanderId",
          "type": "uint256"
        }
      ],
      "name": "CommanderAssigned",
      "type": "event"
    },
    {
      "anonymous": false,
      "inputs": [
        {
          "indexed": false,
          "name": "kingdomId",
          "type": "uint256"
        },
        {
          "indexed": false,
          "name": "count",
          "type": "uint256"
        }
      ],
      "name": "TrainedAttackSpecialists",
      "type": "event"
    },
    {
      "anonymous": false,
      "inputs": [
        {
          "indexed": false,
          "name": "kingdomId",
          "type": "uint256"
        },
        {
          "indexed": false,
          "name": "count",
          "type": "uint256"
        }
      ],
      "name": "TrainedDefenseSpecialists",
      "type": "event"
    },
    {
      "anonymous": false,
      "inputs": [
        {
          "indexed": false,
          "name": "kingdomId",
          "type": "uint256"
        },
        {
          "indexed": false,
          "name": "count",
          "type": "uint256"
        }
      ],
      "name": "ReassignedAttackSpecialists",
      "type": "event"
    },
    {
      "anonymous": false,
      "inputs": [
        {
          "indexed": false,
          "name": "kingdomId",
          "type": "uint256"
        },
        {
          "indexed": false,
          "name": "count",
          "type": "uint256"
        }
      ],
      "name": "ReassignedDefenseSpecialists",
      "type": "event"
    },
    {
      "anonymous": false,
      "inputs": [
        {
          "indexed": false,
          "name": "kingdomId",
          "type": "uint256"
        },
        {
          "indexed": false,
          "name": "count",
          "type": "uint256"
        }
      ],
      "name": "TrainedSpies",
      "type": "event"
    },
    {
      "anonymous": false,
      "inputs": [
        {
          "indexed": false,
          "name": "kingdomId",
          "type": "uint256"
        },
        {
          "indexed": false,
          "name": "count",
          "type": "uint256"
        }
      ],
      "name": "TrainedSentries",
      "type": "event"
    },
    {
      "anonymous": false,
      "inputs": [
        {
          "indexed": false,
          "name": "id",
          "type": "uint256"
        },
        {
          "indexed": false,
          "name": "attackMercsCount",
          "type": "uint256"
        },
        {
          "indexed": false,
          "name": "defenseMercsCount",
          "type": "uint256"
        }
      ],
      "name": "PurchasedMercs",
      "type": "event"
    },
    {
      "constant": false,
      "inputs": [
        {
          "name": "_name",
          "type": "string"
        },
        {
          "name": "_race",
          "type": "uint256"
        },
        {
          "name": "_commanderId",
          "type": "uint256"
        }
      ],
      "name": "createNewKingdom",
      "outputs": [
        {
          "name": "",
          "type": "uint256"
        }
      ],
      "payable": false,
      "stateMutability": "nonpayable",
      "type": "function"
    },
    {
      "constant": true,
      "inputs": [
        {
          "name": "_id",
          "type": "uint256"
        }
      ],
      "name": "getKingdom",
      "outputs": [
        {
          "name": "",
          "type": "string"
        },
        {
          "name": "",
          "type": "uint8"
        },
        {
          "name": "",
          "type": "uint8[4]"
        },
        {
          "name": "",
          "type": "uint256"
        },
        {
          "name": "",
          "type": "uint256"
        },
        {
          "name": "",
          "type": "uint256"
        },
        {
          "name": "",
          "type": "string"
        }
      ],
      "payable": false,
      "stateMutability": "view",
      "type": "function"
    },
    {
      "constant": true,
      "inputs": [
        {
          "name": "_targetId",
          "type": "uint256"
        }
      ],
      "name": "spyOnPersonnel",
      "outputs": [
        {
          "name": "",
          "type": "bool"
        },
        {
          "name": "",
          "type": "uint256[7]"
        }
      ],
      "payable": false,
      "stateMutability": "view",
      "type": "function"
    },
    {
      "constant": true,
      "inputs": [],
      "name": "getWeaponMultiplier",
      "outputs": [
        {
          "name": "",
          "type": "uint8"
        }
      ],
      "payable": false,
      "stateMutability": "view",
      "type": "function"
    },
    {
      "constant": true,
      "inputs": [],
      "name": "getFortressMultiplier",
      "outputs": [
        {
          "name": "",
          "type": "uint8"
        }
      ],
      "payable": false,
      "stateMutability": "view",
      "type": "function"
    },
    {
      "constant": true,
      "inputs": [
        {
          "name": "_commanderId",
          "type": "uint256"
        }
      ],
      "name": "getOfficers",
      "outputs": [
        {
          "name": "",
          "type": "uint256[]"
        }
      ],
      "payable": false,
      "stateMutability": "view",
      "type": "function"
    },
    {
      "constant": true,
      "inputs": [],
      "name": "getMyOfficers",
      "outputs": [
        {
          "name": "",
          "type": "uint256[]"
        }
      ],
      "payable": false,
      "stateMutability": "view",
      "type": "function"
    },
    {
      "constant": true,
      "inputs": [],
      "name": "haveKingdom",
      "outputs": [
        {
          "name": "",
          "type": "bool"
        }
      ],
      "payable": false,
      "stateMutability": "view",
      "type": "function"
    },
    {
      "constant": true,
      "inputs": [],
      "name": "getMyKingdomId",
      "outputs": [
        {
          "name": "",
          "type": "uint256"
        }
      ],
      "payable": false,
      "stateMutability": "view",
      "type": "function"
    },
    {
      "constant": true,
      "inputs": [
        {
          "name": "_id",
          "type": "uint256"
        }
      ],
      "name": "isMyKingdomId",
      "outputs": [
        {
          "name": "",
          "type": "bool"
        }
      ],
      "payable": false,
      "stateMutability": "view",
      "type": "function"
    },
    {
      "constant": true,
      "inputs": [],
      "name": "getMyKingdom",
      "outputs": [
        {
          "name": "",
          "type": "string"
        },
        {
          "name": "",
          "type": "uint8"
        },
        {
          "name": "",
          "type": "uint8[4]"
        },
        {
          "name": "",
          "type": "uint256"
        },
        {
          "name": "",
          "type": "uint256"
        },
        {
          "name": "",
          "type": "uint256"
        },
        {
          "name": "",
          "type": "string"
        }
      ],
      "payable": false,
      "stateMutability": "view",
      "type": "function"
    },
    {
      "constant": true,
      "inputs": [],
      "name": "getMyPersonnel",
      "outputs": [
        {
          "name": "",
          "type": "uint256[7]"
        }
      ],
      "payable": false,
      "stateMutability": "view",
      "type": "function"
    },
    {
      "constant": true,
      "inputs": [],
      "name": "getKingdomCount",
      "outputs": [
        {
          "name": "",
          "type": "uint256"
        }
      ],
      "payable": false,
      "stateMutability": "view",
      "type": "function"
    },
    {
      "constant": false,
      "inputs": [
        {
          "name": "_commanderId",
          "type": "uint256"
        }
      ],
      "name": "assignCommander",
      "outputs": [],
      "payable": false,
      "stateMutability": "nonpayable",
      "type": "function"
    },
    {
      "constant": false,
      "inputs": [],
      "name": "ditchCommander",
      "outputs": [],
      "payable": false,
      "stateMutability": "nonpayable",
      "type": "function"
    },
    {
      "constant": true,
      "inputs": [
        {
          "name": "_id",
          "type": "uint256"
        }
      ],
      "name": "isCommander",
      "outputs": [
        {
          "name": "",
          "type": "bool"
        }
      ],
      "payable": false,
      "stateMutability": "view",
      "type": "function"
    },
    {
      "constant": false,
      "inputs": [
        {
          "name": "_race",
          "type": "uint8"
        }
      ],
      "name": "changeRace",
      "outputs": [],
      "payable": false,
      "stateMutability": "nonpayable",
      "type": "function"
    },
    {
      "constant": false,
      "inputs": [],
      "name": "upgradeWeapon",
      "outputs": [],
      "payable": false,
      "stateMutability": "nonpayable",
      "type": "function"
    },
    {
      "constant": false,
      "inputs": [],
      "name": "upgradeFortress",
      "outputs": [],
      "payable": false,
      "stateMutability": "nonpayable",
      "type": "function"
    },
    {
      "constant": false,
      "inputs": [],
      "name": "upgradeCovert",
      "outputs": [],
      "payable": false,
      "stateMutability": "nonpayable",
      "type": "function"
    },
    {
      "constant": true,
      "inputs": [
        {
          "name": "_id",
          "type": "uint256"
        }
      ],
      "name": "strikeAction",
      "outputs": [
        {
          "name": "",
          "type": "uint256"
        }
      ],
      "payable": false,
      "stateMutability": "view",
      "type": "function"
    },
    {
      "constant": true,
      "inputs": [],
      "name": "myStrikeAction",
      "outputs": [
        {
          "name": "",
          "type": "uint256"
        }
      ],
      "payable": false,
      "stateMutability": "view",
      "type": "function"
    },
    {
      "constant": true,
      "inputs": [
        {
          "name": "_id",
          "type": "uint256"
        }
      ],
      "name": "defensiveAction",
      "outputs": [
        {
          "name": "",
          "type": "uint256"
        }
      ],
      "payable": false,
      "stateMutability": "view",
      "type": "function"
    },
    {
      "constant": true,
      "inputs": [],
      "name": "myDefensiveAction",
      "outputs": [
        {
          "name": "",
          "type": "uint256"
        }
      ],
      "payable": false,
      "stateMutability": "view",
      "type": "function"
    },
    {
      "constant": true,
      "inputs": [
        {
          "name": "_id",
          "type": "uint256"
        }
      ],
      "name": "spyRating",
      "outputs": [
        {
          "name": "",
          "type": "uint256"
        }
      ],
      "payable": false,
      "stateMutability": "view",
      "type": "function"
    },
    {
      "constant": true,
      "inputs": [],
      "name": "mySpyRating",
      "outputs": [
        {
          "name": "",
          "type": "uint256"
        }
      ],
      "payable": false,
      "stateMutability": "view",
      "type": "function"
    },
    {
      "constant": true,
      "inputs": [
        {
          "name": "_id",
          "type": "uint256"
        }
      ],
      "name": "sentryRating",
      "outputs": [
        {
          "name": "",
          "type": "uint256"
        }
      ],
      "payable": false,
      "stateMutability": "view",
      "type": "function"
    },
    {
      "constant": true,
      "inputs": [],
      "name": "mySentryRating",
      "outputs": [
        {
          "name": "",
          "type": "uint256"
        }
      ],
      "payable": false,
      "stateMutability": "view",
      "type": "function"
    },
    {
      "constant": true,
      "inputs": [],
      "name": "canAttack",
      "outputs": [
        {
          "name": "",
          "type": "bool"
        },
        {
          "name": "",
          "type": "uint256"
        }
      ],
      "payable": false,
      "stateMutability": "view",
      "type": "function"
    },
    {
      "constant": false,
      "inputs": [
        {
          "name": "_targetID",
          "type": "uint256"
        }
      ],
      "name": "attack",
      "outputs": [],
      "payable": false,
      "stateMutability": "nonpayable",
      "type": "function"
    },
    {
      "constant": true,
      "inputs": [
        {
          "name": "_id",
          "type": "uint256"
        }
      ],
      "name": "getBattle",
      "outputs": [
        {
          "name": "",
          "type": "uint256"
        },
        {
          "name": "",
          "type": "uint256"
        },
        {
          "name": "",
          "type": "uint256"
        },
        {
          "name": "",
          "type": "uint256"
        },
        {
          "name": "",
          "type": "uint256"
        },
        {
          "name": "",
          "type": "uint256"
        },
        {
          "name": "",
          "type": "bool"
        }
      ],
      "payable": false,
      "stateMutability": "view",
      "type": "function"
    },
    {
      "constant": true,
      "inputs": [
        {
          "name": "_id",
          "type": "uint256"
        }
      ],
      "name": "getRecentAttacks",
      "outputs": [
        {
          "name": "",
          "type": "uint256[2][5]"
        },
        {
          "name": "",
          "type": "uint256"
        }
      ],
      "payable": false,
      "stateMutability": "view",
      "type": "function"
    },
    {
      "constant": true,
      "inputs": [],
      "name": "getMyRecentAttacks",
      "outputs": [
        {
          "name": "",
          "type": "uint256[2][5]"
        },
        {
          "name": "",
          "type": "uint256"
        }
      ],
      "payable": false,
      "stateMutability": "view",
      "type": "function"
    },
    {
      "constant": true,
      "inputs": [
        {
          "name": "_id",
          "type": "uint256"
        }
      ],
      "name": "getRecent10IncomingAttacks",
      "outputs": [
        {
          "name": "",
          "type": "uint256[2][10]"
        },
        {
          "name": "",
          "type": "uint256"
        }
      ],
      "payable": false,
      "stateMutability": "view",
      "type": "function"
    },
    {
      "constant": true,
      "inputs": [
        {
          "name": "_id",
          "type": "uint256"
        }
      ],
      "name": "getRecent10OutgoingAttacks",
      "outputs": [
        {
          "name": "",
          "type": "uint256[2][10]"
        },
        {
          "name": "",
          "type": "uint256"
        }
      ],
      "payable": false,
      "stateMutability": "view",
      "type": "function"
    },
    {
      "constant": true,
      "inputs": [],
      "name": "getMyRecent10IncomingAttacks",
      "outputs": [
        {
          "name": "",
          "type": "uint256[2][10]"
        },
        {
          "name": "",
          "type": "uint256"
        }
      ],
      "payable": false,
      "stateMutability": "view",
      "type": "function"
    },
    {
      "constant": true,
      "inputs": [],
      "name": "getMyRecent10OutgoingAttacks",
      "outputs": [
        {
          "name": "",
          "type": "uint256[2][10]"
        },
        {
          "name": "",
          "type": "uint256"
        }
      ],
      "payable": false,
      "stateMutability": "view",
      "type": "function"
    },
    {
      "constant": true,
      "inputs": [],
      "name": "canRecruit",
      "outputs": [
        {
          "name": "",
          "type": "bool"
        },
        {
          "name": "",
          "type": "uint256"
        }
      ],
      "payable": false,
      "stateMutability": "view",
      "type": "function"
    },
    {
      "constant": false,
      "inputs": [],
      "name": "recruit",
      "outputs": [],
      "payable": false,
      "stateMutability": "nonpayable",
      "type": "function"
    },
    {
      "constant": false,
      "inputs": [
        {
          "name": "_count",
          "type": "uint256"
        }
      ],
      "name": "trainAttackSpecialists",
      "outputs": [],
      "payable": false,
      "stateMutability": "nonpayable",
      "type": "function"
    },
    {
      "constant": false,
      "inputs": [
        {
          "name": "_count",
          "type": "uint256"
        }
      ],
      "name": "trainDefenseSpecialists",
      "outputs": [],
      "payable": false,
      "stateMutability": "nonpayable",
      "type": "function"
    },
    {
      "constant": false,
      "inputs": [
        {
          "name": "_count",
          "type": "uint256"
        }
      ],
      "name": "trainSpies",
      "outputs": [],
      "payable": false,
      "stateMutability": "nonpayable",
      "type": "function"
    },
    {
      "constant": false,
      "inputs": [
        {
          "name": "_count",
          "type": "uint256"
        }
      ],
      "name": "trainSentries",
      "outputs": [],
      "payable": false,
      "stateMutability": "nonpayable",
      "type": "function"
    },
    {
      "constant": false,
      "inputs": [
        {
          "name": "_count",
          "type": "uint256"
        }
      ],
      "name": "reassignAttackSpecialists",
      "outputs": [],
      "payable": false,
      "stateMutability": "nonpayable",
      "type": "function"
    },
    {
      "constant": false,
      "inputs": [
        {
          "name": "_count",
          "type": "uint256"
        }
      ],
      "name": "reassignDefenseSpecialists",
      "outputs": [],
      "payable": false,
      "stateMutability": "nonpayable",
      "type": "function"
    },
    {
      "constant": false,
      "inputs": [
        {
          "name": "_attackMercsCount",
          "type": "uint256"
        },
        {
          "name": "_defenseMercsCount",
          "type": "uint256"
        }
      ],
      "name": "buyMercs",
      "outputs": [],
      "payable": false,
      "stateMutability": "nonpayable",
      "type": "function"
    }
  ],
  "bytecode": "0x6060604052601e600860006101000a81548160ff021916908360ff1602179055506019600860016101000a81548160ff021916908360ff160217905550603c600860026101000a81548160ff021916908360ff1602179055506064600860036101000a81548160ff021916908360ff160217905550600e600860046101000a81548160ff021916908360ff1602179055506010600860056101000a81548160ff021916908360ff160217905550600f600860066101000a81548160ff021916908360ff1602179055506064600860076101000a81548161ffff021916908361ffff160217905550619c40600860096101000a81548161ffff021916908361ffff160217905550619c406008600b6101000a81548161ffff021916908361ffff160217905550612ee06008600d6101000a81548161ffff021916908361ffff16021790555061012c60095561012c600a5560c060405190810160405280600060ff168152602001601e60ff168152602001600f60ff168152602001600060ff168152602001600060ff168152602001600060ff16815250600b906006620001a7929190620009a8565b5060c060405190810160405280606460ff168152602001600060ff168152602001600060ff168152602001600060ff168152602001602360ff168152602001600060ff16815250600c90600662000200929190620009a8565b5060c060405190810160405280606460ff168152602001600060ff168152602001602860ff168152602001600060ff168152602001601460ff168152602001600060ff16815250600d90600662000259929190620009a8565b5060c060405190810160405280606460ff168152602001602360ff168152602001600060ff168152602001602d60ff168152602001600060ff168152602001600060ff16815250600e906006620002b2929190620009a8565b5060c060405190810160405280606460ff168152602001600060ff168152602001600060ff168152602001600060ff168152602001600060ff168152602001602360ff16815250600f9060066200030b929190620009a8565b5060c060405190810160405280603260ff168152602001600060ff168152602001600060ff168152602001604660ff168152602001600060ff168152602001605560ff16815250601090600662000364929190620009a8565b5034156200037157600080fd5b620004306040805190810160405280600381526020017f476f6400000000000000000000000000000000000000000000000000000000008152506000608060405190810160405280603260ff168152602001600e60ff168152602001601060ff168152602001600f60ff1681525060a060405190810160405280620f4240815260200162030d40815260200162030d40815260200161271081526020016127108152506000620005b3640100000000026200391b176401000000009004565b50620004ee6040805190810160405280601081526020017f476f6427732052696768742048616e64000000000000000000000000000000008152506000608060405190810160405280601e60ff168152602001600c60ff168152602001600e60ff168152602001600a60ff1681525060a060405190810160405280620186a08152602001614e208152602001614e2081526020016103e881526020016103e88152506000620005b3640100000000026200391b176401000000009004565b50620005ac6040805190810160405280600f81526020017f476f642773204c6566742048616e6400000000000000000000000000000000008152506000608060405190810160405280601e60ff168152602001600c60ff168152602001600e60ff168152602001600a60ff1681525060a060405190810160405280620186a08152602001614e208152602001614e2081526020016103e881526020016103e88152506000620005b3640100000000026200391b176401000000009004565b5062000c69565b600080600160008054806001018281620005ce919062000a56565b91600052602060002090600502016000610120604051908101604052808c81526020018b60ff1681526020018a60006004811015156200060a57fe5b602002015160ff1681526020018a60016004811015156200062757fe5b602002015160ff1681526020018a60026004811015156200064457fe5b602002015160ff1681526020018a60036004811015156200066157fe5b602002015160ff16815260200160008152602001600081526020018881525090919091506000820151816000019080519060200190620006a392919062000a8b565b5060208201518160010160006101000a81548160ff021916908360ff16021790555060408201518160010160016101000a81548160ff021916908360ff16021790555060608201518160010160026101000a81548160ff021916908360ff16021790555060808201518160010160036101000a81548160ff021916908360ff16021790555060a08201518160010160046101000a81548160ff021916908360ff16021790555060c0820151816002015560e082015181600301556101008201518160040155505003905073__MilitaryLibrary_______________________63a9596e296001866000604051602001526040518363ffffffff167c01000000000000000000000000000000000000000000000000000000000281526004018083815260200182600560200280838360005b83811015620007f1578082015181840152602081019050620007d4565b505050509050019250505060206040518083038186803b15156200081457600080fd5b6102c65a03f415156200082657600080fd5b5050506040518051905050336004600083815260200190815260200160002060006101000a81548173ffffffffffffffffffffffffffffffffffffffff021916908373ffffffffffffffffffffffffffffffffffffffff16021790555080600360003373ffffffffffffffffffffffffffffffffffffffff1673ffffffffffffffffffffffffffffffffffffffff16815260200190815260200160002081905550600160056000858152602001908152602001600020600082825401925050819055507f8903d00f136209d2fb29b581df936c8cbc1f7f2f70aafe69e061eff9527d7cbd81888860405180848152602001806020018360ff168152602001828103825284818151815260200191508051906020019080838360005b838110156200095e57808201518184015260208101905062000941565b50505050905090810190601f1680156200098c5780820380516001836020036101000a031916815260200191505b5094505050505060405180910390a18091505095945050505050565b82805482825590600052602060002090601f0160209004810192821562000a435791602002820160005b8382111562000a1257835183826101000a81548160ff021916908360ff1602179055509260200192600101602081600001049283019260010302620009d2565b801562000a415782816101000a81549060ff021916905560010160208160000104928301926001030262000a12565b505b50905062000a52919062000b12565b5090565b81548183558181151162000a865760050281600502836000526020600020918201910162000a85919062000b45565b5b505050565b828054600181600116156101000203166002900490600052602060002090601f016020900481019282601f1062000ace57805160ff191683800117855562000aff565b8280016001018555821562000aff579182015b8281111562000afe57825182559160200191906001019062000ae1565b5b50905062000b0e919062000bf5565b5090565b62000b4291905b8082111562000b3e57600081816101000a81549060ff02191690555060010162000b19565b5090565b90565b62000bf291905b8082111562000bee576000808201600062000b68919062000c1d565b6001820160006101000a81549060ff02191690556001820160016101000a81549060ff02191690556001820160026101000a81549060ff02191690556001820160036101000a81549060ff02191690556001820160046101000a81549060ff02191690556002820160009055600382016000905560048201600090555060050162000b4c565b5090565b90565b62000c1a91905b8082111562000c1657600081600090555060010162000bfc565b5090565b90565b50805460018160011615610100020316600290046000825580601f1062000c45575062000c66565b601f01602090049060005260206000209081019062000c65919062000bf5565b5b50565b6140948062000c796000396000f30060606040526004361061022f576000357c0100000000000000000000000000000000000000000000000000000000900463ffffffff16806270379b1461023457806305ddb4e0146102575780630b8d16d5146102cf5780630ca62a8a146104285780630eb70db11461045f5780631185f5af1461049a5780631758f522146104d157806318070857146105005780631e7d655814610529578063214d23c81461053e578063262759741461055357806339925477146105dc5780634afecfd4146105ff5780635c30d3511461062557806364dd891a1461064e578063689f8c5c146106715780636a0f5440146106865780636dd0ce7a146106ba5780637f8680ab1461071f57806383725bf71461086a57806384d2d4be1461087f5780638c56c5f8146109085780638d9c842f146109315780638e4060721461095457806394bff9911461097d578063a153d91814610a06578063acff8da514610a2f578063b791d78e14610aaa578063cbfc956514610acd578063cdf55f8b14610afc578063d644cb1d14610b30578063d99b587614610b53578063daa3784714610bbd578063de73ea1914610bf4578063e42e638814610c6f578063e5dcdf9b14610c84578063e7711dde14610cad578063e969546d14610cd0578063e997f20714610cf3578063eaf5839214610d5d578063ed5b7e5e14610de0578063f2ed2dff14610e31578063f328dbbb14610e5e578063f46410bb14610ed9578063fca1efec14610f14578063fd314c3c14610f4b575b600080fd5b341561023f57600080fd5b6102556004808035906020019091905050610f77565b005b341561026257600080fd5b610278600480803590602001909190505061109c565b6040518080602001828103825283818151815260200191508051906020019060200280838360005b838110156102bb5780820151818401526020810190506102a0565b505050509050019250505060405180910390f35b34156102da57600080fd5b6102f06004808035906020019091905050611196565b60405180806020018860ff1660ff16815260200187600460200280838360005b8381101561032b578082015181840152602081019050610310565b505050509050018681526020018581526020018481526020018060200183810383528a818151815260200191508051906020019080838360005b83811015610380578082015181840152602081019050610365565b50505050905090810190601f1680156103ad5780820380516001836020036101000a031916815260200191505b50838103825284818151815260200191508051906020019080838360005b838110156103e65780820151818401526020810190506103cb565b50505050905090810190601f1680156104135780820380516001836020036101000a031916815260200191505b50995050505050505050505060405180910390f35b341561043357600080fd5b61044960048080359060200190919050506113f4565b6040518082815260200191505060405180910390f35b341561046a57600080fd5b610480600480803590602001909190505061155a565b604051808215151515815260200191505060405180910390f35b34156104a557600080fd5b6104bb60048080359060200190919050506115c5565b6040518082815260200191505060405180910390f35b34156104dc57600080fd5b6104e461172b565b604051808260ff1660ff16815260200191505060405180910390f35b341561050b57600080fd5b610513611742565b6040518082815260200191505060405180910390f35b341561053457600080fd5b61053c6117a5565b005b341561054957600080fd5b6105516118d1565b005b341561055e57600080fd5b6105746004808035906020019091905050611a4c565b6040518083600a6000925b818410156105c55782846020020151600260200280838360005b838110156105b4578082015181840152602081019050610599565b50505050905001926001019261057f565b925050508281526020019250505060405180910390f35b34156105e757600080fd5b6105fd6004808035906020019091905050611b37565b005b341561060a57600080fd5b610623600480803560ff16906020019091905050611c5c565b005b341561063057600080fd5b610638611d79565b6040518082815260200191505060405180910390f35b341561065957600080fd5b61066f6004808035906020019091905050611ddc565b005b341561067c57600080fd5b610684611fc9565b005b341561069157600080fd5b610699612135565b60405180831515151581526020018281526020019250505060405180910390f35b34156106c557600080fd5b6106db60048080359060200190919050506121bc565b604051808881526020018781526020018681526020018581526020018481526020018381526020018215151515815260200197505050505050505060405180910390f35b341561072a57600080fd5b610732612231565b60405180806020018860ff1660ff16815260200187600460200280838360005b8381101561076d578082015181840152602081019050610752565b505050509050018681526020018581526020018481526020018060200183810383528a818151815260200191508051906020019080838360005b838110156107c25780820151818401526020810190506107a7565b50505050905090810190601f1680156107ef5780820380516001836020036101000a031916815260200191505b50838103825284818151815260200191508051906020019080838360005b8381101561082857808201518184015260208101905061080d565b50505050905090810190601f1680156108555780820380516001836020036101000a031916815260200191505b50995050505050505050505060405180910390f35b341561087557600080fd5b61087d6122c4565b005b341561088a57600080fd5b6108a0600480803590602001909190505061243f565b6040518083600a6000925b818410156108f15782846020020151600260200280838360005b838110156108e05780820151818401526020810190506108c5565b5050505090500192600101926108ab565b925050508281526020019250505060405180910390f35b341561091357600080fd5b61091b61252a565b6040518082815260200191505060405180910390f35b341561093c57600080fd5b610952600480803590602001909190505061258d565b005b341561095f57600080fd5b6109676126cb565b6040518082815260200191505060405180910390f35b341561098857600080fd5b61099e60048080359060200190919050506126d7565b604051808360056000925b818410156109ef5782846020020151600260200280838360005b838110156109de5780820151818401526020810190506109c3565b5050505090500192600101926109a9565b925050508281526020019250505060405180910390f35b3415610a1157600080fd5b610a196127c3565b6040518082815260200191505060405180910390f35b3415610a3a57600080fd5b610a42612826565b604051808360056000925b81841015610a935782846020020151600260200280838360005b83811015610a82578082015181840152602081019050610a67565b505050509050019260010192610a4d565b925050508281526020019250505060405180910390f35b3415610ab557600080fd5b610acb6004808035906020019091905050612894565b005b3415610ad857600080fd5b610ae06129b9565b604051808260ff1660ff16815260200191505060405180910390f35b3415610b0757600080fd5b610b0f6129d0565b60405180831515151581526020018281526020019250505060405180910390f35b3415610b3b57600080fd5b610b516004808035906020019091905050612a57565b005b3415610b5e57600080fd5b610b66612b7c565b6040518080602001828103825283818151815260200191508051906020019060200280838360005b83811015610ba9578082015181840152602081019050610b8e565b505050509050019250505060405180910390f35b3415610bc857600080fd5b610bde6004808035906020019091905050612be6565b6040518082815260200191505060405180910390f35b3415610bff57600080fd5b610c07612d4c565b6040518083600a6000925b81841015610c585782846020020151600260200280838360005b83811015610c47578082015181840152602081019050610c2c565b505050509050019260010192610c12565b925050508281526020019250505060405180910390f35b3415610c7a57600080fd5b610c82612dba565b005b3415610c8f57600080fd5b610c97612dc6565b6040518082815260200191505060405180910390f35b3415610cb857600080fd5b610cce6004808035906020019091905050612e0d565b005b3415610cdb57600080fd5b610cf16004808035906020019091905050612f32565b005b3415610cfe57600080fd5b610d146004808035906020019091905050613057565b604051808315151515815260200182600760200280838360005b83811015610d49578082015181840152602081019050610d2e565b505050509050019250505060405180910390f35b3415610d6857600080fd5b610dca600480803590602001908201803590602001908080601f01602080910402602001604051908101604052809392919081815260200183838082843782019150505050505091908035906020019091908035906020019091905050613240565b6040518082815260200191505060405180910390f35b3415610deb57600080fd5b610df361331f565b6040518082600760200280838360005b83811015610e1e578082015181840152602081019050610e03565b5050505090500191505060405180910390f35b3415610e3c57600080fd5b610e4461341a565b604051808215151515815260200191505060405180910390f35b3415610e6957600080fd5b610e71613463565b6040518083600a6000925b81841015610ec25782846020020151600260200280838360005b83811015610eb1578082015181840152602081019050610e96565b505050509050019260010192610e7c565b925050508281526020019250505060405180910390f35b3415610ee457600080fd5b610efa60048080359060200190919050506134d1565b604051808215151515815260200191505060405180910390f35b3415610f1f57600080fd5b610f35600480803590602001909190505061351c565b6040518082815260200191505060405180910390f35b3415610f5657600080fd5b610f756004808035906020019091908035906020019091905050613682565b005b6000600360003373ffffffffffffffffffffffffffffffffffffffff1673ffffffffffffffffffffffffffffffffffffffff168152602001908152602001600020549050600081111515610fca57600080fd5b73__MilitaryLibrary_______________________6394530da7600183856040518463ffffffff167c010000000000000000000000000000000000000000000000000000000002815260040180848152602001838152602001828152602001935050505060006040518083038186803b151561104557600080fd5b6102c65a03f4151561105657600080fd5b5050507fa69a32d5b1ceff1703230cea48ee9c074ec2703823d3f2529c0c711510d6e8568183604051808381526020018281526020019250505060405180910390a15050565b6110a4613d01565b60008060006110b1613d01565b6005600087815260200190815260200160002054925060008314156110f75760006040518059106110df5750595b9080825280602002602001820160405250945061118d565b60009150826040518059106111095750595b90808252806020026020018201604052509050600093505b600080549050841015611189578560008581548110151561113e57fe5b906000526020600020906005020160040154141561117c5783818381518110151561116557fe5b906020019060200201818152505081806001019250505b8380600101945050611121565b8094505b50505050919050565b61119e613d15565b60006111a8613d29565b60008060006111b5613d15565b60008060008a8154811015156111c757fe5b90600052602060002090600502019150600082600401548154811015156111ea57fe5b90600052602060002090600502016000019050816000018260010160009054906101000a900460ff166080604051908101604052808560010160019054906101000a900460ff1660ff1660ff1681526020018560010160029054906101000a900460ff1660ff1660ff1681526020018560010160039054906101000a900460ff1660ff1660ff1681526020018560010160049054906101000a900460ff1660ff1660ff1681525084600201548560030154866004015486868054600181600116156101000203166002900480601f0160208091040260200160405190810160405280929190818152602001828054600181600116156101000203166002900480156113365780601f1061130b57610100808354040283529160200191611336565b820191906000526020600020905b81548152906001019060200180831161131957829003601f168201915b50505050509650808054600181600116156101000203166002900480601f0160208091040260200160405190810160405280929190818152602001828054600181600116156101000203166002900480156113d25780601f106113a7576101008083540402835291602001916113d2565b820191906000526020600020905b8154815290600101906020018083116113b557829003601f168201915b5050505050905098509850985098509850985098505050919395979092949650565b60008060008381548110151561140657fe5b906000526020600020906005020190508060010160049054906101000a900460ff1660ff1660640a8160010160049054906101000a900460ff1660ff16600860029054906101000a900460ff1660640160ff160a6064600e8460010160009054906101000a900460ff1660ff1681548110151561147f57fe5b90600052602060002090602091828204019190069054906101000a900460ff1660640160ff1673__MilitaryLibrary_______________________63d2c6cc366001896000604051602001526040518363ffffffff167c0100000000000000000000000000000000000000000000000000000000028152600401808381526020018281526020019250505060206040518083038186803b151561152157600080fd5b6102c65a03f4151561153257600080fd5b505050604051805190500281151561154657fe5b040281151561155157fe5b04915050919050565b6000816000600360003373ffffffffffffffffffffffffffffffffffffffff1673ffffffffffffffffffffffffffffffffffffffff168152602001908152602001600020548154811015156115ab57fe5b906000526020600020906005020160040154149050919050565b6000806000838154811015156115d757fe5b906000526020600020906005020190508060010160029054906101000a900460ff1660ff1660640a8160010160029054906101000a900460ff1660ff16600860009054906101000a900460ff1660640160ff160a6064600c8460010160009054906101000a900460ff1660ff1681548110151561165057fe5b90600052602060002090602091828204019190069054906101000a900460ff1660640160ff1673__MilitaryLibrary_______________________636506ee4f6001896000604051602001526040518363ffffffff167c0100000000000000000000000000000000000000000000000000000000028152600401808381526020018281526020019250505060206040518083038186803b15156116f257600080fd5b6102c65a03f4151561170357600080fd5b505050604051805190500281151561171757fe5b040281151561172257fe5b04915050919050565b6000600860009054906101000a900460ff16905090565b600080600360003373ffffffffffffffffffffffffffffffffffffffff1673ffffffffffffffffffffffffffffffffffffffff16815260200190815260200160002054905060008111151561179657600080fd5b61179f816115c5565b91505090565b600080600360003373ffffffffffffffffffffffffffffffffffffffff1673ffffffffffffffffffffffffffffffffffffffff1681526020019081526020016000205491506000821115156117f957600080fd5b60008281548110151561180857fe5b906000526020600020906005020160010160029054906101000a900460ff169050600860049054906101000a900460ff1660ff168160ff1610151561184c57600080fd5b6001810190508060008381548110151561186257fe5b906000526020600020906005020160010160026101000a81548160ff021916908360ff1602179055507fc1951a752c7ea5b127e5d8611a8fc5624a02db238afe91956ffb73be75cdd4f58282604051808381526020018260ff1681526020019250505060405180910390a15050565b6000806000600360003373ffffffffffffffffffffffffffffffffffffffff1673ffffffffffffffffffffffffffffffffffffffff168152602001908152602001600020541415151561192357600080fd5b600360003373ffffffffffffffffffffffffffffffffffffffff1673ffffffffffffffffffffffffffffffffffffffff16815260200190815260200160002054915060008211151561197457600080fd5b60008281548110151561198357fe5b906000526020600020906005020160010160039054906101000a900460ff169050600860059054906101000a900460ff1660ff168160ff161015156119c757600080fd5b600181019050806000838154811015156119dd57fe5b906000526020600020906005020160010160036101000a81548160ff021916908360ff1602179055507f3faf8d366ab416cfcf9718489c90f5b4c1ec9a8b968eab74cc30ee2f1c61b6908282604051808381526020018260ff1681526020019250505060405180910390a15050565b611a54613d54565b6000611a5e613d54565b600080600080925060028054905091505b600082118015611a7f5750600a83105b15611b2857600260018303815481101515611a9657fe5b906000526020600020906008020190508681600101541415611b1a57806000015442038484600a81101515611ac757fe5b60200201516000600281101515611ada57fe5b602002018181525050600182038484600a81101515611af557fe5b60200201516001600281101515611b0857fe5b60200201818152505082806001019350505b818060019003925050611a6f565b83839550955050505050915091565b6000600360003373ffffffffffffffffffffffffffffffffffffffff1673ffffffffffffffffffffffffffffffffffffffff168152602001908152602001600020549050600081111515611b8a57600080fd5b73__MilitaryLibrary_______________________63b7a9cdab600183856040518463ffffffff167c010000000000000000000000000000000000000000000000000000000002815260040180848152602001838152602001828152602001935050505060006040518083038186803b1515611c0557600080fd5b6102c65a03f41515611c1657600080fd5b5050507f8dab6851fd136f28222d7e45ef390b5b993c76b489f265025a71b42526ef236d8183604051808381526020018281526020019250505060405180910390a15050565b600080600360003373ffffffffffffffffffffffffffffffffffffffff1673ffffffffffffffffffffffffffffffffffffffff168152602001908152602001600020549150600082111515611cb057600080fd5b600082815481101515611cbf57fe5b906000526020600020906005020190508260ff168160010160009054906101000a900460ff1660ff1614158015611cfa575060018360ff1610155b8015611d0a575060058360ff1611155b1515611d1557600080fd5b828160010160006101000a81548160ff021916908360ff1602179055507f494533cfa69cc2f1377bca17dc57558a0d219c115ebb8381db649ebe557f70b88284604051808381526020018260ff1681526020019250505060405180910390a1505050565b600080600360003373ffffffffffffffffffffffffffffffffffffffff1673ffffffffffffffffffffffffffffffffffffffff168152602001908152602001600020549050600081111515611dcd57600080fd5b611dd6816113f4565b91505090565b6000806000806000806000600360003373ffffffffffffffffffffffffffffffffffffffff1673ffffffffffffffffffffffffffffffffffffffff168152602001908152602001600020549650600087118015611e395750878714155b1515611e4457600080fd5b600a5460076000898152602001908152602001600020544203111515611e6957600080fd5b611e71611742565b9550611e7c88612be6565b945060009350600092508486119150600160028054806001018281611ea19190613d83565b91600052602060002090600802016000610100604051908101604052804281526020018c81526020018d81526020018b81526020018a81526020018981526020018881526020018715158152509091909150600082015181600001556020820151816001015560408201518160020155606082015181600301556080820151816004015560a0820151816005015560c0820151816006015560e08201518160070160006101000a81548160ff02191690831515021790555050500390508115611f7057611f6f8760646137b8565b5b4260076000898152602001908152602001600020819055507f2698d75f814df009b510df39d03c901a6e830c6dfd50922c8fe6bbb794967843816040518082815260200191505060405180910390a15050505050505050565b6000600360003373ffffffffffffffffffffffffffffffffffffffff1673ffffffffffffffffffffffffffffffffffffffff16815260200190815260200160002054905060008111151561201c57600080fd5b6009546006600083815260200190815260200160002054420311151561204157600080fd5b73__MilitaryLibrary_______________________63a6b32c4a60018360056000868152602001908152602001600020546040518463ffffffff167c010000000000000000000000000000000000000000000000000000000002815260040180848152602001838152602001828152602001935050505060006040518083038186803b15156120cf57600080fd5b6102c65a03f415156120e057600080fd5b5050504260066000838152602001908152602001600020819055507f60e7be082d1721960e15a9ebd82c9f2e704d97b328525ff70a15e402f40410fb816040518082815260200191505060405180910390a150565b600080600060066000600360003373ffffffffffffffffffffffffffffffffffffffff1673ffffffffffffffffffffffffffffffffffffffff16815260200190815260200160002054815260200190815260200160002054420390506009548111156121ab5760016000809050925092506121b7565b60008160095403925092505b509091565b6000806000806000806000806002898154811015156121d757fe5b906000526020600020906008020190508060010154816002015482600301548360040154846005015485600601548660070160009054906101000a900460ff16975097509750975097509750975050919395979092949650565b612239613d15565b6000612243613d29565b6000806000612250613d15565b6000600360003373ffffffffffffffffffffffffffffffffffffffff1673ffffffffffffffffffffffffffffffffffffffff1681526020019081526020016000205490506000811115156122a357600080fd5b6122ac81611196565b97509750975097509750975097505090919293949596565b6000806000600360003373ffffffffffffffffffffffffffffffffffffffff1673ffffffffffffffffffffffffffffffffffffffff168152602001908152602001600020541415151561231657600080fd5b600360003373ffffffffffffffffffffffffffffffffffffffff1673ffffffffffffffffffffffffffffffffffffffff16815260200190815260200160002054915060008211151561236757600080fd5b60008281548110151561237657fe5b906000526020600020906005020160010160049054906101000a900460ff169050600860069054906101000a900460ff1660ff168160ff161015156123ba57600080fd5b600181019050806000838154811015156123d057fe5b906000526020600020906005020160010160046101000a81548160ff021916908360ff1602179055507fc302655c4ab21ceb36108dfef1ae37b736a1b30f43032dbc96a90eb16134d6ce8282604051808381526020018260ff1681526020019250505060405180910390a15050565b612447613d54565b6000612451613d54565b600080600080925060028054905091505b6000821180156124725750600a83105b1561251b5760026001830381548110151561248957fe5b90600052602060002090600802019050868160020154141561250d57806000015442038484600a811015156124ba57fe5b602002015160006002811015156124cd57fe5b602002018181525050600182038484600a811015156124e857fe5b602002015160016002811015156124fb57fe5b60200201818152505082806001019350505b818060019003925050612462565b83839550955050505050915091565b600080600360003373ffffffffffffffffffffffffffffffffffffffff1673ffffffffffffffffffffffffffffffffffffffff16815260200190815260200160002054905060008111151561257e57600080fd5b6125878161351c565b91505090565b6000600360003373ffffffffffffffffffffffffffffffffffffffff1673ffffffffffffffffffffffffffffffffffffffff168152602001908152602001600020549050816000828154811015156125e157fe5b9060005260206000209060050201600401541415151561260057600080fd5b600160056000808481548110151561261457fe5b906000526020600020906005020160040154815260200190815260200160002060008282540392505081905550600160056000848152602001908152602001600020600082825401925050819055508160008281548110151561267357fe5b9060005260206000209060050201600401819055507f6656648d38e5e0c3fee01e298d927bf08e1f558de201fe28d11e710a6e9802068183604051808381526020018281526020019250505060405180910390a15050565b60008080549050905090565b6126df613db5565b60006126e9613db5565b600080600080925060028054905091505b60008211801561270a5750600583105b156127b45760026001830381548110151561272157fe5b9060005260206000209060080201905086816002015414156127a65780600001544203848460058110151561275257fe5b6020020151600060028110151561276557fe5b6020020181815250508060010154848460058110151561278157fe5b6020020151600160028110151561279457fe5b60200201818152505082806001019350505b8180600190039250506126fa565b83839550955050505050915091565b600080600360003373ffffffffffffffffffffffffffffffffffffffff1673ffffffffffffffffffffffffffffffffffffffff16815260200190815260200160002054905060008111151561281757600080fd5b61282081612be6565b91505090565b61282e613db5565b600080600360003373ffffffffffffffffffffffffffffffffffffffff1673ffffffffffffffffffffffffffffffffffffffff16815260200190815260200160002054905060008111151561288257600080fd5b61288b816126d7565b92509250509091565b6000600360003373ffffffffffffffffffffffffffffffffffffffff1673ffffffffffffffffffffffffffffffffffffffff1681526020019081526020016000205490506000811115156128e757600080fd5b73__MilitaryLibrary_______________________6342ace260600183856040518463ffffffff167c010000000000000000000000000000000000000000000000000000000002815260040180848152602001838152602001828152602001935050505060006040518083038186803b151561296257600080fd5b6102c65a03f4151561297357600080fd5b5050507f4de8168c5f461e6eb205fe057f7a12ed755d098c0708bef0ea8875a035bc46b68183604051808381526020018281526020019250505060405180910390a15050565b6000600860019054906101000a900460ff16905090565b600080600060076000600360003373ffffffffffffffffffffffffffffffffffffffff1673ffffffffffffffffffffffffffffffffffffffff1681526020019081526020016000205481526020019081526020016000205442039050600a54811115612a46576001600080905092509250612a52565b600081600a5403925092505b509091565b6000600360003373ffffffffffffffffffffffffffffffffffffffff1673ffffffffffffffffffffffffffffffffffffffff168152602001908152602001600020549050600081111515612aaa57600080fd5b73__MilitaryLibrary_______________________63699f92b0600183856040518463ffffffff167c010000000000000000000000000000000000000000000000000000000002815260040180848152602001838152602001828152602001935050505060006040518083038186803b1515612b2557600080fd5b6102c65a03f41515612b3657600080fd5b5050507fc67b48cb7fe654bbff71b7cf0af383327db7f9c7791b69b6f43f0487de584b1b8183604051808381526020018281526020019250505060405180910390a15050565b612b84613d01565b6000600360003373ffffffffffffffffffffffffffffffffffffffff1673ffffffffffffffffffffffffffffffffffffffff168152602001908152602001600020549050600081111515612bd757600080fd5b612be08161109c565b91505090565b600080600083815481101515612bf857fe5b906000526020600020906005020190508060010160039054906101000a900460ff1660ff1660640a8160010160039054906101000a900460ff1660ff16600860019054906101000a900460ff1660640160ff160a6064600d8460010160009054906101000a900460ff1660ff16815481101515612c7157fe5b90600052602060002090602091828204019190069054906101000a900460ff1660640160ff1673__MilitaryLibrary_______________________63f08618316001896000604051602001526040518363ffffffff167c0100000000000000000000000000000000000000000000000000000000028152600401808381526020018281526020019250505060206040518083038186803b1515612d1357600080fd5b6102c65a03f41515612d2457600080fd5b5050506040518051905002811515612d3857fe5b0402811515612d4357fe5b04915050919050565b612d54613d54565b600080600360003373ffffffffffffffffffffffffffffffffffffffff1673ffffffffffffffffffffffffffffffffffffffff168152602001908152602001600020549050600081111515612da857600080fd5b612db181611a4c565b92509250509091565b612dc4600061258d565b565b6000600360003373ffffffffffffffffffffffffffffffffffffffff1673ffffffffffffffffffffffffffffffffffffffff16815260200190815260200160002054905090565b6000600360003373ffffffffffffffffffffffffffffffffffffffff1673ffffffffffffffffffffffffffffffffffffffff168152602001908152602001600020549050600081111515612e6057600080fd5b73__MilitaryLibrary_______________________63146af8ce600183856040518463ffffffff167c010000000000000000000000000000000000000000000000000000000002815260040180848152602001838152602001828152602001935050505060006040518083038186803b1515612edb57600080fd5b6102c65a03f41515612eec57600080fd5b5050507f298f72ff5878642622d1b6189cf8abc10cfa20471bc3fb0ccc3e28ff74e24d238183604051808381526020018281526020019250505060405180910390a15050565b6000600360003373ffffffffffffffffffffffffffffffffffffffff1673ffffffffffffffffffffffffffffffffffffffff168152602001908152602001600020549050600081111515612f8557600080fd5b73__MilitaryLibrary_______________________636906f46b600183856040518463ffffffff167c010000000000000000000000000000000000000000000000000000000002815260040180848152602001838152602001828152602001935050505060006040518083038186803b151561300057600080fd5b6102c65a03f4151561301157600080fd5b5050507f7612ba9bfbe68a6f136ea75f615a5b3eb755c8a4e66e32d678e92ba9016a51618183604051808381526020018281526020019250505060405180910390a15050565b6000613061613de4565b6000600360003373ffffffffffffffffffffffffffffffffffffffff1673ffffffffffffffffffffffffffffffffffffffff1681526020019081526020016000205490506000811115156130b457600080fd5b838114806130e157506000848154811015156130cc57fe5b90600052602060002090600502016004015481145b1561318b57600173__MilitaryLibrary_______________________6324eef0c7600187600060405160e001526040518363ffffffff167c0100000000000000000000000000000000000000000000000000000000028152600401808381526020018281526020019250505060e06040518083038186803b151561316457600080fd5b6102c65a03f4151561317557600080fd5b5050506040518060e0016040529250925061323a565b73__MilitaryLibrary_______________________63648470cf60018387600060405161010001526040518463ffffffff167c01000000000000000000000000000000000000000000000000000000000281526004018084815260200183815260200182815260200193505050506101006040518083038186803b151561321157600080fd5b6102c65a03f4151561322257600080fd5b5050506040518051906020018060e001604052925092505b50915091565b600080600360003373ffffffffffffffffffffffffffffffffffffffff1673ffffffffffffffffffffffffffffffffffffffff1681526020019081526020016000205414151561328f57600080fd5b600183101580156132a1575060058311155b15156132ac57600080fd5b6133168484608060405190810160405280600160ff168152602001600060ff168152602001600060ff168152602001600060ff1681525060a0604051908101604052806000815260200160008152602001600081526020016000815260200160008152508661391b565b90509392505050565b613327613de4565b6000600360003373ffffffffffffffffffffffffffffffffffffffff1673ffffffffffffffffffffffffffffffffffffffff16815260200190815260200160002054905060008111151561337a57600080fd5b73__MilitaryLibrary_______________________6324eef0c7600183600060405160e001526040518363ffffffff167c0100000000000000000000000000000000000000000000000000000000028152600401808381526020018281526020019250505060e06040518083038186803b15156133f657600080fd5b6102c65a03f4151561340757600080fd5b5050506040518060e00160405291505090565b600080600360003373ffffffffffffffffffffffffffffffffffffffff1673ffffffffffffffffffffffffffffffffffffffff1681526020019081526020016000205411905090565b61346b613d54565b600080600360003373ffffffffffffffffffffffffffffffffffffffff1673ffffffffffffffffffffffffffffffffffffffff1681526020019081526020016000205490506000811115156134bf57600080fd5b6134c88161243f565b92509250509091565b600081600360003373ffffffffffffffffffffffffffffffffffffffff1673ffffffffffffffffffffffffffffffffffffffff16815260200190815260200160002054149050919050565b60008060008381548110151561352e57fe5b906000526020600020906005020190508060010160049054906101000a900460ff1660ff1660640a8160010160049054906101000a900460ff1660ff16600860029054906101000a900460ff1660640160ff160a6064600f8460010160009054906101000a900460ff1660ff168154811015156135a757fe5b90600052602060002090602091828204019190069054906101000a900460ff1660640160ff1673__MilitaryLibrary_______________________638784e44f6001896000604051602001526040518363ffffffff167c0100000000000000000000000000000000000000000000000000000000028152600401808381526020018281526020019250505060206040518083038186803b151561364957600080fd5b6102c65a03f4151561365a57600080fd5b505050604051805190500281151561366e57fe5b040281151561367957fe5b04915050919050565b6000600360003373ffffffffffffffffffffffffffffffffffffffff1673ffffffffffffffffffffffffffffffffffffffff1681526020019081526020016000205490506000811115156136d557600080fd5b73__MilitaryLibrary_______________________637da1242260018386866040518563ffffffff167c01000000000000000000000000000000000000000000000000000000000281526004018085815260200184815260200183815260200182815260200194505050505060006040518083038186803b151561375857600080fd5b6102c65a03f4151561376957600080fd5b5050507f9e3e3d89cd4687ecd28dc092ba8e4097b70b2766695928f7880afb4b60d0934881848460405180848152602001838152602001828152602001935050505060405180910390a1505050565b600080600080851115156137cb57600080fd5b6000858154811015156137da57fe5b906000526020600020906005020192506064600b8460010160009054906101000a900460ff1660ff1681548110151561380f57fe5b90600052602060002090602091828204019190069054906101000a900460ff1660640160ff16850281151561384057fe5b0493508383600301600082825401925050819055508260010160019054906101000a900460ff1691508160ff168260ff16600860079054906101000a900461ffff16020261ffff1690505b8083600301541015156139145760018360010160018282829054906101000a900460ff160192506101000a81548160ff021916908360ff1602179055508083600301600082825403925050819055508260010160019054906101000a900460ff1691508160ff168260ff16600860079054906101000a900461ffff16020261ffff16905061388b565b5050505050565b6000806001600080548060010182816139349190613e0c565b91600052602060002090600502016000610120604051908101604052808c81526020018b60ff1681526020018a600060048110151561396f57fe5b602002015160ff1681526020018a600160048110151561398b57fe5b602002015160ff1681526020018a60026004811015156139a757fe5b602002015160ff1681526020018a60036004811015156139c357fe5b602002015160ff16815260200160008152602001600081526020018881525090919091506000820151816000019080519060200190613a03929190613e3e565b5060208201518160010160006101000a81548160ff021916908360ff16021790555060408201518160010160016101000a81548160ff021916908360ff16021790555060608201518160010160026101000a81548160ff021916908360ff16021790555060808201518160010160036101000a81548160ff021916908360ff16021790555060a08201518160010160046101000a81548160ff021916908360ff16021790555060c0820151816002015560e082015181600301556101008201518160040155505003905073__MilitaryLibrary_______________________63a9596e296001866000604051602001526040518363ffffffff167c01000000000000000000000000000000000000000000000000000000000281526004018083815260200182600560200280838360005b83811015613b4f578082015181840152602081019050613b34565b505050509050019250505060206040518083038186803b1515613b7157600080fd5b6102c65a03f41515613b8257600080fd5b5050506040518051905050336004600083815260200190815260200160002060006101000a81548173ffffffffffffffffffffffffffffffffffffffff021916908373ffffffffffffffffffffffffffffffffffffffff16021790555080600360003373ffffffffffffffffffffffffffffffffffffffff1673ffffffffffffffffffffffffffffffffffffffff16815260200190815260200160002081905550600160056000858152602001908152602001600020600082825401925050819055507f8903d00f136209d2fb29b581df936c8cbc1f7f2f70aafe69e061eff9527d7cbd81888860405180848152602001806020018360ff168152602001828103825284818151815260200191508051906020019080838360005b83811015613cb8578082015181840152602081019050613c9d565b50505050905090810190601f168015613ce55780820380516001836020036101000a031916815260200191505b5094505050505060405180910390a18091505095945050505050565b602060405190810160405280600081525090565b602060405190810160405280600081525090565b6080604051908101604052806004905b600060ff16815260200190600190039081613d395790505090565b61028060405190810160405280600a905b613d6d613ebe565b815260200190600190039081613d655790505090565b815481835581811511613db057600802816008028360005260206000209182019101613daf9190613ee5565b5b505050565b610140604051908101604052806005905b613dce613ebe565b815260200190600190039081613dc65790505090565b60e0604051908101604052806007905b6000815260200190600190039081613df45790505090565b815481835581811511613e3957600502816005028360005260206000209182019101613e389190613f50565b5b505050565b828054600181600116156101000203166002900490600052602060002090601f016020900481019282601f10613e7f57805160ff1916838001178555613ead565b82800160010185558215613ead579182015b82811115613eac578251825591602001919060010190613e91565b5b509050613eba9190613ffb565b5090565b60408051908101604052806002905b6000815260200190600190039081613ecd5790505090565b613f4d91905b80821115613f49576000808201600090556001820160009055600282016000905560038201600090556004820160009055600582016000905560068201600090556007820160006101000a81549060ff021916905550600801613eeb565b5090565b90565b613ff891905b80821115613ff45760008082016000613f6f9190614020565b6001820160006101000a81549060ff02191690556001820160016101000a81549060ff02191690556001820160026101000a81549060ff02191690556001820160036101000a81549060ff02191690556001820160046101000a81549060ff021916905560028201600090556003820160009055600482016000905550600501613f56565b5090565b90565b61401d91905b80821115614019576000816000905550600101614001565b5090565b90565b50805460018160011615610100020316600290046000825580601f106140465750614065565b601f0160209004906000526020600020908101906140649190613ffb565b5b505600a165627a7a723058208500f4eccb4c6d8e1203621816f74d9ed4c613c8da73cfc71888f969c7b4501e0029",
  "source": "pragma solidity ^0.4.17;\n\nimport \"./MilitaryLibrary.sol\";\n\ncontract KingdomFactory4 {\n\n    event NewKingdom(uint kingdomId, string name, uint race);\n    event ChangedRace(uint kingdomId, uint race);\n    event UpgradeWeapon(uint kingdomId, uint weaponLevel);\n    event UpgradeFortress(uint kingdomId, uint fortressLevel);\n    event UpgradeCovert(uint kingdomId, uint covertLevel);\n    event BattleCompleted(uint battleId);\n    event Recruit(uint kingdomId);\n    event CommanderAssigned(uint kingdomId, uint commanderId);\n    event TrainedAttackSpecialists(uint kingdomId, uint count);\n    event TrainedDefenseSpecialists(uint kingdomId, uint count);\n    event ReassignedAttackSpecialists(uint kingdomId, uint count);\n    event ReassignedDefenseSpecialists(uint kingdomId, uint count);\n    event TrainedSpies(uint kingdomId, uint count);\n    event TrainedSentries(uint kingdomId, uint count);\n    event PurchasedMercs(uint id, uint attackMercsCount, uint defenseMercsCount);\n\n    Kingdom[] private kingdoms;\n    MilitaryLibrary.Military[] private militaries;\n    Battle[] private battles;\n\n    //MilitaryLibrary private mf;\n\n    mapping (address => uint256) private kingdomOf;\n    mapping (uint256 => address) private kingdomToOwner;\n    mapping (uint256 => uint256) private numOfOfficers;\n    mapping (uint256 => uint256) private recruitTime;\n    mapping (uint256 => uint256) private attackTime;\n\n    uint8 private weaponMultiplier   = 30;\n    uint8 private fortressMultiplier = 25;\n    uint8 private covertMultiplier   = 60;\n\n    uint8 private kingdomMaxLevel  = 100;\n    uint8 private weaponMaxLevel   = 14;\n    uint8 private fortressMaxLevel = 16;\n    uint8 private covertMaxLevel   = 15;\n\n    //Exp required to level up:\n    //  Required Exp = 100 * level^2\n    uint16 private levelUpBaseExp  = 100;\n\n    //Price of Upgrading:\n    //  price = basePrice * 2^currentLevel\n    uint16 private weaponBasePrice   = 40000;\n    uint16 private fortressBasePrice = 40000;\n    uint16 private covertBasePrice   = 12000;\n\n    uint256 private recruitCooldown = 5 minutes; // 6 hours;\n    uint256 private attackCooldown = 5 minutes; // 1 hour;\n\n    uint8[] private experienceBonus = [  0, 30, 15,  0,  0,  0];\n    uint8[] private attackBonus     = [100,  0,  0,  0, 35,  0];\n    uint8[] private defenseBonus    = [100,  0, 40,  0, 20,  0];\n    uint8[] private spyBonus        = [100, 35,  0, 45,  0,  0];\n    uint8[] private sentryBonus     = [100,  0,  0,  0,  0, 35];\n    uint8[] private fewerCasualties = [ 50,  0,  0, 70,  0, 85];\n    \n\n    struct Kingdom {\n      string name;\n      uint8 race; //0 - divine; 1 - human; 2 - dwarves;\n      uint8 level; //[1,100]\n      uint8 weaponLevel; // [0,14]\n      uint8 fortressLevel; // [0,16]\n      uint8 covertLevel; // [0,15]\n      uint256 gold;\n      uint256 experience;\n      uint256 commander;\n    }\n\n    struct Battle {\n      uint256 time;\n      uint256 attacker;\n      uint256 defender;\n      uint256 attacker_damage;\n      uint256 defender_damage;\n      uint256 attacker_casualties;\n      uint256 defender_casualties;\n      bool success;\n    }\n\n    modifier onlyUser(uint _id){\n      require(msg.sender == kingdomToOwner[_id]);\n      _;\n    }\n\n    function KingdomFactory4() public {\n      _createKingdom(\"God\", 0, [50, 14, 16, 15], [uint(1000000), uint(200000), uint(200000), uint(10000), uint(10000)], 0);\n      _createKingdom(\"God\\'s Right Hand\", 0, [30, 12, 14, 10], [uint(100000), uint(20000), uint(20000), uint(1000), uint(1000)], 0);\n      _createKingdom(\"God\\'s Left Hand\", 0, [30, 12, 14, 10], [uint(100000), uint(20000), uint(20000), uint(1000), uint(1000)], 0);\n    }\n\n    function _createKingdom(string _name, uint8 _race, uint8[4] _level, uint[5] _militaryCount, uint _commander)\n      private returns (uint){\n      uint id = kingdoms.push(Kingdom(_name, _race, _level[0], _level[1], _level[2], _level[3], 0, 0, _commander)) - 1;\n      MilitaryLibrary._createMilitary(militaries, _militaryCount);\n      //militaries.push(Military(_militaryCount[0], _militaryCount[1], 0, _militaryCount[2], 0, _militaryCount[3], _militaryCount[4]));\n      kingdomToOwner[id] = msg.sender;\n      kingdomOf[msg.sender] = id;\n      numOfOfficers[_commander] += 1;\n      NewKingdom(id, _name, _race);\n      return id;\n    }\n\n    function createNewKingdom(string _name, uint _race, uint _commanderId) public returns (uint){\n      require(kingdomOf[msg.sender] == 0);\n      require(_race >= 1 && _race <= 5);\n      return _createKingdom(_name, uint8(_race), [1, 0, 0, 0], [uint(0), uint(0), uint(0), uint(0), uint(0)], _commanderId);\n    }\n\n    function getKingdom(uint _id) public view returns (string, uint8, uint8[4], uint, uint, uint, string) {\n      var kingdom = kingdoms[_id];\n      var commanderName = kingdoms[kingdom.commander].name;\n      return (kingdom.name, kingdom.race, [kingdom.level, kingdom.weaponLevel, kingdom.fortressLevel, kingdom.covertLevel], kingdom.gold,\n          kingdom.experience, kingdom.commander, commanderName);\n    }\n\n    function getPersonnel(uint _id) private view returns (uint256[7]) {\n      return MilitaryLibrary.getMilitary(militaries, _id);\n      //var military = militaries[_id];\n      //return [military.numOfSoldiers, military.numOfAttackSpecialists, military.numOfAttackMercs, military.numOfDefenseSpecialists,\n      //  military.numOfDefenseMercs, military.numOfSpies, military.numOfSentries];\n    }\n\n    function spyOnPersonnel(uint _targetId) public view returns (bool, uint256[7]) {\n      uint256 senderId = kingdomOf[msg.sender];\n      require(senderId > 0);\n      //if(senderId == _targetId || senderId == kingdoms[_targetId].commander || spyRating(senderId) > sentryRating(_targetId)){\n        //return (true, getPersonnel(_targetId));\n      //}\n      //return (false, [uint(0), uint(0), uint(0), uint(0), uint(0), uint(0), uint(0)]);\n      if(senderId == _targetId || senderId == kingdoms[_targetId].commander){\n        return (true, MilitaryLibrary.getMilitary(militaries, _targetId));\n      }\n      return MilitaryLibrary.spyOnMilitary(militaries, senderId, _targetId);\n    }\n\n    function gainExperience(uint _id, uint _exp) private {\n      require(_id > 0);\n      var kingdom = kingdoms[_id];\n      _exp = (_exp * (100 + experienceBonus[kingdom.race])) / 100;\n      kingdom.experience += _exp; \n      uint8 level = kingdom.level;\n      uint amountToLevelUp = levelUpBaseExp * level * level;\n      while(kingdom.experience >= amountToLevelUp) {\n        kingdom.level += 1;\n        kingdom.experience -= amountToLevelUp;\n        level = kingdom.level;\n        amountToLevelUp = levelUpBaseExp * level * level;\n      }\n    } \n\n    function getWeaponMultiplier() public view returns (uint8) {\n      return weaponMultiplier;\n    }\n\n    function getFortressMultiplier() public view returns (uint8) {\n      return fortressMultiplier;\n    }\n\n\n    /// @notice Returns a list of all kingdom IDs that are officers of target commander.\n    /// @param _commanderId The ID of the commander we are interested in.\n    /// @dev This method MUST NEVER be called by smart contract code. First, it's fairly\n    ///  expensive (it walks the entire kingdoms array looking for kingdoms belonging to commander),\n    ///  but it also returns a dynamic array, which is only supported for web3 calls, and\n    ///  not contract-to-contract calls.\n    function getOfficers(uint _commanderId) public view returns (uint[]){\n      uint256 id;\n      uint256 officerCount = numOfOfficers[_commanderId];\n      if(officerCount == 0){\n        // Return an empty array\n        return new uint256[](0);\n      } else {\n        uint256 officerIndex = 0;\n        uint256[] memory officers = new uint256[](officerCount);\n\n        // We count on the fact that all kingdoms have IDs starting at 1 and increasing\n        // sequentially up to kingdoms.length.\n        for(id = 0; id < kingdoms.length; id++){\n          if(kingdoms[id].commander == _commanderId){\n            officers[officerIndex] = id;\n            officerIndex++;\n          }\n        }\n        return officers;\n      }\n    }\n\n    function getMyOfficers() external view returns (uint[]){\n      uint256 id = kingdomOf[msg.sender];\n      require(id > 0);\n      return getOfficers(id);\n    }\n\n    function haveKingdom() public view returns (bool) {\n      return (kingdomOf[msg.sender] > 0);\n    }\n\n    function getMyKingdomId() public view returns (uint){\n      return (kingdomOf[msg.sender]);\n    }\n\n    function isMyKingdomId(uint256 _id) public view returns (bool){\n      return (kingdomOf[msg.sender] == _id);\n    }\n\n    function getMyKingdom() public view returns (string, uint8, uint8[4], uint, uint, uint, string) {\n      uint256 id = kingdomOf[msg.sender];\n      require(id > 0);\n      return getKingdom(id);\n    }\n\n    function getMyPersonnel() public view returns (uint256[7]) {\n      uint256 id = kingdomOf[msg.sender];\n      require(id > 0);\n      //return getPersonnel(id);\n      return MilitaryLibrary.getMilitary(militaries, id);\n    }\n\n    function getKingdomCount() public view returns (uint) {\n      return kingdoms.length;\n    }\n\n    //********* User-Specific Actions **********\n    //  #assignCommander - Assign new commander\n    //  #upgradeWeapon   - Upgrade weapon by 1 level\n    //  #upgradeFortress - Upgrade fortress by 1 level\n    //\n\n    function assignCommander(uint _commanderId) public {\n      uint256 id = kingdomOf[msg.sender];\n      require(kingdoms[id].commander != _commanderId);\n      numOfOfficers[kingdoms[id].commander] -= 1;\n      numOfOfficers[_commanderId] += 1;\n      kingdoms[id].commander = _commanderId;\n      CommanderAssigned(id, _commanderId);\n    }\n\n    function ditchCommander() public {\n      assignCommander(0);\n    }\n\n    function isCommander(uint _id) public view returns (bool) {\n      return (kingdoms[kingdomOf[msg.sender]].commander == _id);\n    }\n\n    function changeRace(uint8 _race) public {\n      uint256 id = kingdomOf[msg.sender];\n      require(id > 0);\n      var kingdom = kingdoms[id];\n      require(kingdom.race != _race && _race >= 1 && _race <= 5);\n      kingdom.race = _race;\n      ChangedRace(id, _race);\n    }\n\n    function upgradeWeapon() public {\n      uint256 id = kingdomOf[msg.sender];\n      require(id > 0);\n      uint8 level = kingdoms[id].weaponLevel;\n      require(level < weaponMaxLevel);\n      level += 1;\n      kingdoms[id].weaponLevel = level;\n      UpgradeWeapon(id, level);\n    }\n\n    function upgradeFortress() public {\n      require(kingdomOf[msg.sender] != 0);\n      uint256 id = kingdomOf[msg.sender];\n      require(id > 0);\n      uint8 level = kingdoms[id].fortressLevel;\n      require(level < fortressMaxLevel);\n      level += 1;\n      kingdoms[id].fortressLevel = level;\n      UpgradeFortress(id, level);\n    }\n\n    function upgradeCovert() public {\n      require(kingdomOf[msg.sender] != 0);\n      uint256 id = kingdomOf[msg.sender];\n      require(id > 0);\n      uint8 level = kingdoms[id].covertLevel;\n      require(level < covertMaxLevel);\n      level += 1;\n      kingdoms[id].covertLevel = level;\n      UpgradeCovert(id, level);\n    }\n\n    function strikeAction(uint256 _id) public view returns (uint256) {\n        var kingdom = kingdoms[_id];\n        //var military = militaries[_id];\n        return MilitaryLibrary.strikeAction(militaries, _id)\n          * (100 + attackBonus[kingdom.race]) / 100\n          * (uint256(100 + weaponMultiplier) ** uint256(kingdom.weaponLevel)) / (100 ** uint256(kingdom.weaponLevel));\n        //return (military.numOfSoldiers + 2 * (military.numOfAttackSpecialists + military.numOfAttackMercs))\n        //  * (100 + attackBonus[kingdom.race]) / 100\n        //  * (uint256(100 + weaponMultiplier) ** uint256(kingdom.weaponLevel)) / (100 ** uint256(kingdom.weaponLevel));\n    }\n\n    function myStrikeAction() public view returns (uint256) {\n      var id = kingdomOf[msg.sender];\n      require(id > 0);\n      return strikeAction(id);\n    }\n\n    function defensiveAction(uint256 _id) public view returns (uint256) {\n        var kingdom = kingdoms[_id];\n        //var military = militaries[_id];\n        return MilitaryLibrary.defensiveAction(militaries, _id)\n          * (100 + defenseBonus[kingdom.race]) / 100\n          * (uint256(100 + fortressMultiplier) ** uint256(kingdom.fortressLevel)) / (100 ** uint256(kingdom.fortressLevel));\n        //return (military.numOfSoldiers + 2 * (military.numOfDefenseSpecialists) + military.numOfDefenseMercs)\n        //  * (100 + defenseBonus[kingdom.race]) / 100\n        //  * (uint256(100 + fortressMultiplier) ** uint256(kingdom.fortressLevel)) / (100 ** uint256(kingdom.fortressLevel));\n    }\n\n    function myDefensiveAction() public view returns (uint256) {\n      var id = kingdomOf[msg.sender];\n      require(id > 0);\n      return defensiveAction(id);\n    }\n\n    function spyRating(uint256 _id) public view returns (uint256) {\n      var kingdom = kingdoms[_id];\n      //var military = militaries[_id];\n      return MilitaryLibrary.spyRating(militaries, _id) * (100 + spyBonus[kingdom.race]) / 100\n        * (uint256(100 + covertMultiplier) ** uint256(kingdom.covertLevel)) / (100 ** uint256(kingdom.covertLevel));\n      //return military.numOfSpies * (100 + spyBonus[kingdom.race]) / 100\n      //  * (uint256(100 + covertMultiplier) ** uint256(kingdom.covertLevel)) / (100 ** uint256(kingdom.covertLevel));\n    }\n\n    function mySpyRating() public view returns (uint256) {\n      var id = kingdomOf[msg.sender];\n      require(id > 0);\n      return spyRating(id);\n    }\n\n    function sentryRating(uint256 _id) public view returns (uint256) {\n      var kingdom = kingdoms[_id];\n      return MilitaryLibrary.sentryRating(militaries, _id) * (100 + sentryBonus[kingdom.race]) / 100\n        * (uint256(100 + covertMultiplier) ** uint256(kingdom.covertLevel)) / (100 ** uint256(kingdom.covertLevel));\n      //var military = militaries[_id];\n      //return military.numOfSentries * (100 + sentryBonus[kingdom.race]) / 100\n      //  * (uint256(100 + covertMultiplier) ** uint256(kingdom.covertLevel)) / (100 ** uint256(kingdom.covertLevel));\n    }\n\n    function mySentryRating() public view returns (uint256) {\n      var id = kingdomOf[msg.sender];\n      require(id > 0);\n      return sentryRating(id);\n    }\n\n    //returns true,0 if can recruit, otherwise returns false and number of seconds remaining\n    function canAttack() public view returns (bool, uint256){\n      uint256 timePassed = now - attackTime[kingdomOf[msg.sender]];\n      if(timePassed > attackCooldown){\n        return (true, 0);\n      }\n      return (false, attackCooldown - timePassed);\n    }\n\n    function attack(uint256 _targetID) public {\n      uint256 attacker = kingdomOf[msg.sender];\n      require(attacker > 0 && attacker != _targetID);\n      require (now - attackTime[attacker] > attackCooldown);\n      uint256 attacker_damage = myStrikeAction();\n      uint256 defender_damage = defensiveAction(_targetID);\n      uint256 attacker_casualties = 0;\n      uint256 defender_casualties = 0;\n      bool success = attacker_damage > defender_damage;\n      uint256 battleID = battles.push(Battle(now, attacker, _targetID, attacker_damage, defender_damage, attacker_casualties, defender_casualties, success)) - 1;\n      if(success){\n        gainExperience(attacker, 100);\n      }\n      attackTime[attacker] = now;\n      BattleCompleted(battleID);\n    }\n\n    function getBattle(uint _id) public view returns (uint256, uint256, uint256, uint256, uint256, uint256, bool) {\n      var battle = battles[_id];\n      return (battle.attacker, battle.defender, battle.attacker_damage, battle.defender_damage,\n          battle.attacker_casualties, battle.defender_casualties, battle.success);\n    }\n\n    function getRecentAttacks(uint _id) public view returns(uint[2][5], uint){\n      uint[2][5] memory result;\n      uint count = 0;\n      uint battleId;\n\n      for(battleId = battles.length; battleId > 0 && count < 5; battleId--){\n        var battle = battles[battleId - 1];\n        if(battle.defender == _id){\n          //result[count] = battleId - 1;\n          result[count][0] = now - battle.time;\n          result[count][1] = battle.attacker;\n          count++;\n        }\n      }\n      return (result, count);\n    }\n\n    function getMyRecentAttacks() public view returns(uint[2][5], uint){\n      var id = kingdomOf[msg.sender];\n      require(id > 0);\n      return getRecentAttacks(id);\n    }\n\n    function getRecent10IncomingAttacks(uint _id) public view returns(uint[2][10], uint){\n      uint[2][10] memory result;\n      uint count = 0;\n      uint battleId;\n\n      for(battleId = battles.length; battleId > 0 && count < 10; battleId--){\n        var battle = battles[battleId - 1];\n        if(battle.defender == _id){\n          result[count][0] = now - battle.time;\n          result[count][1] = battleId - 1;\n          count++;\n        }\n      }\n      return (result, count);\n    }\n\n    function getRecent10OutgoingAttacks(uint _id) public view returns(uint[2][10], uint){\n      uint[2][10] memory result;\n      uint count = 0;\n      uint battleId;\n\n      for(battleId = battles.length; battleId > 0 && count < 10; battleId--){\n        var battle = battles[battleId - 1];\n        if(battle.attacker == _id){\n          result[count][0] = now - battle.time;\n          result[count][1] = battleId - 1;\n          count++;\n        }\n      }\n      return (result, count);\n    }\n\n    function getMyRecent10IncomingAttacks() public view returns(uint[2][10], uint){\n      var id = kingdomOf[msg.sender];\n      require(id > 0);\n      return getRecent10IncomingAttacks(id);\n    }\n\n    function getMyRecent10OutgoingAttacks() public view returns(uint[2][10], uint){\n      var id = kingdomOf[msg.sender];\n      require(id > 0);\n      return getRecent10OutgoingAttacks(id);\n    }\n\n    //returns true,0 if can recruit, otherwise returns false and number of seconds remaining\n    function canRecruit() public view returns (bool, uint256){\n      uint256 timePassed = now - recruitTime[kingdomOf[msg.sender]];\n      if(timePassed > recruitCooldown){\n        return (true, 0);\n      }\n      return (false, recruitCooldown - timePassed);\n    }\n\n    function recruit() public {\n      var id = kingdomOf[msg.sender];\n      require(id > 0);\n      require (now - recruitTime[id] > recruitCooldown);\n      MilitaryLibrary.recruit(militaries, id, numOfOfficers[id]);\n      //militaries[id].numOfSoldiers += 100 * (1 + numOfOfficers[id]);\n      recruitTime[id] = now;\n      Recruit(id);\n    }\n\n    function trainAttackSpecialists(uint256 _count) public {\n      var id = kingdomOf[msg.sender];\n      require(id > 0);\n      //var military = militaries[id];\n      //require (military.numOfSoldiers >= _count);\n      //military.numOfSoldiers -= _count;\n      //military.numOfAttackSpecialists += _count;\n      MilitaryLibrary.trainAttackSpecialists(militaries, id, _count);\n      TrainedAttackSpecialists(id, _count);\n    }\n\n    function trainDefenseSpecialists(uint256 _count) public {\n      var id = kingdomOf[msg.sender];\n      require(id > 0);\n      //var military = militaries[id];\n      //require (military.numOfSoldiers >= _count);\n      //military.numOfSoldiers -= _count;\n      //military.numOfDefenseSpecialists += _count;\n      MilitaryLibrary.trainDefenseSpecialists(militaries, id, _count);\n      TrainedDefenseSpecialists(id, _count);\n    }\n\n    function trainSpies(uint256 _count) public {\n      var id = kingdomOf[msg.sender];\n      require(id > 0);\n      //var military = militaries[id];\n      //require (military.numOfSoldiers >= _count);\n      //military.numOfSoldiers -= _count;\n      //military.numOfSpies += _count;\n      MilitaryLibrary.trainSpies(militaries, id, _count);\n      TrainedSpies(id, _count);\n    }\n\n    function trainSentries(uint256 _count) public {\n      var id = kingdomOf[msg.sender];\n      require(id > 0);\n      //var military = militaries[id];\n      //require (military.numOfSoldiers >= _count);\n      //military.numOfSoldiers -= _count;\n      //military.numOfSentries += _count;\n      MilitaryLibrary.trainSentries(militaries, id, _count);\n      TrainedSentries(id, _count);\n    }\n\n    function reassignAttackSpecialists(uint256 _count) public {\n      var id = kingdomOf[msg.sender];\n      require(id > 0);\n      //var military = militaries[id];\n      //require (military.numOfAttackSpecialists >= _count);\n      //military.numOfSoldiers += _count;\n      //military.numOfAttackSpecialists -= _count;\n      MilitaryLibrary.reassignAttackSpecialists(militaries, id, _count);\n      ReassignedAttackSpecialists(id, _count);\n    }\n\n    function reassignDefenseSpecialists(uint256 _count) public {\n      var id = kingdomOf[msg.sender];\n      require(id > 0);\n      //var military = militaries[id];\n      //require (military.numOfDefenseSpecialists >= _count);\n      //military.numOfSoldiers += _count;\n      //military.numOfDefenseSpecialists -= _count;\n      MilitaryLibrary.reassignDefenseSpecialists(militaries, id, _count);\n      ReassignedDefenseSpecialists(id, _count);\n    }\n\n    function buyMercs(uint256 _attackMercsCount, uint256 _defenseMercsCount) public {\n      var id = kingdomOf[msg.sender];\n      require(id > 0);\n      //var military = militaries[id];\n      //military.numOfAttackMercs += _attackMercsCount;\n      //military.numOfDefenseMercs += _defenseMercsCount;\n      MilitaryLibrary.buyMercs(militaries, id, _attackMercsCount, _defenseMercsCount);\n      PurchasedMercs(id, _attackMercsCount, _defenseMercsCount);\n    }\n    \n}\n",
  "sourcePath": "/Users/kevin/KingsOfChaos/contracts/KingdomFactory_library.sol",
  "compiler": {
    "name": "solc",
    "version": "0.4.19+commit.c4cbbb05.Emscripten.clang"
  },
  "schemaVersion": "2.0.0",
  "updatedAt": "2018-03-04T01:04:04.006Z"
}