{
  "contractName": "KingdomFactory",
  "abi": [
    {
      "inputs": [],
      "payable": false,
      "stateMutability": "nonpayable",
      "type": "constructor"
    },
    {
      "anonymous": false,
      "inputs": [
        {
          "indexed": false,
          "name": "kingdomId",
          "type": "uint256"
        },
        {
          "indexed": false,
          "name": "name",
          "type": "string"
        },
        {
          "indexed": false,
          "name": "race",
          "type": "uint256"
        }
      ],
      "name": "NewKingdom",
      "type": "event"
    },
    {
      "anonymous": false,
      "inputs": [
        {
          "indexed": false,
          "name": "kingdomId",
          "type": "uint256"
        },
        {
          "indexed": false,
          "name": "weaponLevel",
          "type": "uint256"
        }
      ],
      "name": "UpgradeWeapon",
      "type": "event"
    },
    {
      "anonymous": false,
      "inputs": [
        {
          "indexed": false,
          "name": "kingdomId",
          "type": "uint256"
        },
        {
          "indexed": false,
          "name": "fortressLevel",
          "type": "uint256"
        }
      ],
      "name": "UpgradeFortress",
      "type": "event"
    },
    {
      "anonymous": false,
      "inputs": [
        {
          "indexed": false,
          "name": "battleId",
          "type": "uint256"
        }
      ],
      "name": "BattleCompleted",
      "type": "event"
    },
    {
      "anonymous": false,
      "inputs": [
        {
          "indexed": false,
          "name": "kingdomId",
          "type": "uint256"
        }
      ],
      "name": "Recruit",
      "type": "event"
    },
    {
      "anonymous": false,
      "inputs": [
        {
          "indexed": false,
          "name": "kingdomId",
          "type": "uint256"
        },
        {
          "indexed": false,
          "name": "commanderId",
          "type": "uint256"
        }
      ],
      "name": "CommanderAssigned",
      "type": "event"
    },
    {
      "anonymous": false,
      "inputs": [
        {
          "indexed": false,
          "name": "kingdomId",
          "type": "uint256"
        },
        {
          "indexed": false,
          "name": "count",
          "type": "uint256"
        }
      ],
      "name": "TrainedAttackSpecialists",
      "type": "event"
    },
    {
      "anonymous": false,
      "inputs": [
        {
          "indexed": false,
          "name": "kingdomId",
          "type": "uint256"
        },
        {
          "indexed": false,
          "name": "count",
          "type": "uint256"
        }
      ],
      "name": "TrainedDefenseSpecialists",
      "type": "event"
    },
    {
      "anonymous": false,
      "inputs": [
        {
          "indexed": false,
          "name": "kingdomId",
          "type": "uint256"
        },
        {
          "indexed": false,
          "name": "count",
          "type": "uint256"
        }
      ],
      "name": "TrainedSpies",
      "type": "event"
    },
    {
      "anonymous": false,
      "inputs": [
        {
          "indexed": false,
          "name": "kingdomId",
          "type": "uint256"
        },
        {
          "indexed": false,
          "name": "count",
          "type": "uint256"
        }
      ],
      "name": "TrainedSentries",
      "type": "event"
    },
    {
      "constant": false,
      "inputs": [
        {
          "name": "_name",
          "type": "string"
        },
        {
          "name": "_race",
          "type": "uint256"
        }
      ],
      "name": "createNewKingdom",
      "outputs": [
        {
          "name": "",
          "type": "uint256"
        }
      ],
      "payable": false,
      "stateMutability": "nonpayable",
      "type": "function"
    },
    {
      "constant": true,
      "inputs": [
        {
          "name": "_id",
          "type": "uint256"
        }
      ],
      "name": "getKingdom",
      "outputs": [
        {
          "name": "",
          "type": "string"
        },
        {
          "name": "",
          "type": "uint8"
        },
        {
          "name": "",
          "type": "uint8"
        },
        {
          "name": "",
          "type": "uint8"
        },
        {
          "name": "",
          "type": "uint256"
        },
        {
          "name": "",
          "type": "uint256"
        },
        {
          "name": "",
          "type": "string"
        }
      ],
      "payable": false,
      "stateMutability": "view",
      "type": "function"
    },
    {
      "constant": true,
      "inputs": [
        {
          "name": "_id",
          "type": "uint256"
        }
      ],
      "name": "getPersonnel",
      "outputs": [
        {
          "name": "",
          "type": "uint256"
        },
        {
          "name": "",
          "type": "uint256"
        },
        {
          "name": "",
          "type": "uint256"
        },
        {
          "name": "",
          "type": "uint256"
        },
        {
          "name": "",
          "type": "uint256"
        }
      ],
      "payable": false,
      "stateMutability": "view",
      "type": "function"
    },
    {
      "constant": true,
      "inputs": [],
      "name": "getWeaponMultiplier",
      "outputs": [
        {
          "name": "",
          "type": "uint8"
        }
      ],
      "payable": false,
      "stateMutability": "view",
      "type": "function"
    },
    {
      "constant": true,
      "inputs": [],
      "name": "getFortressMultiplier",
      "outputs": [
        {
          "name": "",
          "type": "uint8"
        }
      ],
      "payable": false,
      "stateMutability": "view",
      "type": "function"
    },
    {
      "constant": true,
      "inputs": [
        {
          "name": "_commanderId",
          "type": "uint256"
        }
      ],
      "name": "getOfficers",
      "outputs": [
        {
          "name": "",
          "type": "uint256[]"
        }
      ],
      "payable": false,
      "stateMutability": "view",
      "type": "function"
    },
    {
      "constant": true,
      "inputs": [],
      "name": "getMyOfficers",
      "outputs": [
        {
          "name": "",
          "type": "uint256[]"
        }
      ],
      "payable": false,
      "stateMutability": "view",
      "type": "function"
    },
    {
      "constant": true,
      "inputs": [],
      "name": "haveKingdom",
      "outputs": [
        {
          "name": "",
          "type": "bool"
        }
      ],
      "payable": false,
      "stateMutability": "view",
      "type": "function"
    },
    {
      "constant": true,
      "inputs": [],
      "name": "getMyKingdomId",
      "outputs": [
        {
          "name": "",
          "type": "uint256"
        }
      ],
      "payable": false,
      "stateMutability": "view",
      "type": "function"
    },
    {
      "constant": true,
      "inputs": [],
      "name": "getMyKingdom",
      "outputs": [
        {
          "name": "",
          "type": "string"
        },
        {
          "name": "",
          "type": "uint8"
        },
        {
          "name": "",
          "type": "uint8"
        },
        {
          "name": "",
          "type": "uint8"
        },
        {
          "name": "",
          "type": "uint256"
        },
        {
          "name": "",
          "type": "uint256"
        },
        {
          "name": "",
          "type": "string"
        }
      ],
      "payable": false,
      "stateMutability": "view",
      "type": "function"
    },
    {
      "constant": true,
      "inputs": [],
      "name": "getMyPersonnel",
      "outputs": [
        {
          "name": "",
          "type": "uint256"
        },
        {
          "name": "",
          "type": "uint256"
        },
        {
          "name": "",
          "type": "uint256"
        },
        {
          "name": "",
          "type": "uint256"
        },
        {
          "name": "",
          "type": "uint256"
        }
      ],
      "payable": false,
      "stateMutability": "view",
      "type": "function"
    },
    {
      "constant": true,
      "inputs": [],
      "name": "getKingdomCount",
      "outputs": [
        {
          "name": "",
          "type": "uint256"
        }
      ],
      "payable": false,
      "stateMutability": "view",
      "type": "function"
    },
    {
      "constant": false,
      "inputs": [
        {
          "name": "_commanderId",
          "type": "uint256"
        }
      ],
      "name": "assignCommander",
      "outputs": [],
      "payable": false,
      "stateMutability": "nonpayable",
      "type": "function"
    },
    {
      "constant": false,
      "inputs": [],
      "name": "ditchCommander",
      "outputs": [],
      "payable": false,
      "stateMutability": "nonpayable",
      "type": "function"
    },
    {
      "constant": true,
      "inputs": [
        {
          "name": "_id",
          "type": "uint256"
        }
      ],
      "name": "isCommander",
      "outputs": [
        {
          "name": "",
          "type": "bool"
        }
      ],
      "payable": false,
      "stateMutability": "view",
      "type": "function"
    },
    {
      "constant": false,
      "inputs": [],
      "name": "upgradeWeapon",
      "outputs": [],
      "payable": false,
      "stateMutability": "nonpayable",
      "type": "function"
    },
    {
      "constant": false,
      "inputs": [],
      "name": "upgradeFortress",
      "outputs": [],
      "payable": false,
      "stateMutability": "nonpayable",
      "type": "function"
    },
    {
      "constant": true,
      "inputs": [
        {
          "name": "_id",
          "type": "uint256"
        }
      ],
      "name": "strikeAction",
      "outputs": [
        {
          "name": "",
          "type": "uint256"
        }
      ],
      "payable": false,
      "stateMutability": "view",
      "type": "function"
    },
    {
      "constant": true,
      "inputs": [],
      "name": "myStrikeAction",
      "outputs": [
        {
          "name": "",
          "type": "uint256"
        }
      ],
      "payable": false,
      "stateMutability": "view",
      "type": "function"
    },
    {
      "constant": true,
      "inputs": [
        {
          "name": "_id",
          "type": "uint256"
        }
      ],
      "name": "defensiveAction",
      "outputs": [
        {
          "name": "",
          "type": "uint256"
        }
      ],
      "payable": false,
      "stateMutability": "view",
      "type": "function"
    },
    {
      "constant": true,
      "inputs": [],
      "name": "myDefensiveAction",
      "outputs": [
        {
          "name": "",
          "type": "uint256"
        }
      ],
      "payable": false,
      "stateMutability": "view",
      "type": "function"
    },
    {
      "constant": true,
      "inputs": [
        {
          "name": "_id",
          "type": "uint256"
        }
      ],
      "name": "spyRating",
      "outputs": [
        {
          "name": "",
          "type": "uint256"
        }
      ],
      "payable": false,
      "stateMutability": "view",
      "type": "function"
    },
    {
      "constant": true,
      "inputs": [],
      "name": "mySpyRating",
      "outputs": [
        {
          "name": "",
          "type": "uint256"
        }
      ],
      "payable": false,
      "stateMutability": "view",
      "type": "function"
    },
    {
      "constant": true,
      "inputs": [
        {
          "name": "_id",
          "type": "uint256"
        }
      ],
      "name": "sentryRating",
      "outputs": [
        {
          "name": "",
          "type": "uint256"
        }
      ],
      "payable": false,
      "stateMutability": "view",
      "type": "function"
    },
    {
      "constant": true,
      "inputs": [],
      "name": "mySentryRating",
      "outputs": [
        {
          "name": "",
          "type": "uint256"
        }
      ],
      "payable": false,
      "stateMutability": "view",
      "type": "function"
    },
    {
      "constant": false,
      "inputs": [
        {
          "name": "_targetID",
          "type": "uint256"
        }
      ],
      "name": "attack",
      "outputs": [],
      "payable": false,
      "stateMutability": "nonpayable",
      "type": "function"
    },
    {
      "constant": true,
      "inputs": [
        {
          "name": "_id",
          "type": "uint256"
        }
      ],
      "name": "getBattle",
      "outputs": [
        {
          "name": "",
          "type": "uint256"
        },
        {
          "name": "",
          "type": "uint256"
        },
        {
          "name": "",
          "type": "uint256"
        },
        {
          "name": "",
          "type": "uint256"
        },
        {
          "name": "",
          "type": "uint256"
        },
        {
          "name": "",
          "type": "uint256"
        },
        {
          "name": "",
          "type": "bool"
        }
      ],
      "payable": false,
      "stateMutability": "view",
      "type": "function"
    },
    {
      "constant": true,
      "inputs": [
        {
          "name": "_id",
          "type": "uint256"
        }
      ],
      "name": "getRecentAttacks",
      "outputs": [
        {
          "name": "",
          "type": "uint256[2][5]"
        },
        {
          "name": "",
          "type": "uint256"
        }
      ],
      "payable": false,
      "stateMutability": "view",
      "type": "function"
    },
    {
      "constant": true,
      "inputs": [],
      "name": "getMyRecentAttacks",
      "outputs": [
        {
          "name": "",
          "type": "uint256[2][5]"
        },
        {
          "name": "",
          "type": "uint256"
        }
      ],
      "payable": false,
      "stateMutability": "view",
      "type": "function"
    },
    {
      "constant": true,
      "inputs": [
        {
          "name": "_id",
          "type": "uint256"
        }
      ],
      "name": "getRecent10IncomingAttacks",
      "outputs": [
        {
          "name": "",
          "type": "uint256[2][10]"
        },
        {
          "name": "",
          "type": "uint256"
        }
      ],
      "payable": false,
      "stateMutability": "view",
      "type": "function"
    },
    {
      "constant": true,
      "inputs": [
        {
          "name": "_id",
          "type": "uint256"
        }
      ],
      "name": "getRecent10OutgoingAttacks",
      "outputs": [
        {
          "name": "",
          "type": "uint256[2][10]"
        },
        {
          "name": "",
          "type": "uint256"
        }
      ],
      "payable": false,
      "stateMutability": "view",
      "type": "function"
    },
    {
      "constant": true,
      "inputs": [],
      "name": "getMyRecent10IncomingAttacks",
      "outputs": [
        {
          "name": "",
          "type": "uint256[2][10]"
        },
        {
          "name": "",
          "type": "uint256"
        }
      ],
      "payable": false,
      "stateMutability": "view",
      "type": "function"
    },
    {
      "constant": true,
      "inputs": [],
      "name": "getMyRecent10OutgoingAttacks",
      "outputs": [
        {
          "name": "",
          "type": "uint256[2][10]"
        },
        {
          "name": "",
          "type": "uint256"
        }
      ],
      "payable": false,
      "stateMutability": "view",
      "type": "function"
    },
    {
      "constant": true,
      "inputs": [],
      "name": "canRecruit",
      "outputs": [
        {
          "name": "",
          "type": "bool"
        },
        {
          "name": "",
          "type": "uint256"
        }
      ],
      "payable": false,
      "stateMutability": "view",
      "type": "function"
    },
    {
      "constant": false,
      "inputs": [],
      "name": "recruit",
      "outputs": [],
      "payable": false,
      "stateMutability": "nonpayable",
      "type": "function"
    },
    {
      "constant": false,
      "inputs": [
        {
          "name": "_count",
          "type": "uint256"
        }
      ],
      "name": "trainAttackSpecialists",
      "outputs": [],
      "payable": false,
      "stateMutability": "nonpayable",
      "type": "function"
    },
    {
      "constant": false,
      "inputs": [
        {
          "name": "_count",
          "type": "uint256"
        }
      ],
      "name": "trainDefenseSpecialists",
      "outputs": [],
      "payable": false,
      "stateMutability": "nonpayable",
      "type": "function"
    },
    {
      "constant": false,
      "inputs": [
        {
          "name": "_count",
          "type": "uint256"
        }
      ],
      "name": "trainSpies",
      "outputs": [],
      "payable": false,
      "stateMutability": "nonpayable",
      "type": "function"
    },
    {
      "constant": false,
      "inputs": [
        {
          "name": "_count",
          "type": "uint256"
        }
      ],
      "name": "trainSentries",
      "outputs": [],
      "payable": false,
      "stateMutability": "nonpayable",
      "type": "function"
    }
  ],
  "bytecode": "0x6060604052601e600760006101000a81548160ff021916908360ff1602179055506019600760016101000a81548160ff021916908360ff16021790555061012c60085560c060405190810160405280600060ff168152602001601e60ff168152602001600f60ff168152602001600060ff168152602001600060ff168152602001600060ff1681525060099060066200009a9291906200069d565b5060c060405190810160405280606460ff168152602001600060ff168152602001600060ff168152602001600060ff168152602001602360ff168152602001600060ff16815250600a906006620000f39291906200069d565b5060c060405190810160405280606460ff168152602001600060ff168152602001602860ff168152602001600060ff168152602001601460ff168152602001600060ff16815250600b9060066200014c9291906200069d565b5060c060405190810160405280606460ff168152602001602360ff168152602001600060ff168152602001602d60ff168152602001600060ff168152602001600060ff16815250600c906006620001a59291906200069d565b5060c060405190810160405280606460ff168152602001600060ff168152602001600060ff168152602001600060ff168152602001600060ff168152602001602360ff16815250600d906006620001fe9291906200069d565b5060c060405190810160405280603260ff168152602001600060ff168152602001600060ff168152602001604660ff168152602001600060ff168152602001605560ff16815250600e906006620002579291906200069d565b5034156200026457600080fd5b620002c86040805190810160405280600381526020017f476f6400000000000000000000000000000000000000000000000000000000008152506000600e6010620f4240612710806000620003996401000000000262002801176401000000009004565b506200032d6040805190810160405280601081526020017f476f6427732052696768742048616e64000000000000000000000000000000008152506000600c600e620186a06103e8806000620003996401000000000262002801176401000000009004565b50620003926040805190810160405280600f81526020017f476f642773204c6566742048616e6400000000000000000000000000000000008152506000600c600e620186a06103e8806000620003996401000000000262002801176401000000009004565b50620009ad565b600080600160008054806001018281620003b491906200074b565b9160005260206000209060040201600060c0604051908101604052808f81526020018e60ff1681526020018d60ff1681526020018c60ff1681526020016000815260200188815250909190915060008201518160000190805190602001906200041f92919062000780565b5060208201518160010160006101000a81548160ff021916908360ff16021790555060408201518160010160016101000a81548160ff021916908360ff16021790555060608201518160010160026101000a81548160ff021916908360ff1602179055506080820151816002015560a08201518160030155505003905060018054806001018281620004b2919062000807565b9160005260206000209060050201600060a0604051908101604052808a815260200160008152602001600081526020018981526020018881525090919091506000820151816000015560208201518160010155604082015181600201556060820151816003015560808201518160040155505050336004600083815260200190815260200160002060006101000a81548173ffffffffffffffffffffffffffffffffffffffff021916908373ffffffffffffffffffffffffffffffffffffffff16021790555080600360003373ffffffffffffffffffffffffffffffffffffffff1673ffffffffffffffffffffffffffffffffffffffff16815260200190815260200160002081905550600160056000858152602001908152602001600020600082825401925050819055507f8903d00f136209d2fb29b581df936c8cbc1f7f2f70aafe69e061eff9527d7cbd818b8b6040518084815260200180602001838152602001828103825284818151815260200191508051906020019080838360005b838110156200065057808201518184015260208101905062000633565b50505050905090810190601f1680156200067e5780820380516001836020036101000a031916815260200191505b5094505050505060405180910390a18091505098975050505050505050565b82805482825590600052602060002090601f01602090048101928215620007385791602002820160005b838211156200070757835183826101000a81548160ff021916908360ff1602179055509260200192600101602081600001049283019260010302620006c7565b8015620007365782816101000a81549060ff021916905560010160208160000104928301926001030262000707565b505b5090506200074791906200083c565b5090565b8154818355818115116200077b576004028160040283600052602060002091820191016200077a91906200086f565b5b505050565b828054600181600116156101000203166002900490600052602060002090601f016020900481019282601f10620007c357805160ff1916838001178555620007f4565b82800160010185558215620007f4579182015b82811115620007f3578251825591602001919060010190620007d6565b5b509050620008039190620008ef565b5090565b815481835581811511620008375760050281600502836000526020600020918201910162000836919062000917565b5b505050565b6200086c91905b808211156200086857600081816101000a81549060ff02191690555060010162000843565b5090565b90565b620008ec91905b80821115620008e8576000808201600062000892919062000961565b6001820160006101000a81549060ff02191690556001820160016101000a81549060ff02191690556001820160026101000a81549060ff0219169055600282016000905560038201600090555060040162000876565b5090565b90565b6200091491905b8082111562000910576000816000905550600101620008f6565b5090565b90565b6200095e91905b808211156200095a576000808201600090556001820160009055600282016000905560038201600090556004820160009055506005016200091e565b5090565b90565b50805460018160011615610100020316600290046000825580601f10620009895750620009aa565b601f016020900490600052602060002090810190620009a99190620008ef565b5b50565b612e8580620009bd6000396000f3006060604052600436106101e2576000357c0100000000000000000000000000000000000000000000000000000000900463ffffffff16806270379b146101e757806305ddb4e01461020a5780630b8d16d5146102825780630ca62a8a146103bf5780630eb70db1146103f65780631185f5af146104315780631758f5221461046857806318070857146104975780631e7d6558146104c0578063214d23c8146104d557806326275974146104ea57806339925477146105735780635796f280146105965780635c30d3511461061057806364dd891a14610639578063689f8c5c1461065c5780636a0f5440146106715780636dd0ce7a146106a55780637f8680ab1461070a57806384d2d4be146108395780638c56c5f8146108c25780638d9c842f146108eb5780638e4060721461090e57806394bff99114610937578063a153d918146109c0578063acff8da5146109e9578063ca4afd0214610a64578063cbfc956514610ab7578063d644cb1d14610ae6578063d99b587614610b09578063daa3784714610b73578063de73ea1914610baa578063e42e638814610c25578063e5dcdf9b14610c3a578063e7711dde14610c63578063ed5b7e5e14610c86578063f2ed2dff14610ccb578063f328dbbb14610cf8578063fca1efec14610d73575b600080fd5b34156101f257600080fd5b6102086004808035906020019091905050610daa565b005b341561021557600080fd5b61022b6004808035906020019091905050610e98565b6040518080602001828103825283818151815260200191508051906020019060200280838360005b8381101561026e578082015181840152602081019050610253565b505050509050019250505060405180910390f35b341561028d57600080fd5b6102a36004808035906020019091905050610f92565b60405180806020018860ff1660ff1681526020018760ff1660ff1681526020018660ff1660ff1681526020018581526020018481526020018060200183810383528a818151815260200191508051906020019080838360005b838110156103175780820151818401526020810190506102fc565b50505050905090810190601f1680156103445780820380516001836020036101000a031916815260200191505b50838103825284818151815260200191508051906020019080838360005b8381101561037d578082015181840152602081019050610362565b50505050905090810190601f1680156103aa5780820380516001836020036101000a031916815260200191505b50995050505050505050505060405180910390f35b34156103ca57600080fd5b6103e0600480803590602001909190505061118a565b6040518082815260200191505060405180910390f35b341561040157600080fd5b6104176004808035906020019091905050611230565b604051808215151515815260200191505060405180910390f35b341561043c57600080fd5b610452600480803590602001909190505061129b565b6040518082815260200191505060405180910390f35b341561047357600080fd5b61047b611399565b604051808260ff1660ff16815260200191505060405180910390f35b34156104a257600080fd5b6104aa6113b0565b6040518082815260200191505060405180910390f35b34156104cb57600080fd5b6104d3611413565b005b34156104e057600080fd5b6104e861152e565b005b34156104f557600080fd5b61050b6004808035906020019091905050611698565b6040518083600a6000925b8184101561055c5782846020020151600260200280838360005b8381101561054b578082015181840152602081019050610530565b505050509050019260010192610516565b925050508281526020019250505060405180910390f35b341561057e57600080fd5b6105946004808035906020019091905050611783565b005b34156105a157600080fd5b6105fa600480803590602001908201803590602001908080601f01602080910402602001604051908101604052809392919081815260200183838082843782019150505050505091908035906020019091905050611871565b6040518082815260200191505060405180910390f35b341561061b57600080fd5b6106236118db565b6040518082815260200191505060405180910390f35b341561064457600080fd5b61065a600480803590602001909190505061193e565b005b341561066757600080fd5b61066f611ad0565b005b341561067c57600080fd5b610684611be1565b60405180831515151581526020018281526020019250505060405180910390f35b34156106b057600080fd5b6106c66004808035906020019091905050611c68565b604051808881526020018781526020018681526020018581526020018481526020018381526020018215151515815260200197505050505050505060405180910390f35b341561071557600080fd5b61071d611cdd565b60405180806020018860ff1660ff1681526020018760ff1660ff1681526020018660ff1660ff1681526020018581526020018481526020018060200183810383528a818151815260200191508051906020019080838360005b83811015610791578082015181840152602081019050610776565b50505050905090810190601f1680156107be5780820380516001836020036101000a031916815260200191505b50838103825284818151815260200191508051906020019080838360005b838110156107f75780820151818401526020810190506107dc565b50505050905090810190601f1680156108245780820380516001836020036101000a031916815260200191505b50995050505050505050505060405180910390f35b341561084457600080fd5b61085a6004808035906020019091905050611d69565b6040518083600a6000925b818410156108ab5782846020020151600260200280838360005b8381101561089a57808201518184015260208101905061087f565b505050509050019260010192610865565b925050508281526020019250505060405180910390f35b34156108cd57600080fd5b6108d5611e54565b6040518082815260200191505060405180910390f35b34156108f657600080fd5b61090c6004808035906020019091905050611eb7565b005b341561091957600080fd5b610921611ff5565b6040518082815260200191505060405180910390f35b341561094257600080fd5b6109586004808035906020019091905050612001565b604051808360056000925b818410156109a95782846020020151600260200280838360005b8381101561099857808201518184015260208101905061097d565b505050509050019260010192610963565b925050508281526020019250505060405180910390f35b34156109cb57600080fd5b6109d36120ed565b6040518082815260200191505060405180910390f35b34156109f457600080fd5b6109fc612150565b604051808360056000925b81841015610a4d5782846020020151600260200280838360005b83811015610a3c578082015181840152602081019050610a21565b505050509050019260010192610a07565b925050508281526020019250505060405180910390f35b3415610a6f57600080fd5b610a8560048080359060200190919050506121be565b604051808681526020018581526020018481526020018381526020018281526020019550505050505060405180910390f35b3415610ac257600080fd5b610aca612213565b604051808260ff1660ff16815260200191505060405180910390f35b3415610af157600080fd5b610b07600480803590602001909190505061222a565b005b3415610b1457600080fd5b610b1c612318565b6040518080602001828103825283818151815260200191508051906020019060200280838360005b83811015610b5f578082015181840152602081019050610b44565b505050509050019250505060405180910390f35b3415610b7e57600080fd5b610b946004808035906020019091905050612382565b6040518082815260200191505060405180910390f35b3415610bb557600080fd5b610bbd612480565b6040518083600a6000925b81841015610c0e5782846020020151600260200280838360005b83811015610bfd578082015181840152602081019050610be2565b505050509050019260010192610bc8565b925050508281526020019250505060405180910390f35b3415610c3057600080fd5b610c386124ee565b005b3415610c4557600080fd5b610c4d6124fa565b6040518082815260200191505060405180910390f35b3415610c6e57600080fd5b610c846004808035906020019091905050612541565b005b3415610c9157600080fd5b610c9961262f565b604051808681526020018581526020018481526020018381526020018281526020019550505050505060405180910390f35b3415610cd657600080fd5b610cde6126a4565b604051808215151515815260200191505060405180910390f35b3415610d0357600080fd5b610d0b6126ed565b6040518083600a6000925b81841015610d5c5782846020020151600260200280838360005b83811015610d4b578082015181840152602081019050610d30565b505050509050019260010192610d16565b925050508281526020019250505060405180910390f35b3415610d7e57600080fd5b610d94600480803590602001909190505061275b565b6040518082815260200191505060405180910390f35b600080600360003373ffffffffffffffffffffffffffffffffffffffff1673ffffffffffffffffffffffffffffffffffffffff168152602001908152602001600020549150600082111515610dfe57600080fd5b600182815481101515610e0d57fe5b9060005260206000209060050201905082816000015410151515610e3057600080fd5b8281600001600082825403925050819055508281600401600082825401925050819055507fa69a32d5b1ceff1703230cea48ee9c074ec2703823d3f2529c0c711510d6e8568284604051808381526020018281526020019250505060405180910390a1505050565b610ea0612afc565b6000806000610ead612afc565b600560008781526020019081526020016000205492506000831415610ef3576000604051805910610edb5750595b90808252806020026020018201604052509450610f89565b6000915082604051805910610f055750595b90808252806020026020018201604052509050600093505b600080549050841015610f855785600085815481101515610f3a57fe5b9060005260206000209060040201600301541415610f7857838183815181101515610f6157fe5b906020019060200201818152505081806001019250505b8380600101945050610f1d565b8094505b50505050919050565b610f9a612b10565b6000806000806000610faa612b10565b60008060008a815481101515610fbc57fe5b9060005260206000209060040201915060008260030154815481101515610fdf57fe5b90600052602060002090600402016000019050816000018260010160009054906101000a900460ff168360010160019054906101000a900460ff168460010160029054906101000a900460ff168560020154866003015486868054600181600116156101000203166002900480601f0160208091040260200160405190810160405280929190818152602001828054600181600116156101000203166002900480156110cc5780601f106110a1576101008083540402835291602001916110cc565b820191906000526020600020905b8154815290600101906020018083116110af57829003601f168201915b50505050509650808054600181600116156101000203166002900480601f0160208091040260200160405190810160405280929190818152602001828054600181600116156101000203166002900480156111685780601f1061113d57610100808354040283529160200191611168565b820191906000526020600020905b81548152906001019060200180831161114b57829003601f168201915b5050505050905098509850985098509850985098505050919395979092949650565b6000806000808481548110151561119d57fe5b906000526020600020906004020191506001848154811015156111bc57fe5b906000526020600020906005020190506064600c8360010160009054906101000a900460ff1660ff168154811015156111f157fe5b90600052602060002090602091828204019190069054906101000a900460ff1660640160ff1682600301540281151561122657fe5b0492505050919050565b6000816000600360003373ffffffffffffffffffffffffffffffffffffffff1673ffffffffffffffffffffffffffffffffffffffff1681526020019081526020016000205481548110151561128157fe5b906000526020600020906004020160030154149050919050565b600080600080848154811015156112ae57fe5b906000526020600020906004020191506001848154811015156112cd57fe5b906000526020600020906005020190508160010160019054906101000a900460ff1660ff1660640a8260010160019054906101000a900460ff1660ff16600760009054906101000a900460ff1660640160ff160a6064600a8560010160009054906101000a900460ff1660ff1681548110151561134657fe5b90600052602060002090602091828204019190069054906101000a900460ff1660640160ff1684600101546002028560000154010281151561138457fe5b040281151561138f57fe5b0492505050919050565b6000600760009054906101000a900460ff16905090565b600080600360003373ffffffffffffffffffffffffffffffffffffffff1673ffffffffffffffffffffffffffffffffffffffff16815260200190815260200160002054905060008111151561140457600080fd5b61140d8161129b565b91505090565b600080600360003373ffffffffffffffffffffffffffffffffffffffff1673ffffffffffffffffffffffffffffffffffffffff16815260200190815260200160002054915060008211151561146757600080fd5b60008281548110151561147657fe5b906000526020600020906004020160010160019054906101000a900460ff169050600e8160ff161015156114a957600080fd5b600181019050806000838154811015156114bf57fe5b906000526020600020906004020160010160016101000a81548160ff021916908360ff1602179055507fc1951a752c7ea5b127e5d8611a8fc5624a02db238afe91956ffb73be75cdd4f58282604051808381526020018260ff1681526020019250505060405180910390a15050565b6000806000600360003373ffffffffffffffffffffffffffffffffffffffff1673ffffffffffffffffffffffffffffffffffffffff168152602001908152602001600020541415151561158057600080fd5b600360003373ffffffffffffffffffffffffffffffffffffffff1673ffffffffffffffffffffffffffffffffffffffff1681526020019081526020016000205491506000821115156115d157600080fd5b6000828154811015156115e057fe5b906000526020600020906004020160010160029054906101000a900460ff16905060108160ff1610151561161357600080fd5b6001810190508060008381548110151561162957fe5b906000526020600020906004020160010160026101000a81548160ff021916908360ff1602179055507f3faf8d366ab416cfcf9718489c90f5b4c1ec9a8b968eab74cc30ee2f1c61b6908282604051808381526020018260ff1681526020019250505060405180910390a15050565b6116a0612b24565b60006116aa612b24565b600080600080925060028054905091505b6000821180156116cb5750600a83105b15611774576002600183038154811015156116e257fe5b90600052602060002090600802019050868160010154141561176657806000015442038484600a8110151561171357fe5b6020020151600060028110151561172657fe5b602002018181525050600182038484600a8110151561174157fe5b6020020151600160028110151561175457fe5b60200201818152505082806001019350505b8180600190039250506116bb565b83839550955050505050915091565b600080600360003373ffffffffffffffffffffffffffffffffffffffff1673ffffffffffffffffffffffffffffffffffffffff1681526020019081526020016000205491506000821115156117d757600080fd5b6001828154811015156117e657fe5b906000526020600020906005020190508281600001541015151561180957600080fd5b8281600001600082825403925050819055508281600201600082825401925050819055507f8dab6851fd136f28222d7e45ef390b5b993c76b489f265025a71b42526ef236d8284604051808381526020018281526020019250505060405180910390a1505050565b600080600360003373ffffffffffffffffffffffffffffffffffffffff1673ffffffffffffffffffffffffffffffffffffffff168152602001908152602001600020541415156118c057600080fd5b6118d38383600080600080600080612801565b905092915050565b600080600360003373ffffffffffffffffffffffffffffffffffffffff1673ffffffffffffffffffffffffffffffffffffffff16815260200190815260200160002054905060008111151561192f57600080fd5b6119388161118a565b91505090565b6000806000806000806000600360003373ffffffffffffffffffffffffffffffffffffffff1673ffffffffffffffffffffffffffffffffffffffff16815260200190815260200160002054965087871415151561199a57600080fd5b6119a26113b0565b95506119ad88612382565b9450600093506000925084861191506001600280548060010182816119d29190612b53565b91600052602060002090600802016000610100604051908101604052804281526020018c81526020018d81526020018b81526020018a81526020018981526020018881526020018715158152509091909150600082015181600001556020820151816001015560408201518160020155606082015181600301556080820151816004015560a0820151816005015560c0820151816006015560e08201518160070160006101000a81548160ff02191690831515021790555050500390507f2698d75f814df009b510df39d03c901a6e830c6dfd50922c8fe6bbb794967843816040518082815260200191505060405180910390a15050505050505050565b6000600360003373ffffffffffffffffffffffffffffffffffffffff1673ffffffffffffffffffffffffffffffffffffffff168152602001908152602001600020549050600081111515611b2357600080fd5b60085460066000838152602001908152602001600020544203111515611b4857600080fd5b6005600082815260200190815260200160002054600101606402600182815481101515611b7157fe5b9060005260206000209060050201600001600082825401925050819055504260066000838152602001908152602001600020819055507f60e7be082d1721960e15a9ebd82c9f2e704d97b328525ff70a15e402f40410fb816040518082815260200191505060405180910390a150565b600080600060066000600360003373ffffffffffffffffffffffffffffffffffffffff1673ffffffffffffffffffffffffffffffffffffffff1681526020019081526020016000205481526020019081526020016000205442039050600854811115611c57576001600080905092509250611c63565b60008160085403925092505b509091565b600080600080600080600080600289815481101515611c8357fe5b906000526020600020906008020190508060010154816002015482600301548360040154846005015485600601548660070160009054906101000a900460ff16975097509750975097509750975050919395979092949650565b611ce5612b10565b6000806000806000611cf5612b10565b6000600360003373ffffffffffffffffffffffffffffffffffffffff1673ffffffffffffffffffffffffffffffffffffffff168152602001908152602001600020549050600081111515611d4857600080fd5b611d5181610f92565b97509750975097509750975097505090919293949596565b611d71612b24565b6000611d7b612b24565b600080600080925060028054905091505b600082118015611d9c5750600a83105b15611e4557600260018303815481101515611db357fe5b906000526020600020906008020190508681600201541415611e3757806000015442038484600a81101515611de457fe5b60200201516000600281101515611df757fe5b602002018181525050600182038484600a81101515611e1257fe5b60200201516001600281101515611e2557fe5b60200201818152505082806001019350505b818060019003925050611d8c565b83839550955050505050915091565b600080600360003373ffffffffffffffffffffffffffffffffffffffff1673ffffffffffffffffffffffffffffffffffffffff168152602001908152602001600020549050600081111515611ea857600080fd5b611eb18161275b565b91505090565b6000600360003373ffffffffffffffffffffffffffffffffffffffff1673ffffffffffffffffffffffffffffffffffffffff16815260200190815260200160002054905081600082815481101515611f0b57fe5b90600052602060002090600402016003015414151515611f2a57600080fd5b6001600560008084815481101515611f3e57fe5b9060005260206000209060040201600301548152602001908152602001600020600082825403925050819055506001600560008481526020019081526020016000206000828254019250508190555081600082815481101515611f9d57fe5b9060005260206000209060040201600301819055507f6656648d38e5e0c3fee01e298d927bf08e1f558de201fe28d11e710a6e9802068183604051808381526020018281526020019250505060405180910390a15050565b60008080549050905090565b612009612b85565b6000612013612b85565b600080600080925060028054905091505b6000821180156120345750600583105b156120de5760026001830381548110151561204b57fe5b9060005260206000209060080201905086816002015414156120d05780600001544203848460058110151561207c57fe5b6020020151600060028110151561208f57fe5b602002018181525050806001015484846005811015156120ab57fe5b602002015160016002811015156120be57fe5b60200201818152505082806001019350505b818060019003925050612024565b83839550955050505050915091565b600080600360003373ffffffffffffffffffffffffffffffffffffffff1673ffffffffffffffffffffffffffffffffffffffff16815260200190815260200160002054905060008111151561214157600080fd5b61214a81612382565b91505090565b612158612b85565b600080600360003373ffffffffffffffffffffffffffffffffffffffff1673ffffffffffffffffffffffffffffffffffffffff1681526020019081526020016000205490506000811115156121ac57600080fd5b6121b581612001565b92509250509091565b6000806000806000806001878154811015156121d657fe5b9060005260206000209060050201905080600001548160010154826002015483600301548460040154955095509550955095505091939590929450565b6000600760019054906101000a900460ff16905090565b600080600360003373ffffffffffffffffffffffffffffffffffffffff1673ffffffffffffffffffffffffffffffffffffffff16815260200190815260200160002054915060008211151561227e57600080fd5b60018281548110151561228d57fe5b90600052602060002090600502019050828160000154101515156122b057600080fd5b8281600001600082825403925050819055508281600101600082825401925050819055507fc67b48cb7fe654bbff71b7cf0af383327db7f9c7791b69b6f43f0487de584b1b8284604051808381526020018281526020019250505060405180910390a1505050565b612320612afc565b6000600360003373ffffffffffffffffffffffffffffffffffffffff1673ffffffffffffffffffffffffffffffffffffffff16815260200190815260200160002054905060008111151561237357600080fd5b61237c81610e98565b91505090565b6000806000808481548110151561239557fe5b906000526020600020906004020191506001848154811015156123b457fe5b906000526020600020906005020190508160010160029054906101000a900460ff1660ff1660640a8260010160029054906101000a900460ff1660ff16600760019054906101000a900460ff1660640160ff160a6064600b8560010160009054906101000a900460ff1660ff1681548110151561242d57fe5b90600052602060002090602091828204019190069054906101000a900460ff1660640160ff1684600201546002028560000154010281151561246b57fe5b040281151561247657fe5b0492505050919050565b612488612b24565b600080600360003373ffffffffffffffffffffffffffffffffffffffff1673ffffffffffffffffffffffffffffffffffffffff1681526020019081526020016000205490506000811115156124dc57600080fd5b6124e581611698565b92509250509091565b6124f86000611eb7565b565b6000600360003373ffffffffffffffffffffffffffffffffffffffff1673ffffffffffffffffffffffffffffffffffffffff16815260200190815260200160002054905090565b600080600360003373ffffffffffffffffffffffffffffffffffffffff1673ffffffffffffffffffffffffffffffffffffffff16815260200190815260200160002054915060008211151561259557600080fd5b6001828154811015156125a457fe5b90600052602060002090600502019050828160000154101515156125c757600080fd5b8281600001600082825403925050819055508281600301600082825401925050819055507f298f72ff5878642622d1b6189cf8abc10cfa20471bc3fb0ccc3e28ff74e24d238284604051808381526020018281526020019250505060405180910390a1505050565b600080600080600080600360003373ffffffffffffffffffffffffffffffffffffffff1673ffffffffffffffffffffffffffffffffffffffff16815260200190815260200160002054905060008111151561268957600080fd5b612692816121be565b95509550955095509550509091929394565b600080600360003373ffffffffffffffffffffffffffffffffffffffff1673ffffffffffffffffffffffffffffffffffffffff1681526020019081526020016000205411905090565b6126f5612b24565b600080600360003373ffffffffffffffffffffffffffffffffffffffff1673ffffffffffffffffffffffffffffffffffffffff16815260200190815260200160002054905060008111151561274957600080fd5b61275281611d69565b92509250509091565b6000806000808481548110151561276e57fe5b9060005260206000209060040201915060018481548110151561278d57fe5b906000526020600020906005020190506064600d8360010160009054906101000a900460ff1660ff168154811015156127c257fe5b90600052602060002090602091828204019190069054906101000a900460ff1660640160ff168260040154028115156127f757fe5b0492505050919050565b60008060016000805480600101828161281a9190612bb4565b9160005260206000209060040201600060c0604051908101604052808f81526020018e60ff1681526020018d60ff1681526020018c60ff168152602001600081526020018881525090919091506000820151816000019080519060200190612883929190612be6565b5060208201518160010160006101000a81548160ff021916908360ff16021790555060408201518160010160016101000a81548160ff021916908360ff16021790555060608201518160010160026101000a81548160ff021916908360ff1602179055506080820151816002015560a082015181600301555050039050600180548060010182816129149190612c66565b9160005260206000209060050201600060a0604051908101604052808a815260200160008152602001600081526020018981526020018881525090919091506000820151816000015560208201518160010155604082015181600201556060820151816003015560808201518160040155505050336004600083815260200190815260200160002060006101000a81548173ffffffffffffffffffffffffffffffffffffffff021916908373ffffffffffffffffffffffffffffffffffffffff16021790555080600360003373ffffffffffffffffffffffffffffffffffffffff1673ffffffffffffffffffffffffffffffffffffffff16815260200190815260200160002081905550600160056000858152602001908152602001600020600082825401925050819055507f8903d00f136209d2fb29b581df936c8cbc1f7f2f70aafe69e061eff9527d7cbd818b8b6040518084815260200180602001838152602001828103825284818151815260200191508051906020019080838360005b83811015612ab0578082015181840152602081019050612a95565b50505050905090810190601f168015612add5780820380516001836020036101000a031916815260200191505b5094505050505060405180910390a18091505098975050505050505050565b602060405190810160405280600081525090565b602060405190810160405280600081525090565b61028060405190810160405280600a905b612b3d612c98565b815260200190600190039081612b355790505090565b815481835581811511612b8057600802816008028360005260206000209182019101612b7f9190612cbf565b5b505050565b610140604051908101604052806005905b612b9e612c98565b815260200190600190039081612b965790505090565b815481835581811511612be157600402816004028360005260206000209182019101612be09190612d2a565b5b505050565b828054600181600116156101000203166002900490600052602060002090601f016020900481019282601f10612c2757805160ff1916838001178555612c55565b82800160010185558215612c55579182015b82811115612c54578251825591602001919060010190612c39565b5b509050612c629190612da5565b5090565b815481835581811511612c9357600502816005028360005260206000209182019101612c929190612dca565b5b505050565b60408051908101604052806002905b6000815260200190600190039081612ca75790505090565b612d2791905b80821115612d23576000808201600090556001820160009055600282016000905560038201600090556004820160009055600582016000905560068201600090556007820160006101000a81549060ff021916905550600801612cc5565b5090565b90565b612da291905b80821115612d9e5760008082016000612d499190612e11565b6001820160006101000a81549060ff02191690556001820160016101000a81549060ff02191690556001820160026101000a81549060ff02191690556002820160009055600382016000905550600401612d30565b5090565b90565b612dc791905b80821115612dc3576000816000905550600101612dab565b5090565b90565b612e0e91905b80821115612e0a57600080820160009055600182016000905560028201600090556003820160009055600482016000905550600501612dd0565b5090565b90565b50805460018160011615610100020316600290046000825580601f10612e375750612e56565b601f016020900490600052602060002090810190612e559190612da5565b5b505600a165627a7a72305820d1c2e761a9b1141cec13c4824d4c0870474e2d280dd50d7605ea67d0993969b10029",
  "source": "pragma solidity ^0.4.17;\n\ncontract KingdomFactory {\n\n    event NewKingdom(uint kingdomId, string name, uint race);\n    event UpgradeWeapon(uint kingdomId, uint weaponLevel);\n    event UpgradeFortress(uint kingdomId, uint fortressLevel);\n    event BattleCompleted(uint battleId);\n    event Recruit(uint kingdomId);\n    event CommanderAssigned(uint kingdomId, uint commanderId);\n    event TrainedAttackSpecialists(uint kingdomId, uint count);\n    event TrainedDefenseSpecialists(uint kingdomId, uint count);\n    event TrainedSpies(uint kingdomId, uint count);\n    event TrainedSentries(uint kingdomId, uint count);\n\n    Kingdom[] private kingdoms;\n    Military[] private militaries;\n    Battle[] private battles;\n\n    mapping (address => uint256) private kingdomOf;\n    mapping (uint256 => address) private kingdomToOwner;\n    mapping (uint256 => uint256) private numOfOfficers;\n    mapping (uint256 => uint256) private recruitTime;\n\n    uint8 private weaponMultiplier = 30;\n    uint8 private fortressMultiplier = 25;\n    uint256 private recruitCooldown = 5 minutes; // 6 hours;\n\n    uint8[] private incomeBonus     = [  0, 30, 15,  0,  0,  0];\n    uint8[] private attackBonus     = [100,  0,  0,  0, 35,  0];\n    uint8[] private defenseBonus    = [100,  0, 40,  0, 20,  0];\n    uint8[] private spyBonus        = [100, 35,  0, 45,  0,  0];\n    uint8[] private sentryBonus     = [100,  0,  0,  0,  0, 35];\n    uint8[] private fewerCasualties = [ 50,  0,  0, 70,  0, 85];\n    \n\n    struct Kingdom {\n      string name;\n      uint8 race; //0 - divine; 1 - human; 2 - dwarves; \n      uint8 weaponLevel;\n      uint8 fortressLevel;\n      uint256 gold;\n      uint256 commander;\n    }\n\n    struct Military {\n      uint256 numOfSoldiers;\n      uint256 numOfAttackSpecialists;\n      uint256 numOfDefenseSpecialists;\n      uint256 numOfSpies;\n      uint256 numOfSentries;      \n    }\n\n    struct Battle {\n      uint256 time;\n      uint256 attacker;\n      uint256 defender;\n      uint256 attacker_damage;\n      uint256 defender_damage;\n      uint256 attacker_casualties;\n      uint256 defender_casualties;\n      bool success;\n    }\n\n    modifier onlyUser(uint _id){\n      require(msg.sender == kingdomToOwner[_id]);\n      _;\n    }\n\n    function KingdomFactory() public {\n      _createKingdom(\"God\", 0, 14, 16, 1000000, 10000, 10000, 0);\n      _createKingdom(\"God\\'s Right Hand\", 0, 12, 14, 100000, 1000, 1000, 0);\n      _createKingdom(\"God\\'s Left Hand\", 0, 12, 14, 100000, 1000, 1000, 0);\n    }\n\n    function _createKingdom(string _name, uint _race, uint8 weaponLevel, uint8 fortressLevel,\n      uint _numOfSoldiers, uint _numOfSpies, uint _numOfSentries, uint _commander) private returns (uint){\n\n      uint id = kingdoms.push(Kingdom(_name, uint8(_race), weaponLevel, fortressLevel, 0, _commander)) - 1;\n      militaries.push(Military(_numOfSoldiers, 0, 0, _numOfSpies, _numOfSentries));\n      kingdomToOwner[id] = msg.sender;\n      kingdomOf[msg.sender] = id;\n      numOfOfficers[_commander] += 1;\n      NewKingdom(id, _name, _race);\n      return id;\n    }\n\n    function createNewKingdom(string _name, uint _race) public returns (uint){\n      require(kingdomOf[msg.sender] == 0);\n      return _createKingdom(_name, _race, 0, 0, 0, 0, 0, 0);\n    }\n\n    function getKingdom(uint _id) public view returns (string, uint8, uint8, uint8, uint, uint, string) {\n      var kingdom = kingdoms[_id];\n      var commanderName = kingdoms[kingdom.commander].name;\n      return (kingdom.name, kingdom.race, kingdom.weaponLevel, kingdom.fortressLevel, kingdom.gold,\n          kingdom.commander, commanderName);\n    }\n\n    function getPersonnel(uint _id) public view returns (uint256, uint256, uint256, uint256, uint256) {\n      var military = militaries[_id];\n      return (military.numOfSoldiers, military.numOfAttackSpecialists, military.numOfDefenseSpecialists,\n        military.numOfSpies, military.numOfSentries);\n    }\n\n    function getWeaponMultiplier() public view returns (uint8) {\n      return weaponMultiplier;\n    }\n\n    function getFortressMultiplier() public view returns (uint8) {\n      return fortressMultiplier;\n    }\n\n\n    /// @notice Returns a list of all kingdom IDs that are officers of target commander.\n    /// @param _commanderId The ID of the commander we are interested in.\n    /// @dev This method MUST NEVER be called by smart contract code. First, it's fairly\n    ///  expensive (it walks the entire kingdoms array looking for kingdoms belonging to commander),\n    ///  but it also returns a dynamic array, which is only supported for web3 calls, and\n    ///  not contract-to-contract calls.\n    function getOfficers(uint _commanderId) public view returns (uint[]){\n      uint256 id;\n      uint256 officerCount = numOfOfficers[_commanderId];\n      if(officerCount == 0){\n        // Return an empty array\n        return new uint256[](0);\n      } else {\n        uint256 officerIndex = 0;\n        uint256[] memory officers = new uint256[](officerCount);\n\n        // We count on the fact that all kingdoms have IDs starting at 1 and increasing\n        // sequentially up to kingdoms.length.\n        for(id = 0; id < kingdoms.length; id++){\n          if(kingdoms[id].commander == _commanderId){\n            officers[officerIndex] = id;\n            officerIndex++;\n          }\n        }\n        return officers;\n      }\n    }\n\n    function getMyOfficers() external view returns (uint[]){\n      uint256 id = kingdomOf[msg.sender];\n      require(id > 0);\n      return getOfficers(id);\n    }\n\n    function haveKingdom() public view returns (bool) {\n      return (kingdomOf[msg.sender] > 0);\n    }\n\n    function getMyKingdomId() public view returns (uint){\n      return (kingdomOf[msg.sender]);\n    }\n\n    function getMyKingdom() public view returns (string, uint8, uint8, uint8, uint, uint, string) {\n      uint256 id = kingdomOf[msg.sender];\n      require(id > 0);\n      return getKingdom(id);\n    }\n\n    function getMyPersonnel() public view returns (uint256, uint256, uint256, uint256, uint256) {\n      uint256 id = kingdomOf[msg.sender];\n      require(id > 0);\n      return getPersonnel(id);\n    }\n\n    function getKingdomCount() public view returns (uint) {\n      return kingdoms.length;\n    }\n\n    /********** User-Specific Actions **********\n      #assignCommander - Assign new commander\n      #upgradeWeapon   - Upgrade weapon by 1 level\n      #upgradeFortress - Upgrade fortress by 1 level\n    */\n\n    function assignCommander(uint _commanderId) public {\n      uint256 id = kingdomOf[msg.sender];\n      require(kingdoms[id].commander != _commanderId);\n      numOfOfficers[kingdoms[id].commander] -= 1;\n      numOfOfficers[_commanderId] += 1;\n      kingdoms[id].commander = _commanderId;\n      CommanderAssigned(id, _commanderId);\n    }\n\n    function ditchCommander() public {\n      assignCommander(0);\n    }\n\n    function isCommander(uint _id) public view returns (bool) {\n      return (kingdoms[kingdomOf[msg.sender]].commander == _id);\n    }\n\n    function upgradeWeapon() public {\n      uint256 id = kingdomOf[msg.sender];\n      require(id > 0);\n      uint8 level = kingdoms[id].weaponLevel;\n      require(level < 14);\n      level += 1;\n      kingdoms[id].weaponLevel = level;\n      UpgradeWeapon(id, level);\n    }\n\n    function upgradeFortress() public {\n      require(kingdomOf[msg.sender] != 0);\n      uint256 id = kingdomOf[msg.sender];\n      require(id > 0);\n      uint8 level = kingdoms[id].fortressLevel;\n      require(level < 16);\n      level += 1;\n      kingdoms[id].fortressLevel = level;\n      UpgradeFortress(id, level);\n    }\n\n    function strikeAction(uint256 _id) public view returns (uint256) {\n        var kingdom = kingdoms[_id];\n        var military = militaries[_id];\n        return (military.numOfSoldiers + 2 * military.numOfAttackSpecialists)\n          * (100 + attackBonus[kingdom.race]) / 100\n          * (uint256(100 + weaponMultiplier) ** uint256(kingdom.weaponLevel)) / (100 ** uint256(kingdom.weaponLevel));\n    }\n\n    function myStrikeAction() public view returns (uint256) {\n      var id = kingdomOf[msg.sender];\n      require(id > 0);\n      return strikeAction(id);\n    }\n\n    function defensiveAction(uint256 _id) public view returns (uint256) {\n        var kingdom = kingdoms[_id];\n        var military = militaries[_id];\n        return (military.numOfSoldiers + 2 * military.numOfDefenseSpecialists)\n          * (100 + defenseBonus[kingdom.race]) / 100\n          * (uint256(100 + fortressMultiplier) ** uint256(kingdom.fortressLevel)) / (100 ** uint256(kingdom.fortressLevel));\n    }\n\n    function myDefensiveAction() public view returns (uint256) {\n      var id = kingdomOf[msg.sender];\n      require(id > 0);\n      return defensiveAction(id);\n    }\n\n    function spyRating(uint256 _id) public view returns (uint256) {\n      var kingdom = kingdoms[_id];\n      var military = militaries[_id];\n      return military.numOfSpies * (100 + spyBonus[kingdom.race]) / 100;\n    }\n\n    function mySpyRating() public view returns (uint256) {\n      var id = kingdomOf[msg.sender];\n      require(id > 0);\n      return spyRating(id);\n    }\n\n    function sentryRating(uint256 _id) public view returns (uint256) {\n      var kingdom = kingdoms[_id];\n      var military = militaries[_id];\n      return military.numOfSentries * (100 + sentryBonus[kingdom.race]) / 100;\n    }\n\n    function mySentryRating() public view returns (uint256) {\n      var id = kingdomOf[msg.sender];\n      require(id > 0);\n      return sentryRating(id);\n    }\n\n    function attack(uint256 _targetID) public {\n      uint256 attacker = kingdomOf[msg.sender];\n      require(attacker != _targetID);\n      uint256 attacker_damage = myStrikeAction();\n      uint256 defender_damage = defensiveAction(_targetID);\n      uint256 attacker_casualties = 0;\n      uint256 defender_casualties = 0;\n      bool success = attacker_damage > defender_damage;\n      uint256 battleID = battles.push(Battle(now, attacker, _targetID, attacker_damage, defender_damage, attacker_casualties, defender_casualties, success)) - 1;\n      BattleCompleted(battleID);\n    }\n\n    function getBattle(uint _id) public view returns (uint256, uint256, uint256, uint256, uint256, uint256, bool) {\n      var battle = battles[_id];\n      return (battle.attacker, battle.defender, battle.attacker_damage, battle.defender_damage,\n          battle.attacker_casualties, battle.defender_casualties, battle.success);\n    }\n\n    function getRecentAttacks(uint _id) public view returns(uint[2][5], uint){\n      uint[2][5] memory result;\n      uint count = 0;\n      uint battleId;\n\n      for(battleId = battles.length; battleId > 0 && count < 5; battleId--){\n        var battle = battles[battleId - 1];\n        if(battle.defender == _id){\n          //result[count] = battleId - 1;\n          result[count][0] = now - battle.time;\n          result[count][1] = battle.attacker;\n          count++;\n        }\n      }\n      return (result, count);\n    }\n\n    function getMyRecentAttacks() public view returns(uint[2][5], uint){\n      var id = kingdomOf[msg.sender];\n      require(id > 0);\n      return getRecentAttacks(id);\n    }\n\n    function getRecent10IncomingAttacks(uint _id) public view returns(uint[2][10], uint){\n      uint[2][10] memory result;\n      uint count = 0;\n      uint battleId;\n\n      for(battleId = battles.length; battleId > 0 && count < 10; battleId--){\n        var battle = battles[battleId - 1];\n        if(battle.defender == _id){\n          result[count][0] = now - battle.time;\n          result[count][1] = battleId - 1;\n          count++;\n        }\n      }\n      return (result, count);\n    }\n\n    function getRecent10OutgoingAttacks(uint _id) public view returns(uint[2][10], uint){\n      uint[2][10] memory result;\n      uint count = 0;\n      uint battleId;\n\n      for(battleId = battles.length; battleId > 0 && count < 10; battleId--){\n        var battle = battles[battleId - 1];\n        if(battle.attacker == _id){\n          result[count][0] = now - battle.time;\n          result[count][1] = battleId - 1;\n          count++;\n        }\n      }\n      return (result, count);\n    }\n\n    function getMyRecent10IncomingAttacks() public view returns(uint[2][10], uint){\n      var id = kingdomOf[msg.sender];\n      require(id > 0);\n      return getRecent10IncomingAttacks(id);\n    }\n\n    function getMyRecent10OutgoingAttacks() public view returns(uint[2][10], uint){\n      var id = kingdomOf[msg.sender];\n      require(id > 0);\n      return getRecent10OutgoingAttacks(id);\n    }\n\n    //returns true,0 if can recruit, otherwise returns false and number of seconds remaining\n    function canRecruit() public view returns (bool, uint256){\n      uint256 timePassed = now - recruitTime[kingdomOf[msg.sender]];\n      if(timePassed > recruitCooldown){\n        return (true, 0);\n      }\n      return (false, recruitCooldown - timePassed);\n    }\n\n    function recruit() public {\n      var id = kingdomOf[msg.sender];\n      require(id > 0);\n      require (now - recruitTime[id] > recruitCooldown);\n      militaries[id].numOfSoldiers += 100 * (1 + numOfOfficers[id]);\n      recruitTime[id] = now;\n      Recruit(id);\n    }\n\n    function trainAttackSpecialists(uint256 _count) public {\n      var id = kingdomOf[msg.sender];\n      require(id > 0);\n      var military = militaries[id];\n      require (military.numOfSoldiers >= _count);\n      military.numOfSoldiers -= _count;\n      military.numOfAttackSpecialists += _count;\n      TrainedAttackSpecialists(id, _count);\n    }\n\n    function trainDefenseSpecialists(uint256 _count) public {\n      var id = kingdomOf[msg.sender];\n      require(id > 0);\n      var military = militaries[id];\n      require (military.numOfSoldiers >= _count);\n      military.numOfSoldiers -= _count;\n      military.numOfDefenseSpecialists += _count;\n      TrainedDefenseSpecialists(id, _count);\n    }\n\n    function trainSpies(uint256 _count) public {\n      var id = kingdomOf[msg.sender];\n      require(id > 0);\n      var military = militaries[id];\n      require (military.numOfSoldiers >= _count);\n      military.numOfSoldiers -= _count;\n      military.numOfSpies += _count;\n      TrainedSpies(id, _count);\n    }\n\n    function trainSentries(uint256 _count) public {\n      var id = kingdomOf[msg.sender];\n      require(id > 0);\n      var military = militaries[id];\n      require (military.numOfSoldiers >= _count);\n      military.numOfSoldiers -= _count;\n      military.numOfSentries += _count;\n      TrainedSentries(id, _count);\n    }\n}",
  "sourcePath": "/home/kevinlee/Data/Personal/KingsOfChaos/contracts/KingdomFactory.sol",
  "compiler": {
    "name": "solc",
    "version": "0.4.19+commit.c4cbbb05.Emscripten.clang"
  },
  "schemaVersion": "1.0.1",
  "updatedAt": "2018-03-01T23:00:18.326Z"
}