{
  "contractName": "KingdomFactory",
  "abi": [
    {
      "constant": false,
      "inputs": [
        {
          "name": "_race",
          "type": "uint8"
        },
        {
          "name": "_level",
          "type": "uint8[4]"
        },
        {
          "name": "_commander",
          "type": "uint256"
        }
      ],
      "name": "_createKingdom",
      "outputs": [
        {
          "name": "",
          "type": "uint256"
        }
      ],
      "payable": false,
      "stateMutability": "nonpayable",
      "type": "function"
    },
    {
      "constant": true,
      "inputs": [
        {
          "name": "_id",
          "type": "uint256"
        }
      ],
      "name": "getKingdom",
      "outputs": [
        {
          "name": "",
          "type": "uint8"
        },
        {
          "name": "",
          "type": "uint8[4]"
        },
        {
          "name": "",
          "type": "uint256"
        },
        {
          "name": "",
          "type": "uint256"
        },
        {
          "name": "",
          "type": "uint256"
        }
      ],
      "payable": false,
      "stateMutability": "view",
      "type": "function"
    },
    {
      "constant": false,
      "inputs": [
        {
          "name": "_id",
          "type": "uint256"
        },
        {
          "name": "_exp",
          "type": "uint256"
        }
      ],
      "name": "gainExperience",
      "outputs": [],
      "payable": false,
      "stateMutability": "nonpayable",
      "type": "function"
    },
    {
      "constant": true,
      "inputs": [
        {
          "name": "_id",
          "type": "uint256"
        }
      ],
      "name": "getCommanderId",
      "outputs": [
        {
          "name": "",
          "type": "uint256"
        }
      ],
      "payable": false,
      "stateMutability": "view",
      "type": "function"
    },
    {
      "constant": true,
      "inputs": [],
      "name": "getWeaponMultiplier",
      "outputs": [
        {
          "name": "",
          "type": "uint8"
        }
      ],
      "payable": false,
      "stateMutability": "view",
      "type": "function"
    },
    {
      "constant": true,
      "inputs": [],
      "name": "getFortressMultiplier",
      "outputs": [
        {
          "name": "",
          "type": "uint8"
        }
      ],
      "payable": false,
      "stateMutability": "view",
      "type": "function"
    },
    {
      "constant": true,
      "inputs": [],
      "name": "getKingdomCount",
      "outputs": [
        {
          "name": "",
          "type": "uint256"
        }
      ],
      "payable": false,
      "stateMutability": "view",
      "type": "function"
    },
    {
      "constant": true,
      "inputs": [
        {
          "name": "_id",
          "type": "uint256"
        }
      ],
      "name": "getOfficerCount",
      "outputs": [
        {
          "name": "",
          "type": "uint256"
        }
      ],
      "payable": false,
      "stateMutability": "view",
      "type": "function"
    },
    {
      "constant": false,
      "inputs": [
        {
          "name": "_targetId",
          "type": "uint256"
        },
        {
          "name": "_commanderId",
          "type": "uint256"
        }
      ],
      "name": "assignCommander",
      "outputs": [],
      "payable": false,
      "stateMutability": "nonpayable",
      "type": "function"
    },
    {
      "constant": false,
      "inputs": [
        {
          "name": "_targetId",
          "type": "uint256"
        }
      ],
      "name": "ditchCommander",
      "outputs": [],
      "payable": false,
      "stateMutability": "nonpayable",
      "type": "function"
    },
    {
      "constant": true,
      "inputs": [
        {
          "name": "_targetId",
          "type": "uint256"
        },
        {
          "name": "_commanderId",
          "type": "uint256"
        }
      ],
      "name": "isCommander",
      "outputs": [
        {
          "name": "",
          "type": "bool"
        }
      ],
      "payable": false,
      "stateMutability": "view",
      "type": "function"
    },
    {
      "constant": false,
      "inputs": [
        {
          "name": "_targetId",
          "type": "uint256"
        },
        {
          "name": "_race",
          "type": "uint8"
        }
      ],
      "name": "changeRace",
      "outputs": [],
      "payable": false,
      "stateMutability": "nonpayable",
      "type": "function"
    },
    {
      "constant": false,
      "inputs": [
        {
          "name": "_id",
          "type": "uint256"
        }
      ],
      "name": "upgradeWeapon",
      "outputs": [],
      "payable": false,
      "stateMutability": "nonpayable",
      "type": "function"
    },
    {
      "constant": false,
      "inputs": [
        {
          "name": "_id",
          "type": "uint256"
        }
      ],
      "name": "upgradeFortress",
      "outputs": [],
      "payable": false,
      "stateMutability": "nonpayable",
      "type": "function"
    },
    {
      "constant": false,
      "inputs": [
        {
          "name": "_id",
          "type": "uint256"
        }
      ],
      "name": "upgradeCovert",
      "outputs": [],
      "payable": false,
      "stateMutability": "nonpayable",
      "type": "function"
    },
    {
      "constant": true,
      "inputs": [
        {
          "name": "_id",
          "type": "uint256"
        }
      ],
      "name": "strikeAction",
      "outputs": [
        {
          "name": "",
          "type": "uint256"
        }
      ],
      "payable": false,
      "stateMutability": "view",
      "type": "function"
    },
    {
      "constant": true,
      "inputs": [
        {
          "name": "_id",
          "type": "uint256"
        }
      ],
      "name": "defensiveAction",
      "outputs": [
        {
          "name": "",
          "type": "uint256"
        }
      ],
      "payable": false,
      "stateMutability": "view",
      "type": "function"
    },
    {
      "constant": true,
      "inputs": [
        {
          "name": "_id",
          "type": "uint256"
        }
      ],
      "name": "spyRating",
      "outputs": [
        {
          "name": "",
          "type": "uint256"
        }
      ],
      "payable": false,
      "stateMutability": "view",
      "type": "function"
    },
    {
      "constant": true,
      "inputs": [
        {
          "name": "_id",
          "type": "uint256"
        }
      ],
      "name": "sentryRating",
      "outputs": [
        {
          "name": "",
          "type": "uint256"
        }
      ],
      "payable": false,
      "stateMutability": "view",
      "type": "function"
    }
  ],
  "bytecode": "0x6060604052601e600260006101000a81548160ff021916908360ff1602179055506019600260016101000a81548160ff021916908360ff160217905550603c6002806101000a81548160ff021916908360ff1602179055506064600260036101000a81548160ff021916908360ff160217905550600e600260046101000a81548160ff021916908360ff1602179055506010600260056101000a81548160ff021916908360ff160217905550600f600260066101000a81548160ff021916908360ff1602179055506064600260076101000a81548161ffff021916908361ffff160217905550619c40600260096101000a81548161ffff021916908361ffff160217905550619c406002600b6101000a81548161ffff021916908361ffff160217905550612ee06002600d6101000a81548161ffff021916908361ffff16021790555060c060405190810160405280600060ff168152602001601e60ff168152602001600f60ff168152602001600060ff168152602001600060ff168152602001600060ff1681525060039060066200019a9291906200036a565b5060c060405190810160405280606460ff168152602001600060ff168152602001600060ff168152602001600060ff168152602001602360ff168152602001600060ff168152506004906006620001f39291906200036a565b5060c060405190810160405280606460ff168152602001600060ff168152602001602860ff168152602001600060ff168152602001601460ff168152602001600060ff1681525060059060066200024c9291906200036a565b5060c060405190810160405280606460ff168152602001602360ff168152602001600060ff168152602001602d60ff168152602001600060ff168152602001600060ff168152506006906006620002a59291906200036a565b5060c060405190810160405280606460ff168152602001600060ff168152602001600060ff168152602001600060ff168152602001600060ff168152602001602360ff168152506007906006620002fe9291906200036a565b5060c060405190810160405280603260ff168152602001600060ff168152602001600060ff168152602001604660ff168152602001600060ff168152602001605560ff168152506008906006620003579291906200036a565b5034156200036457600080fd5b6200044b565b82805482825590600052602060002090601f01602090048101928215620004055791602002820160005b83821115620003d457835183826101000a81548160ff021916908360ff160217905550926020019260010160208160000104928301926001030262000394565b8015620004035782816101000a81549060ff0219169055600101602081600001049283019260010302620003d4565b505b50905062000414919062000418565b5090565b6200044891905b808211156200044457600081816101000a81549060ff0219169055506001016200041f565b5090565b90565b611163806200045b6000396000f300606060405260043610610107576000357c0100000000000000000000000000000000000000000000000000000000900463ffffffff1680630af124e11461010c5780630b8d16d5146101505780630ca62a8a146101d15780631185f5af146102085780631758f5221461023f5780631c7417281461026e5780631ea1f202146102a55780637e0b9059146102d45780638e406072146102f757806390559afe14610320578063953b6a9114610357578063a14eb85814610383578063a7b6c247146103f2578063b7d430c514610415578063bf78866614610438578063cbfc95651461045b578063d27a78341461048a578063daa37847146104b6578063fca1efec146104ed575b600080fd5b341561011757600080fd5b6101366004808035906020019091908035906020019091905050610524565b604051808215151515815260200191505060405180910390f35b341561015b57600080fd5b6101716004808035906020019091905050610551565b604051808660ff1660ff16815260200185600460200280838360005b838110156101a857808201518184015260208101905061018d565b505050509050018481526020018381526020018281526020019550505050505060405180910390f35b34156101dc57600080fd5b6101f26004808035906020019091905050610633565b6040518082815260200191505060405180910390f35b341561021357600080fd5b6102296004808035906020019091905050610703565b6040518082815260200191505060405180910390f35b341561024a57600080fd5b6102526107d4565b604051808260ff1660ff16815260200191505060405180910390f35b341561027957600080fd5b61028f60048080359060200190919050506107eb565b6040518082815260200191505060405180910390f35b34156102b057600080fd5b6102d2600480803590602001909190803560ff16906020019091905050610814565b005b34156102df57600080fd5b6102f560048080359060200190919050506108ab565b005b341561030257600080fd5b61030a610951565b6040518082815260200191505060405180910390f35b341561032b57600080fd5b610341600480803590602001909190505061095d565b6040518082815260200191505060405180910390f35b341561036257600080fd5b610381600480803590602001909190803590602001909190505061097a565b005b341561038e57600080fd5b6103dc600480803560ff169060200190919080608001906004806020026040519081016040528092919082600460200280828437820191505050505091908035906020019091905050610add565b6040518082815260200191505060405180910390f35b34156103fd57600080fd5b6104136004808035906020019091905050610c97565b005b341561042057600080fd5b6104366004808035906020019091905050610d3d565b005b341561044357600080fd5b6104596004808035906020019091905050610de3565b005b341561046657600080fd5b61046e610df1565b604051808260ff1660ff16815260200191505060405180910390f35b341561049557600080fd5b6104b46004808035906020019091908035906020019091905050610e08565b005b34156104c157600080fd5b6104d76004808035906020019091905050610e9e565b6040518082815260200191505060405180910390f35b34156104f857600080fd5b61050e6004808035906020019091905050610f6f565b6040518082815260200191505060405180910390f35b60008160008481548110151561053657fe5b90600052602060002090600402016003015414905092915050565b600061055b61103f565b60008060008060008781548110151561057057fe5b906000526020600020906004020190508060000160009054906101000a900460ff166080604051908101604052808360000160019054906101000a900460ff1660ff1660ff1681526020018360000160029054906101000a900460ff1660ff1660ff1681526020018360000160039054906101000a900460ff1660ff1660ff1681526020018360000160049054906101000a900460ff1660ff1660ff16815250826001015483600201548460030154955095509550955095505091939590929450565b60008060008381548110151561064557fe5b906000526020600020906004020190508060000160049054906101000a900460ff1660ff1660640a8160000160049054906101000a900460ff1660ff166002809054906101000a900460ff1660640160ff160a606460068460000160009054906101000a900460ff1660ff168154811015156106bd57fe5b90600052602060002090602091828204019190069054906101000a900460ff1660640160ff168115156106ec57fe5b0460ff16028115156106fa57fe5b04915050919050565b60008060008381548110151561071557fe5b906000526020600020906004020190508060000160029054906101000a900460ff1660ff1660640a8160000160029054906101000a900460ff1660ff16600260009054906101000a900460ff1660640160ff160a606460048460000160009054906101000a900460ff1660ff1681548110151561078e57fe5b90600052602060002090602091828204019190069054906101000a900460ff1660640160ff168115156107bd57fe5b0460ff16028115156107cb57fe5b04915050919050565b6000600260009054906101000a900460ff16905090565b600080828154811015156107fb57fe5b9060005260206000209060040201600301549050919050565b6000808311151561082457600080fd5b60008381548110151561083357fe5b906000526020600020906004020190508160ff168160000160009054906101000a900460ff1660ff161415801561086e575060018260ff1610155b801561087e575060058260ff1611155b151561088957600080fd5b818160000160006101000a81548160ff021916908360ff160217905550505050565b600080821115156108bb57600080fd5b6000828154811015156108ca57fe5b906000526020600020906004020160000160049054906101000a900460ff169050600260069054906101000a900460ff1660ff168160ff1610151561090e57600080fd5b6001810190508060008381548110151561092457fe5b906000526020600020906004020160000160046101000a81548160ff021916908360ff1602179055505050565b60008080549050905090565b600060016000838152602001908152602001600020549050919050565b6000806000808511151561098d57600080fd5b60008581548110151561099c57fe5b90600052602060002090600402019250606460038460000160009054906101000a900460ff1660ff168154811015156109d157fe5b90600052602060002090602091828204019190069054906101000a900460ff1660640160ff168502811515610a0257fe5b0493508383600201600082825401925050819055508260000160019054906101000a900460ff1691508160ff168260ff16600260079054906101000a900461ffff16020261ffff1690505b808360020154101515610ad65760018360000160018282829054906101000a900460ff160192506101000a81548160ff021916908360ff1602179055508083600201600082825403925050819055508260000160019054906101000a900460ff1691508160ff168260ff16600260079054906101000a900461ffff16020261ffff169050610a4d565b5050505050565b600080600160008054806001018281610af6919061106a565b91600052602060002090600402016000610100604051908101604052808a60ff168152602001896000600481101515610b2b57fe5b602002015160ff168152602001896001600481101515610b4757fe5b602002015160ff168152602001896002600481101515610b6357fe5b602002015160ff168152602001896003600481101515610b7f57fe5b602002015160ff168152602001600081526020016000815260200188815250909190915060008201518160000160006101000a81548160ff021916908360ff16021790555060208201518160000160016101000a81548160ff021916908360ff16021790555060408201518160000160026101000a81548160ff021916908360ff16021790555060608201518160000160036101000a81548160ff021916908360ff16021790555060808201518160000160046101000a81548160ff021916908360ff16021790555060a0820151816001015560c0820151816002015560e082015181600301555050039050600180600085815260200190815260200160002060008282540192505081905550809150509392505050565b60008082111515610ca757600080fd5b600082815481101515610cb657fe5b906000526020600020906004020160000160029054906101000a900460ff169050600260049054906101000a900460ff1660ff168160ff16101515610cfa57600080fd5b60018101905080600083815481101515610d1057fe5b906000526020600020906004020160000160026101000a81548160ff021916908360ff1602179055505050565b60008082111515610d4d57600080fd5b600082815481101515610d5c57fe5b906000526020600020906004020160000160039054906101000a900460ff169050600260059054906101000a900460ff1660ff168160ff16101515610da057600080fd5b60018101905080600083815481101515610db657fe5b906000526020600020906004020160000160036101000a81548160ff021916908360ff1602179055505050565b610dee816000610e08565b50565b6000600260019054906101000a900460ff16905090565b60008083111515610e1857600080fd5b600083815481101515610e2757fe5b9060005260206000209060040201905081816003015414151515610e4a57600080fd5b60018060008360030154815260200190815260200160002060008282540392505081905550600180600084815260200190815260200160002060008282540192505081905550818160030181905550505050565b600080600083815481101515610eb057fe5b906000526020600020906004020190508060000160039054906101000a900460ff1660ff1660640a8160000160039054906101000a900460ff1660ff16600260019054906101000a900460ff1660640160ff160a606460058460000160009054906101000a900460ff1660ff16815481101515610f2957fe5b90600052602060002090602091828204019190069054906101000a900460ff1660640160ff16811515610f5857fe5b0460ff1602811515610f6657fe5b04915050919050565b600080600083815481101515610f8157fe5b906000526020600020906004020190508060000160049054906101000a900460ff1660ff1660640a8160000160049054906101000a900460ff1660ff166002809054906101000a900460ff1660640160ff160a606460078460000160009054906101000a900460ff1660ff16815481101515610ff957fe5b90600052602060002090602091828204019190069054906101000a900460ff1660640160ff1681151561102857fe5b0460ff160281151561103657fe5b04915050919050565b6080604051908101604052806004905b600060ff1681526020019060019003908161104f5790505090565b81548183558181151161109757600402816004028360005260206000209182019101611096919061109c565b5b505050565b61113491905b8082111561113057600080820160006101000a81549060ff02191690556000820160016101000a81549060ff02191690556000820160026101000a81549060ff02191690556000820160036101000a81549060ff02191690556000820160046101000a81549060ff0219169055600182016000905560028201600090556003820160009055506004016110a2565b5090565b905600a165627a7a723058204f97aa050b1494b6958a915e43a6054b2df70c8b9efa1949cdb01f6f254a73490029",
  "source": "pragma solidity ^0.4.17;\n\ncontract KingdomFactory {\n\n    Kingdom[] private kingdoms;\n\n    mapping (uint256 => uint256) private numOfOfficers;\n\n    uint8 private weaponMultiplier   = 30;\n    uint8 private fortressMultiplier = 25;\n    uint8 private covertMultiplier   = 60;\n\n    uint8 private kingdomMaxLevel  = 100;\n    uint8 private weaponMaxLevel   = 14;\n    uint8 private fortressMaxLevel = 16;\n    uint8 private covertMaxLevel   = 15;\n\n    //Exp required to level up:\n    //  Required Exp = 100 * level^2\n    uint16 private levelUpBaseExp  = 100;\n\n    //Price of Upgrading:\n    //  price = basePrice * 2^currentLevel\n    uint16 private weaponBasePrice   = 40000;\n    uint16 private fortressBasePrice = 40000;\n    uint16 private covertBasePrice   = 12000;\n\n    uint8[] private experienceBonus = [  0, 30, 15,  0,  0,  0];\n    uint8[] private attackBonus     = [100,  0,  0,  0, 35,  0];\n    uint8[] private defenseBonus    = [100,  0, 40,  0, 20,  0];\n    uint8[] private spyBonus        = [100, 35,  0, 45,  0,  0];\n    uint8[] private sentryBonus     = [100,  0,  0,  0,  0, 35];\n    uint8[] private fewerCasualties = [ 50,  0,  0, 70,  0, 85];\n    \n\n    struct Kingdom {\n      uint8 race; //0 - divine; 1 - human; 2 - dwarves;\n      uint8 level; //[1,100]\n      uint8 weaponLevel; // [0,14]\n      uint8 fortressLevel; // [0,16]\n      uint8 covertLevel; // [0,15]\n      uint256 gold;\n      uint256 experience;\n      uint256 commander;\n    }\n\n    function _createKingdom(uint8 _race, uint8[4] _level, uint _commander) public returns (uint){\n      uint id = kingdoms.push(Kingdom(_race, _level[0], _level[1], _level[2], _level[3], 0, 0, _commander)) - 1;\n      numOfOfficers[_commander] += 1;\n      return id;\n    }\n\n\n    function getKingdom(uint _id) public view returns (uint8, uint8[4], uint, uint, uint) {\n      var kingdom = kingdoms[_id];\n      return (kingdom.race, [kingdom.level, kingdom.weaponLevel, kingdom.fortressLevel, kingdom.covertLevel], kingdom.gold,\n          kingdom.experience, kingdom.commander);\n    }\n\n    function gainExperience(uint _id, uint _exp) public {\n      require(_id > 0);\n      var kingdom = kingdoms[_id];\n      _exp = (_exp * (100 + experienceBonus[kingdom.race])) / 100;\n      kingdom.experience += _exp; \n      uint8 level = kingdom.level;\n      uint amountToLevelUp = levelUpBaseExp * level * level;\n      while(kingdom.experience >= amountToLevelUp) {\n        kingdom.level += 1;\n        kingdom.experience -= amountToLevelUp;\n        level = kingdom.level;\n        amountToLevelUp = levelUpBaseExp * level * level;\n      }\n    } \n\n    function getCommanderId(uint _id) public view returns (uint256) {\n      return kingdoms[_id].commander;\n    }\n\n    function getWeaponMultiplier() public view returns (uint8) {\n      return weaponMultiplier;\n    }\n\n    function getFortressMultiplier() public view returns (uint8) {\n      return fortressMultiplier;\n    }\n\n    function getKingdomCount() public view returns (uint) {\n      return kingdoms.length;\n    }\n\n    function getOfficerCount(uint _id) public view returns (uint) {\n      return numOfOfficers[_id];\n    }\n\n    //********* User-Specific Actions **********\n    //  #assignCommander - Assign new commander\n    //  #upgradeWeapon   - Upgrade weapon by 1 level\n    //  #upgradeFortress - Upgrade fortress by 1 level\n    //\n\n    function assignCommander(uint _targetId, uint _commanderId) public {\n      require(_targetId > 0);\n      var kingdom = kingdoms[_targetId];\n      require(kingdom.commander != _commanderId);\n      numOfOfficers[kingdom.commander] -= 1;\n      numOfOfficers[_commanderId] += 1;\n      kingdom.commander = _commanderId;\n    }\n\n    function ditchCommander(uint _targetId) public {\n      assignCommander(_targetId, 0);\n    }\n\n    function isCommander(uint _targetId, uint _commanderId) public view returns (bool) {\n      return (kingdoms[_targetId].commander == _commanderId);\n    }\n\n    function changeRace(uint _targetId, uint8 _race) public {\n      require(_targetId > 0);\n      var kingdom = kingdoms[_targetId];\n      require(kingdom.race != _race && _race >= 1 && _race <= 5);\n      kingdom.race = _race;\n    }\n\n    function upgradeWeapon(uint _id) public {\n      require(_id > 0);\n      uint8 level = kingdoms[_id].weaponLevel;\n      require(level < weaponMaxLevel);\n      level += 1;\n      kingdoms[_id].weaponLevel = level;\n    }\n\n    function upgradeFortress(uint _id) public {\n      require(_id > 0);\n      uint8 level = kingdoms[_id].fortressLevel;\n      require(level < fortressMaxLevel);\n      level += 1;\n      kingdoms[_id].fortressLevel = level;\n    }\n\n    function upgradeCovert(uint _id) public {\n      require(_id > 0);\n      uint8 level = kingdoms[_id].covertLevel;\n      require(level < covertMaxLevel);\n      level += 1;\n      kingdoms[_id].covertLevel = level;\n    }\n\n    function strikeAction(uint256 _id) public view returns (uint256) {\n        var kingdom = kingdoms[_id];\n        return (100 + attackBonus[kingdom.race]) / 100\n          * (uint256(100 + weaponMultiplier) ** uint256(kingdom.weaponLevel)) / (100 ** uint256(kingdom.weaponLevel));\n    }\n\n    function defensiveAction(uint256 _id) public view returns (uint256) {\n        var kingdom = kingdoms[_id];\n        return (100 + defenseBonus[kingdom.race]) / 100\n          * (uint256(100 + fortressMultiplier) ** uint256(kingdom.fortressLevel)) / (100 ** uint256(kingdom.fortressLevel));\n    }\n\n    function spyRating(uint256 _id) public view returns (uint256) {\n      var kingdom = kingdoms[_id];\n      return (100 + spyBonus[kingdom.race]) / 100\n        * (uint256(100 + covertMultiplier) ** uint256(kingdom.covertLevel)) / (100 ** uint256(kingdom.covertLevel));\n    }\n\n    function sentryRating(uint256 _id) public view returns (uint256) {\n      var kingdom = kingdoms[_id];\n      return (100 + sentryBonus[kingdom.race]) / 100\n        * (uint256(100 + covertMultiplier) ** uint256(kingdom.covertLevel)) / (100 ** uint256(kingdom.covertLevel));\n    }\n    \n}",
  "sourcePath": "/Users/kevin/KingsOfChaos/contracts/KingdomFactory.sol",
  "compiler": {
    "name": "solc",
    "version": "0.4.19+commit.c4cbbb05.Emscripten.clang"
  },
  "schemaVersion": "2.0.0",
  "updatedAt": "2018-03-04T01:04:14.453Z"
}