{
  "contractName": "KingdomFactory",
  "abi": [
    {
      "inputs": [],
      "payable": false,
      "stateMutability": "nonpayable",
      "type": "constructor"
    },
    {
      "anonymous": false,
      "inputs": [
        {
          "indexed": false,
          "name": "kingdomId",
          "type": "uint256"
        },
        {
          "indexed": false,
          "name": "name",
          "type": "string"
        },
        {
          "indexed": false,
          "name": "race",
          "type": "uint256"
        }
      ],
      "name": "NewKingdom",
      "type": "event"
    },
    {
      "anonymous": false,
      "inputs": [
        {
          "indexed": false,
          "name": "kingdomId",
          "type": "uint256"
        },
        {
          "indexed": false,
          "name": "race",
          "type": "uint256"
        }
      ],
      "name": "ChangedRace",
      "type": "event"
    },
    {
      "anonymous": false,
      "inputs": [
        {
          "indexed": false,
          "name": "kingdomId",
          "type": "uint256"
        },
        {
          "indexed": false,
          "name": "weaponLevel",
          "type": "uint256"
        }
      ],
      "name": "UpgradeWeapon",
      "type": "event"
    },
    {
      "anonymous": false,
      "inputs": [
        {
          "indexed": false,
          "name": "kingdomId",
          "type": "uint256"
        },
        {
          "indexed": false,
          "name": "fortressLevel",
          "type": "uint256"
        }
      ],
      "name": "UpgradeFortress",
      "type": "event"
    },
    {
      "anonymous": false,
      "inputs": [
        {
          "indexed": false,
          "name": "kingdomId",
          "type": "uint256"
        },
        {
          "indexed": false,
          "name": "covertLevel",
          "type": "uint256"
        }
      ],
      "name": "UpgradeCovert",
      "type": "event"
    },
    {
      "anonymous": false,
      "inputs": [
        {
          "indexed": false,
          "name": "battleId",
          "type": "uint256"
        }
      ],
      "name": "BattleCompleted",
      "type": "event"
    },
    {
      "anonymous": false,
      "inputs": [
        {
          "indexed": false,
          "name": "kingdomId",
          "type": "uint256"
        }
      ],
      "name": "Recruit",
      "type": "event"
    },
    {
      "anonymous": false,
      "inputs": [
        {
          "indexed": false,
          "name": "kingdomId",
          "type": "uint256"
        },
        {
          "indexed": false,
          "name": "commanderId",
          "type": "uint256"
        }
      ],
      "name": "CommanderAssigned",
      "type": "event"
    },
    {
      "anonymous": false,
      "inputs": [
        {
          "indexed": false,
          "name": "kingdomId",
          "type": "uint256"
        },
        {
          "indexed": false,
          "name": "count",
          "type": "uint256"
        }
      ],
      "name": "TrainedAttackSpecialists",
      "type": "event"
    },
    {
      "anonymous": false,
      "inputs": [
        {
          "indexed": false,
          "name": "kingdomId",
          "type": "uint256"
        },
        {
          "indexed": false,
          "name": "count",
          "type": "uint256"
        }
      ],
      "name": "TrainedDefenseSpecialists",
      "type": "event"
    },
    {
      "anonymous": false,
      "inputs": [
        {
          "indexed": false,
          "name": "kingdomId",
          "type": "uint256"
        },
        {
          "indexed": false,
          "name": "count",
          "type": "uint256"
        }
      ],
      "name": "ReassignedAttackSpecialists",
      "type": "event"
    },
    {
      "anonymous": false,
      "inputs": [
        {
          "indexed": false,
          "name": "kingdomId",
          "type": "uint256"
        },
        {
          "indexed": false,
          "name": "count",
          "type": "uint256"
        }
      ],
      "name": "ReassignedDefenseSpecialists",
      "type": "event"
    },
    {
      "anonymous": false,
      "inputs": [
        {
          "indexed": false,
          "name": "kingdomId",
          "type": "uint256"
        },
        {
          "indexed": false,
          "name": "count",
          "type": "uint256"
        }
      ],
      "name": "TrainedSpies",
      "type": "event"
    },
    {
      "anonymous": false,
      "inputs": [
        {
          "indexed": false,
          "name": "kingdomId",
          "type": "uint256"
        },
        {
          "indexed": false,
          "name": "count",
          "type": "uint256"
        }
      ],
      "name": "TrainedSentries",
      "type": "event"
    },
    {
      "anonymous": false,
      "inputs": [
        {
          "indexed": false,
          "name": "id",
          "type": "uint256"
        },
        {
          "indexed": false,
          "name": "attackMercsCount",
          "type": "uint256"
        },
        {
          "indexed": false,
          "name": "defenseMercsCount",
          "type": "uint256"
        }
      ],
      "name": "PurchasedMercs",
      "type": "event"
    },
    {
      "constant": false,
      "inputs": [
        {
          "name": "_name",
          "type": "string"
        },
        {
          "name": "_race",
          "type": "uint256"
        },
        {
          "name": "_commanderId",
          "type": "uint256"
        }
      ],
      "name": "createNewKingdom",
      "outputs": [
        {
          "name": "",
          "type": "uint256"
        }
      ],
      "payable": false,
      "stateMutability": "nonpayable",
      "type": "function"
    },
    {
      "constant": true,
      "inputs": [
        {
          "name": "_id",
          "type": "uint256"
        }
      ],
      "name": "getKingdom",
      "outputs": [
        {
          "name": "",
          "type": "string"
        },
        {
          "name": "",
          "type": "uint8"
        },
        {
          "name": "",
          "type": "uint8[3]"
        },
        {
          "name": "",
          "type": "uint256"
        },
        {
          "name": "",
          "type": "uint256"
        },
        {
          "name": "",
          "type": "string"
        }
      ],
      "payable": false,
      "stateMutability": "view",
      "type": "function"
    },
    {
      "constant": true,
      "inputs": [
        {
          "name": "_targetId",
          "type": "uint256"
        }
      ],
      "name": "spyOnPersonnel",
      "outputs": [
        {
          "name": "",
          "type": "bool"
        },
        {
          "name": "",
          "type": "uint256[7]"
        }
      ],
      "payable": false,
      "stateMutability": "view",
      "type": "function"
    },
    {
      "constant": true,
      "inputs": [],
      "name": "getWeaponMultiplier",
      "outputs": [
        {
          "name": "",
          "type": "uint8"
        }
      ],
      "payable": false,
      "stateMutability": "view",
      "type": "function"
    },
    {
      "constant": true,
      "inputs": [],
      "name": "getFortressMultiplier",
      "outputs": [
        {
          "name": "",
          "type": "uint8"
        }
      ],
      "payable": false,
      "stateMutability": "view",
      "type": "function"
    },
    {
      "constant": true,
      "inputs": [
        {
          "name": "_commanderId",
          "type": "uint256"
        }
      ],
      "name": "getOfficers",
      "outputs": [
        {
          "name": "",
          "type": "uint256[]"
        }
      ],
      "payable": false,
      "stateMutability": "view",
      "type": "function"
    },
    {
      "constant": true,
      "inputs": [],
      "name": "getMyOfficers",
      "outputs": [
        {
          "name": "",
          "type": "uint256[]"
        }
      ],
      "payable": false,
      "stateMutability": "view",
      "type": "function"
    },
    {
      "constant": true,
      "inputs": [],
      "name": "haveKingdom",
      "outputs": [
        {
          "name": "",
          "type": "bool"
        }
      ],
      "payable": false,
      "stateMutability": "view",
      "type": "function"
    },
    {
      "constant": true,
      "inputs": [],
      "name": "getMyKingdomId",
      "outputs": [
        {
          "name": "",
          "type": "uint256"
        }
      ],
      "payable": false,
      "stateMutability": "view",
      "type": "function"
    },
    {
      "constant": true,
      "inputs": [
        {
          "name": "_id",
          "type": "uint256"
        }
      ],
      "name": "isMyKingdomId",
      "outputs": [
        {
          "name": "",
          "type": "bool"
        }
      ],
      "payable": false,
      "stateMutability": "view",
      "type": "function"
    },
    {
      "constant": true,
      "inputs": [],
      "name": "getMyKingdom",
      "outputs": [
        {
          "name": "",
          "type": "string"
        },
        {
          "name": "",
          "type": "uint8"
        },
        {
          "name": "",
          "type": "uint8[3]"
        },
        {
          "name": "",
          "type": "uint256"
        },
        {
          "name": "",
          "type": "uint256"
        },
        {
          "name": "",
          "type": "string"
        }
      ],
      "payable": false,
      "stateMutability": "view",
      "type": "function"
    },
    {
      "constant": true,
      "inputs": [],
      "name": "getMyPersonnel",
      "outputs": [
        {
          "name": "",
          "type": "uint256[7]"
        }
      ],
      "payable": false,
      "stateMutability": "view",
      "type": "function"
    },
    {
      "constant": true,
      "inputs": [],
      "name": "getKingdomCount",
      "outputs": [
        {
          "name": "",
          "type": "uint256"
        }
      ],
      "payable": false,
      "stateMutability": "view",
      "type": "function"
    },
    {
      "constant": false,
      "inputs": [
        {
          "name": "_commanderId",
          "type": "uint256"
        }
      ],
      "name": "assignCommander",
      "outputs": [],
      "payable": false,
      "stateMutability": "nonpayable",
      "type": "function"
    },
    {
      "constant": false,
      "inputs": [],
      "name": "ditchCommander",
      "outputs": [],
      "payable": false,
      "stateMutability": "nonpayable",
      "type": "function"
    },
    {
      "constant": true,
      "inputs": [
        {
          "name": "_id",
          "type": "uint256"
        }
      ],
      "name": "isCommander",
      "outputs": [
        {
          "name": "",
          "type": "bool"
        }
      ],
      "payable": false,
      "stateMutability": "view",
      "type": "function"
    },
    {
      "constant": false,
      "inputs": [
        {
          "name": "_race",
          "type": "uint8"
        }
      ],
      "name": "changeRace",
      "outputs": [],
      "payable": false,
      "stateMutability": "nonpayable",
      "type": "function"
    },
    {
      "constant": false,
      "inputs": [],
      "name": "upgradeWeapon",
      "outputs": [],
      "payable": false,
      "stateMutability": "nonpayable",
      "type": "function"
    },
    {
      "constant": false,
      "inputs": [],
      "name": "upgradeFortress",
      "outputs": [],
      "payable": false,
      "stateMutability": "nonpayable",
      "type": "function"
    },
    {
      "constant": false,
      "inputs": [],
      "name": "upgradeCovert",
      "outputs": [],
      "payable": false,
      "stateMutability": "nonpayable",
      "type": "function"
    },
    {
      "constant": true,
      "inputs": [
        {
          "name": "_id",
          "type": "uint256"
        }
      ],
      "name": "strikeAction",
      "outputs": [
        {
          "name": "",
          "type": "uint256"
        }
      ],
      "payable": false,
      "stateMutability": "view",
      "type": "function"
    },
    {
      "constant": true,
      "inputs": [],
      "name": "myStrikeAction",
      "outputs": [
        {
          "name": "",
          "type": "uint256"
        }
      ],
      "payable": false,
      "stateMutability": "view",
      "type": "function"
    },
    {
      "constant": true,
      "inputs": [
        {
          "name": "_id",
          "type": "uint256"
        }
      ],
      "name": "defensiveAction",
      "outputs": [
        {
          "name": "",
          "type": "uint256"
        }
      ],
      "payable": false,
      "stateMutability": "view",
      "type": "function"
    },
    {
      "constant": true,
      "inputs": [],
      "name": "myDefensiveAction",
      "outputs": [
        {
          "name": "",
          "type": "uint256"
        }
      ],
      "payable": false,
      "stateMutability": "view",
      "type": "function"
    },
    {
      "constant": true,
      "inputs": [
        {
          "name": "_id",
          "type": "uint256"
        }
      ],
      "name": "spyRating",
      "outputs": [
        {
          "name": "",
          "type": "uint256"
        }
      ],
      "payable": false,
      "stateMutability": "view",
      "type": "function"
    },
    {
      "constant": true,
      "inputs": [],
      "name": "mySpyRating",
      "outputs": [
        {
          "name": "",
          "type": "uint256"
        }
      ],
      "payable": false,
      "stateMutability": "view",
      "type": "function"
    },
    {
      "constant": true,
      "inputs": [
        {
          "name": "_id",
          "type": "uint256"
        }
      ],
      "name": "sentryRating",
      "outputs": [
        {
          "name": "",
          "type": "uint256"
        }
      ],
      "payable": false,
      "stateMutability": "view",
      "type": "function"
    },
    {
      "constant": true,
      "inputs": [],
      "name": "mySentryRating",
      "outputs": [
        {
          "name": "",
          "type": "uint256"
        }
      ],
      "payable": false,
      "stateMutability": "view",
      "type": "function"
    },
    {
      "constant": false,
      "inputs": [
        {
          "name": "_targetID",
          "type": "uint256"
        }
      ],
      "name": "attack",
      "outputs": [],
      "payable": false,
      "stateMutability": "nonpayable",
      "type": "function"
    },
    {
      "constant": true,
      "inputs": [
        {
          "name": "_id",
          "type": "uint256"
        }
      ],
      "name": "getBattle",
      "outputs": [
        {
          "name": "",
          "type": "uint256"
        },
        {
          "name": "",
          "type": "uint256"
        },
        {
          "name": "",
          "type": "uint256"
        },
        {
          "name": "",
          "type": "uint256"
        },
        {
          "name": "",
          "type": "uint256"
        },
        {
          "name": "",
          "type": "uint256"
        },
        {
          "name": "",
          "type": "bool"
        }
      ],
      "payable": false,
      "stateMutability": "view",
      "type": "function"
    },
    {
      "constant": true,
      "inputs": [
        {
          "name": "_id",
          "type": "uint256"
        }
      ],
      "name": "getRecentAttacks",
      "outputs": [
        {
          "name": "",
          "type": "uint256[2][5]"
        },
        {
          "name": "",
          "type": "uint256"
        }
      ],
      "payable": false,
      "stateMutability": "view",
      "type": "function"
    },
    {
      "constant": true,
      "inputs": [],
      "name": "getMyRecentAttacks",
      "outputs": [
        {
          "name": "",
          "type": "uint256[2][5]"
        },
        {
          "name": "",
          "type": "uint256"
        }
      ],
      "payable": false,
      "stateMutability": "view",
      "type": "function"
    },
    {
      "constant": true,
      "inputs": [
        {
          "name": "_id",
          "type": "uint256"
        }
      ],
      "name": "getRecent10IncomingAttacks",
      "outputs": [
        {
          "name": "",
          "type": "uint256[2][10]"
        },
        {
          "name": "",
          "type": "uint256"
        }
      ],
      "payable": false,
      "stateMutability": "view",
      "type": "function"
    },
    {
      "constant": true,
      "inputs": [
        {
          "name": "_id",
          "type": "uint256"
        }
      ],
      "name": "getRecent10OutgoingAttacks",
      "outputs": [
        {
          "name": "",
          "type": "uint256[2][10]"
        },
        {
          "name": "",
          "type": "uint256"
        }
      ],
      "payable": false,
      "stateMutability": "view",
      "type": "function"
    },
    {
      "constant": true,
      "inputs": [],
      "name": "getMyRecent10IncomingAttacks",
      "outputs": [
        {
          "name": "",
          "type": "uint256[2][10]"
        },
        {
          "name": "",
          "type": "uint256"
        }
      ],
      "payable": false,
      "stateMutability": "view",
      "type": "function"
    },
    {
      "constant": true,
      "inputs": [],
      "name": "getMyRecent10OutgoingAttacks",
      "outputs": [
        {
          "name": "",
          "type": "uint256[2][10]"
        },
        {
          "name": "",
          "type": "uint256"
        }
      ],
      "payable": false,
      "stateMutability": "view",
      "type": "function"
    },
    {
      "constant": true,
      "inputs": [],
      "name": "canRecruit",
      "outputs": [
        {
          "name": "",
          "type": "bool"
        },
        {
          "name": "",
          "type": "uint256"
        }
      ],
      "payable": false,
      "stateMutability": "view",
      "type": "function"
    },
    {
      "constant": false,
      "inputs": [],
      "name": "recruit",
      "outputs": [],
      "payable": false,
      "stateMutability": "nonpayable",
      "type": "function"
    },
    {
      "constant": false,
      "inputs": [
        {
          "name": "_count",
          "type": "uint256"
        }
      ],
      "name": "trainAttackSpecialists",
      "outputs": [],
      "payable": false,
      "stateMutability": "nonpayable",
      "type": "function"
    },
    {
      "constant": false,
      "inputs": [
        {
          "name": "_count",
          "type": "uint256"
        }
      ],
      "name": "trainDefenseSpecialists",
      "outputs": [],
      "payable": false,
      "stateMutability": "nonpayable",
      "type": "function"
    },
    {
      "constant": false,
      "inputs": [
        {
          "name": "_count",
          "type": "uint256"
        }
      ],
      "name": "trainSpies",
      "outputs": [],
      "payable": false,
      "stateMutability": "nonpayable",
      "type": "function"
    },
    {
      "constant": false,
      "inputs": [
        {
          "name": "_count",
          "type": "uint256"
        }
      ],
      "name": "trainSentries",
      "outputs": [],
      "payable": false,
      "stateMutability": "nonpayable",
      "type": "function"
    },
    {
      "constant": false,
      "inputs": [
        {
          "name": "_count",
          "type": "uint256"
        }
      ],
      "name": "reassignAttackSpecialists",
      "outputs": [],
      "payable": false,
      "stateMutability": "nonpayable",
      "type": "function"
    },
    {
      "constant": false,
      "inputs": [
        {
          "name": "_count",
          "type": "uint256"
        }
      ],
      "name": "reassignDefenseSpecialists",
      "outputs": [],
      "payable": false,
      "stateMutability": "nonpayable",
      "type": "function"
    },
    {
      "constant": false,
      "inputs": [
        {
          "name": "_attackMercsCount",
          "type": "uint256"
        },
        {
          "name": "_defenseMercsCount",
          "type": "uint256"
        }
      ],
      "name": "buyMercs",
      "outputs": [],
      "payable": false,
      "stateMutability": "nonpayable",
      "type": "function"
    }
  ],
  "bytecode": "0x6060604052601e600760006101000a81548160ff021916908360ff1602179055506019600760016101000a81548160ff021916908360ff160217905550603c600760026101000a81548160ff021916908360ff160217905550600e600760036101000a81548160ff021916908360ff1602179055506010600760046101000a81548160ff021916908360ff160217905550600f600760056101000a81548160ff021916908360ff160217905550619c40600760066101000a81548161ffff021916908361ffff160217905550619c40600760086101000a81548161ffff021916908361ffff160217905550612ee06007600a6101000a81548161ffff021916908361ffff16021790555061012c60085560c060405190810160405280600060ff168152602001601e60ff168152602001600f60ff168152602001600060ff168152602001600060ff168152602001600060ff1681525060099060066200016792919062000943565b5060c060405190810160405280606460ff168152602001600060ff168152602001600060ff168152602001600060ff168152602001602360ff168152602001600060ff16815250600a906006620001c092919062000943565b5060c060405190810160405280606460ff168152602001600060ff168152602001602860ff168152602001600060ff168152602001601460ff168152602001600060ff16815250600b9060066200021992919062000943565b5060c060405190810160405280606460ff168152602001602360ff168152602001600060ff168152602001602d60ff168152602001600060ff168152602001600060ff16815250600c9060066200027292919062000943565b5060c060405190810160405280606460ff168152602001600060ff168152602001600060ff168152602001600060ff168152602001600060ff168152602001602360ff16815250600d906006620002cb92919062000943565b5060c060405190810160405280603260ff168152602001600060ff168152602001600060ff168152602001604660ff168152602001600060ff168152602001605560ff16815250600e9060066200032492919062000943565b5034156200033157600080fd5b620003e66040805190810160405280600381526020017f476f6400000000000000000000000000000000000000000000000000000000008152506000606060405190810160405280600e60ff168152602001601060ff168152602001600f60ff1681525060a060405190810160405280620f4240815260200162030d40815260200162030d408152602001612710815260200161271081525060006200055564010000000002620031c1176401000000009004565b506200049a6040805190810160405280601081526020017f476f6427732052696768742048616e64000000000000000000000000000000008152506000606060405190810160405280600c60ff168152602001600e60ff168152602001600a60ff1681525060a060405190810160405280620186a08152602001614e208152602001614e2081526020016103e881526020016103e881525060006200055564010000000002620031c1176401000000009004565b506200054e6040805190810160405280600f81526020017f476f642773204c6566742048616e6400000000000000000000000000000000008152506000606060405190810160405280600c60ff168152602001600e60ff168152602001600a60ff1681525060a060405190810160405280620186a08152602001614e208152602001614e2081526020016103e881526020016103e881525060006200055564010000000002620031c1176401000000009004565b5062000c77565b600080600160008054806001018281620005709190620009f1565b9160005260206000209060040201600060e0604051908101604052808c81526020018b60ff1681526020018a6000600381101515620005ab57fe5b602002015160ff1681526020018a6001600381101515620005c857fe5b602002015160ff1681526020018a6002600381101515620005e557fe5b602002015160ff1681526020016000815260200188815250909190915060008201518160000190805190602001906200062092919062000a26565b5060208201518160010160006101000a81548160ff021916908360ff16021790555060408201518160010160016101000a81548160ff021916908360ff16021790555060608201518160010160026101000a81548160ff021916908360ff16021790555060808201518160010160036101000a81548160ff021916908360ff16021790555060a0820151816002015560c08201518160030155505003905060018054806001018281620006d4919062000aad565b9160005260206000209060070201600060e0604051908101604052808860006005811015156200070057fe5b602002015181526020018860016005811015156200071a57fe5b60200201518152602001600081526020018860026005811015156200073b57fe5b60200201518152602001600081526020018860036005811015156200075c57fe5b602002015181526020018860046005811015156200077657fe5b60200201518152509091909150600082015181600001556020820151816001015560408201518160020155606082015181600301556080820151816004015560a0820151816005015560c08201518160060155505050336004600083815260200190815260200160002060006101000a81548173ffffffffffffffffffffffffffffffffffffffff021916908373ffffffffffffffffffffffffffffffffffffffff16021790555080600360003373ffffffffffffffffffffffffffffffffffffffff1673ffffffffffffffffffffffffffffffffffffffff16815260200190815260200160002081905550600160056000858152602001908152602001600020600082825401925050819055507f8903d00f136209d2fb29b581df936c8cbc1f7f2f70aafe69e061eff9527d7cbd81888860405180848152602001806020018360ff168152602001828103825284818151815260200191508051906020019080838360005b83811015620008f9578082015181840152602081019050620008dc565b50505050905090810190601f168015620009275780820380516001836020036101000a031916815260200191505b5094505050505060405180910390a18091505095945050505050565b82805482825590600052602060002090601f01602090048101928215620009de5791602002820160005b83821115620009ad57835183826101000a81548160ff021916908360ff16021790555092602001926001016020816000010492830192600103026200096d565b8015620009dc5782816101000a81549060ff0219169055600101602081600001049283019260010302620009ad565b505b509050620009ed919062000ae2565b5090565b81548183558181151162000a215760040281600402836000526020600020918201910162000a20919062000b15565b5b505050565b828054600181600116156101000203166002900490600052602060002090601f016020900481019282601f1062000a6957805160ff191683800117855562000a9a565b8280016001018555821562000a9a579182015b8281111562000a9957825182559160200191906001019062000a7c565b5b50905062000aa9919062000ba9565b5090565b81548183558181151162000add5760070281600702836000526020600020918201910162000adc919062000bd1565b5b505050565b62000b1291905b8082111562000b0e57600081816101000a81549060ff02191690555060010162000ae9565b5090565b90565b62000ba691905b8082111562000ba2576000808201600062000b38919062000c2b565b6001820160006101000a81549060ff02191690556001820160016101000a81549060ff02191690556001820160026101000a81549060ff02191690556001820160036101000a81549060ff0219169055600282016000905560038201600090555060040162000b1c565b5090565b90565b62000bce91905b8082111562000bca57600081600090555060010162000bb0565b5090565b90565b62000c2891905b8082111562000c24576000808201600090556001820160009055600282016000905560038201600090556004820160009055600582016000905560068201600090555060070162000bd8565b5090565b90565b50805460018160011615610100020316600290046000825580601f1062000c53575062000c74565b601f01602090049060005260206000209081019062000c73919062000ba9565b5b50565b61399e8062000c876000396000f300606060405260043610610224576000357c0100000000000000000000000000000000000000000000000000000000900463ffffffff16806270379b1461022957806305ddb4e01461024c5780630b8d16d5146102c45780630ca62a8a146104165780630eb70db11461044d5780631185f5af146104885780631758f522146104bf57806318070857146104ee5780631e7d655814610517578063214d23c81461052c578063262759741461054157806339925477146105ca5780634afecfd4146105ed5780635c30d3511461061357806364dd891a1461063c578063689f8c5c1461065f5780636a0f5440146106745780636dd0ce7a146106a85780637f8680ab1461070d57806383725bf71461085157806384d2d4be146108665780638c56c5f8146108ef5780638d9c842f146109185780638e4060721461093b57806394bff99114610964578063a153d918146109ed578063acff8da514610a16578063b791d78e14610a91578063cbfc956514610ab4578063d644cb1d14610ae3578063d99b587614610b06578063daa3784714610b70578063de73ea1914610ba7578063e42e638814610c22578063e5dcdf9b14610c37578063e7711dde14610c60578063e969546d14610c83578063e997f20714610ca6578063eaf5839214610d10578063ed5b7e5e14610d93578063f2ed2dff14610de4578063f328dbbb14610e11578063f46410bb14610e8c578063fca1efec14610ec7578063fd314c3c14610efe575b600080fd5b341561023457600080fd5b61024a6004808035906020019091905050610f2a565b005b341561025757600080fd5b61026d6004808035906020019091905050611018565b6040518080602001828103825283818151815260200191508051906020019060200280838360005b838110156102b0578082015181840152602081019050610295565b505050509050019250505060405180910390f35b34156102cf57600080fd5b6102e56004808035906020019091905050611112565b60405180806020018760ff1660ff16815260200186600360200280838360005b83811015610320578082015181840152602081019050610305565b5050505090500185815260200184815260200180602001838103835289818151815260200191508051906020019080838360005b8381101561036f578082015181840152602081019050610354565b50505050905090810190601f16801561039c5780820380516001836020036101000a031916815260200191505b50838103825284818151815260200191508051906020019080838360005b838110156103d55780820151818401526020810190506103ba565b50505050905090810190601f1680156104025780820380516001836020036101000a031916815260200191505b509850505050505050505060405180910390f35b341561042157600080fd5b6104376004808035906020019091905050611348565b6040518082815260200191505060405180910390f35b341561045857600080fd5b61046e600480803590602001909190505061143d565b604051808215151515815260200191505060405180910390f35b341561049357600080fd5b6104a960048080359060200190919050506114a8565b6040518082815260200191505060405180910390f35b34156104ca57600080fd5b6104d26115ac565b604051808260ff1660ff16815260200191505060405180910390f35b34156104f957600080fd5b6105016115c3565b6040518082815260200191505060405180910390f35b341561052257600080fd5b61052a611626565b005b341561053757600080fd5b61053f611752565b005b341561054c57600080fd5b61056260048080359060200190919050506118cd565b6040518083600a6000925b818410156105b35782846020020151600260200280838360005b838110156105a2578082015181840152602081019050610587565b50505050905001926001019261056d565b925050508281526020019250505060405180910390f35b34156105d557600080fd5b6105eb60048080359060200190919050506119b8565b005b34156105f857600080fd5b610611600480803560ff16906020019091905050611aa6565b005b341561061e57600080fd5b610626611bc3565b6040518082815260200191505060405180910390f35b341561064757600080fd5b61065d6004808035906020019091905050611c26565b005b341561066a57600080fd5b610672611db8565b005b341561067f57600080fd5b610687611ec9565b60405180831515151581526020018281526020019250505060405180910390f35b34156106b357600080fd5b6106c96004808035906020019091905050611f50565b604051808881526020018781526020018681526020018581526020018481526020018381526020018215151515815260200197505050505050505060405180910390f35b341561071857600080fd5b610720611fc5565b60405180806020018760ff1660ff16815260200186600360200280838360005b8381101561075b578082015181840152602081019050610740565b5050505090500185815260200184815260200180602001838103835289818151815260200191508051906020019080838360005b838110156107aa57808201518184015260208101905061078f565b50505050905090810190601f1680156107d75780820380516001836020036101000a031916815260200191505b50838103825284818151815260200191508051906020019080838360005b838110156108105780820151818401526020810190506107f5565b50505050905090810190601f16801561083d5780820380516001836020036101000a031916815260200191505b509850505050505050505060405180910390f35b341561085c57600080fd5b610864612053565b005b341561087157600080fd5b61088760048080359060200190919050506121ce565b6040518083600a6000925b818410156108d85782846020020151600260200280838360005b838110156108c75780820151818401526020810190506108ac565b505050509050019260010192610892565b925050508281526020019250505060405180910390f35b34156108fa57600080fd5b6109026122b9565b6040518082815260200191505060405180910390f35b341561092357600080fd5b610939600480803590602001909190505061231c565b005b341561094657600080fd5b61094e61245a565b6040518082815260200191505060405180910390f35b341561096f57600080fd5b6109856004808035906020019091905050612466565b604051808360056000925b818410156109d65782846020020151600260200280838360005b838110156109c55780820151818401526020810190506109aa565b505050509050019260010192610990565b925050508281526020019250505060405180910390f35b34156109f857600080fd5b610a00612552565b6040518082815260200191505060405180910390f35b3415610a2157600080fd5b610a296125b5565b604051808360056000925b81841015610a7a5782846020020151600260200280838360005b83811015610a69578082015181840152602081019050610a4e565b505050509050019260010192610a34565b925050508281526020019250505060405180910390f35b3415610a9c57600080fd5b610ab26004808035906020019091905050612623565b005b3415610abf57600080fd5b610ac7612711565b604051808260ff1660ff16815260200191505060405180910390f35b3415610aee57600080fd5b610b046004808035906020019091905050612728565b005b3415610b1157600080fd5b610b19612816565b6040518080602001828103825283818151815260200191508051906020019060200280838360005b83811015610b5c578082015181840152602081019050610b41565b505050509050019250505060405180910390f35b3415610b7b57600080fd5b610b916004808035906020019091905050612880565b6040518082815260200191505060405180910390f35b3415610bb257600080fd5b610bba612984565b6040518083600a6000925b81841015610c0b5782846020020151600260200280838360005b83811015610bfa578082015181840152602081019050610bdf565b505050509050019260010192610bc5565b925050508281526020019250505060405180910390f35b3415610c2d57600080fd5b610c356129f2565b005b3415610c4257600080fd5b610c4a6129fe565b6040518082815260200191505060405180910390f35b3415610c6b57600080fd5b610c816004808035906020019091905050612a45565b005b3415610c8e57600080fd5b610ca46004808035906020019091905050612b33565b005b3415610cb157600080fd5b610cc76004808035906020019091905050612c21565b604051808315151515815260200182600760200280838360005b83811015610cfc578082015181840152602081019050610ce1565b505050509050019250505060405180910390f35b3415610d1b57600080fd5b610d7d600480803590602001908201803590602001908080601f01602080910402602001604051908101604052809392919081815260200183838082843782019150505050505091908035906020019091908035906020019091905050612d26565b6040518082815260200191505060405180910390f35b3415610d9e57600080fd5b610da6612dfb565b6040518082600760200280838360005b83811015610dd1578082015181840152602081019050610db6565b5050505090500191505060405180910390f35b3415610def57600080fd5b610df7612e65565b604051808215151515815260200191505060405180910390f35b3415610e1c57600080fd5b610e24612eae565b6040518083600a6000925b81841015610e755782846020020151600260200280838360005b83811015610e64578082015181840152602081019050610e49565b505050509050019260010192610e2f565b925050508281526020019250505060405180910390f35b3415610e9757600080fd5b610ead6004808035906020019091905050612f1c565b604051808215151515815260200191505060405180910390f35b3415610ed257600080fd5b610ee86004808035906020019091905050612f67565b6040518082815260200191505060405180910390f35b3415610f0957600080fd5b610f28600480803590602001909190803590602001909190505061305c565b005b600080600360003373ffffffffffffffffffffffffffffffffffffffff1673ffffffffffffffffffffffffffffffffffffffff168152602001908152602001600020549150600082111515610f7e57600080fd5b600182815481101515610f8d57fe5b9060005260206000209060070201905082816000015410151515610fb057600080fd5b8281600001600082825403925050819055508281600601600082825401925050819055507fa69a32d5b1ceff1703230cea48ee9c074ec2703823d3f2529c0c711510d6e8568284604051808381526020018281526020019250505060405180910390a1505050565b61102061359e565b600080600061102d61359e565b60056000878152602001908152602001600020549250600083141561107357600060405180591061105b5750595b90808252806020026020018201604052509450611109565b60009150826040518059106110855750595b90808252806020026020018201604052509050600093505b60008054905084101561110557856000858154811015156110ba57fe5b90600052602060002090600402016003015414156110f8578381838151811015156110e157fe5b906020019060200201818152505081806001019250505b838060010194505061109d565b8094505b50505050919050565b61111a6135b2565b60006111246135c6565b60008061112f6135b2565b60008060008981548110151561114157fe5b906000526020600020906004020191506000826003015481548110151561116457fe5b90600052602060002090600402016000019050816000018260010160009054906101000a900460ff166060604051908101604052808560010160019054906101000a900460ff1660ff1660ff1681526020018560010160029054906101000a900460ff1660ff1660ff1681526020018560010160039054906101000a900460ff1660ff1660ff168152508460020154856003015485858054600181600116156101000203166002900480601f01602080910402602001604051908101604052809291908181526020018280546001816001161561010002031660029004801561128e5780601f106112635761010080835404028352916020019161128e565b820191906000526020600020905b81548152906001019060200180831161127157829003601f168201915b50505050509550808054600181600116156101000203166002900480601f01602080910402602001604051908101604052809291908181526020018280546001816001161561010002031660029004801561132a5780601f106112ff5761010080835404028352916020019161132a565b820191906000526020600020905b81548152906001019060200180831161130d57829003601f168201915b50505050509050975097509750975097509750505091939550919395565b6000806000808481548110151561135b57fe5b9060005260206000209060040201915060018481548110151561137a57fe5b906000526020600020906007020190508160010160039054906101000a900460ff1660ff1660640a8260010160039054906101000a900460ff1660ff16600760029054906101000a900460ff1660640160ff160a6064600c8560010160009054906101000a900460ff1660ff168154811015156113f357fe5b90600052602060002090602091828204019190069054906101000a900460ff1660640160ff1684600501540281151561142857fe5b040281151561143357fe5b0492505050919050565b6000816000600360003373ffffffffffffffffffffffffffffffffffffffff1673ffffffffffffffffffffffffffffffffffffffff1681526020019081526020016000205481548110151561148e57fe5b906000526020600020906004020160030154149050919050565b600080600080848154811015156114bb57fe5b906000526020600020906004020191506001848154811015156114da57fe5b906000526020600020906007020190508160010160019054906101000a900460ff1660ff1660640a8260010160019054906101000a900460ff1660ff16600760009054906101000a900460ff1660640160ff160a6064600a8560010160009054906101000a900460ff1660ff1681548110151561155357fe5b90600052602060002090602091828204019190069054906101000a900460ff1660640160ff1684600201548560010154016002028560000154010281151561159757fe5b04028115156115a257fe5b0492505050919050565b6000600760009054906101000a900460ff16905090565b600080600360003373ffffffffffffffffffffffffffffffffffffffff1673ffffffffffffffffffffffffffffffffffffffff16815260200190815260200160002054905060008111151561161757600080fd5b611620816114a8565b91505090565b600080600360003373ffffffffffffffffffffffffffffffffffffffff1673ffffffffffffffffffffffffffffffffffffffff16815260200190815260200160002054915060008211151561167a57600080fd5b60008281548110151561168957fe5b906000526020600020906004020160010160019054906101000a900460ff169050600760039054906101000a900460ff1660ff168160ff161015156116cd57600080fd5b600181019050806000838154811015156116e357fe5b906000526020600020906004020160010160016101000a81548160ff021916908360ff1602179055507fc1951a752c7ea5b127e5d8611a8fc5624a02db238afe91956ffb73be75cdd4f58282604051808381526020018260ff1681526020019250505060405180910390a15050565b6000806000600360003373ffffffffffffffffffffffffffffffffffffffff1673ffffffffffffffffffffffffffffffffffffffff16815260200190815260200160002054141515156117a457600080fd5b600360003373ffffffffffffffffffffffffffffffffffffffff1673ffffffffffffffffffffffffffffffffffffffff1681526020019081526020016000205491506000821115156117f557600080fd5b60008281548110151561180457fe5b906000526020600020906004020160010160029054906101000a900460ff169050600760049054906101000a900460ff1660ff168160ff1610151561184857600080fd5b6001810190508060008381548110151561185e57fe5b906000526020600020906004020160010160026101000a81548160ff021916908360ff1602179055507f3faf8d366ab416cfcf9718489c90f5b4c1ec9a8b968eab74cc30ee2f1c61b6908282604051808381526020018260ff1681526020019250505060405180910390a15050565b6118d56135f1565b60006118df6135f1565b600080600080925060028054905091505b6000821180156119005750600a83105b156119a95760026001830381548110151561191757fe5b90600052602060002090600802019050868160010154141561199b57806000015442038484600a8110151561194857fe5b6020020151600060028110151561195b57fe5b602002018181525050600182038484600a8110151561197657fe5b6020020151600160028110151561198957fe5b60200201818152505082806001019350505b8180600190039250506118f0565b83839550955050505050915091565b600080600360003373ffffffffffffffffffffffffffffffffffffffff1673ffffffffffffffffffffffffffffffffffffffff168152602001908152602001600020549150600082111515611a0c57600080fd5b600182815481101515611a1b57fe5b9060005260206000209060070201905082816000015410151515611a3e57600080fd5b8281600001600082825403925050819055508281600301600082825401925050819055507f8dab6851fd136f28222d7e45ef390b5b993c76b489f265025a71b42526ef236d8284604051808381526020018281526020019250505060405180910390a1505050565b600080600360003373ffffffffffffffffffffffffffffffffffffffff1673ffffffffffffffffffffffffffffffffffffffff168152602001908152602001600020549150600082111515611afa57600080fd5b600082815481101515611b0957fe5b906000526020600020906004020190508260ff168160010160009054906101000a900460ff1660ff1614158015611b44575060018360ff1610155b8015611b54575060058360ff1611155b1515611b5f57600080fd5b828160010160006101000a81548160ff021916908360ff1602179055507f494533cfa69cc2f1377bca17dc57558a0d219c115ebb8381db649ebe557f70b88284604051808381526020018260ff1681526020019250505060405180910390a1505050565b600080600360003373ffffffffffffffffffffffffffffffffffffffff1673ffffffffffffffffffffffffffffffffffffffff168152602001908152602001600020549050600081111515611c1757600080fd5b611c2081611348565b91505090565b6000806000806000806000600360003373ffffffffffffffffffffffffffffffffffffffff1673ffffffffffffffffffffffffffffffffffffffff168152602001908152602001600020549650878714151515611c8257600080fd5b611c8a6115c3565b9550611c9588612880565b945060009350600092508486119150600160028054806001018281611cba9190613620565b91600052602060002090600802016000610100604051908101604052804281526020018c81526020018d81526020018b81526020018a81526020018981526020018881526020018715158152509091909150600082015181600001556020820151816001015560408201518160020155606082015181600301556080820151816004015560a0820151816005015560c0820151816006015560e08201518160070160006101000a81548160ff02191690831515021790555050500390507f2698d75f814df009b510df39d03c901a6e830c6dfd50922c8fe6bbb794967843816040518082815260200191505060405180910390a15050505050505050565b6000600360003373ffffffffffffffffffffffffffffffffffffffff1673ffffffffffffffffffffffffffffffffffffffff168152602001908152602001600020549050600081111515611e0b57600080fd5b60085460066000838152602001908152602001600020544203111515611e3057600080fd5b6005600082815260200190815260200160002054600101606402600182815481101515611e5957fe5b9060005260206000209060070201600001600082825401925050819055504260066000838152602001908152602001600020819055507f60e7be082d1721960e15a9ebd82c9f2e704d97b328525ff70a15e402f40410fb816040518082815260200191505060405180910390a150565b600080600060066000600360003373ffffffffffffffffffffffffffffffffffffffff1673ffffffffffffffffffffffffffffffffffffffff1681526020019081526020016000205481526020019081526020016000205442039050600854811115611f3f576001600080905092509250611f4b565b60008160085403925092505b509091565b600080600080600080600080600289815481101515611f6b57fe5b906000526020600020906008020190508060010154816002015482600301548360040154846005015485600601548660070160009054906101000a900460ff16975097509750975097509750975050919395979092949650565b611fcd6135b2565b6000611fd76135c6565b600080611fe26135b2565b6000600360003373ffffffffffffffffffffffffffffffffffffffff1673ffffffffffffffffffffffffffffffffffffffff16815260200190815260200160002054905060008111151561203557600080fd5b61203e81611112565b96509650965096509650965050909192939495565b6000806000600360003373ffffffffffffffffffffffffffffffffffffffff1673ffffffffffffffffffffffffffffffffffffffff16815260200190815260200160002054141515156120a557600080fd5b600360003373ffffffffffffffffffffffffffffffffffffffff1673ffffffffffffffffffffffffffffffffffffffff1681526020019081526020016000205491506000821115156120f657600080fd5b60008281548110151561210557fe5b906000526020600020906004020160010160039054906101000a900460ff169050600760059054906101000a900460ff1660ff168160ff1610151561214957600080fd5b6001810190508060008381548110151561215f57fe5b906000526020600020906004020160010160036101000a81548160ff021916908360ff1602179055507fc302655c4ab21ceb36108dfef1ae37b736a1b30f43032dbc96a90eb16134d6ce8282604051808381526020018260ff1681526020019250505060405180910390a15050565b6121d66135f1565b60006121e06135f1565b600080600080925060028054905091505b6000821180156122015750600a83105b156122aa5760026001830381548110151561221857fe5b90600052602060002090600802019050868160020154141561229c57806000015442038484600a8110151561224957fe5b6020020151600060028110151561225c57fe5b602002018181525050600182038484600a8110151561227757fe5b6020020151600160028110151561228a57fe5b60200201818152505082806001019350505b8180600190039250506121f1565b83839550955050505050915091565b600080600360003373ffffffffffffffffffffffffffffffffffffffff1673ffffffffffffffffffffffffffffffffffffffff16815260200190815260200160002054905060008111151561230d57600080fd5b61231681612f67565b91505090565b6000600360003373ffffffffffffffffffffffffffffffffffffffff1673ffffffffffffffffffffffffffffffffffffffff1681526020019081526020016000205490508160008281548110151561237057fe5b9060005260206000209060040201600301541415151561238f57600080fd5b60016005600080848154811015156123a357fe5b906000526020600020906004020160030154815260200190815260200160002060008282540392505081905550600160056000848152602001908152602001600020600082825401925050819055508160008281548110151561240257fe5b9060005260206000209060040201600301819055507f6656648d38e5e0c3fee01e298d927bf08e1f558de201fe28d11e710a6e9802068183604051808381526020018281526020019250505060405180910390a15050565b60008080549050905090565b61246e613652565b6000612478613652565b600080600080925060028054905091505b6000821180156124995750600583105b15612543576002600183038154811015156124b057fe5b906000526020600020906008020190508681600201541415612535578060000154420384846005811015156124e157fe5b602002015160006002811015156124f457fe5b6020020181815250508060010154848460058110151561251057fe5b6020020151600160028110151561252357fe5b60200201818152505082806001019350505b818060019003925050612489565b83839550955050505050915091565b600080600360003373ffffffffffffffffffffffffffffffffffffffff1673ffffffffffffffffffffffffffffffffffffffff1681526020019081526020016000205490506000811115156125a657600080fd5b6125af81612880565b91505090565b6125bd613652565b600080600360003373ffffffffffffffffffffffffffffffffffffffff1673ffffffffffffffffffffffffffffffffffffffff16815260200190815260200160002054905060008111151561261157600080fd5b61261a81612466565b92509250509091565b600080600360003373ffffffffffffffffffffffffffffffffffffffff1673ffffffffffffffffffffffffffffffffffffffff16815260200190815260200160002054915060008211151561267757600080fd5b60018281548110151561268657fe5b90600052602060002090600702019050828160030154101515156126a957600080fd5b8281600001600082825401925050819055508281600301600082825403925050819055507f4de8168c5f461e6eb205fe057f7a12ed755d098c0708bef0ea8875a035bc46b68284604051808381526020018281526020019250505060405180910390a1505050565b6000600760019054906101000a900460ff16905090565b600080600360003373ffffffffffffffffffffffffffffffffffffffff1673ffffffffffffffffffffffffffffffffffffffff16815260200190815260200160002054915060008211151561277c57600080fd5b60018281548110151561278b57fe5b90600052602060002090600702019050828160000154101515156127ae57600080fd5b8281600001600082825403925050819055508281600101600082825401925050819055507fc67b48cb7fe654bbff71b7cf0af383327db7f9c7791b69b6f43f0487de584b1b8284604051808381526020018281526020019250505060405180910390a1505050565b61281e61359e565b6000600360003373ffffffffffffffffffffffffffffffffffffffff1673ffffffffffffffffffffffffffffffffffffffff16815260200190815260200160002054905060008111151561287157600080fd5b61287a81611018565b91505090565b6000806000808481548110151561289357fe5b906000526020600020906004020191506001848154811015156128b257fe5b906000526020600020906007020190508160010160029054906101000a900460ff1660ff1660640a8260010160029054906101000a900460ff1660ff16600760019054906101000a900460ff1660640160ff160a6064600b8560010160009054906101000a900460ff1660ff1681548110151561292b57fe5b90600052602060002090602091828204019190069054906101000a900460ff1660640160ff1684600401548560030154600202866000015401010281151561296f57fe5b040281151561297a57fe5b0492505050919050565b61298c6135f1565b600080600360003373ffffffffffffffffffffffffffffffffffffffff1673ffffffffffffffffffffffffffffffffffffffff1681526020019081526020016000205490506000811115156129e057600080fd5b6129e9816118cd565b92509250509091565b6129fc600061231c565b565b6000600360003373ffffffffffffffffffffffffffffffffffffffff1673ffffffffffffffffffffffffffffffffffffffff16815260200190815260200160002054905090565b600080600360003373ffffffffffffffffffffffffffffffffffffffff1673ffffffffffffffffffffffffffffffffffffffff168152602001908152602001600020549150600082111515612a9957600080fd5b600182815481101515612aa857fe5b9060005260206000209060070201905082816000015410151515612acb57600080fd5b8281600001600082825403925050819055508281600501600082825401925050819055507f298f72ff5878642622d1b6189cf8abc10cfa20471bc3fb0ccc3e28ff74e24d238284604051808381526020018281526020019250505060405180910390a1505050565b600080600360003373ffffffffffffffffffffffffffffffffffffffff1673ffffffffffffffffffffffffffffffffffffffff168152602001908152602001600020549150600082111515612b8757600080fd5b600182815481101515612b9657fe5b9060005260206000209060070201905082816001015410151515612bb957600080fd5b8281600001600082825401925050819055508281600101600082825403925050819055507f7612ba9bfbe68a6f136ea75f615a5b3eb755c8a4e66e32d678e92ba9016a51618284604051808381526020018281526020019250505060405180910390a1505050565b6000612c2b613681565b6000600360003373ffffffffffffffffffffffffffffffffffffffff1673ffffffffffffffffffffffffffffffffffffffff168152602001908152602001600020549050600081111515612c7e57600080fd5b83811480612cab5750600084815481101515612c9657fe5b90600052602060002090600402016003015481145b80612cc55750612cba84612f67565b612cc382611348565b115b15612cde576001612cd585613140565b92509250612d20565b600060e0604051908101604052806000815260200160008152602001600081526020016000815260200160008152602001600081526020016000815250925092505b50915091565b600080600360003373ffffffffffffffffffffffffffffffffffffffff1673ffffffffffffffffffffffffffffffffffffffff16815260200190815260200160002054141515612d7557600080fd5b60018310158015612d87575060058311155b1515612d9257600080fd5b612df28484606060405190810160405280600060ff168152602001600060ff168152602001600060ff1681525060a060405190810160405280600081526020016000815260200160008152602001600081526020016000815250866131c1565b90509392505050565b612e03613681565b6000600360003373ffffffffffffffffffffffffffffffffffffffff1673ffffffffffffffffffffffffffffffffffffffff168152602001908152602001600020549050600081111515612e5657600080fd5b612e5f81613140565b91505090565b600080600360003373ffffffffffffffffffffffffffffffffffffffff1673ffffffffffffffffffffffffffffffffffffffff1681526020019081526020016000205411905090565b612eb66135f1565b600080600360003373ffffffffffffffffffffffffffffffffffffffff1673ffffffffffffffffffffffffffffffffffffffff168152602001908152602001600020549050600081111515612f0a57600080fd5b612f13816121ce565b92509250509091565b600081600360003373ffffffffffffffffffffffffffffffffffffffff1673ffffffffffffffffffffffffffffffffffffffff16815260200190815260200160002054149050919050565b60008060008084815481101515612f7a57fe5b90600052602060002090600402019150600184815481101515612f9957fe5b906000526020600020906007020190508160010160039054906101000a900460ff1660ff1660640a8260010160039054906101000a900460ff1660ff16600760029054906101000a900460ff1660640160ff160a6064600d8560010160009054906101000a900460ff1660ff1681548110151561301257fe5b90600052602060002090602091828204019190069054906101000a900460ff1660640160ff1684600601540281151561304757fe5b040281151561305257fe5b0492505050919050565b600080600360003373ffffffffffffffffffffffffffffffffffffffff1673ffffffffffffffffffffffffffffffffffffffff1681526020019081526020016000205491506000821115156130b057600080fd5b6001828154811015156130bf57fe5b906000526020600020906007020190508381600201600082825401925050819055508281600401600082825401925050819055507f9e3e3d89cd4687ecd28dc092ba8e4097b70b2766695928f7880afb4b60d0934882858560405180848152602001838152602001828152602001935050505060405180910390a150505050565b613148613681565b600060018381548110151561315957fe5b9060005260206000209060070201905060e0604051908101604052808260000154815260200182600101548152602001826002015481526020018260030154815260200182600401548152602001826005015481526020018260060154815250915050919050565b6000806001600080548060010182816131da91906136a9565b9160005260206000209060040201600060e0604051908101604052808c81526020018b60ff1681526020018a600060038110151561321457fe5b602002015160ff1681526020018a600160038110151561323057fe5b602002015160ff1681526020018a600260038110151561324c57fe5b602002015160ff1681526020016000815260200188815250909190915060008201518160000190805190602001906132859291906136db565b5060208201518160010160006101000a81548160ff021916908360ff16021790555060408201518160010160016101000a81548160ff021916908360ff16021790555060608201518160010160026101000a81548160ff021916908360ff16021790555060808201518160010160036101000a81548160ff021916908360ff16021790555060a0820151816002015560c08201518160030155505003905060018054806001018281613337919061375b565b9160005260206000209060070201600060e06040519081016040528088600060058110151561336257fe5b6020020151815260200188600160058110151561337b57fe5b602002015181526020016000815260200188600260058110151561339b57fe5b60200201518152602001600081526020018860036005811015156133bb57fe5b602002015181526020018860046005811015156133d457fe5b60200201518152509091909150600082015181600001556020820151816001015560408201518160020155606082015181600301556080820151816004015560a0820151816005015560c08201518160060155505050336004600083815260200190815260200160002060006101000a81548173ffffffffffffffffffffffffffffffffffffffff021916908373ffffffffffffffffffffffffffffffffffffffff16021790555080600360003373ffffffffffffffffffffffffffffffffffffffff1673ffffffffffffffffffffffffffffffffffffffff16815260200190815260200160002081905550600160056000858152602001908152602001600020600082825401925050819055507f8903d00f136209d2fb29b581df936c8cbc1f7f2f70aafe69e061eff9527d7cbd81888860405180848152602001806020018360ff168152602001828103825284818151815260200191508051906020019080838360005b8381101561355557808201518184015260208101905061353a565b50505050905090810190601f1680156135825780820380516001836020036101000a031916815260200191505b5094505050505060405180910390a18091505095945050505050565b602060405190810160405280600081525090565b602060405190810160405280600081525090565b6060604051908101604052806003905b600060ff168152602001906001900390816135d65790505090565b61028060405190810160405280600a905b61360a61378d565b8152602001906001900390816136025790505090565b81548183558181151161364d5760080281600802836000526020600020918201910161364c91906137b4565b5b505050565b610140604051908101604052806005905b61366b61378d565b8152602001906001900390816136635790505090565b60e0604051908101604052806007905b60008152602001906001900390816136915790505090565b8154818355818115116136d6576004028160040283600052602060002091820191016136d5919061381f565b5b505050565b828054600181600116156101000203166002900490600052602060002090601f016020900481019282601f1061371c57805160ff191683800117855561374a565b8280016001018555821561374a579182015b8281111561374957825182559160200191906001019061372e565b5b50905061375791906138ae565b5090565b8154818355818115116137885760070281600702836000526020600020918201910161378791906138d3565b5b505050565b60408051908101604052806002905b600081526020019060019003908161379c5790505090565b61381c91905b80821115613818576000808201600090556001820160009055600282016000905560038201600090556004820160009055600582016000905560068201600090556007820160006101000a81549060ff0219169055506008016137ba565b5090565b90565b6138ab91905b808211156138a7576000808201600061383e919061392a565b6001820160006101000a81549060ff02191690556001820160016101000a81549060ff02191690556001820160026101000a81549060ff02191690556001820160036101000a81549060ff02191690556002820160009055600382016000905550600401613825565b5090565b90565b6138d091905b808211156138cc5760008160009055506001016138b4565b5090565b90565b61392791905b8082111561392357600080820160009055600182016000905560028201600090556003820160009055600482016000905560058201600090556006820160009055506007016138d9565b5090565b90565b50805460018160011615610100020316600290046000825580601f10613950575061396f565b601f01602090049060005260206000209081019061396e91906138ae565b5b505600a165627a7a72305820bd4628d155bf933486b263be9f3d8285e81ddf5d43c55fd99eb747d69a740f720029",
  "source": "pragma solidity ^0.4.17;\n\ncontract KingdomFactory {\n\n    event NewKingdom(uint kingdomId, string name, uint race);\n    event ChangedRace(uint kingdomId, uint race);\n    event UpgradeWeapon(uint kingdomId, uint weaponLevel);\n    event UpgradeFortress(uint kingdomId, uint fortressLevel);\n    event UpgradeCovert(uint kingdomId, uint covertLevel);\n    event BattleCompleted(uint battleId);\n    event Recruit(uint kingdomId);\n    event CommanderAssigned(uint kingdomId, uint commanderId);\n    event TrainedAttackSpecialists(uint kingdomId, uint count);\n    event TrainedDefenseSpecialists(uint kingdomId, uint count);\n    event ReassignedAttackSpecialists(uint kingdomId, uint count);\n    event ReassignedDefenseSpecialists(uint kingdomId, uint count);\n    event TrainedSpies(uint kingdomId, uint count);\n    event TrainedSentries(uint kingdomId, uint count);\n    event PurchasedMercs(uint id, uint attackMercsCount, uint defenseMercsCount);\n\n    Kingdom[] private kingdoms;\n    Military[] private militaries;\n    Battle[] private battles;\n\n    mapping (address => uint256) private kingdomOf;\n    mapping (uint256 => address) private kingdomToOwner;\n    mapping (uint256 => uint256) private numOfOfficers;\n    mapping (uint256 => uint256) private recruitTime;\n\n    uint8 private weaponMultiplier   = 30;\n    uint8 private fortressMultiplier = 25;\n    uint8 private covertMultiplier   = 60;\n\n    uint8 private weaponMaxLevel   = 14;\n    uint8 private fortressMaxLevel = 16;\n    uint8 private covertMaxLevel   = 15;\n\n    //Price of Upgrading:\n    //  price = basePrice * 2^currentLevel\n    uint16 private weaponBasePrice   = 40000;\n    uint16 private fortressBasePrice = 40000;\n    uint16 private covertBasePrice   = 12000;\n\n    uint256 private recruitCooldown = 5 minutes; // 6 hours;\n\n    uint8[] private incomeBonus     = [  0, 30, 15,  0,  0,  0];\n    uint8[] private attackBonus     = [100,  0,  0,  0, 35,  0];\n    uint8[] private defenseBonus    = [100,  0, 40,  0, 20,  0];\n    uint8[] private spyBonus        = [100, 35,  0, 45,  0,  0];\n    uint8[] private sentryBonus     = [100,  0,  0,  0,  0, 35];\n    uint8[] private fewerCasualties = [ 50,  0,  0, 70,  0, 85];\n    \n\n    struct Kingdom {\n      string name;\n      uint8 race; //0 - divine; 1 - human; 2 - dwarves; \n      uint8 weaponLevel;\n      uint8 fortressLevel;\n      uint8 covertLevel;\n      uint256 gold;\n      uint256 commander;\n    }\n\n    struct Military {\n      uint256 numOfSoldiers;\n      uint256 numOfAttackSpecialists;\n      uint256 numOfAttackMercs;\n      uint256 numOfDefenseSpecialists;\n      uint256 numOfDefenseMercs;\n      uint256 numOfSpies;\n      uint256 numOfSentries;      \n    }\n\n    struct Battle {\n      uint256 time;\n      uint256 attacker;\n      uint256 defender;\n      uint256 attacker_damage;\n      uint256 defender_damage;\n      uint256 attacker_casualties;\n      uint256 defender_casualties;\n      bool success;\n    }\n\n    modifier onlyUser(uint _id){\n      require(msg.sender == kingdomToOwner[_id]);\n      _;\n    }\n\n    function KingdomFactory() public {\n      _createKingdom(\"God\", 0, [14, 16, 15], [uint(1000000), uint(200000), uint(200000), uint(10000), uint(10000)], 0);\n      _createKingdom(\"God\\'s Right Hand\", 0, [12, 14, 10], [uint(100000), uint(20000), uint(20000), uint(1000), uint(1000)], 0);\n      _createKingdom(\"God\\'s Left Hand\", 0, [12, 14, 10], [uint(100000), uint(20000), uint(20000), uint(1000), uint(1000)], 0);\n    }\n\n    function _createKingdom(string _name, uint8 _race, uint8[3] _technologyLevel, uint[5] _militaryCount, uint _commander)\n      private returns (uint){\n      uint id = kingdoms.push(Kingdom(_name, _race, _technologyLevel[0], _technologyLevel[1], _technologyLevel[2], 0, _commander)) - 1;\n      militaries.push(Military(_militaryCount[0], _militaryCount[1], 0, _militaryCount[2], 0, _militaryCount[3], _militaryCount[4]));\n      kingdomToOwner[id] = msg.sender;\n      kingdomOf[msg.sender] = id;\n      numOfOfficers[_commander] += 1;\n      NewKingdom(id, _name, _race);\n      return id;\n    }\n\n    function createNewKingdom(string _name, uint _race, uint _commanderId) public returns (uint){\n      require(kingdomOf[msg.sender] == 0);\n      require(_race >= 1 && _race <= 5);\n      return _createKingdom(_name, uint8(_race), [0, 0, 0], [uint(0), uint(0), uint(0), uint(0), uint(0)], _commanderId);\n    }\n\n    function getKingdom(uint _id) public view returns (string, uint8, uint8[3], uint, uint, string) {\n      var kingdom = kingdoms[_id];\n      var commanderName = kingdoms[kingdom.commander].name;\n      return (kingdom.name, kingdom.race, [kingdom.weaponLevel, kingdom.fortressLevel, kingdom.covertLevel], kingdom.gold,\n          kingdom.commander, commanderName);\n    }\n\n    function getPersonnel(uint _id) private view returns (uint256[7]) {\n      var military = militaries[_id];\n      return [military.numOfSoldiers, military.numOfAttackSpecialists, military.numOfAttackMercs, military.numOfDefenseSpecialists,\n        military.numOfDefenseMercs, military.numOfSpies, military.numOfSentries];\n    }\n\n    function spyOnPersonnel(uint _targetId) public view returns (bool, uint256[7]) {\n      uint256 senderId = kingdomOf[msg.sender];\n      require(senderId > 0);\n      if(senderId == _targetId || senderId == kingdoms[_targetId].commander || spyRating(senderId) > sentryRating(_targetId)){\n        return (true, getPersonnel(_targetId));\n      }\n      return (false, [uint(0), uint(0), uint(0), uint(0), uint(0), uint(0), uint(0)]);\n    }\n\n    function getWeaponMultiplier() public view returns (uint8) {\n      return weaponMultiplier;\n    }\n\n    function getFortressMultiplier() public view returns (uint8) {\n      return fortressMultiplier;\n    }\n\n\n    /// @notice Returns a list of all kingdom IDs that are officers of target commander.\n    /// @param _commanderId The ID of the commander we are interested in.\n    /// @dev This method MUST NEVER be called by smart contract code. First, it's fairly\n    ///  expensive (it walks the entire kingdoms array looking for kingdoms belonging to commander),\n    ///  but it also returns a dynamic array, which is only supported for web3 calls, and\n    ///  not contract-to-contract calls.\n    function getOfficers(uint _commanderId) public view returns (uint[]){\n      uint256 id;\n      uint256 officerCount = numOfOfficers[_commanderId];\n      if(officerCount == 0){\n        // Return an empty array\n        return new uint256[](0);\n      } else {\n        uint256 officerIndex = 0;\n        uint256[] memory officers = new uint256[](officerCount);\n\n        // We count on the fact that all kingdoms have IDs starting at 1 and increasing\n        // sequentially up to kingdoms.length.\n        for(id = 0; id < kingdoms.length; id++){\n          if(kingdoms[id].commander == _commanderId){\n            officers[officerIndex] = id;\n            officerIndex++;\n          }\n        }\n        return officers;\n      }\n    }\n\n    function getMyOfficers() external view returns (uint[]){\n      uint256 id = kingdomOf[msg.sender];\n      require(id > 0);\n      return getOfficers(id);\n    }\n\n    function haveKingdom() public view returns (bool) {\n      return (kingdomOf[msg.sender] > 0);\n    }\n\n    function getMyKingdomId() public view returns (uint){\n      return (kingdomOf[msg.sender]);\n    }\n\n    function isMyKingdomId(uint256 _id) public view returns (bool){\n      return (kingdomOf[msg.sender] == _id);\n    }\n\n    function getMyKingdom() public view returns (string, uint8, uint8[3], uint, uint, string) {\n      uint256 id = kingdomOf[msg.sender];\n      require(id > 0);\n      return getKingdom(id);\n    }\n\n    function getMyPersonnel() public view returns (uint256[7]) {\n      uint256 id = kingdomOf[msg.sender];\n      require(id > 0);\n      return getPersonnel(id);\n    }\n\n    function getKingdomCount() public view returns (uint) {\n      return kingdoms.length;\n    }\n\n    /********** User-Specific Actions **********\n      #assignCommander - Assign new commander\n      #upgradeWeapon   - Upgrade weapon by 1 level\n      #upgradeFortress - Upgrade fortress by 1 level\n    */\n\n    function assignCommander(uint _commanderId) public {\n      uint256 id = kingdomOf[msg.sender];\n      require(kingdoms[id].commander != _commanderId);\n      numOfOfficers[kingdoms[id].commander] -= 1;\n      numOfOfficers[_commanderId] += 1;\n      kingdoms[id].commander = _commanderId;\n      CommanderAssigned(id, _commanderId);\n    }\n\n    function ditchCommander() public {\n      assignCommander(0);\n    }\n\n    function isCommander(uint _id) public view returns (bool) {\n      return (kingdoms[kingdomOf[msg.sender]].commander == _id);\n    }\n\n    function changeRace(uint8 _race) public {\n      uint256 id = kingdomOf[msg.sender];\n      require(id > 0);\n      var kingdom = kingdoms[id];\n      require(kingdom.race != _race && _race >= 1 && _race <= 5);\n      kingdom.race = _race;\n      ChangedRace(id, _race);\n    }\n\n    function upgradeWeapon() public {\n      uint256 id = kingdomOf[msg.sender];\n      require(id > 0);\n      uint8 level = kingdoms[id].weaponLevel;\n      require(level < weaponMaxLevel);\n      level += 1;\n      kingdoms[id].weaponLevel = level;\n      UpgradeWeapon(id, level);\n    }\n\n    function upgradeFortress() public {\n      require(kingdomOf[msg.sender] != 0);\n      uint256 id = kingdomOf[msg.sender];\n      require(id > 0);\n      uint8 level = kingdoms[id].fortressLevel;\n      require(level < fortressMaxLevel);\n      level += 1;\n      kingdoms[id].fortressLevel = level;\n      UpgradeFortress(id, level);\n    }\n\n    function upgradeCovert() public {\n      require(kingdomOf[msg.sender] != 0);\n      uint256 id = kingdomOf[msg.sender];\n      require(id > 0);\n      uint8 level = kingdoms[id].covertLevel;\n      require(level < covertMaxLevel);\n      level += 1;\n      kingdoms[id].covertLevel = level;\n      UpgradeCovert(id, level);\n    }\n\n    function strikeAction(uint256 _id) public view returns (uint256) {\n        var kingdom = kingdoms[_id];\n        var military = militaries[_id];\n        return (military.numOfSoldiers + 2 * (military.numOfAttackSpecialists + military.numOfAttackMercs))\n          * (100 + attackBonus[kingdom.race]) / 100\n          * (uint256(100 + weaponMultiplier) ** uint256(kingdom.weaponLevel)) / (100 ** uint256(kingdom.weaponLevel));\n    }\n\n    function myStrikeAction() public view returns (uint256) {\n      var id = kingdomOf[msg.sender];\n      require(id > 0);\n      return strikeAction(id);\n    }\n\n    function defensiveAction(uint256 _id) public view returns (uint256) {\n        var kingdom = kingdoms[_id];\n        var military = militaries[_id];\n        return (military.numOfSoldiers + 2 * (military.numOfDefenseSpecialists) + military.numOfDefenseMercs)\n          * (100 + defenseBonus[kingdom.race]) / 100\n          * (uint256(100 + fortressMultiplier) ** uint256(kingdom.fortressLevel)) / (100 ** uint256(kingdom.fortressLevel));\n    }\n\n    function myDefensiveAction() public view returns (uint256) {\n      var id = kingdomOf[msg.sender];\n      require(id > 0);\n      return defensiveAction(id);\n    }\n\n    function spyRating(uint256 _id) public view returns (uint256) {\n      var kingdom = kingdoms[_id];\n      var military = militaries[_id];\n      return military.numOfSpies * (100 + spyBonus[kingdom.race]) / 100\n        * (uint256(100 + covertMultiplier) ** uint256(kingdom.covertLevel)) / (100 ** uint256(kingdom.covertLevel));\n    }\n\n    function mySpyRating() public view returns (uint256) {\n      var id = kingdomOf[msg.sender];\n      require(id > 0);\n      return spyRating(id);\n    }\n\n    function sentryRating(uint256 _id) public view returns (uint256) {\n      var kingdom = kingdoms[_id];\n      var military = militaries[_id];\n      return military.numOfSentries * (100 + sentryBonus[kingdom.race]) / 100\n        * (uint256(100 + covertMultiplier) ** uint256(kingdom.covertLevel)) / (100 ** uint256(kingdom.covertLevel));\n    }\n\n    function mySentryRating() public view returns (uint256) {\n      var id = kingdomOf[msg.sender];\n      require(id > 0);\n      return sentryRating(id);\n    }\n\n    function attack(uint256 _targetID) public {\n      uint256 attacker = kingdomOf[msg.sender];\n      require(attacker != _targetID);\n      uint256 attacker_damage = myStrikeAction();\n      uint256 defender_damage = defensiveAction(_targetID);\n      uint256 attacker_casualties = 0;\n      uint256 defender_casualties = 0;\n      bool success = attacker_damage > defender_damage;\n      uint256 battleID = battles.push(Battle(now, attacker, _targetID, attacker_damage, defender_damage, attacker_casualties, defender_casualties, success)) - 1;\n      BattleCompleted(battleID);\n    }\n\n    function getBattle(uint _id) public view returns (uint256, uint256, uint256, uint256, uint256, uint256, bool) {\n      var battle = battles[_id];\n      return (battle.attacker, battle.defender, battle.attacker_damage, battle.defender_damage,\n          battle.attacker_casualties, battle.defender_casualties, battle.success);\n    }\n\n    function getRecentAttacks(uint _id) public view returns(uint[2][5], uint){\n      uint[2][5] memory result;\n      uint count = 0;\n      uint battleId;\n\n      for(battleId = battles.length; battleId > 0 && count < 5; battleId--){\n        var battle = battles[battleId - 1];\n        if(battle.defender == _id){\n          //result[count] = battleId - 1;\n          result[count][0] = now - battle.time;\n          result[count][1] = battle.attacker;\n          count++;\n        }\n      }\n      return (result, count);\n    }\n\n    function getMyRecentAttacks() public view returns(uint[2][5], uint){\n      var id = kingdomOf[msg.sender];\n      require(id > 0);\n      return getRecentAttacks(id);\n    }\n\n    function getRecent10IncomingAttacks(uint _id) public view returns(uint[2][10], uint){\n      uint[2][10] memory result;\n      uint count = 0;\n      uint battleId;\n\n      for(battleId = battles.length; battleId > 0 && count < 10; battleId--){\n        var battle = battles[battleId - 1];\n        if(battle.defender == _id){\n          result[count][0] = now - battle.time;\n          result[count][1] = battleId - 1;\n          count++;\n        }\n      }\n      return (result, count);\n    }\n\n    function getRecent10OutgoingAttacks(uint _id) public view returns(uint[2][10], uint){\n      uint[2][10] memory result;\n      uint count = 0;\n      uint battleId;\n\n      for(battleId = battles.length; battleId > 0 && count < 10; battleId--){\n        var battle = battles[battleId - 1];\n        if(battle.attacker == _id){\n          result[count][0] = now - battle.time;\n          result[count][1] = battleId - 1;\n          count++;\n        }\n      }\n      return (result, count);\n    }\n\n    function getMyRecent10IncomingAttacks() public view returns(uint[2][10], uint){\n      var id = kingdomOf[msg.sender];\n      require(id > 0);\n      return getRecent10IncomingAttacks(id);\n    }\n\n    function getMyRecent10OutgoingAttacks() public view returns(uint[2][10], uint){\n      var id = kingdomOf[msg.sender];\n      require(id > 0);\n      return getRecent10OutgoingAttacks(id);\n    }\n\n    //returns true,0 if can recruit, otherwise returns false and number of seconds remaining\n    function canRecruit() public view returns (bool, uint256){\n      uint256 timePassed = now - recruitTime[kingdomOf[msg.sender]];\n      if(timePassed > recruitCooldown){\n        return (true, 0);\n      }\n      return (false, recruitCooldown - timePassed);\n    }\n\n    function recruit() public {\n      var id = kingdomOf[msg.sender];\n      require(id > 0);\n      require (now - recruitTime[id] > recruitCooldown);\n      militaries[id].numOfSoldiers += 100 * (1 + numOfOfficers[id]);\n      recruitTime[id] = now;\n      Recruit(id);\n    }\n\n    function trainAttackSpecialists(uint256 _count) public {\n      var id = kingdomOf[msg.sender];\n      require(id > 0);\n      var military = militaries[id];\n      require (military.numOfSoldiers >= _count);\n      military.numOfSoldiers -= _count;\n      military.numOfAttackSpecialists += _count;\n      TrainedAttackSpecialists(id, _count);\n    }\n\n    function trainDefenseSpecialists(uint256 _count) public {\n      var id = kingdomOf[msg.sender];\n      require(id > 0);\n      var military = militaries[id];\n      require (military.numOfSoldiers >= _count);\n      military.numOfSoldiers -= _count;\n      military.numOfDefenseSpecialists += _count;\n      TrainedDefenseSpecialists(id, _count);\n    }\n\n    function trainSpies(uint256 _count) public {\n      var id = kingdomOf[msg.sender];\n      require(id > 0);\n      var military = militaries[id];\n      require (military.numOfSoldiers >= _count);\n      military.numOfSoldiers -= _count;\n      military.numOfSpies += _count;\n      TrainedSpies(id, _count);\n    }\n\n    function trainSentries(uint256 _count) public {\n      var id = kingdomOf[msg.sender];\n      require(id > 0);\n      var military = militaries[id];\n      require (military.numOfSoldiers >= _count);\n      military.numOfSoldiers -= _count;\n      military.numOfSentries += _count;\n      TrainedSentries(id, _count);\n    }\n\n    function reassignAttackSpecialists(uint256 _count) public {\n      var id = kingdomOf[msg.sender];\n      require(id > 0);\n      var military = militaries[id];\n      require (military.numOfAttackSpecialists >= _count);\n      military.numOfSoldiers += _count;\n      military.numOfAttackSpecialists -= _count;\n      ReassignedAttackSpecialists(id, _count);\n    }\n\n    function reassignDefenseSpecialists(uint256 _count) public {\n      var id = kingdomOf[msg.sender];\n      require(id > 0);\n      var military = militaries[id];\n      require (military.numOfDefenseSpecialists >= _count);\n      military.numOfSoldiers += _count;\n      military.numOfDefenseSpecialists -= _count;\n      ReassignedDefenseSpecialists(id, _count);\n    }\n\n    function buyMercs(uint256 _attackMercsCount, uint256 _defenseMercsCount) public {\n      var id = kingdomOf[msg.sender];\n      require(id > 0);\n      var military = militaries[id];\n      military.numOfAttackMercs += _attackMercsCount;\n      military.numOfDefenseMercs += _defenseMercsCount;\n      PurchasedMercs(id, _attackMercsCount, _defenseMercsCount);\n    }\n}",
  "sourcePath": "/home/kevinlee/Data/Personal/KingsOfChaos/contracts/KingdomFactory.sol",
  "compiler": {
    "name": "solc",
    "version": "0.4.19+commit.c4cbbb05.Emscripten.clang"
  },
  "schemaVersion": "1.0.1",
  "updatedAt": "2018-03-03T00:02:35.409Z"
}