{
  "contractName": "KingdomFactory",
  "abi": [
    {
      "inputs": [],
      "payable": false,
      "stateMutability": "nonpayable",
      "type": "constructor"
    },
    {
      "anonymous": false,
      "inputs": [
        {
          "indexed": false,
          "name": "kingdomId",
          "type": "uint256"
        },
        {
          "indexed": false,
          "name": "name",
          "type": "string"
        },
        {
          "indexed": false,
          "name": "race",
          "type": "uint256"
        }
      ],
      "name": "NewKingdom",
      "type": "event"
    },
    {
      "anonymous": false,
      "inputs": [
        {
          "indexed": false,
          "name": "kingdomId",
          "type": "uint256"
        },
        {
          "indexed": false,
          "name": "race",
          "type": "uint256"
        }
      ],
      "name": "ChangedRace",
      "type": "event"
    },
    {
      "anonymous": false,
      "inputs": [
        {
          "indexed": false,
          "name": "kingdomId",
          "type": "uint256"
        },
        {
          "indexed": false,
          "name": "weaponLevel",
          "type": "uint256"
        }
      ],
      "name": "UpgradeWeapon",
      "type": "event"
    },
    {
      "anonymous": false,
      "inputs": [
        {
          "indexed": false,
          "name": "kingdomId",
          "type": "uint256"
        },
        {
          "indexed": false,
          "name": "fortressLevel",
          "type": "uint256"
        }
      ],
      "name": "UpgradeFortress",
      "type": "event"
    },
    {
      "anonymous": false,
      "inputs": [
        {
          "indexed": false,
          "name": "kingdomId",
          "type": "uint256"
        },
        {
          "indexed": false,
          "name": "covertLevel",
          "type": "uint256"
        }
      ],
      "name": "UpgradeCovert",
      "type": "event"
    },
    {
      "anonymous": false,
      "inputs": [
        {
          "indexed": false,
          "name": "battleId",
          "type": "uint256"
        }
      ],
      "name": "BattleCompleted",
      "type": "event"
    },
    {
      "anonymous": false,
      "inputs": [
        {
          "indexed": false,
          "name": "kingdomId",
          "type": "uint256"
        }
      ],
      "name": "Recruit",
      "type": "event"
    },
    {
      "anonymous": false,
      "inputs": [
        {
          "indexed": false,
          "name": "kingdomId",
          "type": "uint256"
        },
        {
          "indexed": false,
          "name": "commanderId",
          "type": "uint256"
        }
      ],
      "name": "CommanderAssigned",
      "type": "event"
    },
    {
      "anonymous": false,
      "inputs": [
        {
          "indexed": false,
          "name": "kingdomId",
          "type": "uint256"
        },
        {
          "indexed": false,
          "name": "count",
          "type": "uint256"
        }
      ],
      "name": "TrainedAttackSpecialists",
      "type": "event"
    },
    {
      "anonymous": false,
      "inputs": [
        {
          "indexed": false,
          "name": "kingdomId",
          "type": "uint256"
        },
        {
          "indexed": false,
          "name": "count",
          "type": "uint256"
        }
      ],
      "name": "TrainedDefenseSpecialists",
      "type": "event"
    },
    {
      "anonymous": false,
      "inputs": [
        {
          "indexed": false,
          "name": "kingdomId",
          "type": "uint256"
        },
        {
          "indexed": false,
          "name": "count",
          "type": "uint256"
        }
      ],
      "name": "ReassignedAttackSpecialists",
      "type": "event"
    },
    {
      "anonymous": false,
      "inputs": [
        {
          "indexed": false,
          "name": "kingdomId",
          "type": "uint256"
        },
        {
          "indexed": false,
          "name": "count",
          "type": "uint256"
        }
      ],
      "name": "ReassignedDefenseSpecialists",
      "type": "event"
    },
    {
      "anonymous": false,
      "inputs": [
        {
          "indexed": false,
          "name": "kingdomId",
          "type": "uint256"
        },
        {
          "indexed": false,
          "name": "count",
          "type": "uint256"
        }
      ],
      "name": "TrainedSpies",
      "type": "event"
    },
    {
      "anonymous": false,
      "inputs": [
        {
          "indexed": false,
          "name": "kingdomId",
          "type": "uint256"
        },
        {
          "indexed": false,
          "name": "count",
          "type": "uint256"
        }
      ],
      "name": "TrainedSentries",
      "type": "event"
    },
    {
      "anonymous": false,
      "inputs": [
        {
          "indexed": false,
          "name": "id",
          "type": "uint256"
        },
        {
          "indexed": false,
          "name": "attackMercsCount",
          "type": "uint256"
        },
        {
          "indexed": false,
          "name": "defenseMercsCount",
          "type": "uint256"
        }
      ],
      "name": "PurchasedMercs",
      "type": "event"
    },
    {
      "constant": false,
      "inputs": [
        {
          "name": "_name",
          "type": "string"
        },
        {
          "name": "_race",
          "type": "uint256"
        },
        {
          "name": "_commanderId",
          "type": "uint256"
        }
      ],
      "name": "createNewKingdom",
      "outputs": [
        {
          "name": "",
          "type": "uint256"
        }
      ],
      "payable": false,
      "stateMutability": "nonpayable",
      "type": "function"
    },
    {
      "constant": true,
      "inputs": [
        {
          "name": "_id",
          "type": "uint256"
        }
      ],
      "name": "getKingdom",
      "outputs": [
        {
          "name": "",
          "type": "string"
        },
        {
          "name": "",
          "type": "uint8"
        },
        {
          "name": "",
          "type": "uint8[4]"
        },
        {
          "name": "",
          "type": "uint256"
        },
        {
          "name": "",
          "type": "uint256"
        },
        {
          "name": "",
          "type": "uint256"
        },
        {
          "name": "",
          "type": "string"
        }
      ],
      "payable": false,
      "stateMutability": "view",
      "type": "function"
    },
    {
      "constant": true,
      "inputs": [
        {
          "name": "_targetId",
          "type": "uint256"
        }
      ],
      "name": "spyOnPersonnel",
      "outputs": [
        {
          "name": "",
          "type": "bool"
        },
        {
          "name": "",
          "type": "uint256[7]"
        }
      ],
      "payable": false,
      "stateMutability": "view",
      "type": "function"
    },
    {
      "constant": true,
      "inputs": [],
      "name": "getWeaponMultiplier",
      "outputs": [
        {
          "name": "",
          "type": "uint8"
        }
      ],
      "payable": false,
      "stateMutability": "view",
      "type": "function"
    },
    {
      "constant": true,
      "inputs": [],
      "name": "getFortressMultiplier",
      "outputs": [
        {
          "name": "",
          "type": "uint8"
        }
      ],
      "payable": false,
      "stateMutability": "view",
      "type": "function"
    },
    {
      "constant": true,
      "inputs": [
        {
          "name": "_commanderId",
          "type": "uint256"
        }
      ],
      "name": "getOfficers",
      "outputs": [
        {
          "name": "",
          "type": "uint256[]"
        }
      ],
      "payable": false,
      "stateMutability": "view",
      "type": "function"
    },
    {
      "constant": true,
      "inputs": [],
      "name": "getMyOfficers",
      "outputs": [
        {
          "name": "",
          "type": "uint256[]"
        }
      ],
      "payable": false,
      "stateMutability": "view",
      "type": "function"
    },
    {
      "constant": true,
      "inputs": [],
      "name": "haveKingdom",
      "outputs": [
        {
          "name": "",
          "type": "bool"
        }
      ],
      "payable": false,
      "stateMutability": "view",
      "type": "function"
    },
    {
      "constant": true,
      "inputs": [],
      "name": "getMyKingdomId",
      "outputs": [
        {
          "name": "",
          "type": "uint256"
        }
      ],
      "payable": false,
      "stateMutability": "view",
      "type": "function"
    },
    {
      "constant": true,
      "inputs": [
        {
          "name": "_id",
          "type": "uint256"
        }
      ],
      "name": "isMyKingdomId",
      "outputs": [
        {
          "name": "",
          "type": "bool"
        }
      ],
      "payable": false,
      "stateMutability": "view",
      "type": "function"
    },
    {
      "constant": true,
      "inputs": [],
      "name": "getMyKingdom",
      "outputs": [
        {
          "name": "",
          "type": "string"
        },
        {
          "name": "",
          "type": "uint8"
        },
        {
          "name": "",
          "type": "uint8[4]"
        },
        {
          "name": "",
          "type": "uint256"
        },
        {
          "name": "",
          "type": "uint256"
        },
        {
          "name": "",
          "type": "uint256"
        },
        {
          "name": "",
          "type": "string"
        }
      ],
      "payable": false,
      "stateMutability": "view",
      "type": "function"
    },
    {
      "constant": true,
      "inputs": [],
      "name": "getMyPersonnel",
      "outputs": [
        {
          "name": "",
          "type": "uint256[7]"
        }
      ],
      "payable": false,
      "stateMutability": "view",
      "type": "function"
    },
    {
      "constant": true,
      "inputs": [],
      "name": "getKingdomCount",
      "outputs": [
        {
          "name": "",
          "type": "uint256"
        }
      ],
      "payable": false,
      "stateMutability": "view",
      "type": "function"
    },
    {
      "constant": false,
      "inputs": [
        {
          "name": "_commanderId",
          "type": "uint256"
        }
      ],
      "name": "assignCommander",
      "outputs": [],
      "payable": false,
      "stateMutability": "nonpayable",
      "type": "function"
    },
    {
      "constant": false,
      "inputs": [],
      "name": "ditchCommander",
      "outputs": [],
      "payable": false,
      "stateMutability": "nonpayable",
      "type": "function"
    },
    {
      "constant": true,
      "inputs": [
        {
          "name": "_id",
          "type": "uint256"
        }
      ],
      "name": "isCommander",
      "outputs": [
        {
          "name": "",
          "type": "bool"
        }
      ],
      "payable": false,
      "stateMutability": "view",
      "type": "function"
    },
    {
      "constant": false,
      "inputs": [
        {
          "name": "_race",
          "type": "uint8"
        }
      ],
      "name": "changeRace",
      "outputs": [],
      "payable": false,
      "stateMutability": "nonpayable",
      "type": "function"
    },
    {
      "constant": false,
      "inputs": [],
      "name": "upgradeWeapon",
      "outputs": [],
      "payable": false,
      "stateMutability": "nonpayable",
      "type": "function"
    },
    {
      "constant": false,
      "inputs": [],
      "name": "upgradeFortress",
      "outputs": [],
      "payable": false,
      "stateMutability": "nonpayable",
      "type": "function"
    },
    {
      "constant": false,
      "inputs": [],
      "name": "upgradeCovert",
      "outputs": [],
      "payable": false,
      "stateMutability": "nonpayable",
      "type": "function"
    },
    {
      "constant": true,
      "inputs": [
        {
          "name": "_id",
          "type": "uint256"
        }
      ],
      "name": "strikeAction",
      "outputs": [
        {
          "name": "",
          "type": "uint256"
        }
      ],
      "payable": false,
      "stateMutability": "view",
      "type": "function"
    },
    {
      "constant": true,
      "inputs": [],
      "name": "myStrikeAction",
      "outputs": [
        {
          "name": "",
          "type": "uint256"
        }
      ],
      "payable": false,
      "stateMutability": "view",
      "type": "function"
    },
    {
      "constant": true,
      "inputs": [
        {
          "name": "_id",
          "type": "uint256"
        }
      ],
      "name": "defensiveAction",
      "outputs": [
        {
          "name": "",
          "type": "uint256"
        }
      ],
      "payable": false,
      "stateMutability": "view",
      "type": "function"
    },
    {
      "constant": true,
      "inputs": [],
      "name": "myDefensiveAction",
      "outputs": [
        {
          "name": "",
          "type": "uint256"
        }
      ],
      "payable": false,
      "stateMutability": "view",
      "type": "function"
    },
    {
      "constant": true,
      "inputs": [
        {
          "name": "_id",
          "type": "uint256"
        }
      ],
      "name": "spyRating",
      "outputs": [
        {
          "name": "",
          "type": "uint256"
        }
      ],
      "payable": false,
      "stateMutability": "view",
      "type": "function"
    },
    {
      "constant": true,
      "inputs": [],
      "name": "mySpyRating",
      "outputs": [
        {
          "name": "",
          "type": "uint256"
        }
      ],
      "payable": false,
      "stateMutability": "view",
      "type": "function"
    },
    {
      "constant": true,
      "inputs": [
        {
          "name": "_id",
          "type": "uint256"
        }
      ],
      "name": "sentryRating",
      "outputs": [
        {
          "name": "",
          "type": "uint256"
        }
      ],
      "payable": false,
      "stateMutability": "view",
      "type": "function"
    },
    {
      "constant": true,
      "inputs": [],
      "name": "mySentryRating",
      "outputs": [
        {
          "name": "",
          "type": "uint256"
        }
      ],
      "payable": false,
      "stateMutability": "view",
      "type": "function"
    },
    {
      "constant": true,
      "inputs": [],
      "name": "canAttack",
      "outputs": [
        {
          "name": "",
          "type": "bool"
        },
        {
          "name": "",
          "type": "uint256"
        }
      ],
      "payable": false,
      "stateMutability": "view",
      "type": "function"
    },
    {
      "constant": false,
      "inputs": [
        {
          "name": "_targetID",
          "type": "uint256"
        }
      ],
      "name": "attack",
      "outputs": [],
      "payable": false,
      "stateMutability": "nonpayable",
      "type": "function"
    },
    {
      "constant": true,
      "inputs": [
        {
          "name": "_id",
          "type": "uint256"
        }
      ],
      "name": "getBattle",
      "outputs": [
        {
          "name": "",
          "type": "uint256"
        },
        {
          "name": "",
          "type": "uint256"
        },
        {
          "name": "",
          "type": "uint256"
        },
        {
          "name": "",
          "type": "uint256"
        },
        {
          "name": "",
          "type": "uint256"
        },
        {
          "name": "",
          "type": "uint256"
        },
        {
          "name": "",
          "type": "bool"
        }
      ],
      "payable": false,
      "stateMutability": "view",
      "type": "function"
    },
    {
      "constant": true,
      "inputs": [
        {
          "name": "_id",
          "type": "uint256"
        }
      ],
      "name": "getRecentAttacks",
      "outputs": [
        {
          "name": "",
          "type": "uint256[2][5]"
        },
        {
          "name": "",
          "type": "uint256"
        }
      ],
      "payable": false,
      "stateMutability": "view",
      "type": "function"
    },
    {
      "constant": true,
      "inputs": [],
      "name": "getMyRecentAttacks",
      "outputs": [
        {
          "name": "",
          "type": "uint256[2][5]"
        },
        {
          "name": "",
          "type": "uint256"
        }
      ],
      "payable": false,
      "stateMutability": "view",
      "type": "function"
    },
    {
      "constant": true,
      "inputs": [
        {
          "name": "_id",
          "type": "uint256"
        }
      ],
      "name": "getRecent10IncomingAttacks",
      "outputs": [
        {
          "name": "",
          "type": "uint256[2][10]"
        },
        {
          "name": "",
          "type": "uint256"
        }
      ],
      "payable": false,
      "stateMutability": "view",
      "type": "function"
    },
    {
      "constant": true,
      "inputs": [
        {
          "name": "_id",
          "type": "uint256"
        }
      ],
      "name": "getRecent10OutgoingAttacks",
      "outputs": [
        {
          "name": "",
          "type": "uint256[2][10]"
        },
        {
          "name": "",
          "type": "uint256"
        }
      ],
      "payable": false,
      "stateMutability": "view",
      "type": "function"
    },
    {
      "constant": true,
      "inputs": [],
      "name": "getMyRecent10IncomingAttacks",
      "outputs": [
        {
          "name": "",
          "type": "uint256[2][10]"
        },
        {
          "name": "",
          "type": "uint256"
        }
      ],
      "payable": false,
      "stateMutability": "view",
      "type": "function"
    },
    {
      "constant": true,
      "inputs": [],
      "name": "getMyRecent10OutgoingAttacks",
      "outputs": [
        {
          "name": "",
          "type": "uint256[2][10]"
        },
        {
          "name": "",
          "type": "uint256"
        }
      ],
      "payable": false,
      "stateMutability": "view",
      "type": "function"
    },
    {
      "constant": true,
      "inputs": [],
      "name": "canRecruit",
      "outputs": [
        {
          "name": "",
          "type": "bool"
        },
        {
          "name": "",
          "type": "uint256"
        }
      ],
      "payable": false,
      "stateMutability": "view",
      "type": "function"
    },
    {
      "constant": false,
      "inputs": [],
      "name": "recruit",
      "outputs": [],
      "payable": false,
      "stateMutability": "nonpayable",
      "type": "function"
    },
    {
      "constant": false,
      "inputs": [
        {
          "name": "_count",
          "type": "uint256"
        }
      ],
      "name": "trainAttackSpecialists",
      "outputs": [],
      "payable": false,
      "stateMutability": "nonpayable",
      "type": "function"
    },
    {
      "constant": false,
      "inputs": [
        {
          "name": "_count",
          "type": "uint256"
        }
      ],
      "name": "trainDefenseSpecialists",
      "outputs": [],
      "payable": false,
      "stateMutability": "nonpayable",
      "type": "function"
    },
    {
      "constant": false,
      "inputs": [
        {
          "name": "_count",
          "type": "uint256"
        }
      ],
      "name": "trainSpies",
      "outputs": [],
      "payable": false,
      "stateMutability": "nonpayable",
      "type": "function"
    },
    {
      "constant": false,
      "inputs": [
        {
          "name": "_count",
          "type": "uint256"
        }
      ],
      "name": "trainSentries",
      "outputs": [],
      "payable": false,
      "stateMutability": "nonpayable",
      "type": "function"
    },
    {
      "constant": false,
      "inputs": [
        {
          "name": "_count",
          "type": "uint256"
        }
      ],
      "name": "reassignAttackSpecialists",
      "outputs": [],
      "payable": false,
      "stateMutability": "nonpayable",
      "type": "function"
    },
    {
      "constant": false,
      "inputs": [
        {
          "name": "_count",
          "type": "uint256"
        }
      ],
      "name": "reassignDefenseSpecialists",
      "outputs": [],
      "payable": false,
      "stateMutability": "nonpayable",
      "type": "function"
    },
    {
      "constant": false,
      "inputs": [
        {
          "name": "_attackMercsCount",
          "type": "uint256"
        },
        {
          "name": "_defenseMercsCount",
          "type": "uint256"
        }
      ],
      "name": "buyMercs",
      "outputs": [],
      "payable": false,
      "stateMutability": "nonpayable",
      "type": "function"
    }
  ],
  "bytecode": "0x6060604052601e600860006101000a81548160ff021916908360ff1602179055506019600860016101000a81548160ff021916908360ff160217905550603c600860026101000a81548160ff021916908360ff1602179055506064600860036101000a81548160ff021916908360ff160217905550600e600860046101000a81548160ff021916908360ff1602179055506010600860056101000a81548160ff021916908360ff160217905550600f600860066101000a81548160ff021916908360ff1602179055506064600860076101000a81548161ffff021916908361ffff160217905550619c40600860096101000a81548161ffff021916908361ffff160217905550619c406008600b6101000a81548161ffff021916908361ffff160217905550612ee06008600d6101000a81548161ffff021916908361ffff16021790555061012c60095561012c600a5560c060405190810160405280600060ff168152602001601e60ff168152602001600f60ff168152602001600060ff168152602001600060ff168152602001600060ff16815250600b906006620001a7929190620009f2565b5060c060405190810160405280606460ff168152602001600060ff168152602001600060ff168152602001600060ff168152602001602360ff168152602001600060ff16815250600c90600662000200929190620009f2565b5060c060405190810160405280606460ff168152602001600060ff168152602001602860ff168152602001600060ff168152602001601460ff168152602001600060ff16815250600d90600662000259929190620009f2565b5060c060405190810160405280606460ff168152602001602360ff168152602001600060ff168152602001602d60ff168152602001600060ff168152602001600060ff16815250600e906006620002b2929190620009f2565b5060c060405190810160405280606460ff168152602001600060ff168152602001600060ff168152602001600060ff168152602001600060ff168152602001602360ff16815250600f9060066200030b929190620009f2565b5060c060405190810160405280603260ff168152602001600060ff168152602001600060ff168152602001604660ff168152602001600060ff168152602001605560ff16815250601090600662000364929190620009f2565b5034156200037157600080fd5b620004306040805190810160405280600381526020017f476f6400000000000000000000000000000000000000000000000000000000008152506000608060405190810160405280603260ff168152602001600e60ff168152602001601060ff168152602001600f60ff1681525060a060405190810160405280620f4240815260200162030d40815260200162030d40815260200161271081526020016127108152506000620005b364010000000002620034bb176401000000009004565b50620004ee6040805190810160405280601081526020017f476f6427732052696768742048616e64000000000000000000000000000000008152506000608060405190810160405280601e60ff168152602001600c60ff168152602001600e60ff168152602001600a60ff1681525060a060405190810160405280620186a08152602001614e208152602001614e2081526020016103e881526020016103e88152506000620005b364010000000002620034bb176401000000009004565b50620005ac6040805190810160405280600f81526020017f476f642773204c6566742048616e6400000000000000000000000000000000008152506000608060405190810160405280601e60ff168152602001600c60ff168152602001600e60ff168152602001600a60ff1681525060a060405190810160405280620186a08152602001614e208152602001614e2081526020016103e881526020016103e88152506000620005b364010000000002620034bb176401000000009004565b5062000d42565b600080600160008054806001018281620005ce919062000aa0565b91600052602060002090600502016000610120604051908101604052808c81526020018b60ff1681526020018a60006004811015156200060a57fe5b602002015160ff1681526020018a60016004811015156200062757fe5b602002015160ff1681526020018a60026004811015156200064457fe5b602002015160ff1681526020018a60036004811015156200066157fe5b602002015160ff16815260200160008152602001600081526020018881525090919091506000820151816000019080519060200190620006a392919062000ad5565b5060208201518160010160006101000a81548160ff021916908360ff16021790555060408201518160010160016101000a81548160ff021916908360ff16021790555060608201518160010160026101000a81548160ff021916908360ff16021790555060808201518160010160036101000a81548160ff021916908360ff16021790555060a08201518160010160046101000a81548160ff021916908360ff16021790555060c0820151816002015560e08201518160030155610100820151816004015550500390506001805480600101828162000783919062000b5c565b9160005260206000209060070201600060e060405190810160405280886000600581101515620007af57fe5b60200201518152602001886001600581101515620007c957fe5b6020020151815260200160008152602001886002600581101515620007ea57fe5b60200201518152602001600081526020018860036005811015156200080b57fe5b602002015181526020018860046005811015156200082557fe5b60200201518152509091909150600082015181600001556020820151816001015560408201518160020155606082015181600301556080820151816004015560a0820151816005015560c08201518160060155505050336004600083815260200190815260200160002060006101000a81548173ffffffffffffffffffffffffffffffffffffffff021916908373ffffffffffffffffffffffffffffffffffffffff16021790555080600360003373ffffffffffffffffffffffffffffffffffffffff1673ffffffffffffffffffffffffffffffffffffffff16815260200190815260200160002081905550600160056000858152602001908152602001600020600082825401925050819055507f8903d00f136209d2fb29b581df936c8cbc1f7f2f70aafe69e061eff9527d7cbd81888860405180848152602001806020018360ff168152602001828103825284818151815260200191508051906020019080838360005b83811015620009a85780820151818401526020810190506200098b565b50505050905090810190601f168015620009d65780820380516001836020036101000a031916815260200191505b5094505050505060405180910390a18091505095945050505050565b82805482825590600052602060002090601f0160209004810192821562000a8d5791602002820160005b8382111562000a5c57835183826101000a81548160ff021916908360ff160217905550926020019260010160208160000104928301926001030262000a1c565b801562000a8b5782816101000a81549060ff021916905560010160208160000104928301926001030262000a5c565b505b50905062000a9c919062000b91565b5090565b81548183558181151162000ad05760050281600502836000526020600020918201910162000acf919062000bc4565b5b505050565b828054600181600116156101000203166002900490600052602060002090601f016020900481019282601f1062000b1857805160ff191683800117855562000b49565b8280016001018555821562000b49579182015b8281111562000b4857825182559160200191906001019062000b2b565b5b50905062000b58919062000c74565b5090565b81548183558181151162000b8c5760070281600702836000526020600020918201910162000b8b919062000c9c565b5b505050565b62000bc191905b8082111562000bbd57600081816101000a81549060ff02191690555060010162000b98565b5090565b90565b62000c7191905b8082111562000c6d576000808201600062000be7919062000cf6565b6001820160006101000a81549060ff02191690556001820160016101000a81549060ff02191690556001820160026101000a81549060ff02191690556001820160036101000a81549060ff02191690556001820160046101000a81549060ff02191690556002820160009055600382016000905560048201600090555060050162000bcb565b5090565b90565b62000c9991905b8082111562000c9557600081600090555060010162000c7b565b5090565b90565b62000cf391905b8082111562000cef576000808201600090556001820160009055600282016000905560038201600090556004820160009055600582016000905560068201600090555060070162000ca3565b5090565b90565b50805460018160011615610100020316600290046000825580601f1062000d1e575062000d3f565b601f01602090049060005260206000209081019062000d3e919062000c74565b5b50565b613d048062000d526000396000f30060606040526004361061022f576000357c0100000000000000000000000000000000000000000000000000000000900463ffffffff16806270379b1461023457806305ddb4e0146102575780630b8d16d5146102cf5780630ca62a8a146104285780630eb70db11461045f5780631185f5af1461049a5780631758f522146104d157806318070857146105005780631e7d655814610529578063214d23c81461053e578063262759741461055357806339925477146105dc5780634afecfd4146105ff5780635c30d3511461062557806364dd891a1461064e578063689f8c5c146106715780636a0f5440146106865780636dd0ce7a146106ba5780637f8680ab1461071f57806383725bf71461086a57806384d2d4be1461087f5780638c56c5f8146109085780638d9c842f146109315780638e4060721461095457806394bff9911461097d578063a153d91814610a06578063acff8da514610a2f578063b791d78e14610aaa578063cbfc956514610acd578063cdf55f8b14610afc578063d644cb1d14610b30578063d99b587614610b53578063daa3784714610bbd578063de73ea1914610bf4578063e42e638814610c6f578063e5dcdf9b14610c84578063e7711dde14610cad578063e969546d14610cd0578063e997f20714610cf3578063eaf5839214610d5d578063ed5b7e5e14610de0578063f2ed2dff14610e31578063f328dbbb14610e5e578063f46410bb14610ed9578063fca1efec14610f14578063fd314c3c14610f4b575b600080fd5b341561023f57600080fd5b6102556004808035906020019091905050610f77565b005b341561026257600080fd5b6102786004808035906020019091905050611065565b6040518080602001828103825283818151815260200191508051906020019060200280838360005b838110156102bb5780820151818401526020810190506102a0565b505050509050019250505060405180910390f35b34156102da57600080fd5b6102f0600480803590602001909190505061115f565b60405180806020018860ff1660ff16815260200187600460200280838360005b8381101561032b578082015181840152602081019050610310565b505050509050018681526020018581526020018481526020018060200183810383528a818151815260200191508051906020019080838360005b83811015610380578082015181840152602081019050610365565b50505050905090810190601f1680156103ad5780820380516001836020036101000a031916815260200191505b50838103825284818151815260200191508051906020019080838360005b838110156103e65780820151818401526020810190506103cb565b50505050905090810190601f1680156104135780820380516001836020036101000a031916815260200191505b50995050505050505050505060405180910390f35b341561043357600080fd5b61044960048080359060200190919050506113bd565b6040518082815260200191505060405180910390f35b341561046a57600080fd5b61048060048080359060200190919050506114b2565b604051808215151515815260200191505060405180910390f35b34156104a557600080fd5b6104bb600480803590602001909190505061151d565b6040518082815260200191505060405180910390f35b34156104dc57600080fd5b6104e4611621565b604051808260ff1660ff16815260200191505060405180910390f35b341561050b57600080fd5b610513611638565b6040518082815260200191505060405180910390f35b341561053457600080fd5b61053c61169b565b005b341561054957600080fd5b6105516117c7565b005b341561055e57600080fd5b6105746004808035906020019091905050611942565b6040518083600a6000925b818410156105c55782846020020151600260200280838360005b838110156105b4578082015181840152602081019050610599565b50505050905001926001019261057f565b925050508281526020019250505060405180910390f35b34156105e757600080fd5b6105fd6004808035906020019091905050611a2d565b005b341561060a57600080fd5b610623600480803560ff16906020019091905050611b1b565b005b341561063057600080fd5b610638611c38565b6040518082815260200191505060405180910390f35b341561065957600080fd5b61066f6004808035906020019091905050611c9b565b005b341561067c57600080fd5b610684611e88565b005b341561069157600080fd5b610699611f99565b60405180831515151581526020018281526020019250505060405180910390f35b34156106c557600080fd5b6106db6004808035906020019091905050612020565b604051808881526020018781526020018681526020018581526020018481526020018381526020018215151515815260200197505050505050505060405180910390f35b341561072a57600080fd5b610732612095565b60405180806020018860ff1660ff16815260200187600460200280838360005b8381101561076d578082015181840152602081019050610752565b505050509050018681526020018581526020018481526020018060200183810383528a818151815260200191508051906020019080838360005b838110156107c25780820151818401526020810190506107a7565b50505050905090810190601f1680156107ef5780820380516001836020036101000a031916815260200191505b50838103825284818151815260200191508051906020019080838360005b8381101561082857808201518184015260208101905061080d565b50505050905090810190601f1680156108555780820380516001836020036101000a031916815260200191505b50995050505050505050505060405180910390f35b341561087557600080fd5b61087d612128565b005b341561088a57600080fd5b6108a060048080359060200190919050506122a3565b6040518083600a6000925b818410156108f15782846020020151600260200280838360005b838110156108e05780820151818401526020810190506108c5565b5050505090500192600101926108ab565b925050508281526020019250505060405180910390f35b341561091357600080fd5b61091b61238e565b6040518082815260200191505060405180910390f35b341561093c57600080fd5b61095260048080359060200190919050506123f1565b005b341561095f57600080fd5b61096761252f565b6040518082815260200191505060405180910390f35b341561098857600080fd5b61099e600480803590602001909190505061253b565b604051808360056000925b818410156109ef5782846020020151600260200280838360005b838110156109de5780820151818401526020810190506109c3565b5050505090500192600101926109a9565b925050508281526020019250505060405180910390f35b3415610a1157600080fd5b610a19612627565b6040518082815260200191505060405180910390f35b3415610a3a57600080fd5b610a4261268a565b604051808360056000925b81841015610a935782846020020151600260200280838360005b83811015610a82578082015181840152602081019050610a67565b505050509050019260010192610a4d565b925050508281526020019250505060405180910390f35b3415610ab557600080fd5b610acb60048080359060200190919050506126f8565b005b3415610ad857600080fd5b610ae06127e6565b604051808260ff1660ff16815260200191505060405180910390f35b3415610b0757600080fd5b610b0f6127fd565b60405180831515151581526020018281526020019250505060405180910390f35b3415610b3b57600080fd5b610b516004808035906020019091905050612884565b005b3415610b5e57600080fd5b610b66612972565b6040518080602001828103825283818151815260200191508051906020019060200280838360005b83811015610ba9578082015181840152602081019050610b8e565b505050509050019250505060405180910390f35b3415610bc857600080fd5b610bde60048080359060200190919050506129dc565b6040518082815260200191505060405180910390f35b3415610bff57600080fd5b610c07612ae0565b6040518083600a6000925b81841015610c585782846020020151600260200280838360005b83811015610c47578082015181840152602081019050610c2c565b505050509050019260010192610c12565b925050508281526020019250505060405180910390f35b3415610c7a57600080fd5b610c82612b4e565b005b3415610c8f57600080fd5b610c97612b5a565b6040518082815260200191505060405180910390f35b3415610cb857600080fd5b610cce6004808035906020019091905050612ba1565b005b3415610cdb57600080fd5b610cf16004808035906020019091905050612c8f565b005b3415610cfe57600080fd5b610d146004808035906020019091905050612d7d565b604051808315151515815260200182600760200280838360005b83811015610d49578082015181840152602081019050610d2e565b505050509050019250505060405180910390f35b3415610d6857600080fd5b610dca600480803590602001908201803590602001908080601f01602080910402602001604051908101604052809392919081815260200183838082843782019150505050505091908035906020019091908035906020019091905050612e82565b6040518082815260200191505060405180910390f35b3415610deb57600080fd5b610df3612f61565b6040518082600760200280838360005b83811015610e1e578082015181840152602081019050610e03565b5050505090500191505060405180910390f35b3415610e3c57600080fd5b610e44612fcb565b604051808215151515815260200191505060405180910390f35b3415610e6957600080fd5b610e71613014565b6040518083600a6000925b81841015610ec25782846020020151600260200280838360005b83811015610eb1578082015181840152602081019050610e96565b505050509050019260010192610e7c565b925050508281526020019250505060405180910390f35b3415610ee457600080fd5b610efa6004808035906020019091905050613082565b604051808215151515815260200191505060405180910390f35b3415610f1f57600080fd5b610f3560048080359060200190919050506130cd565b6040518082815260200191505060405180910390f35b3415610f5657600080fd5b610f7560048080359060200190919080359060200190919050506131c2565b005b600080600360003373ffffffffffffffffffffffffffffffffffffffff1673ffffffffffffffffffffffffffffffffffffffff168152602001908152602001600020549150600082111515610fcb57600080fd5b600182815481101515610fda57fe5b9060005260206000209060070201905082816000015410151515610ffd57600080fd5b8281600001600082825403925050819055508281600601600082825401925050819055507fa69a32d5b1ceff1703230cea48ee9c074ec2703823d3f2529c0c711510d6e8568284604051808381526020018281526020019250505060405180910390a1505050565b61106d6138e8565b600080600061107a6138e8565b6005600087815260200190815260200160002054925060008314156110c05760006040518059106110a85750595b90808252806020026020018201604052509450611156565b60009150826040518059106110d25750595b90808252806020026020018201604052509050600093505b600080549050841015611152578560008581548110151561110757fe5b90600052602060002090600502016004015414156111455783818381518110151561112e57fe5b906020019060200201818152505081806001019250505b83806001019450506110ea565b8094505b50505050919050565b6111676138fc565b6000611171613910565b600080600061117e6138fc565b60008060008a81548110151561119057fe5b90600052602060002090600502019150600082600401548154811015156111b357fe5b90600052602060002090600502016000019050816000018260010160009054906101000a900460ff166080604051908101604052808560010160019054906101000a900460ff1660ff1660ff1681526020018560010160029054906101000a900460ff1660ff1660ff1681526020018560010160039054906101000a900460ff1660ff1660ff1681526020018560010160049054906101000a900460ff1660ff1660ff1681525084600201548560030154866004015486868054600181600116156101000203166002900480601f0160208091040260200160405190810160405280929190818152602001828054600181600116156101000203166002900480156112ff5780601f106112d4576101008083540402835291602001916112ff565b820191906000526020600020905b8154815290600101906020018083116112e257829003601f168201915b50505050509650808054600181600116156101000203166002900480601f01602080910402602001604051908101604052809291908181526020018280546001816001161561010002031660029004801561139b5780601f106113705761010080835404028352916020019161139b565b820191906000526020600020905b81548152906001019060200180831161137e57829003601f168201915b5050505050905098509850985098509850985098505050919395979092949650565b600080600080848154811015156113d057fe5b906000526020600020906005020191506001848154811015156113ef57fe5b906000526020600020906007020190508160010160049054906101000a900460ff1660ff1660640a8260010160049054906101000a900460ff1660ff16600860029054906101000a900460ff1660640160ff160a6064600e8560010160009054906101000a900460ff1660ff1681548110151561146857fe5b90600052602060002090602091828204019190069054906101000a900460ff1660640160ff1684600501540281151561149d57fe5b04028115156114a857fe5b0492505050919050565b6000816000600360003373ffffffffffffffffffffffffffffffffffffffff1673ffffffffffffffffffffffffffffffffffffffff1681526020019081526020016000205481548110151561150357fe5b906000526020600020906005020160040154149050919050565b6000806000808481548110151561153057fe5b9060005260206000209060050201915060018481548110151561154f57fe5b906000526020600020906007020190508160010160029054906101000a900460ff1660ff1660640a8260010160029054906101000a900460ff1660ff16600860009054906101000a900460ff1660640160ff160a6064600c8560010160009054906101000a900460ff1660ff168154811015156115c857fe5b90600052602060002090602091828204019190069054906101000a900460ff1660640160ff1684600201548560010154016002028560000154010281151561160c57fe5b040281151561161757fe5b0492505050919050565b6000600860009054906101000a900460ff16905090565b600080600360003373ffffffffffffffffffffffffffffffffffffffff1673ffffffffffffffffffffffffffffffffffffffff16815260200190815260200160002054905060008111151561168c57600080fd5b6116958161151d565b91505090565b600080600360003373ffffffffffffffffffffffffffffffffffffffff1673ffffffffffffffffffffffffffffffffffffffff1681526020019081526020016000205491506000821115156116ef57600080fd5b6000828154811015156116fe57fe5b906000526020600020906005020160010160029054906101000a900460ff169050600860049054906101000a900460ff1660ff168160ff1610151561174257600080fd5b6001810190508060008381548110151561175857fe5b906000526020600020906005020160010160026101000a81548160ff021916908360ff1602179055507fc1951a752c7ea5b127e5d8611a8fc5624a02db238afe91956ffb73be75cdd4f58282604051808381526020018260ff1681526020019250505060405180910390a15050565b6000806000600360003373ffffffffffffffffffffffffffffffffffffffff1673ffffffffffffffffffffffffffffffffffffffff168152602001908152602001600020541415151561181957600080fd5b600360003373ffffffffffffffffffffffffffffffffffffffff1673ffffffffffffffffffffffffffffffffffffffff16815260200190815260200160002054915060008211151561186a57600080fd5b60008281548110151561187957fe5b906000526020600020906005020160010160039054906101000a900460ff169050600860059054906101000a900460ff1660ff168160ff161015156118bd57600080fd5b600181019050806000838154811015156118d357fe5b906000526020600020906005020160010160036101000a81548160ff021916908360ff1602179055507f3faf8d366ab416cfcf9718489c90f5b4c1ec9a8b968eab74cc30ee2f1c61b6908282604051808381526020018260ff1681526020019250505060405180910390a15050565b61194a61393b565b600061195461393b565b600080600080925060028054905091505b6000821180156119755750600a83105b15611a1e5760026001830381548110151561198c57fe5b906000526020600020906008020190508681600101541415611a1057806000015442038484600a811015156119bd57fe5b602002015160006002811015156119d057fe5b602002018181525050600182038484600a811015156119eb57fe5b602002015160016002811015156119fe57fe5b60200201818152505082806001019350505b818060019003925050611965565b83839550955050505050915091565b600080600360003373ffffffffffffffffffffffffffffffffffffffff1673ffffffffffffffffffffffffffffffffffffffff168152602001908152602001600020549150600082111515611a8157600080fd5b600182815481101515611a9057fe5b9060005260206000209060070201905082816000015410151515611ab357600080fd5b8281600001600082825403925050819055508281600301600082825401925050819055507f8dab6851fd136f28222d7e45ef390b5b993c76b489f265025a71b42526ef236d8284604051808381526020018281526020019250505060405180910390a1505050565b600080600360003373ffffffffffffffffffffffffffffffffffffffff1673ffffffffffffffffffffffffffffffffffffffff168152602001908152602001600020549150600082111515611b6f57600080fd5b600082815481101515611b7e57fe5b906000526020600020906005020190508260ff168160010160009054906101000a900460ff1660ff1614158015611bb9575060018360ff1610155b8015611bc9575060058360ff1611155b1515611bd457600080fd5b828160010160006101000a81548160ff021916908360ff1602179055507f494533cfa69cc2f1377bca17dc57558a0d219c115ebb8381db649ebe557f70b88284604051808381526020018260ff1681526020019250505060405180910390a1505050565b600080600360003373ffffffffffffffffffffffffffffffffffffffff1673ffffffffffffffffffffffffffffffffffffffff168152602001908152602001600020549050600081111515611c8c57600080fd5b611c95816113bd565b91505090565b6000806000806000806000600360003373ffffffffffffffffffffffffffffffffffffffff1673ffffffffffffffffffffffffffffffffffffffff168152602001908152602001600020549650600087118015611cf85750878714155b1515611d0357600080fd5b600a5460076000898152602001908152602001600020544203111515611d2857600080fd5b611d30611638565b9550611d3b886129dc565b945060009350600092508486119150600160028054806001018281611d60919061396a565b91600052602060002090600802016000610100604051908101604052804281526020018c81526020018d81526020018b81526020018a81526020018981526020018881526020018715158152509091909150600082015181600001556020820151816001015560408201518160020155606082015181600301556080820151816004015560a0820151816005015560c0820151816006015560e08201518160070160006101000a81548160ff02191690831515021790555050500390508115611e2f57611e2e8760646132a6565b5b4260076000898152602001908152602001600020819055507f2698d75f814df009b510df39d03c901a6e830c6dfd50922c8fe6bbb794967843816040518082815260200191505060405180910390a15050505050505050565b6000600360003373ffffffffffffffffffffffffffffffffffffffff1673ffffffffffffffffffffffffffffffffffffffff168152602001908152602001600020549050600081111515611edb57600080fd5b60095460066000838152602001908152602001600020544203111515611f0057600080fd5b6005600082815260200190815260200160002054600101606402600182815481101515611f2957fe5b9060005260206000209060070201600001600082825401925050819055504260066000838152602001908152602001600020819055507f60e7be082d1721960e15a9ebd82c9f2e704d97b328525ff70a15e402f40410fb816040518082815260200191505060405180910390a150565b600080600060066000600360003373ffffffffffffffffffffffffffffffffffffffff1673ffffffffffffffffffffffffffffffffffffffff168152602001908152602001600020548152602001908152602001600020544203905060095481111561200f57600160008090509250925061201b565b60008160095403925092505b509091565b60008060008060008060008060028981548110151561203b57fe5b906000526020600020906008020190508060010154816002015482600301548360040154846005015485600601548660070160009054906101000a900460ff16975097509750975097509750975050919395979092949650565b61209d6138fc565b60006120a7613910565b60008060006120b46138fc565b6000600360003373ffffffffffffffffffffffffffffffffffffffff1673ffffffffffffffffffffffffffffffffffffffff16815260200190815260200160002054905060008111151561210757600080fd5b6121108161115f565b97509750975097509750975097505090919293949596565b6000806000600360003373ffffffffffffffffffffffffffffffffffffffff1673ffffffffffffffffffffffffffffffffffffffff168152602001908152602001600020541415151561217a57600080fd5b600360003373ffffffffffffffffffffffffffffffffffffffff1673ffffffffffffffffffffffffffffffffffffffff1681526020019081526020016000205491506000821115156121cb57600080fd5b6000828154811015156121da57fe5b906000526020600020906005020160010160049054906101000a900460ff169050600860069054906101000a900460ff1660ff168160ff1610151561221e57600080fd5b6001810190508060008381548110151561223457fe5b906000526020600020906005020160010160046101000a81548160ff021916908360ff1602179055507fc302655c4ab21ceb36108dfef1ae37b736a1b30f43032dbc96a90eb16134d6ce8282604051808381526020018260ff1681526020019250505060405180910390a15050565b6122ab61393b565b60006122b561393b565b600080600080925060028054905091505b6000821180156122d65750600a83105b1561237f576002600183038154811015156122ed57fe5b90600052602060002090600802019050868160020154141561237157806000015442038484600a8110151561231e57fe5b6020020151600060028110151561233157fe5b602002018181525050600182038484600a8110151561234c57fe5b6020020151600160028110151561235f57fe5b60200201818152505082806001019350505b8180600190039250506122c6565b83839550955050505050915091565b600080600360003373ffffffffffffffffffffffffffffffffffffffff1673ffffffffffffffffffffffffffffffffffffffff1681526020019081526020016000205490506000811115156123e257600080fd5b6123eb816130cd565b91505090565b6000600360003373ffffffffffffffffffffffffffffffffffffffff1673ffffffffffffffffffffffffffffffffffffffff1681526020019081526020016000205490508160008281548110151561244557fe5b9060005260206000209060050201600401541415151561246457600080fd5b600160056000808481548110151561247857fe5b90600052602060002090600502016004015481526020019081526020016000206000828254039250508190555060016005600084815260200190815260200160002060008282540192505081905550816000828154811015156124d757fe5b9060005260206000209060050201600401819055507f6656648d38e5e0c3fee01e298d927bf08e1f558de201fe28d11e710a6e9802068183604051808381526020018281526020019250505060405180910390a15050565b60008080549050905090565b61254361399c565b600061254d61399c565b600080600080925060028054905091505b60008211801561256e5750600583105b156126185760026001830381548110151561258557fe5b90600052602060002090600802019050868160020154141561260a578060000154420384846005811015156125b657fe5b602002015160006002811015156125c957fe5b602002018181525050806001015484846005811015156125e557fe5b602002015160016002811015156125f857fe5b60200201818152505082806001019350505b81806001900392505061255e565b83839550955050505050915091565b600080600360003373ffffffffffffffffffffffffffffffffffffffff1673ffffffffffffffffffffffffffffffffffffffff16815260200190815260200160002054905060008111151561267b57600080fd5b612684816129dc565b91505090565b61269261399c565b600080600360003373ffffffffffffffffffffffffffffffffffffffff1673ffffffffffffffffffffffffffffffffffffffff1681526020019081526020016000205490506000811115156126e657600080fd5b6126ef8161253b565b92509250509091565b600080600360003373ffffffffffffffffffffffffffffffffffffffff1673ffffffffffffffffffffffffffffffffffffffff16815260200190815260200160002054915060008211151561274c57600080fd5b60018281548110151561275b57fe5b906000526020600020906007020190508281600301541015151561277e57600080fd5b8281600001600082825401925050819055508281600301600082825403925050819055507f4de8168c5f461e6eb205fe057f7a12ed755d098c0708bef0ea8875a035bc46b68284604051808381526020018281526020019250505060405180910390a1505050565b6000600860019054906101000a900460ff16905090565b600080600060076000600360003373ffffffffffffffffffffffffffffffffffffffff1673ffffffffffffffffffffffffffffffffffffffff1681526020019081526020016000205481526020019081526020016000205442039050600a5481111561287357600160008090509250925061287f565b600081600a5403925092505b509091565b600080600360003373ffffffffffffffffffffffffffffffffffffffff1673ffffffffffffffffffffffffffffffffffffffff1681526020019081526020016000205491506000821115156128d857600080fd5b6001828154811015156128e757fe5b906000526020600020906007020190508281600001541015151561290a57600080fd5b8281600001600082825403925050819055508281600101600082825401925050819055507fc67b48cb7fe654bbff71b7cf0af383327db7f9c7791b69b6f43f0487de584b1b8284604051808381526020018281526020019250505060405180910390a1505050565b61297a6138e8565b6000600360003373ffffffffffffffffffffffffffffffffffffffff1673ffffffffffffffffffffffffffffffffffffffff1681526020019081526020016000205490506000811115156129cd57600080fd5b6129d681611065565b91505090565b600080600080848154811015156129ef57fe5b90600052602060002090600502019150600184815481101515612a0e57fe5b906000526020600020906007020190508160010160039054906101000a900460ff1660ff1660640a8260010160039054906101000a900460ff1660ff16600860019054906101000a900460ff1660640160ff160a6064600d8560010160009054906101000a900460ff1660ff16815481101515612a8757fe5b90600052602060002090602091828204019190069054906101000a900460ff1660640160ff16846004015485600301546002028660000154010102811515612acb57fe5b0402811515612ad657fe5b0492505050919050565b612ae861393b565b600080600360003373ffffffffffffffffffffffffffffffffffffffff1673ffffffffffffffffffffffffffffffffffffffff168152602001908152602001600020549050600081111515612b3c57600080fd5b612b4581611942565b92509250509091565b612b5860006123f1565b565b6000600360003373ffffffffffffffffffffffffffffffffffffffff1673ffffffffffffffffffffffffffffffffffffffff16815260200190815260200160002054905090565b600080600360003373ffffffffffffffffffffffffffffffffffffffff1673ffffffffffffffffffffffffffffffffffffffff168152602001908152602001600020549150600082111515612bf557600080fd5b600182815481101515612c0457fe5b9060005260206000209060070201905082816000015410151515612c2757600080fd5b8281600001600082825403925050819055508281600501600082825401925050819055507f298f72ff5878642622d1b6189cf8abc10cfa20471bc3fb0ccc3e28ff74e24d238284604051808381526020018281526020019250505060405180910390a1505050565b600080600360003373ffffffffffffffffffffffffffffffffffffffff1673ffffffffffffffffffffffffffffffffffffffff168152602001908152602001600020549150600082111515612ce357600080fd5b600182815481101515612cf257fe5b9060005260206000209060070201905082816001015410151515612d1557600080fd5b8281600001600082825401925050819055508281600101600082825403925050819055507f7612ba9bfbe68a6f136ea75f615a5b3eb755c8a4e66e32d678e92ba9016a51618284604051808381526020018281526020019250505060405180910390a1505050565b6000612d876139cb565b6000600360003373ffffffffffffffffffffffffffffffffffffffff1673ffffffffffffffffffffffffffffffffffffffff168152602001908152602001600020549050600081111515612dda57600080fd5b83811480612e075750600084815481101515612df257fe5b90600052602060002090600502016004015481145b80612e215750612e16846130cd565b612e1f826113bd565b115b15612e3a576001612e318561343a565b92509250612e7c565b600060e0604051908101604052806000815260200160008152602001600081526020016000815260200160008152602001600081526020016000815250925092505b50915091565b600080600360003373ffffffffffffffffffffffffffffffffffffffff1673ffffffffffffffffffffffffffffffffffffffff16815260200190815260200160002054141515612ed157600080fd5b60018310158015612ee3575060058311155b1515612eee57600080fd5b612f588484608060405190810160405280600060ff168152602001600060ff168152602001600060ff168152602001600060ff1681525060a060405190810160405280600081526020016000815260200160008152602001600081526020016000815250866134bb565b90509392505050565b612f696139cb565b6000600360003373ffffffffffffffffffffffffffffffffffffffff1673ffffffffffffffffffffffffffffffffffffffff168152602001908152602001600020549050600081111515612fbc57600080fd5b612fc58161343a565b91505090565b600080600360003373ffffffffffffffffffffffffffffffffffffffff1673ffffffffffffffffffffffffffffffffffffffff1681526020019081526020016000205411905090565b61301c61393b565b600080600360003373ffffffffffffffffffffffffffffffffffffffff1673ffffffffffffffffffffffffffffffffffffffff16815260200190815260200160002054905060008111151561307057600080fd5b613079816122a3565b92509250509091565b600081600360003373ffffffffffffffffffffffffffffffffffffffff1673ffffffffffffffffffffffffffffffffffffffff16815260200190815260200160002054149050919050565b600080600080848154811015156130e057fe5b906000526020600020906005020191506001848154811015156130ff57fe5b906000526020600020906007020190508160010160049054906101000a900460ff1660ff1660640a8260010160049054906101000a900460ff1660ff16600860029054906101000a900460ff1660640160ff160a6064600f8560010160009054906101000a900460ff1660ff1681548110151561317857fe5b90600052602060002090602091828204019190069054906101000a900460ff1660640160ff168460060154028115156131ad57fe5b04028115156131b857fe5b0492505050919050565b600080600360003373ffffffffffffffffffffffffffffffffffffffff1673ffffffffffffffffffffffffffffffffffffffff16815260200190815260200160002054915060008211151561321657600080fd5b60018281548110151561322557fe5b906000526020600020906007020190508381600201600082825401925050819055508281600401600082825401925050819055507f9e3e3d89cd4687ecd28dc092ba8e4097b70b2766695928f7880afb4b60d0934882858560405180848152602001838152602001828152602001935050505060405180910390a150505050565b6000806000841115156132b857600080fd5b826000858154811015156132c857fe5b9060005260206000209060050201600301600082825401925050819055506000848154811015156132f557fe5b906000526020600020906005020160010160019054906101000a900460ff1691508160ff168260ff16600860079054906101000a900461ffff16020261ffff1690505b8060008581548110151561334857fe5b90600052602060002090600502016003015410151561343457600160008581548110151561337257fe5b906000526020600020906005020160010160018282829054906101000a900460ff160192506101000a81548160ff021916908360ff160217905550806000858154811015156133bd57fe5b9060005260206000209060050201600301600082825403925050819055506000848154811015156133ea57fe5b906000526020600020906005020160010160019054906101000a900460ff1691506001826002020360ff16600860079054906101000a900461ffff160261ffff1681019050613338565b50505050565b6134426139cb565b600060018381548110151561345357fe5b9060005260206000209060070201905060e0604051908101604052808260000154815260200182600101548152602001826002015481526020018260030154815260200182600401548152602001826005015481526020018260060154815250915050919050565b6000806001600080548060010182816134d491906139f3565b91600052602060002090600502016000610120604051908101604052808c81526020018b60ff1681526020018a600060048110151561350f57fe5b602002015160ff1681526020018a600160048110151561352b57fe5b602002015160ff1681526020018a600260048110151561354757fe5b602002015160ff1681526020018a600360048110151561356357fe5b602002015160ff168152602001600081526020016000815260200188815250909190915060008201518160000190805190602001906135a3929190613a25565b5060208201518160010160006101000a81548160ff021916908360ff16021790555060408201518160010160016101000a81548160ff021916908360ff16021790555060608201518160010160026101000a81548160ff021916908360ff16021790555060808201518160010160036101000a81548160ff021916908360ff16021790555060a08201518160010160046101000a81548160ff021916908360ff16021790555060c0820151816002015560e0820151816003015561010082015181600401555050039050600180548060010182816136819190613aa5565b9160005260206000209060070201600060e0604051908101604052808860006005811015156136ac57fe5b602002015181526020018860016005811015156136c557fe5b60200201518152602001600081526020018860026005811015156136e557fe5b602002015181526020016000815260200188600360058110151561370557fe5b6020020151815260200188600460058110151561371e57fe5b60200201518152509091909150600082015181600001556020820151816001015560408201518160020155606082015181600301556080820151816004015560a0820151816005015560c08201518160060155505050336004600083815260200190815260200160002060006101000a81548173ffffffffffffffffffffffffffffffffffffffff021916908373ffffffffffffffffffffffffffffffffffffffff16021790555080600360003373ffffffffffffffffffffffffffffffffffffffff1673ffffffffffffffffffffffffffffffffffffffff16815260200190815260200160002081905550600160056000858152602001908152602001600020600082825401925050819055507f8903d00f136209d2fb29b581df936c8cbc1f7f2f70aafe69e061eff9527d7cbd81888860405180848152602001806020018360ff168152602001828103825284818151815260200191508051906020019080838360005b8381101561389f578082015181840152602081019050613884565b50505050905090810190601f1680156138cc5780820380516001836020036101000a031916815260200191505b5094505050505060405180910390a18091505095945050505050565b602060405190810160405280600081525090565b602060405190810160405280600081525090565b6080604051908101604052806004905b600060ff168152602001906001900390816139205790505090565b61028060405190810160405280600a905b613954613ad7565b81526020019060019003908161394c5790505090565b815481835581811511613997576008028160080283600052602060002091820191016139969190613afe565b5b505050565b610140604051908101604052806005905b6139b5613ad7565b8152602001906001900390816139ad5790505090565b60e0604051908101604052806007905b60008152602001906001900390816139db5790505090565b815481835581811511613a2057600502816005028360005260206000209182019101613a1f9190613b69565b5b505050565b828054600181600116156101000203166002900490600052602060002090601f016020900481019282601f10613a6657805160ff1916838001178555613a94565b82800160010185558215613a94579182015b82811115613a93578251825591602001919060010190613a78565b5b509050613aa19190613c14565b5090565b815481835581811511613ad257600702816007028360005260206000209182019101613ad19190613c39565b5b505050565b60408051908101604052806002905b6000815260200190600190039081613ae65790505090565b613b6691905b80821115613b62576000808201600090556001820160009055600282016000905560038201600090556004820160009055600582016000905560068201600090556007820160006101000a81549060ff021916905550600801613b04565b5090565b90565b613c1191905b80821115613c0d5760008082016000613b889190613c90565b6001820160006101000a81549060ff02191690556001820160016101000a81549060ff02191690556001820160026101000a81549060ff02191690556001820160036101000a81549060ff02191690556001820160046101000a81549060ff021916905560028201600090556003820160009055600482016000905550600501613b6f565b5090565b90565b613c3691905b80821115613c32576000816000905550600101613c1a565b5090565b90565b613c8d91905b80821115613c895760008082016000905560018201600090556002820160009055600382016000905560048201600090556005820160009055600682016000905550600701613c3f565b5090565b90565b50805460018160011615610100020316600290046000825580601f10613cb65750613cd5565b601f016020900490600052602060002090810190613cd49190613c14565b5b505600a165627a7a72305820a5a62273a462e7ed0e6a068a2ab9841fb35a10d0310139837e05198b451837380029",
  "source": "pragma solidity ^0.4.17;\n\ncontract KingdomFactory {\n\n    event NewKingdom(uint kingdomId, string name, uint race);\n    event ChangedRace(uint kingdomId, uint race);\n    event UpgradeWeapon(uint kingdomId, uint weaponLevel);\n    event UpgradeFortress(uint kingdomId, uint fortressLevel);\n    event UpgradeCovert(uint kingdomId, uint covertLevel);\n    event BattleCompleted(uint battleId);\n    event Recruit(uint kingdomId);\n    event CommanderAssigned(uint kingdomId, uint commanderId);\n    event TrainedAttackSpecialists(uint kingdomId, uint count);\n    event TrainedDefenseSpecialists(uint kingdomId, uint count);\n    event ReassignedAttackSpecialists(uint kingdomId, uint count);\n    event ReassignedDefenseSpecialists(uint kingdomId, uint count);\n    event TrainedSpies(uint kingdomId, uint count);\n    event TrainedSentries(uint kingdomId, uint count);\n    event PurchasedMercs(uint id, uint attackMercsCount, uint defenseMercsCount);\n\n    Kingdom[] private kingdoms;\n    Military[] private militaries;\n    Battle[] private battles;\n\n    mapping (address => uint256) private kingdomOf;\n    mapping (uint256 => address) private kingdomToOwner;\n    mapping (uint256 => uint256) private numOfOfficers;\n    mapping (uint256 => uint256) private recruitTime;\n    mapping (uint256 => uint256) private attackTime;\n\n    uint8 private weaponMultiplier   = 30;\n    uint8 private fortressMultiplier = 25;\n    uint8 private covertMultiplier   = 60;\n\n    uint8 private kingdomMaxLevel  = 100;\n    uint8 private weaponMaxLevel   = 14;\n    uint8 private fortressMaxLevel = 16;\n    uint8 private covertMaxLevel   = 15;\n\n    //Exp required to level up:\n    //  Required Exp = 100 * level^2\n    uint16 private levelUpBaseExp  = 100;\n\n    //Price of Upgrading:\n    //  price = basePrice * 2^currentLevel\n    uint16 private weaponBasePrice   = 40000;\n    uint16 private fortressBasePrice = 40000;\n    uint16 private covertBasePrice   = 12000;\n\n    uint256 private recruitCooldown = 5 minutes; // 6 hours;\n    uint256 private attackCooldown = 5 minutes; // 1 hour;\n\n    uint8[] private experienceBonus = [  0, 30, 15,  0,  0,  0];\n    uint8[] private attackBonus     = [100,  0,  0,  0, 35,  0];\n    uint8[] private defenseBonus    = [100,  0, 40,  0, 20,  0];\n    uint8[] private spyBonus        = [100, 35,  0, 45,  0,  0];\n    uint8[] private sentryBonus     = [100,  0,  0,  0,  0, 35];\n    uint8[] private fewerCasualties = [ 50,  0,  0, 70,  0, 85];\n    \n\n    struct Kingdom {\n      string name;\n      uint8 race; //0 - divine; 1 - human; 2 - dwarves;\n      uint8 level;\n      uint8 weaponLevel;\n      uint8 fortressLevel;\n      uint8 covertLevel;\n      uint256 gold;\n      uint256 experience;\n      uint256 commander;\n    }\n\n    struct Military {\n      uint256 numOfSoldiers;\n      uint256 numOfAttackSpecialists;\n      uint256 numOfAttackMercs;\n      uint256 numOfDefenseSpecialists;\n      uint256 numOfDefenseMercs;\n      uint256 numOfSpies;\n      uint256 numOfSentries;      \n    }\n\n    struct Battle {\n      uint256 time;\n      uint256 attacker;\n      uint256 defender;\n      uint256 attacker_damage;\n      uint256 defender_damage;\n      uint256 attacker_casualties;\n      uint256 defender_casualties;\n      bool success;\n    }\n\n    modifier onlyUser(uint _id){\n      require(msg.sender == kingdomToOwner[_id]);\n      _;\n    }\n\n    function KingdomFactory() public {\n      _createKingdom(\"God\", 0, [50, 14, 16, 15], [uint(1000000), uint(200000), uint(200000), uint(10000), uint(10000)], 0);\n      _createKingdom(\"God\\'s Right Hand\", 0, [30, 12, 14, 10], [uint(100000), uint(20000), uint(20000), uint(1000), uint(1000)], 0);\n      _createKingdom(\"God\\'s Left Hand\", 0, [30, 12, 14, 10], [uint(100000), uint(20000), uint(20000), uint(1000), uint(1000)], 0);\n    }\n\n    function _createKingdom(string _name, uint8 _race, uint8[4] _level, uint[5] _militaryCount, uint _commander)\n      private returns (uint){\n      uint id = kingdoms.push(Kingdom(_name, _race, _level[0], _level[1], _level[2], _level[3], 0, 0, _commander)) - 1;\n      militaries.push(Military(_militaryCount[0], _militaryCount[1], 0, _militaryCount[2], 0, _militaryCount[3], _militaryCount[4]));\n      kingdomToOwner[id] = msg.sender;\n      kingdomOf[msg.sender] = id;\n      numOfOfficers[_commander] += 1;\n      NewKingdom(id, _name, _race);\n      return id;\n    }\n\n    function createNewKingdom(string _name, uint _race, uint _commanderId) public returns (uint){\n      require(kingdomOf[msg.sender] == 0);\n      require(_race >= 1 && _race <= 5);\n      return _createKingdom(_name, uint8(_race), [0, 0, 0, 0], [uint(0), uint(0), uint(0), uint(0), uint(0)], _commanderId);\n    }\n\n    function getKingdom(uint _id) public view returns (string, uint8, uint8[4], uint, uint, uint, string) {\n      var kingdom = kingdoms[_id];\n      var commanderName = kingdoms[kingdom.commander].name;\n      return (kingdom.name, kingdom.race, [kingdom.level, kingdom.weaponLevel, kingdom.fortressLevel, kingdom.covertLevel], kingdom.gold,\n          kingdom.experience, kingdom.commander, commanderName);\n    }\n\n    function getPersonnel(uint _id) private view returns (uint256[7]) {\n      var military = militaries[_id];\n      return [military.numOfSoldiers, military.numOfAttackSpecialists, military.numOfAttackMercs, military.numOfDefenseSpecialists,\n        military.numOfDefenseMercs, military.numOfSpies, military.numOfSentries];\n    }\n\n    function spyOnPersonnel(uint _targetId) public view returns (bool, uint256[7]) {\n      uint256 senderId = kingdomOf[msg.sender];\n      require(senderId > 0);\n      if(senderId == _targetId || senderId == kingdoms[_targetId].commander || spyRating(senderId) > sentryRating(_targetId)){\n        return (true, getPersonnel(_targetId));\n      }\n      return (false, [uint(0), uint(0), uint(0), uint(0), uint(0), uint(0), uint(0)]);\n    }\n\n    function gainExperience(uint _id, uint _exp) private {\n      require(_id > 0);\n      kingdoms[_id].experience += _exp; \n      uint8 level = kingdoms[_id].level;\n      uint amountToLevelUp = levelUpBaseExp * level * level;\n      while(kingdoms[_id].experience >= amountToLevelUp) {\n        kingdoms[_id].level += 1;\n        kingdoms[_id].experience -= amountToLevelUp;\n        level = kingdoms[_id].level;\n        //amount difference between level x and level x - 1\n        // = (base * x^2) - (base * (x-1)^2)\n        // = base(2x-1)\n        amountToLevelUp += levelUpBaseExp * (2 * level - 1);\n      }\n    } \n\n    function getWeaponMultiplier() public view returns (uint8) {\n      return weaponMultiplier;\n    }\n\n    function getFortressMultiplier() public view returns (uint8) {\n      return fortressMultiplier;\n    }\n\n\n    /// @notice Returns a list of all kingdom IDs that are officers of target commander.\n    /// @param _commanderId The ID of the commander we are interested in.\n    /// @dev This method MUST NEVER be called by smart contract code. First, it's fairly\n    ///  expensive (it walks the entire kingdoms array looking for kingdoms belonging to commander),\n    ///  but it also returns a dynamic array, which is only supported for web3 calls, and\n    ///  not contract-to-contract calls.\n    function getOfficers(uint _commanderId) public view returns (uint[]){\n      uint256 id;\n      uint256 officerCount = numOfOfficers[_commanderId];\n      if(officerCount == 0){\n        // Return an empty array\n        return new uint256[](0);\n      } else {\n        uint256 officerIndex = 0;\n        uint256[] memory officers = new uint256[](officerCount);\n\n        // We count on the fact that all kingdoms have IDs starting at 1 and increasing\n        // sequentially up to kingdoms.length.\n        for(id = 0; id < kingdoms.length; id++){\n          if(kingdoms[id].commander == _commanderId){\n            officers[officerIndex] = id;\n            officerIndex++;\n          }\n        }\n        return officers;\n      }\n    }\n\n    function getMyOfficers() external view returns (uint[]){\n      uint256 id = kingdomOf[msg.sender];\n      require(id > 0);\n      return getOfficers(id);\n    }\n\n    function haveKingdom() public view returns (bool) {\n      return (kingdomOf[msg.sender] > 0);\n    }\n\n    function getMyKingdomId() public view returns (uint){\n      return (kingdomOf[msg.sender]);\n    }\n\n    function isMyKingdomId(uint256 _id) public view returns (bool){\n      return (kingdomOf[msg.sender] == _id);\n    }\n\n    function getMyKingdom() public view returns (string, uint8, uint8[4], uint, uint, uint, string) {\n      uint256 id = kingdomOf[msg.sender];\n      require(id > 0);\n      return getKingdom(id);\n    }\n\n    function getMyPersonnel() public view returns (uint256[7]) {\n      uint256 id = kingdomOf[msg.sender];\n      require(id > 0);\n      return getPersonnel(id);\n    }\n\n    function getKingdomCount() public view returns (uint) {\n      return kingdoms.length;\n    }\n\n    /********** User-Specific Actions **********\n      #assignCommander - Assign new commander\n      #upgradeWeapon   - Upgrade weapon by 1 level\n      #upgradeFortress - Upgrade fortress by 1 level\n    */\n\n    function assignCommander(uint _commanderId) public {\n      uint256 id = kingdomOf[msg.sender];\n      require(kingdoms[id].commander != _commanderId);\n      numOfOfficers[kingdoms[id].commander] -= 1;\n      numOfOfficers[_commanderId] += 1;\n      kingdoms[id].commander = _commanderId;\n      CommanderAssigned(id, _commanderId);\n    }\n\n    function ditchCommander() public {\n      assignCommander(0);\n    }\n\n    function isCommander(uint _id) public view returns (bool) {\n      return (kingdoms[kingdomOf[msg.sender]].commander == _id);\n    }\n\n    function changeRace(uint8 _race) public {\n      uint256 id = kingdomOf[msg.sender];\n      require(id > 0);\n      var kingdom = kingdoms[id];\n      require(kingdom.race != _race && _race >= 1 && _race <= 5);\n      kingdom.race = _race;\n      ChangedRace(id, _race);\n    }\n\n    function upgradeWeapon() public {\n      uint256 id = kingdomOf[msg.sender];\n      require(id > 0);\n      uint8 level = kingdoms[id].weaponLevel;\n      require(level < weaponMaxLevel);\n      level += 1;\n      kingdoms[id].weaponLevel = level;\n      UpgradeWeapon(id, level);\n    }\n\n    function upgradeFortress() public {\n      require(kingdomOf[msg.sender] != 0);\n      uint256 id = kingdomOf[msg.sender];\n      require(id > 0);\n      uint8 level = kingdoms[id].fortressLevel;\n      require(level < fortressMaxLevel);\n      level += 1;\n      kingdoms[id].fortressLevel = level;\n      UpgradeFortress(id, level);\n    }\n\n    function upgradeCovert() public {\n      require(kingdomOf[msg.sender] != 0);\n      uint256 id = kingdomOf[msg.sender];\n      require(id > 0);\n      uint8 level = kingdoms[id].covertLevel;\n      require(level < covertMaxLevel);\n      level += 1;\n      kingdoms[id].covertLevel = level;\n      UpgradeCovert(id, level);\n    }\n\n    function strikeAction(uint256 _id) public view returns (uint256) {\n        var kingdom = kingdoms[_id];\n        var military = militaries[_id];\n        return (military.numOfSoldiers + 2 * (military.numOfAttackSpecialists + military.numOfAttackMercs))\n          * (100 + attackBonus[kingdom.race]) / 100\n          * (uint256(100 + weaponMultiplier) ** uint256(kingdom.weaponLevel)) / (100 ** uint256(kingdom.weaponLevel));\n    }\n\n    function myStrikeAction() public view returns (uint256) {\n      var id = kingdomOf[msg.sender];\n      require(id > 0);\n      return strikeAction(id);\n    }\n\n    function defensiveAction(uint256 _id) public view returns (uint256) {\n        var kingdom = kingdoms[_id];\n        var military = militaries[_id];\n        return (military.numOfSoldiers + 2 * (military.numOfDefenseSpecialists) + military.numOfDefenseMercs)\n          * (100 + defenseBonus[kingdom.race]) / 100\n          * (uint256(100 + fortressMultiplier) ** uint256(kingdom.fortressLevel)) / (100 ** uint256(kingdom.fortressLevel));\n    }\n\n    function myDefensiveAction() public view returns (uint256) {\n      var id = kingdomOf[msg.sender];\n      require(id > 0);\n      return defensiveAction(id);\n    }\n\n    function spyRating(uint256 _id) public view returns (uint256) {\n      var kingdom = kingdoms[_id];\n      var military = militaries[_id];\n      return military.numOfSpies * (100 + spyBonus[kingdom.race]) / 100\n        * (uint256(100 + covertMultiplier) ** uint256(kingdom.covertLevel)) / (100 ** uint256(kingdom.covertLevel));\n    }\n\n    function mySpyRating() public view returns (uint256) {\n      var id = kingdomOf[msg.sender];\n      require(id > 0);\n      return spyRating(id);\n    }\n\n    function sentryRating(uint256 _id) public view returns (uint256) {\n      var kingdom = kingdoms[_id];\n      var military = militaries[_id];\n      return military.numOfSentries * (100 + sentryBonus[kingdom.race]) / 100\n        * (uint256(100 + covertMultiplier) ** uint256(kingdom.covertLevel)) / (100 ** uint256(kingdom.covertLevel));\n    }\n\n    function mySentryRating() public view returns (uint256) {\n      var id = kingdomOf[msg.sender];\n      require(id > 0);\n      return sentryRating(id);\n    }\n\n    //returns true,0 if can recruit, otherwise returns false and number of seconds remaining\n    function canAttack() public view returns (bool, uint256){\n      uint256 timePassed = now - attackTime[kingdomOf[msg.sender]];\n      if(timePassed > attackCooldown){\n        return (true, 0);\n      }\n      return (false, attackCooldown - timePassed);\n    }\n\n    function attack(uint256 _targetID) public {\n      uint256 attacker = kingdomOf[msg.sender];\n      require(attacker > 0 && attacker != _targetID);\n      require (now - attackTime[attacker] > attackCooldown);\n      uint256 attacker_damage = myStrikeAction();\n      uint256 defender_damage = defensiveAction(_targetID);\n      uint256 attacker_casualties = 0;\n      uint256 defender_casualties = 0;\n      bool success = attacker_damage > defender_damage;\n      uint256 battleID = battles.push(Battle(now, attacker, _targetID, attacker_damage, defender_damage, attacker_casualties, defender_casualties, success)) - 1;\n      if(success){\n        gainExperience(attacker, 100);\n      }\n      attackTime[attacker] = now;\n      BattleCompleted(battleID);\n    }\n\n    function getBattle(uint _id) public view returns (uint256, uint256, uint256, uint256, uint256, uint256, bool) {\n      var battle = battles[_id];\n      return (battle.attacker, battle.defender, battle.attacker_damage, battle.defender_damage,\n          battle.attacker_casualties, battle.defender_casualties, battle.success);\n    }\n\n    function getRecentAttacks(uint _id) public view returns(uint[2][5], uint){\n      uint[2][5] memory result;\n      uint count = 0;\n      uint battleId;\n\n      for(battleId = battles.length; battleId > 0 && count < 5; battleId--){\n        var battle = battles[battleId - 1];\n        if(battle.defender == _id){\n          //result[count] = battleId - 1;\n          result[count][0] = now - battle.time;\n          result[count][1] = battle.attacker;\n          count++;\n        }\n      }\n      return (result, count);\n    }\n\n    function getMyRecentAttacks() public view returns(uint[2][5], uint){\n      var id = kingdomOf[msg.sender];\n      require(id > 0);\n      return getRecentAttacks(id);\n    }\n\n    function getRecent10IncomingAttacks(uint _id) public view returns(uint[2][10], uint){\n      uint[2][10] memory result;\n      uint count = 0;\n      uint battleId;\n\n      for(battleId = battles.length; battleId > 0 && count < 10; battleId--){\n        var battle = battles[battleId - 1];\n        if(battle.defender == _id){\n          result[count][0] = now - battle.time;\n          result[count][1] = battleId - 1;\n          count++;\n        }\n      }\n      return (result, count);\n    }\n\n    function getRecent10OutgoingAttacks(uint _id) public view returns(uint[2][10], uint){\n      uint[2][10] memory result;\n      uint count = 0;\n      uint battleId;\n\n      for(battleId = battles.length; battleId > 0 && count < 10; battleId--){\n        var battle = battles[battleId - 1];\n        if(battle.attacker == _id){\n          result[count][0] = now - battle.time;\n          result[count][1] = battleId - 1;\n          count++;\n        }\n      }\n      return (result, count);\n    }\n\n    function getMyRecent10IncomingAttacks() public view returns(uint[2][10], uint){\n      var id = kingdomOf[msg.sender];\n      require(id > 0);\n      return getRecent10IncomingAttacks(id);\n    }\n\n    function getMyRecent10OutgoingAttacks() public view returns(uint[2][10], uint){\n      var id = kingdomOf[msg.sender];\n      require(id > 0);\n      return getRecent10OutgoingAttacks(id);\n    }\n\n    //returns true,0 if can recruit, otherwise returns false and number of seconds remaining\n    function canRecruit() public view returns (bool, uint256){\n      uint256 timePassed = now - recruitTime[kingdomOf[msg.sender]];\n      if(timePassed > recruitCooldown){\n        return (true, 0);\n      }\n      return (false, recruitCooldown - timePassed);\n    }\n\n    function recruit() public {\n      var id = kingdomOf[msg.sender];\n      require(id > 0);\n      require (now - recruitTime[id] > recruitCooldown);\n      militaries[id].numOfSoldiers += 100 * (1 + numOfOfficers[id]);\n      recruitTime[id] = now;\n      Recruit(id);\n    }\n\n    function trainAttackSpecialists(uint256 _count) public {\n      var id = kingdomOf[msg.sender];\n      require(id > 0);\n      var military = militaries[id];\n      require (military.numOfSoldiers >= _count);\n      military.numOfSoldiers -= _count;\n      military.numOfAttackSpecialists += _count;\n      TrainedAttackSpecialists(id, _count);\n    }\n\n    function trainDefenseSpecialists(uint256 _count) public {\n      var id = kingdomOf[msg.sender];\n      require(id > 0);\n      var military = militaries[id];\n      require (military.numOfSoldiers >= _count);\n      military.numOfSoldiers -= _count;\n      military.numOfDefenseSpecialists += _count;\n      TrainedDefenseSpecialists(id, _count);\n    }\n\n    function trainSpies(uint256 _count) public {\n      var id = kingdomOf[msg.sender];\n      require(id > 0);\n      var military = militaries[id];\n      require (military.numOfSoldiers >= _count);\n      military.numOfSoldiers -= _count;\n      military.numOfSpies += _count;\n      TrainedSpies(id, _count);\n    }\n\n    function trainSentries(uint256 _count) public {\n      var id = kingdomOf[msg.sender];\n      require(id > 0);\n      var military = militaries[id];\n      require (military.numOfSoldiers >= _count);\n      military.numOfSoldiers -= _count;\n      military.numOfSentries += _count;\n      TrainedSentries(id, _count);\n    }\n\n    function reassignAttackSpecialists(uint256 _count) public {\n      var id = kingdomOf[msg.sender];\n      require(id > 0);\n      var military = militaries[id];\n      require (military.numOfAttackSpecialists >= _count);\n      military.numOfSoldiers += _count;\n      military.numOfAttackSpecialists -= _count;\n      ReassignedAttackSpecialists(id, _count);\n    }\n\n    function reassignDefenseSpecialists(uint256 _count) public {\n      var id = kingdomOf[msg.sender];\n      require(id > 0);\n      var military = militaries[id];\n      require (military.numOfDefenseSpecialists >= _count);\n      military.numOfSoldiers += _count;\n      military.numOfDefenseSpecialists -= _count;\n      ReassignedDefenseSpecialists(id, _count);\n    }\n\n    function buyMercs(uint256 _attackMercsCount, uint256 _defenseMercsCount) public {\n      var id = kingdomOf[msg.sender];\n      require(id > 0);\n      var military = militaries[id];\n      military.numOfAttackMercs += _attackMercsCount;\n      military.numOfDefenseMercs += _defenseMercsCount;\n      PurchasedMercs(id, _attackMercsCount, _defenseMercsCount);\n    }\n}",
  "sourcePath": "/Users/kevin/KingsOfChaos/contracts/KingdomFactory.sol",
  "compiler": {
    "name": "solc",
    "version": "0.4.19+commit.c4cbbb05.Emscripten.clang"
  },
  "schemaVersion": "2.0.0",
  "updatedAt": "2018-03-03T09:56:43.661Z"
}