{
  "contractName": "MilitaryLibrary",
  "abi": [
    {
      "constant": false,
      "inputs": [
        {
          "name": "militaries",
          "type": "MilitaryLibrary.Military[] storage"
        },
        {
          "name": "_militaryCount",
          "type": "uint256[5]"
        }
      ],
      "name": "_createMilitary",
      "outputs": [
        {
          "name": "",
          "type": "uint256"
        }
      ],
      "payable": false,
      "stateMutability": "nonpayable",
      "type": "function"
    },
    {
      "constant": true,
      "inputs": [
        {
          "name": "militaries",
          "type": "MilitaryLibrary.Military[] storage"
        },
        {
          "name": "_id",
          "type": "uint256"
        }
      ],
      "name": "getMilitary",
      "outputs": [
        {
          "name": "",
          "type": "uint256[7]"
        }
      ],
      "payable": false,
      "stateMutability": "view",
      "type": "function"
    },
    {
      "constant": true,
      "inputs": [
        {
          "name": "militaries",
          "type": "MilitaryLibrary.Military[] storage"
        },
        {
          "name": "_spyId",
          "type": "uint256"
        },
        {
          "name": "_targetId",
          "type": "uint256"
        }
      ],
      "name": "spyOnMilitary",
      "outputs": [
        {
          "name": "",
          "type": "bool"
        },
        {
          "name": "",
          "type": "uint256[7]"
        }
      ],
      "payable": false,
      "stateMutability": "view",
      "type": "function"
    },
    {
      "constant": true,
      "inputs": [
        {
          "name": "militaries",
          "type": "MilitaryLibrary.Military[] storage"
        },
        {
          "name": "_id",
          "type": "uint256"
        }
      ],
      "name": "strikeAction",
      "outputs": [
        {
          "name": "",
          "type": "uint256"
        }
      ],
      "payable": false,
      "stateMutability": "view",
      "type": "function"
    },
    {
      "constant": true,
      "inputs": [
        {
          "name": "militaries",
          "type": "MilitaryLibrary.Military[] storage"
        },
        {
          "name": "_id",
          "type": "uint256"
        }
      ],
      "name": "defensiveAction",
      "outputs": [
        {
          "name": "",
          "type": "uint256"
        }
      ],
      "payable": false,
      "stateMutability": "view",
      "type": "function"
    },
    {
      "constant": true,
      "inputs": [
        {
          "name": "militaries",
          "type": "MilitaryLibrary.Military[] storage"
        },
        {
          "name": "_id",
          "type": "uint256"
        }
      ],
      "name": "spyRating",
      "outputs": [
        {
          "name": "",
          "type": "uint256"
        }
      ],
      "payable": false,
      "stateMutability": "view",
      "type": "function"
    },
    {
      "constant": true,
      "inputs": [
        {
          "name": "militaries",
          "type": "MilitaryLibrary.Military[] storage"
        },
        {
          "name": "_id",
          "type": "uint256"
        }
      ],
      "name": "sentryRating",
      "outputs": [
        {
          "name": "",
          "type": "uint256"
        }
      ],
      "payable": false,
      "stateMutability": "view",
      "type": "function"
    },
    {
      "constant": false,
      "inputs": [
        {
          "name": "militaries",
          "type": "MilitaryLibrary.Military[] storage"
        },
        {
          "name": "_id",
          "type": "uint256"
        },
        {
          "name": "_numOfOfficers",
          "type": "uint256"
        }
      ],
      "name": "recruit",
      "outputs": [],
      "payable": false,
      "stateMutability": "nonpayable",
      "type": "function"
    },
    {
      "constant": false,
      "inputs": [
        {
          "name": "militaries",
          "type": "MilitaryLibrary.Military[] storage"
        },
        {
          "name": "_id",
          "type": "uint256"
        },
        {
          "name": "_count",
          "type": "uint256"
        }
      ],
      "name": "trainAttackSpecialists",
      "outputs": [],
      "payable": false,
      "stateMutability": "nonpayable",
      "type": "function"
    },
    {
      "constant": false,
      "inputs": [
        {
          "name": "militaries",
          "type": "MilitaryLibrary.Military[] storage"
        },
        {
          "name": "_id",
          "type": "uint256"
        },
        {
          "name": "_count",
          "type": "uint256"
        }
      ],
      "name": "trainDefenseSpecialists",
      "outputs": [],
      "payable": false,
      "stateMutability": "nonpayable",
      "type": "function"
    },
    {
      "constant": false,
      "inputs": [
        {
          "name": "militaries",
          "type": "MilitaryLibrary.Military[] storage"
        },
        {
          "name": "_id",
          "type": "uint256"
        },
        {
          "name": "_count",
          "type": "uint256"
        }
      ],
      "name": "trainSpies",
      "outputs": [],
      "payable": false,
      "stateMutability": "nonpayable",
      "type": "function"
    },
    {
      "constant": false,
      "inputs": [
        {
          "name": "militaries",
          "type": "MilitaryLibrary.Military[] storage"
        },
        {
          "name": "_id",
          "type": "uint256"
        },
        {
          "name": "_count",
          "type": "uint256"
        }
      ],
      "name": "trainSentries",
      "outputs": [],
      "payable": false,
      "stateMutability": "nonpayable",
      "type": "function"
    },
    {
      "constant": false,
      "inputs": [
        {
          "name": "militaries",
          "type": "MilitaryLibrary.Military[] storage"
        },
        {
          "name": "_id",
          "type": "uint256"
        },
        {
          "name": "_count",
          "type": "uint256"
        }
      ],
      "name": "reassignAttackSpecialists",
      "outputs": [],
      "payable": false,
      "stateMutability": "nonpayable",
      "type": "function"
    },
    {
      "constant": false,
      "inputs": [
        {
          "name": "militaries",
          "type": "MilitaryLibrary.Military[] storage"
        },
        {
          "name": "_id",
          "type": "uint256"
        },
        {
          "name": "_count",
          "type": "uint256"
        }
      ],
      "name": "reassignDefenseSpecialists",
      "outputs": [],
      "payable": false,
      "stateMutability": "nonpayable",
      "type": "function"
    },
    {
      "constant": false,
      "inputs": [
        {
          "name": "militaries",
          "type": "MilitaryLibrary.Military[] storage"
        },
        {
          "name": "_id",
          "type": "uint256"
        },
        {
          "name": "_attackMercsCount",
          "type": "uint256"
        },
        {
          "name": "_defenseMercsCount",
          "type": "uint256"
        }
      ],
      "name": "buyMercs",
      "outputs": [],
      "payable": false,
      "stateMutability": "nonpayable",
      "type": "function"
    }
  ],
  "bytecode": "0x6060604052341561000f57600080fd5b610ac88061001e6000396000f3006060604052600436106100db576000357c0100000000000000000000000000000000000000000000000000000000900463ffffffff168063146af8ce146100e057806324eef0c71461010a57806342ace26014610167578063648470cf146101915780636506ee4f146102025780636906f46b14610237578063699f92b0146102615780637da124221461028b5780638784e44f146102be57806394530da7146102f3578063a6b32c4a1461031d578063a9596e2914610347578063b7a9cdab1461039f578063d2c6cc36146103c9578063f0861831146103fe575b600080fd5b6101086004808035906020019091908035906020019091908035906020019091905050610433565b005b6101296004808035906020019091908035906020019091905050610490565b6040518082600760200280838360005b83811015610154578082015181840152602081019050610139565b5050505090500191505060405180910390f35b61018f6004808035906020019091908035906020019091908035906020019091905050610523565b005b6101b96004808035906020019091908035906020019091908035906020019091905050610580565b604051808315151515815260200182600760200280838360005b838110156101ee5780820151818401526020810190506101d3565b505050509050019250505060405180910390f35b6102216004808035906020019091908035906020019091905050610603565b6040518082815260200191505060405180910390f35b61025f6004808035906020019091908035906020019091908035906020019091905050610641565b005b610289600480803590602001909190803590602001909190803590602001909190505061069e565b005b6102bc60048080359060200190919080359060200190919080359060200190919080359060200190919050506106fb565b005b6102dd6004808035906020019091908035906020019091905050610746565b6040518082815260200191505060405180910390f35b61031b6004808035906020019091908035906020019091908035906020019091905050610775565b005b61034560048080359060200190919080359060200190919080359060200190919050506107d2565b005b6103896004808035906020019091908060a00190600580602002604051908101604052809291908260056020028082843782019150505050509190505061080a565b6040518082815260200191505060405180910390f35b6103c76004808035906020019091908035906020019091908035906020019091905050610921565b005b6103e8600480803590602001909190803590602001909190505061097e565b6040518082815260200191505060405180910390f35b61041d60048080359060200190919080359060200190919050506109ad565b6040518082815260200191505060405180910390f35b6000838381548110151561044357fe5b906000526020600020906007020190508181600001541015151561046657600080fd5b81816000016000828254039250508190555081816005016000828254019250508190555050505050565b6104986109eb565b60008380549050831015156104ac57600080fd5b83838154811015156104ba57fe5b9060005260206000209060070201905060e060405190810160405280826000015481526020018260010154815260200182600201548152602001826003015481526020018260040154815260200182600501548152602001826006015481525091505092915050565b6000838381548110151561053357fe5b906000526020600020906007020190508181600301541015151561055657600080fd5b81816000016000828254019250508190555081816003016000828254039250508190555050505050565b600061058a6109eb565b6105948584610746565b61059e868661097e565b11156105b95760016105b08685610490565b915091506105fb565b600060e0604051908101604052806000815260200160008152602001600081526020016000815260200160008152602001600081526020016000815250915091505b935093915050565b600080838381548110151561061457fe5b90600052602060002090600702019050806002015481600101540160020281600001540191505092915050565b6000838381548110151561065157fe5b906000526020600020906007020190508181600101541015151561067457600080fd5b81816000016000828254019250508190555081816001016000828254039250508190555050505050565b600083838154811015156106ae57fe5b90600052602060002090600702019050818160000154101515156106d157600080fd5b81816000016000828254039250508190555081816001016000828254019250508190555050505050565b6000848481548110151561070b57fe5b906000526020600020906007020190508281600201600082825401925050819055508181600401600082825401925050819055505050505050565b600080838381548110151561075757fe5b90600052602060002090600702019050806006015491505092915050565b6000838381548110151561078557fe5b90600052602060002090600702019050818160000154101515156107a857600080fd5b81816000016000828254039250508190555081816006016000828254019250508190555050505050565b8060010160640283838154811015156107e757fe5b906000526020600020906007020160000160008282540192505081905550505050565b60008060018480548060010182816108229190610a13565b9160005260206000209060070201600060e06040519081016040528088600060058110151561084d57fe5b6020020151815260200188600160058110151561086657fe5b602002015181526020016000815260200188600260058110151561088657fe5b60200201518152602001600081526020018860036005811015156108a657fe5b602002015181526020018860046005811015156108bf57fe5b60200201518152509091909150600082015181600001556020820151816001015560408201518160020155606082015181600301556080820151816004015560a0820151816005015560c0820151816006015550500390508091505092915050565b6000838381548110151561093157fe5b906000526020600020906007020190508181600001541015151561095457600080fd5b81816000016000828254039250508190555081816003016000828254019250508190555050505050565b600080838381548110151561098f57fe5b90600052602060002090600702019050806005015491505092915050565b60008083838154811015156109be57fe5b90600052602060002090600702019050806004015481600301546002028260000154010191505092915050565b60e0604051908101604052806007905b60008152602001906001900390816109fb5790505090565b815481835581811511610a4057600702816007028360005260206000209182019101610a3f9190610a45565b5b505050565b610a9991905b80821115610a955760008082016000905560018201600090556002820160009055600382016000905560048201600090556005820160009055600682016000905550600701610a4b565b5090565b905600a165627a7a723058208c235a747382e366cdfc0cfd055f879ef0cfec3104552424743706a605bda1000029",
  "source": "pragma solidity ^0.4.17;\n\nlibrary MilitaryLibrary {\n\n    struct Military {\n        uint256 numOfSoldiers;\n        uint256 numOfAttackSpecialists;\n        uint256 numOfAttackMercs;\n        uint256 numOfDefenseSpecialists;\n        uint256 numOfDefenseMercs;\n        uint256 numOfSpies;\n        uint256 numOfSentries;      \n    }\n\n    function _createMilitary(Military[] storage militaries, uint[5] _militaryCount) public returns (uint) {\n        uint id = militaries.push(Military(_militaryCount[0], _militaryCount[1], 0, _militaryCount[2], 0, _militaryCount[3], _militaryCount[4])) - 1;\n        return id;\n    }\n\n    function getMilitary(Military[] storage militaries, uint _id) public view returns (uint256[7]) {\n      require(_id < militaries.length);\n      var military = militaries[_id];\n      return [military.numOfSoldiers, military.numOfAttackSpecialists, military.numOfAttackMercs, military.numOfDefenseSpecialists,\n          military.numOfDefenseMercs, military.numOfSpies, military.numOfSentries];\n    }\n\n    function spyOnMilitary(Military[] storage militaries, uint _spyId, uint _targetId) public view returns (bool, uint256[7]) {\n      if(spyRating(militaries, _spyId) > sentryRating(militaries, _targetId)){\n        return (true, getMilitary(militaries, _targetId));\n      }\n      return (false, [uint(0), uint(0), uint(0), uint(0), uint(0), uint(0), uint(0)]);\n    }\n\n    function strikeAction(Military[] storage militaries, uint256 _id) public view returns (uint256) {\n        var military = militaries[_id];\n        return (military.numOfSoldiers + 2 * (military.numOfAttackSpecialists + military.numOfAttackMercs));\n    }\n\n    function defensiveAction(Military[] storage militaries, uint256 _id) public view returns (uint256) {\n        var military = militaries[_id];\n        return (military.numOfSoldiers + 2 * (military.numOfDefenseSpecialists) + military.numOfDefenseMercs);\n    }\n\n    function spyRating(Military[] storage militaries, uint256 _id) public view returns (uint256) {\n      var military = militaries[_id];\n      return military.numOfSpies;\n    }\n\n    function sentryRating(Military[] storage militaries, uint256 _id) public view returns (uint256) {\n    var military = militaries[_id];\n    return military.numOfSentries;\n    }\n\n    function recruit(Military[] storage militaries, uint256 _id, uint256 _numOfOfficers) public {\n      militaries[_id].numOfSoldiers += 100 * (1 + _numOfOfficers);\n    }\n\n    function trainAttackSpecialists(Military[] storage militaries, uint256 _id, uint256 _count) public {\n    var military = militaries[_id];\n    require (military.numOfSoldiers >= _count);\n    military.numOfSoldiers -= _count;\n    military.numOfAttackSpecialists += _count;\n    }\n\n    function trainDefenseSpecialists(Military[] storage militaries, uint256 _id, uint256 _count) public {\n    var military = militaries[_id];\n    require (military.numOfSoldiers >= _count);\n    military.numOfSoldiers -= _count;\n    military.numOfDefenseSpecialists += _count;\n    }\n\n    function trainSpies(Military[] storage militaries, uint256 _id, uint256 _count) public {\n      var military = militaries[_id];\n      require (military.numOfSoldiers >= _count);\n      military.numOfSoldiers -= _count;\n      military.numOfSpies += _count;\n    }\n\n    function trainSentries(Military[] storage militaries, uint256 _id, uint256 _count) public {\n      var military = militaries[_id];\n      require (military.numOfSoldiers >= _count);\n      military.numOfSoldiers -= _count;\n      military.numOfSentries += _count;\n    }\n\n    function reassignAttackSpecialists(Military[] storage militaries, uint256 _id, uint256 _count) public {\n      var military = militaries[_id];\n      require (military.numOfAttackSpecialists >= _count);\n      military.numOfSoldiers += _count;\n      military.numOfAttackSpecialists -= _count;\n    }\n\n    function reassignDefenseSpecialists(Military[] storage militaries, uint256 _id, uint256 _count) public {\n      var military = militaries[_id];\n      require (military.numOfDefenseSpecialists >= _count);\n      military.numOfSoldiers += _count;\n      military.numOfDefenseSpecialists -= _count;\n    }\n\n    function buyMercs(Military[] storage militaries, uint256 _id, uint256 _attackMercsCount, uint256 _defenseMercsCount) public {\n      var military = militaries[_id];\n      military.numOfAttackMercs += _attackMercsCount;\n      military.numOfDefenseMercs += _defenseMercsCount;\n    }\n}",
  "sourcePath": "/Users/kevin/KingsOfChaos/contracts/MilitaryLibrary.sol",
  "compiler": {
    "name": "solc",
    "version": "0.4.19+commit.c4cbbb05.Emscripten.clang"
  },
  "schemaVersion": "2.0.0",
  "updatedAt": "2018-03-04T01:04:03.984Z"
}