{
  "contractName": "MilitaryFactory",
  "abi": [
    {
      "anonymous": false,
      "inputs": [
        {
          "indexed": false,
          "name": "kingdomId",
          "type": "uint256"
        },
        {
          "indexed": false,
          "name": "count",
          "type": "uint256"
        }
      ],
      "name": "TrainedSentries",
      "type": "event"
    },
    {
      "constant": false,
      "inputs": [
        {
          "name": "_militaryCount",
          "type": "uint256[5]"
        }
      ],
      "name": "_createMilitary",
      "outputs": [
        {
          "name": "",
          "type": "uint256"
        }
      ],
      "payable": false,
      "stateMutability": "nonpayable",
      "type": "function"
    },
    {
      "constant": true,
      "inputs": [
        {
          "name": "_id",
          "type": "uint256"
        }
      ],
      "name": "getMilitary",
      "outputs": [
        {
          "name": "",
          "type": "uint256[7]"
        }
      ],
      "payable": false,
      "stateMutability": "view",
      "type": "function"
    },
    {
      "constant": true,
      "inputs": [
        {
          "name": "_spyId",
          "type": "uint256"
        },
        {
          "name": "_targetId",
          "type": "uint256"
        }
      ],
      "name": "spyOnMilitary",
      "outputs": [
        {
          "name": "",
          "type": "bool"
        },
        {
          "name": "",
          "type": "uint256[7]"
        }
      ],
      "payable": false,
      "stateMutability": "view",
      "type": "function"
    },
    {
      "constant": true,
      "inputs": [
        {
          "name": "_id",
          "type": "uint256"
        }
      ],
      "name": "strikeAction",
      "outputs": [
        {
          "name": "",
          "type": "uint256"
        }
      ],
      "payable": false,
      "stateMutability": "view",
      "type": "function"
    },
    {
      "constant": true,
      "inputs": [
        {
          "name": "_id",
          "type": "uint256"
        }
      ],
      "name": "defensiveAction",
      "outputs": [
        {
          "name": "",
          "type": "uint256"
        }
      ],
      "payable": false,
      "stateMutability": "view",
      "type": "function"
    },
    {
      "constant": true,
      "inputs": [
        {
          "name": "_id",
          "type": "uint256"
        }
      ],
      "name": "spyRating",
      "outputs": [
        {
          "name": "",
          "type": "uint256"
        }
      ],
      "payable": false,
      "stateMutability": "view",
      "type": "function"
    },
    {
      "constant": true,
      "inputs": [
        {
          "name": "_id",
          "type": "uint256"
        }
      ],
      "name": "sentryRating",
      "outputs": [
        {
          "name": "",
          "type": "uint256"
        }
      ],
      "payable": false,
      "stateMutability": "view",
      "type": "function"
    },
    {
      "constant": false,
      "inputs": [
        {
          "name": "_id",
          "type": "uint256"
        },
        {
          "name": "_numOfOfficers",
          "type": "uint256"
        }
      ],
      "name": "recruit",
      "outputs": [],
      "payable": false,
      "stateMutability": "nonpayable",
      "type": "function"
    },
    {
      "constant": false,
      "inputs": [
        {
          "name": "_id",
          "type": "uint256"
        },
        {
          "name": "_count",
          "type": "uint256"
        }
      ],
      "name": "trainAttackSpecialists",
      "outputs": [],
      "payable": false,
      "stateMutability": "nonpayable",
      "type": "function"
    },
    {
      "constant": false,
      "inputs": [
        {
          "name": "_id",
          "type": "uint256"
        },
        {
          "name": "_count",
          "type": "uint256"
        }
      ],
      "name": "trainDefenseSpecialists",
      "outputs": [],
      "payable": false,
      "stateMutability": "nonpayable",
      "type": "function"
    },
    {
      "constant": false,
      "inputs": [
        {
          "name": "_id",
          "type": "uint256"
        },
        {
          "name": "_count",
          "type": "uint256"
        }
      ],
      "name": "trainSpies",
      "outputs": [],
      "payable": false,
      "stateMutability": "nonpayable",
      "type": "function"
    },
    {
      "constant": false,
      "inputs": [
        {
          "name": "_id",
          "type": "uint256"
        },
        {
          "name": "_count",
          "type": "uint256"
        }
      ],
      "name": "trainSentries",
      "outputs": [],
      "payable": false,
      "stateMutability": "nonpayable",
      "type": "function"
    },
    {
      "constant": false,
      "inputs": [
        {
          "name": "_id",
          "type": "uint256"
        },
        {
          "name": "_count",
          "type": "uint256"
        }
      ],
      "name": "reassignAttackSpecialists",
      "outputs": [],
      "payable": false,
      "stateMutability": "nonpayable",
      "type": "function"
    },
    {
      "constant": false,
      "inputs": [
        {
          "name": "_id",
          "type": "uint256"
        },
        {
          "name": "_count",
          "type": "uint256"
        }
      ],
      "name": "reassignDefenseSpecialists",
      "outputs": [],
      "payable": false,
      "stateMutability": "nonpayable",
      "type": "function"
    },
    {
      "constant": false,
      "inputs": [
        {
          "name": "_id",
          "type": "uint256"
        },
        {
          "name": "_attackMercsCount",
          "type": "uint256"
        },
        {
          "name": "_defenseMercsCount",
          "type": "uint256"
        }
      ],
      "name": "buyMercs",
      "outputs": [],
      "payable": false,
      "stateMutability": "nonpayable",
      "type": "function"
    }
  ],
  "bytecode": "0x6060604052341561000f57600080fd5b610adb8061001e6000396000f3006060604052600436106100db576000357c0100000000000000000000000000000000000000000000000000000000900463ffffffff1680630ca62a8a146100e05780631185f5af146101175780634ec4bb881461014e57806370e5461c146101ad5780639502f7d3146102075780639572e0331461023357806399324882146102a6578063b31c9cc8146102d2578063cc3bf17c146102fe578063cf0e0af814610333578063daa378471461035f578063ddb7737014610396578063de4c2d95146103c2578063f1b873ff146103ee578063fca1efec1461041a575b600080fd5b34156100eb57600080fd5b6101016004808035906020019091905050610451565b6040518082815260200191505060405180910390f35b341561012257600080fd5b6101386004808035906020019091905050610480565b6040518082815260200191505060405180910390f35b341561015957600080fd5b61016f60048080359060200190919050506104be565b6040518082600760200280838360005b8381101561019a57808201518184015260208101905061017f565b5050505090500191505060405180910390f35b34156101b857600080fd5b6101f16004808060a001906005806020026040519081016040528092919082600560200280828437820191505050505091905050610551565b6040518082815260200191505060405180910390f35b341561021257600080fd5b6102316004808035906020019091908035906020019091905050610668565b005b341561023e57600080fd5b61025d60048080359060200190919080359060200190919050506106c4565b604051808315151515815260200182600760200280838360005b83811015610292578082015181840152602081019050610277565b505050509050019250505060405180910390f35b34156102b157600080fd5b6102d06004808035906020019091908035906020019091905050610743565b005b34156102dd57600080fd5b6102fc600480803590602001909190803590602001909190505061079f565b005b341561030957600080fd5b61033160048080359060200190919080359060200190919080359060200190919050506107d7565b005b341561033e57600080fd5b61035d6004808035906020019091908035906020019091905050610821565b005b341561036a57600080fd5b610380600480803590602001909190505061087d565b6040518082815260200191505060405180910390f35b34156103a157600080fd5b6103c060048080359060200190919080359060200190919050506108bb565b005b34156103cd57600080fd5b6103ec6004808035906020019091908035906020019091905050610917565b005b34156103f957600080fd5b6104186004808035906020019091908035906020019091905050610973565b005b341561042557600080fd5b61043b60048080359060200190919050506109cf565b6040518082815260200191505060405180910390f35b60008060008381548110151561046357fe5b906000526020600020906007020190508060050154915050919050565b60008060008381548110151561049257fe5b906000526020600020906007020190508060020154816001015401600202816000015401915050919050565b6104c66109fe565b60008080549050831015156104da57600080fd5b6000838154811015156104e957fe5b9060005260206000209060070201905060e0604051908101604052808260000154815260200182600101548152602001826002015481526020018260030154815260200182600401548152602001826005015481526020018260060154815250915050919050565b60008060016000805480600101828161056a9190610a26565b9160005260206000209060070201600060e06040519081016040528088600060058110151561059557fe5b602002015181526020018860016005811015156105ae57fe5b60200201518152602001600081526020018860026005811015156105ce57fe5b60200201518152602001600081526020018860036005811015156105ee57fe5b6020020151815260200188600460058110151561060757fe5b60200201518152509091909150600082015181600001556020820151816001015560408201518160020155606082015181600301556080820151816004015560a0820151816005015560c08201518160060155505003905080915050919050565b6000808381548110151561067857fe5b906000526020600020906007020190508181600001541015151561069b57600080fd5b818160000160008282540392505081905550818160050160008282540192505081905550505050565b60006106ce6109fe565b6106d7836109cf565b6106e085610451565b11156106fa5760016106f1846104be565b9150915061073c565b600060e0604051908101604052806000815260200160008152602001600081526020016000815260200160008152602001600081526020016000815250915091505b9250929050565b6000808381548110151561075357fe5b906000526020600020906007020190508181600101541015151561077657600080fd5b818160000160008282540192505081905550818160010160008282540392505081905550505050565b806001016064026000838154811015156107b557fe5b9060005260206000209060070201600001600082825401925050819055505050565b600080848154811015156107e757fe5b9060005260206000209060070201905082816002016000828254019250508190555081816004016000828254019250508190555050505050565b6000808381548110151561083157fe5b906000526020600020906007020190508181600001541015151561085457600080fd5b818160000160008282540392505081905550818160010160008282540192505081905550505050565b60008060008381548110151561088f57fe5b906000526020600020906007020190508060040154816003015460020282600001540101915050919050565b600080838154811015156108cb57fe5b90600052602060002090600702019050818160000154101515156108ee57600080fd5b818160000160008282540392505081905550818160030160008282540192505081905550505050565b6000808381548110151561092757fe5b906000526020600020906007020190508181600001541015151561094a57600080fd5b818160000160008282540392505081905550818160060160008282540192505081905550505050565b6000808381548110151561098357fe5b90600052602060002090600702019050818160030154101515156109a657600080fd5b818160000160008282540192505081905550818160030160008282540392505081905550505050565b6000806000838154811015156109e157fe5b906000526020600020906007020190508060060154915050919050565b60e0604051908101604052806007905b6000815260200190600190039081610a0e5790505090565b815481835581811511610a5357600702816007028360005260206000209182019101610a529190610a58565b5b505050565b610aac91905b80821115610aa85760008082016000905560018201600090556002820160009055600382016000905560048201600090556005820160009055600682016000905550600701610a5e565b5090565b905600a165627a7a723058200b9408d17a2b59b0441bd6ed2bd4d32c2bbd2da9de85a00d1957ddf80ae28caa0029",
  "source": "pragma solidity ^0.4.17;\n\n//import 'zeppelin-solidity/contracts/ownership/Ownable.sol';\n\ncontract MilitaryFactory {\n\n  event TrainedSentries(uint kingdomId, uint count);\n\n\tstruct Military {\n      uint256 numOfSoldiers;\n      uint256 numOfAttackSpecialists;\n      uint256 numOfAttackMercs;\n      uint256 numOfDefenseSpecialists;\n      uint256 numOfDefenseMercs;\n      uint256 numOfSpies;\n      uint256 numOfSentries;      \n    }\n\n    Military[] private militaries;\n\n    function _createMilitary(uint[5] _militaryCount) public returns (uint) {\n\t    uint id = militaries.push(Military(_militaryCount[0], _militaryCount[1], 0, _militaryCount[2], 0, _militaryCount[3], _militaryCount[4])) - 1;\n\t    return id;\n    }\n\n    function getMilitary(uint _id) public view returns (uint256[7]) {\n    \trequire(_id < militaries.length);\n\t    var military = militaries[_id];\n\t    return [military.numOfSoldiers, military.numOfAttackSpecialists, military.numOfAttackMercs, military.numOfDefenseSpecialists,\n        \tmilitary.numOfDefenseMercs, military.numOfSpies, military.numOfSentries];\n    }\n\n    function spyOnMilitary(uint _spyId, uint _targetId) public view returns (bool, uint256[7]) {\n      if(spyRating(_spyId) > sentryRating(_targetId)){\n        return (true, getMilitary(_targetId));\n      }\n      return (false, [uint(0), uint(0), uint(0), uint(0), uint(0), uint(0), uint(0)]);\n    }\n\n    function strikeAction(uint256 _id) public view returns (uint256) {\n        var military = militaries[_id];\n        return (military.numOfSoldiers + 2 * (military.numOfAttackSpecialists + military.numOfAttackMercs));\n    }\n\n    function defensiveAction(uint256 _id) public view returns (uint256) {\n        var military = militaries[_id];\n        return (military.numOfSoldiers + 2 * (military.numOfDefenseSpecialists) + military.numOfDefenseMercs);\n    }\n\n    function spyRating(uint256 _id) public view returns (uint256) {\n\t    var military = militaries[_id];\n\t    return military.numOfSpies;\n    }\n\n    function sentryRating(uint256 _id) public view returns (uint256) {\n\t\tvar military = militaries[_id];\n\t\treturn military.numOfSentries;\n  \t}\n\n  \tfunction recruit(uint256 _id, uint256 _numOfOfficers) public {\n    \tmilitaries[_id].numOfSoldiers += 100 * (1 + _numOfOfficers);\n    }\n\n    function trainAttackSpecialists(uint256 _id, uint256 _count) public {\n\t\tvar military = militaries[_id];\n\t\trequire (military.numOfSoldiers >= _count);\n\t\tmilitary.numOfSoldiers -= _count;\n\t\tmilitary.numOfAttackSpecialists += _count;\n    }\n\n    function trainDefenseSpecialists(uint256 _id, uint256 _count) public {\n\t\tvar military = militaries[_id];\n\t\trequire (military.numOfSoldiers >= _count);\n\t\tmilitary.numOfSoldiers -= _count;\n\t\tmilitary.numOfDefenseSpecialists += _count;\n    }\n\n    function trainSpies(uint256 _id, uint256 _count) public {\n      var military = militaries[_id];\n      require (military.numOfSoldiers >= _count);\n      military.numOfSoldiers -= _count;\n      military.numOfSpies += _count;\n    }\n\n    function trainSentries(uint256 _id, uint256 _count) public {\n      var military = militaries[_id];\n      require (military.numOfSoldiers >= _count);\n      military.numOfSoldiers -= _count;\n      military.numOfSentries += _count;\n    }\n\n    function reassignAttackSpecialists(uint256 _id, uint256 _count) public {\n      var military = militaries[_id];\n      require (military.numOfAttackSpecialists >= _count);\n      military.numOfSoldiers += _count;\n      military.numOfAttackSpecialists -= _count;\n    }\n\n    function reassignDefenseSpecialists(uint256 _id, uint256 _count) public {\n      var military = militaries[_id];\n      require (military.numOfDefenseSpecialists >= _count);\n      military.numOfSoldiers += _count;\n      military.numOfDefenseSpecialists -= _count;\n    }\n\n    function buyMercs(uint256 _id, uint256 _attackMercsCount, uint256 _defenseMercsCount) public {\n      var military = militaries[_id];\n      military.numOfAttackMercs += _attackMercsCount;\n      military.numOfDefenseMercs += _defenseMercsCount;\n    }\n}",
  "sourcePath": "/Users/kevin/KingsOfChaos/contracts/MilitaryFactory.sol",
  "compiler": {
    "name": "solc",
    "version": "0.4.19+commit.c4cbbb05.Emscripten.clang"
  },
  "schemaVersion": "2.0.0",
  "updatedAt": "2018-03-04T01:04:14.444Z"
}