{
  "contractName": "RealmOfWars",
  "abi": [
    {
      "inputs": [
        {
          "name": "_kingdomFactoryAddress",
          "type": "address"
        },
        {
          "name": "_militaryFactoryAddress",
          "type": "address"
        }
      ],
      "payable": false,
      "stateMutability": "nonpayable",
      "type": "constructor"
    },
    {
      "anonymous": false,
      "inputs": [
        {
          "indexed": false,
          "name": "kingdomId",
          "type": "uint256"
        },
        {
          "indexed": false,
          "name": "name",
          "type": "string"
        },
        {
          "indexed": false,
          "name": "race",
          "type": "uint256"
        }
      ],
      "name": "NewKingdom",
      "type": "event"
    },
    {
      "anonymous": false,
      "inputs": [
        {
          "indexed": false,
          "name": "kingdomId",
          "type": "uint256"
        },
        {
          "indexed": false,
          "name": "race",
          "type": "uint256"
        }
      ],
      "name": "ChangedRace",
      "type": "event"
    },
    {
      "anonymous": false,
      "inputs": [
        {
          "indexed": false,
          "name": "kingdomId",
          "type": "uint256"
        }
      ],
      "name": "UpgradeWeapon",
      "type": "event"
    },
    {
      "anonymous": false,
      "inputs": [
        {
          "indexed": false,
          "name": "kingdomId",
          "type": "uint256"
        }
      ],
      "name": "UpgradeFortress",
      "type": "event"
    },
    {
      "anonymous": false,
      "inputs": [
        {
          "indexed": false,
          "name": "kingdomId",
          "type": "uint256"
        }
      ],
      "name": "UpgradeCovert",
      "type": "event"
    },
    {
      "anonymous": false,
      "inputs": [
        {
          "indexed": false,
          "name": "battleId",
          "type": "uint256"
        }
      ],
      "name": "BattleCompleted",
      "type": "event"
    },
    {
      "anonymous": false,
      "inputs": [
        {
          "indexed": false,
          "name": "kingdomId",
          "type": "uint256"
        }
      ],
      "name": "Recruit",
      "type": "event"
    },
    {
      "anonymous": false,
      "inputs": [
        {
          "indexed": false,
          "name": "kingdomId",
          "type": "uint256"
        },
        {
          "indexed": false,
          "name": "commanderId",
          "type": "uint256"
        }
      ],
      "name": "CommanderAssigned",
      "type": "event"
    },
    {
      "anonymous": false,
      "inputs": [
        {
          "indexed": false,
          "name": "kingdomId",
          "type": "uint256"
        },
        {
          "indexed": false,
          "name": "count",
          "type": "uint256"
        }
      ],
      "name": "TrainedAttackSpecialists",
      "type": "event"
    },
    {
      "anonymous": false,
      "inputs": [
        {
          "indexed": false,
          "name": "kingdomId",
          "type": "uint256"
        },
        {
          "indexed": false,
          "name": "count",
          "type": "uint256"
        }
      ],
      "name": "TrainedDefenseSpecialists",
      "type": "event"
    },
    {
      "anonymous": false,
      "inputs": [
        {
          "indexed": false,
          "name": "kingdomId",
          "type": "uint256"
        },
        {
          "indexed": false,
          "name": "count",
          "type": "uint256"
        }
      ],
      "name": "ReassignedAttackSpecialists",
      "type": "event"
    },
    {
      "anonymous": false,
      "inputs": [
        {
          "indexed": false,
          "name": "kingdomId",
          "type": "uint256"
        },
        {
          "indexed": false,
          "name": "count",
          "type": "uint256"
        }
      ],
      "name": "ReassignedDefenseSpecialists",
      "type": "event"
    },
    {
      "anonymous": false,
      "inputs": [
        {
          "indexed": false,
          "name": "kingdomId",
          "type": "uint256"
        },
        {
          "indexed": false,
          "name": "count",
          "type": "uint256"
        }
      ],
      "name": "TrainedSpies",
      "type": "event"
    },
    {
      "anonymous": false,
      "inputs": [
        {
          "indexed": false,
          "name": "kingdomId",
          "type": "uint256"
        },
        {
          "indexed": false,
          "name": "count",
          "type": "uint256"
        }
      ],
      "name": "TrainedSentries",
      "type": "event"
    },
    {
      "anonymous": false,
      "inputs": [
        {
          "indexed": false,
          "name": "id",
          "type": "uint256"
        },
        {
          "indexed": false,
          "name": "attackMercsCount",
          "type": "uint256"
        },
        {
          "indexed": false,
          "name": "defenseMercsCount",
          "type": "uint256"
        }
      ],
      "name": "PurchasedMercs",
      "type": "event"
    },
    {
      "constant": false,
      "inputs": [
        {
          "name": "_name",
          "type": "string"
        },
        {
          "name": "_race",
          "type": "uint256"
        },
        {
          "name": "_commanderId",
          "type": "uint256"
        }
      ],
      "name": "createNewKingdom",
      "outputs": [
        {
          "name": "",
          "type": "uint256"
        }
      ],
      "payable": false,
      "stateMutability": "nonpayable",
      "type": "function"
    },
    {
      "constant": true,
      "inputs": [
        {
          "name": "_id",
          "type": "uint256"
        }
      ],
      "name": "getKingdom",
      "outputs": [
        {
          "name": "",
          "type": "string"
        },
        {
          "name": "",
          "type": "uint8"
        },
        {
          "name": "",
          "type": "uint8[4]"
        },
        {
          "name": "",
          "type": "uint256"
        },
        {
          "name": "",
          "type": "uint256"
        },
        {
          "name": "",
          "type": "uint256"
        },
        {
          "name": "",
          "type": "string"
        }
      ],
      "payable": false,
      "stateMutability": "view",
      "type": "function"
    },
    {
      "constant": true,
      "inputs": [
        {
          "name": "_targetId",
          "type": "uint256"
        }
      ],
      "name": "spyOnPersonnel",
      "outputs": [
        {
          "name": "",
          "type": "bool"
        },
        {
          "name": "",
          "type": "uint256[7]"
        }
      ],
      "payable": false,
      "stateMutability": "view",
      "type": "function"
    },
    {
      "constant": true,
      "inputs": [],
      "name": "getWeaponMultiplier",
      "outputs": [
        {
          "name": "",
          "type": "uint8"
        }
      ],
      "payable": false,
      "stateMutability": "view",
      "type": "function"
    },
    {
      "constant": true,
      "inputs": [],
      "name": "getFortressMultiplier",
      "outputs": [
        {
          "name": "",
          "type": "uint8"
        }
      ],
      "payable": false,
      "stateMutability": "view",
      "type": "function"
    },
    {
      "constant": true,
      "inputs": [
        {
          "name": "_commanderId",
          "type": "uint256"
        }
      ],
      "name": "getOfficers",
      "outputs": [
        {
          "name": "",
          "type": "uint256[]"
        }
      ],
      "payable": false,
      "stateMutability": "view",
      "type": "function"
    },
    {
      "constant": true,
      "inputs": [],
      "name": "getMyOfficers",
      "outputs": [
        {
          "name": "",
          "type": "uint256[]"
        }
      ],
      "payable": false,
      "stateMutability": "view",
      "type": "function"
    },
    {
      "constant": true,
      "inputs": [],
      "name": "haveKingdom",
      "outputs": [
        {
          "name": "",
          "type": "bool"
        }
      ],
      "payable": false,
      "stateMutability": "view",
      "type": "function"
    },
    {
      "constant": true,
      "inputs": [],
      "name": "getMyKingdomId",
      "outputs": [
        {
          "name": "",
          "type": "uint256"
        }
      ],
      "payable": false,
      "stateMutability": "view",
      "type": "function"
    },
    {
      "constant": true,
      "inputs": [
        {
          "name": "_id",
          "type": "uint256"
        }
      ],
      "name": "isMyKingdomId",
      "outputs": [
        {
          "name": "",
          "type": "bool"
        }
      ],
      "payable": false,
      "stateMutability": "view",
      "type": "function"
    },
    {
      "constant": true,
      "inputs": [],
      "name": "getMyKingdom",
      "outputs": [
        {
          "name": "",
          "type": "string"
        },
        {
          "name": "",
          "type": "uint8"
        },
        {
          "name": "",
          "type": "uint8[4]"
        },
        {
          "name": "",
          "type": "uint256"
        },
        {
          "name": "",
          "type": "uint256"
        },
        {
          "name": "",
          "type": "uint256"
        },
        {
          "name": "",
          "type": "string"
        }
      ],
      "payable": false,
      "stateMutability": "view",
      "type": "function"
    },
    {
      "constant": true,
      "inputs": [],
      "name": "getMyPersonnel",
      "outputs": [
        {
          "name": "",
          "type": "uint256[7]"
        }
      ],
      "payable": false,
      "stateMutability": "view",
      "type": "function"
    },
    {
      "constant": true,
      "inputs": [],
      "name": "getKingdomCount",
      "outputs": [
        {
          "name": "",
          "type": "uint256"
        }
      ],
      "payable": false,
      "stateMutability": "view",
      "type": "function"
    },
    {
      "constant": false,
      "inputs": [
        {
          "name": "_commanderId",
          "type": "uint256"
        }
      ],
      "name": "assignCommander",
      "outputs": [],
      "payable": false,
      "stateMutability": "nonpayable",
      "type": "function"
    },
    {
      "constant": false,
      "inputs": [],
      "name": "ditchCommander",
      "outputs": [],
      "payable": false,
      "stateMutability": "nonpayable",
      "type": "function"
    },
    {
      "constant": true,
      "inputs": [
        {
          "name": "_commanderId",
          "type": "uint256"
        }
      ],
      "name": "isCommander",
      "outputs": [
        {
          "name": "",
          "type": "bool"
        }
      ],
      "payable": false,
      "stateMutability": "view",
      "type": "function"
    },
    {
      "constant": false,
      "inputs": [
        {
          "name": "_race",
          "type": "uint8"
        }
      ],
      "name": "changeRace",
      "outputs": [],
      "payable": false,
      "stateMutability": "nonpayable",
      "type": "function"
    },
    {
      "constant": false,
      "inputs": [],
      "name": "upgradeWeapon",
      "outputs": [],
      "payable": false,
      "stateMutability": "nonpayable",
      "type": "function"
    },
    {
      "constant": false,
      "inputs": [],
      "name": "upgradeFortress",
      "outputs": [],
      "payable": false,
      "stateMutability": "nonpayable",
      "type": "function"
    },
    {
      "constant": false,
      "inputs": [],
      "name": "upgradeCovert",
      "outputs": [],
      "payable": false,
      "stateMutability": "nonpayable",
      "type": "function"
    },
    {
      "constant": true,
      "inputs": [],
      "name": "myStrikeAction",
      "outputs": [
        {
          "name": "",
          "type": "uint256"
        }
      ],
      "payable": false,
      "stateMutability": "view",
      "type": "function"
    },
    {
      "constant": true,
      "inputs": [],
      "name": "myDefensiveAction",
      "outputs": [
        {
          "name": "",
          "type": "uint256"
        }
      ],
      "payable": false,
      "stateMutability": "view",
      "type": "function"
    },
    {
      "constant": true,
      "inputs": [],
      "name": "mySpyRating",
      "outputs": [
        {
          "name": "",
          "type": "uint256"
        }
      ],
      "payable": false,
      "stateMutability": "view",
      "type": "function"
    },
    {
      "constant": true,
      "inputs": [],
      "name": "mySentryRating",
      "outputs": [
        {
          "name": "",
          "type": "uint256"
        }
      ],
      "payable": false,
      "stateMutability": "view",
      "type": "function"
    },
    {
      "constant": true,
      "inputs": [],
      "name": "canAttack",
      "outputs": [
        {
          "name": "",
          "type": "bool"
        },
        {
          "name": "",
          "type": "uint256"
        }
      ],
      "payable": false,
      "stateMutability": "view",
      "type": "function"
    },
    {
      "constant": false,
      "inputs": [
        {
          "name": "_targetId",
          "type": "uint256"
        }
      ],
      "name": "attack",
      "outputs": [],
      "payable": false,
      "stateMutability": "nonpayable",
      "type": "function"
    },
    {
      "constant": true,
      "inputs": [
        {
          "name": "_id",
          "type": "uint256"
        }
      ],
      "name": "getBattle",
      "outputs": [
        {
          "name": "",
          "type": "uint256"
        },
        {
          "name": "",
          "type": "uint256"
        },
        {
          "name": "",
          "type": "uint256"
        },
        {
          "name": "",
          "type": "uint256"
        },
        {
          "name": "",
          "type": "uint256"
        },
        {
          "name": "",
          "type": "uint256"
        },
        {
          "name": "",
          "type": "bool"
        }
      ],
      "payable": false,
      "stateMutability": "view",
      "type": "function"
    },
    {
      "constant": true,
      "inputs": [
        {
          "name": "_id",
          "type": "uint256"
        }
      ],
      "name": "getRecentAttacks",
      "outputs": [
        {
          "name": "",
          "type": "uint256[2][5]"
        },
        {
          "name": "",
          "type": "uint256"
        }
      ],
      "payable": false,
      "stateMutability": "view",
      "type": "function"
    },
    {
      "constant": true,
      "inputs": [],
      "name": "getMyRecentAttacks",
      "outputs": [
        {
          "name": "",
          "type": "uint256[2][5]"
        },
        {
          "name": "",
          "type": "uint256"
        }
      ],
      "payable": false,
      "stateMutability": "view",
      "type": "function"
    },
    {
      "constant": true,
      "inputs": [
        {
          "name": "_id",
          "type": "uint256"
        }
      ],
      "name": "getRecent10IncomingAttacks",
      "outputs": [
        {
          "name": "",
          "type": "uint256[2][10]"
        },
        {
          "name": "",
          "type": "uint256"
        }
      ],
      "payable": false,
      "stateMutability": "view",
      "type": "function"
    },
    {
      "constant": true,
      "inputs": [
        {
          "name": "_id",
          "type": "uint256"
        }
      ],
      "name": "getRecent10OutgoingAttacks",
      "outputs": [
        {
          "name": "",
          "type": "uint256[2][10]"
        },
        {
          "name": "",
          "type": "uint256"
        }
      ],
      "payable": false,
      "stateMutability": "view",
      "type": "function"
    },
    {
      "constant": true,
      "inputs": [],
      "name": "getMyRecent10IncomingAttacks",
      "outputs": [
        {
          "name": "",
          "type": "uint256[2][10]"
        },
        {
          "name": "",
          "type": "uint256"
        }
      ],
      "payable": false,
      "stateMutability": "view",
      "type": "function"
    },
    {
      "constant": true,
      "inputs": [],
      "name": "getMyRecent10OutgoingAttacks",
      "outputs": [
        {
          "name": "",
          "type": "uint256[2][10]"
        },
        {
          "name": "",
          "type": "uint256"
        }
      ],
      "payable": false,
      "stateMutability": "view",
      "type": "function"
    },
    {
      "constant": true,
      "inputs": [],
      "name": "canRecruit",
      "outputs": [
        {
          "name": "",
          "type": "bool"
        },
        {
          "name": "",
          "type": "uint256"
        }
      ],
      "payable": false,
      "stateMutability": "view",
      "type": "function"
    },
    {
      "constant": false,
      "inputs": [],
      "name": "recruit",
      "outputs": [],
      "payable": false,
      "stateMutability": "nonpayable",
      "type": "function"
    },
    {
      "constant": false,
      "inputs": [
        {
          "name": "_count",
          "type": "uint256"
        }
      ],
      "name": "trainAttackSpecialists",
      "outputs": [],
      "payable": false,
      "stateMutability": "nonpayable",
      "type": "function"
    },
    {
      "constant": false,
      "inputs": [
        {
          "name": "_count",
          "type": "uint256"
        }
      ],
      "name": "trainDefenseSpecialists",
      "outputs": [],
      "payable": false,
      "stateMutability": "nonpayable",
      "type": "function"
    },
    {
      "constant": false,
      "inputs": [
        {
          "name": "_count",
          "type": "uint256"
        }
      ],
      "name": "trainSpies",
      "outputs": [],
      "payable": false,
      "stateMutability": "nonpayable",
      "type": "function"
    },
    {
      "constant": false,
      "inputs": [
        {
          "name": "_count",
          "type": "uint256"
        }
      ],
      "name": "trainSentries",
      "outputs": [],
      "payable": false,
      "stateMutability": "nonpayable",
      "type": "function"
    },
    {
      "constant": false,
      "inputs": [
        {
          "name": "_count",
          "type": "uint256"
        }
      ],
      "name": "reassignAttackSpecialists",
      "outputs": [],
      "payable": false,
      "stateMutability": "nonpayable",
      "type": "function"
    },
    {
      "constant": false,
      "inputs": [
        {
          "name": "_count",
          "type": "uint256"
        }
      ],
      "name": "reassignDefenseSpecialists",
      "outputs": [],
      "payable": false,
      "stateMutability": "nonpayable",
      "type": "function"
    },
    {
      "constant": false,
      "inputs": [
        {
          "name": "_attackMercsCount",
          "type": "uint256"
        },
        {
          "name": "_defenseMercsCount",
          "type": "uint256"
        }
      ],
      "name": "buyMercs",
      "outputs": [],
      "payable": false,
      "stateMutability": "nonpayable",
      "type": "function"
    }
  ],
  "bytecode": "0x606060405261012c60025561012c60035534156200001c57600080fd5b60405160408062004b808339810160405280805190602001909190805190602001909190505081600160006101000a81548173ffffffffffffffffffffffffffffffffffffffff021916908373ffffffffffffffffffffffffffffffffffffffff160217905550806000806101000a81548173ffffffffffffffffffffffffffffffffffffffff021916908373ffffffffffffffffffffffffffffffffffffffff160217905550620001826040805190810160405280600381526020017f476f6400000000000000000000000000000000000000000000000000000000008152506000608060405190810160405280603260ff168152602001600e60ff168152602001601060ff168152602001600f60ff1681525060a060405190810160405280620f4240815260200162030d40815260200162030d40815260200161271081526020016127108152506000620003076401000000000262003dc4176401000000009004565b50620002406040805190810160405280601081526020017f476f6427732052696768742048616e64000000000000000000000000000000008152506000608060405190810160405280601e60ff168152602001600c60ff168152602001600e60ff168152602001600a60ff1681525060a060405190810160405280620186a08152602001614e208152602001614e2081526020016103e881526020016103e88152506000620003076401000000000262003dc4176401000000009004565b50620002fe6040805190810160405280600f81526020017f476f642773204c6566742048616e6400000000000000000000000000000000008152506000608060405190810160405280601e60ff168152602001600c60ff168152602001600e60ff168152602001600a60ff1681525060a060405190810160405280620186a08152602001614e208152602001614e2081526020016103e881526020016103e88152506000620003076401000000000262003dc4176401000000009004565b5050506200071b565b600080600080600160009054906101000a900473ffffffffffffffffffffffffffffffffffffffff1692506000809054906101000a900473ffffffffffffffffffffffffffffffffffffffff1691508273ffffffffffffffffffffffffffffffffffffffff1663a14eb8588989886000604051602001526040518463ffffffff167c0100000000000000000000000000000000000000000000000000000000028152600401808460ff1660ff16815260200183600460200280838360005b83811015620003e2578082015181840152602081019050620003c5565b505050509050018281526020019350505050602060405180830381600087803b15156200040e57600080fd5b6102c65a03f115156200042057600080fd5b5050506040518051905090508173ffffffffffffffffffffffffffffffffffffffff166370e5461c876000604051602001526040518263ffffffff167c01000000000000000000000000000000000000000000000000000000000281526004018082600560200280838360005b83811015620004aa5780820151818401526020810190506200048d565b50505050905001915050602060405180830381600087803b1515620004ce57600080fd5b6102c65a03f11515620004e057600080fd5b505050604051805190505088600660008381526020019081526020016000209080519060200190620005149291906200066c565b50336005600083815260200190815260200160002060006101000a81548173ffffffffffffffffffffffffffffffffffffffff021916908373ffffffffffffffffffffffffffffffffffffffff16021790555080600460003373ffffffffffffffffffffffffffffffffffffffff1673ffffffffffffffffffffffffffffffffffffffff168152602001908152602001600020819055507f8903d00f136209d2fb29b581df936c8cbc1f7f2f70aafe69e061eff9527d7cbd818a8a60405180848152602001806020018360ff168152602001828103825284818151815260200191508051906020019080838360005b838110156200062057808201518184015260208101905062000603565b50505050905090810190601f1680156200064e5780820380516001836020036101000a031916815260200191505b5094505050505060405180910390a180935050505095945050505050565b828054600181600116156101000203166002900490600052602060002090601f016020900481019282601f10620006af57805160ff1916838001178555620006e0565b82800160010185558215620006e0579182015b82811115620006df578251825591602001919060010190620006c2565b5b509050620006ef9190620006f3565b5090565b6200071891905b8082111562000714576000816000905550600101620006fa565b5090565b90565b614455806200072b6000396000f300606060405260043610610203576000357c0100000000000000000000000000000000000000000000000000000000900463ffffffff16806270379b1461020857806305ddb4e01461022b5780630b8d16d5146102a35780630eb70db1146103fc5780631758f5221461043757806318070857146104665780631e7d65581461048f578063214d23c8146104a457806326275974146104b957806339925477146105425780634afecfd4146105655780635c30d3511461058b57806364dd891a146105b4578063689f8c5c146105d75780636a0f5440146105ec5780636dd0ce7a146106205780637f8680ab1461068557806383725bf7146107d057806384d2d4be146107e55780638c56c5f81461086e5780638d9c842f146108975780638e406072146108ba57806394bff991146108e3578063a153d9181461096c578063acff8da514610995578063b791d78e14610a10578063cbfc956514610a33578063cdf55f8b14610a62578063d644cb1d14610a96578063d99b587614610ab9578063de73ea1914610b23578063e42e638814610b9e578063e5dcdf9b14610bb3578063e7711dde14610bdc578063e969546d14610bff578063e997f20714610c22578063eaf5839214610c8c578063ed5b7e5e14610d0f578063f2ed2dff14610d60578063f328dbbb14610d8d578063f46410bb14610e08578063fd314c3c14610e43575b600080fd5b341561021357600080fd5b6102296004808035906020019091905050610e6f565b005b341561023657600080fd5b61024c6004808035906020019091905050610fb5565b6040518080602001828103825283818151815260200191508051906020019060200280838360005b8381101561028f578082015181840152602081019050610274565b505050509050019250505060405180910390f35b34156102ae57600080fd5b6102c46004808035906020019091905050611252565b60405180806020018860ff1660ff16815260200187600460200280838360005b838110156102ff5780820151818401526020810190506102e4565b505050509050018681526020018581526020018481526020018060200183810383528a818151815260200191508051906020019080838360005b83811015610354578082015181840152602081019050610339565b50505050905090810190601f1680156103815780820380516001836020036101000a031916815260200191505b50838103825284818151815260200191508051906020019080838360005b838110156103ba57808201518184015260208101905061039f565b50505050905090810190601f1680156103e75780820380516001836020036101000a031916815260200191505b50995050505050505050505060405180910390f35b341561040757600080fd5b61041d60048080359060200190919050506114e1565b604051808215151515815260200191505060405180910390f35b341561044257600080fd5b61044a6115ea565b604051808260ff1660ff16815260200191505060405180910390f35b341561047157600080fd5b61047961169f565b6040518082815260200191505060405180910390f35b341561049a57600080fd5b6104a2611702565b005b34156104af57600080fd5b6104b7611829565b005b34156104c457600080fd5b6104da6004808035906020019091905050611950565b6040518083600a6000925b8184101561052b5782846020020151600260200280838360005b8381101561051a5780820151818401526020810190506104ff565b5050505090500192600101926104e5565b925050508281526020019250505060405180910390f35b341561054d57600080fd5b6105636004808035906020019091905050611a3b565b005b341561057057600080fd5b610589600480803560ff16906020019091905050611b81565b005b341561059657600080fd5b61059e611cc2565b6040518082815260200191505060405180910390f35b34156105bf57600080fd5b6105d56004808035906020019091905050611d25565b005b34156105e257600080fd5b6105ea611fba565b005b34156105f757600080fd5b6105ff6121f2565b60405180831515151581526020018281526020019250505060405180910390f35b341561062b57600080fd5b6106416004808035906020019091905050612279565b604051808881526020018781526020018681526020018581526020018481526020018381526020018215151515815260200197505050505050505060405180910390f35b341561069057600080fd5b6106986122ee565b60405180806020018860ff1660ff16815260200187600460200280838360005b838110156106d35780820151818401526020810190506106b8565b505050509050018681526020018581526020018481526020018060200183810383528a818151815260200191508051906020019080838360005b8381101561072857808201518184015260208101905061070d565b50505050905090810190601f1680156107555780820380516001836020036101000a031916815260200191505b50838103825284818151815260200191508051906020019080838360005b8381101561078e578082015181840152602081019050610773565b50505050905090810190601f1680156107bb5780820380516001836020036101000a031916815260200191505b50995050505050505050505060405180910390f35b34156107db57600080fd5b6107e3612381565b005b34156107f057600080fd5b61080660048080359060200190919050506124a8565b6040518083600a6000925b818410156108575782846020020151600260200280838360005b8381101561084657808201518184015260208101905061082b565b505050509050019260010192610811565b925050508281526020019250505060405180910390f35b341561087957600080fd5b610881612593565b6040518082815260200191505060405180910390f35b34156108a257600080fd5b6108b860048080359060200190919050506125f6565b005b34156108c557600080fd5b6108cd61272e565b6040518082815260200191505060405180910390f35b34156108ee57600080fd5b61090460048080359060200190919050506127e3565b604051808360056000925b818410156109555782846020020151600260200280838360005b83811015610944578082015181840152602081019050610929565b50505050905001926001019261090f565b925050508281526020019250505060405180910390f35b341561097757600080fd5b61097f6128cf565b6040518082815260200191505060405180910390f35b34156109a057600080fd5b6109a8612932565b604051808360056000925b818410156109f95782846020020151600260200280838360005b838110156109e85780820151818401526020810190506109cd565b5050505090500192600101926109b3565b925050508281526020019250505060405180910390f35b3415610a1b57600080fd5b610a3160048080359060200190919050506129a0565b005b3415610a3e57600080fd5b610a46612ae6565b604051808260ff1660ff16815260200191505060405180910390f35b3415610a6d57600080fd5b610a75612b9b565b60405180831515151581526020018281526020019250505060405180910390f35b3415610aa157600080fd5b610ab76004808035906020019091905050612c36565b005b3415610ac457600080fd5b610acc612d7c565b6040518080602001828103825283818151815260200191508051906020019060200280838360005b83811015610b0f578082015181840152602081019050610af4565b505050509050019250505060405180910390f35b3415610b2e57600080fd5b610b36612de6565b6040518083600a6000925b81841015610b875782846020020151600260200280838360005b83811015610b76578082015181840152602081019050610b5b565b505050509050019260010192610b41565b925050508281526020019250505060405180910390f35b3415610ba957600080fd5b610bb1612e54565b005b3415610bbe57600080fd5b610bc6612f84565b6040518082815260200191505060405180910390f35b3415610be757600080fd5b610bfd6004808035906020019091905050612fcb565b005b3415610c0a57600080fd5b610c206004808035906020019091905050613111565b005b3415610c2d57600080fd5b610c436004808035906020019091905050613257565b604051808315151515815260200182600760200280838360005b83811015610c78578082015181840152602081019050610c5d565b505050509050019250505060405180910390f35b3415610c9757600080fd5b610cf9600480803590602001908201803590602001908080601f01602080910402602001604051908101604052809392919081815260200183838082843782019150505050505091908035906020019091908035906020019091905050613432565b6040518082815260200191505060405180910390f35b3415610d1a57600080fd5b610d22613511565b6040518082600760200280838360005b83811015610d4d578082015181840152602081019050610d32565b5050505090500191505060405180910390f35b3415610d6b57600080fd5b610d7361357b565b604051808215151515815260200191505060405180910390f35b3415610d9857600080fd5b610da06135c4565b6040518083600a6000925b81841015610df15782846020020151600260200280838360005b83811015610de0578082015181840152602081019050610dc5565b505050509050019260010192610dab565b925050508281526020019250505060405180910390f35b3415610e1357600080fd5b610e296004808035906020019091905050613632565b604051808215151515815260200191505060405180910390f35b3415610e4e57600080fd5b610e6d600480803590602001909190803590602001909190505061367d565b005b600080600460003373ffffffffffffffffffffffffffffffffffffffff1673ffffffffffffffffffffffffffffffffffffffff168152602001908152602001600020549150600082111515610ec357600080fd5b6000809054906101000a900473ffffffffffffffffffffffffffffffffffffffff1690508073ffffffffffffffffffffffffffffffffffffffff1663de4c2d9583856040518363ffffffff167c01000000000000000000000000000000000000000000000000000000000281526004018083815260200182815260200192505050600060405180830381600087803b1515610f5d57600080fd5b6102c65a03f11515610f6e57600080fd5b5050507fa69a32d5b1ceff1703230cea48ee9c074ec2703823d3f2529c0c711510d6e8568284604051808381526020018281526020019250505060405180910390a1505050565b610fbd6141e7565b6000806000806000610fcd6141e7565b6000600160009054906101000a900473ffffffffffffffffffffffffffffffffffffffff1696508673ffffffffffffffffffffffffffffffffffffffff166390559afe8a6000604051602001526040518263ffffffff167c010000000000000000000000000000000000000000000000000000000002815260040180828152602001915050602060405180830381600087803b151561106b57600080fd5b6102c65a03f1151561107c57600080fd5b50505060405180519050955060008614156110b85760006040518059106110a05750595b90808252806020026020018201604052509750611246565b8673ffffffffffffffffffffffffffffffffffffffff16638e4060726000604051602001526040518163ffffffff167c0100000000000000000000000000000000000000000000000000000000028152600401602060405180830381600087803b151561112457600080fd5b6102c65a03f1151561113557600080fd5b50505060405180519050935060009250856040518059106111535750595b90808252806020026020018201604052509150600094505b83851015611242578673ffffffffffffffffffffffffffffffffffffffff16631c741728866000604051602001526040518263ffffffff167c010000000000000000000000000000000000000000000000000000000002815260040180828152602001915050602060405180830381600087803b15156111ea57600080fd5b6102c65a03f115156111fb57600080fd5b505050604051805190509050888114156112355784828481518110151561121e57fe5b906020019060200201818152505082806001019350505b848060010195505061116b565b8197505b50505050505050919050565b61125a6141fb565b600061126461420f565b60008060006112716141fb565b60008061127c61420f565b6000806000600160009054906101000a900473ffffffffffffffffffffffffffffffffffffffff1695508573ffffffffffffffffffffffffffffffffffffffff16630b8d16d58f600060405161010001526040518263ffffffff167c01000000000000000000000000000000000000000000000000000000000281526004018082815260200191505061010060405180830381600087803b151561131f57600080fd5b6102c65a03f1151561133057600080fd5b5050506040518051906020018060800180519060200180519060200180519060200160405294509450945094509450600660008f8152602001908152602001600020858585858560066000888152602001908152602001600020868054600181600116156101000203166002900480601f01602080910402602001604051908101604052809291908181526020018280546001816001161561010002031660029004801561141f5780601f106113f45761010080835404028352916020019161141f565b820191906000526020600020905b81548152906001019060200180831161140257829003601f168201915b50505050509650808054600181600116156101000203166002900480601f0160208091040260200160405190810160405280929190818152602001828054600181600116156101000203166002900480156114bb5780601f10611490576101008083540402835291602001916114bb565b820191906000526020600020905b81548152906001019060200180831161149e57829003601f168201915b505050505090509c509c509c509c509c509c509c50505050505050919395979092949650565b600080600160009054906101000a900473ffffffffffffffffffffffffffffffffffffffff1690508073ffffffffffffffffffffffffffffffffffffffff16630af124e1600460003373ffffffffffffffffffffffffffffffffffffffff1673ffffffffffffffffffffffffffffffffffffffff16815260200190815260200160002054856000604051602001526040518363ffffffff167c01000000000000000000000000000000000000000000000000000000000281526004018083815260200182815260200192505050602060405180830381600087803b15156115c757600080fd5b6102c65a03f115156115d857600080fd5b50505060405180519050915050919050565b600080600160009054906101000a900473ffffffffffffffffffffffffffffffffffffffff1690508073ffffffffffffffffffffffffffffffffffffffff16631758f5226000604051602001526040518163ffffffff167c0100000000000000000000000000000000000000000000000000000000028152600401602060405180830381600087803b151561167e57600080fd5b6102c65a03f1151561168f57600080fd5b5050506040518051905091505090565b600080600460003373ffffffffffffffffffffffffffffffffffffffff1673ffffffffffffffffffffffffffffffffffffffff1681526020019081526020016000205490506000811115156116f357600080fd5b6116fc816137d4565b91505090565b600080600460003373ffffffffffffffffffffffffffffffffffffffff1673ffffffffffffffffffffffffffffffffffffffff168152602001908152602001600020549150600160009054906101000a900473ffffffffffffffffffffffffffffffffffffffff1690508073ffffffffffffffffffffffffffffffffffffffff1663a7b6c247836040518263ffffffff167c010000000000000000000000000000000000000000000000000000000002815260040180828152602001915050600060405180830381600087803b15156117da57600080fd5b6102c65a03f115156117eb57600080fd5b5050507fb55304a310da80d9b98f25735a449c647586d825fc53c236f635a94fd50fd288826040518082815260200191505060405180910390a15050565b600080600460003373ffffffffffffffffffffffffffffffffffffffff1673ffffffffffffffffffffffffffffffffffffffff168152602001908152602001600020549150600160009054906101000a900473ffffffffffffffffffffffffffffffffffffffff1690508073ffffffffffffffffffffffffffffffffffffffff1663b7d430c5836040518263ffffffff167c010000000000000000000000000000000000000000000000000000000002815260040180828152602001915050600060405180830381600087803b151561190157600080fd5b6102c65a03f1151561191257600080fd5b5050507ffbb0cc8e224bf162338834aa313eea24a582c2449160d4e16fd2b2adb87bb111826040518082815260200191505060405180910390a15050565b61195861423a565b600061196261423a565b600080600080925060098054905091505b6000821180156119835750600a83105b15611a2c5760096001830381548110151561199a57fe5b906000526020600020906008020190508681600101541415611a1e57806000015442038484600a811015156119cb57fe5b602002015160006002811015156119de57fe5b602002018181525050600182038484600a811015156119f957fe5b60200201516001600281101515611a0c57fe5b60200201818152505082806001019350505b818060019003925050611973565b83839550955050505050915091565b600080600460003373ffffffffffffffffffffffffffffffffffffffff1673ffffffffffffffffffffffffffffffffffffffff168152602001908152602001600020549150600082111515611a8f57600080fd5b6000809054906101000a900473ffffffffffffffffffffffffffffffffffffffff1690508073ffffffffffffffffffffffffffffffffffffffff1663ddb7737083856040518363ffffffff167c01000000000000000000000000000000000000000000000000000000000281526004018083815260200182815260200192505050600060405180830381600087803b1515611b2957600080fd5b6102c65a03f11515611b3a57600080fd5b5050507f8dab6851fd136f28222d7e45ef390b5b993c76b489f265025a71b42526ef236d8284604051808381526020018281526020019250505060405180910390a1505050565b600080600460003373ffffffffffffffffffffffffffffffffffffffff1673ffffffffffffffffffffffffffffffffffffffff168152602001908152602001600020549150600160009054906101000a900473ffffffffffffffffffffffffffffffffffffffff1690508073ffffffffffffffffffffffffffffffffffffffff16631ea1f20283856040518363ffffffff167c0100000000000000000000000000000000000000000000000000000000028152600401808381526020018260ff1660ff16815260200192505050600060405180830381600087803b1515611c6757600080fd5b6102c65a03f11515611c7857600080fd5b5050507f494533cfa69cc2f1377bca17dc57558a0d219c115ebb8381db649ebe557f70b88284604051808381526020018260ff1681526020019250505060405180910390a1505050565b600080600460003373ffffffffffffffffffffffffffffffffffffffff1673ffffffffffffffffffffffffffffffffffffffff168152602001908152602001600020549050600081111515611d1657600080fd5b611d1f81613950565b91505090565b600080600080600080600080600460003373ffffffffffffffffffffffffffffffffffffffff1673ffffffffffffffffffffffffffffffffffffffff168152602001908152602001600020549750600088118015611d835750888814155b1515611d8e57600080fd5b600354600860008a8152602001908152602001600020544203111515611db357600080fd5b611dbc886137d4565b9650611dc789613acc565b955060009450600093508587119250600160098054806001018281611dec9190614269565b91600052602060002090600802016000610100604051908101604052804281526020018d81526020018e81526020018c81526020018b81526020018a81526020018981526020018815158152509091909150600082015181600001556020820151816001015560408201518160020155606082015181600301556080820151816004015560a0820151816005015560c0820151816006015560e08201518160070160006101000a81548160ff02191690831515021790555050500391508215611f6057600160009054906101000a900473ffffffffffffffffffffffffffffffffffffffff1690508073ffffffffffffffffffffffffffffffffffffffff1663953b6a918960646040518363ffffffff167c01000000000000000000000000000000000000000000000000000000000281526004018083815260200182815260200192505050600060405180830381600087803b1515611f4b57600080fd5b6102c65a03f11515611f5c57600080fd5b5050505b42600860008a8152602001908152602001600020819055507f2698d75f814df009b510df39d03c901a6e830c6dfd50922c8fe6bbb794967843826040518082815260200191505060405180910390a1505050505050505050565b600080600080600460003373ffffffffffffffffffffffffffffffffffffffff1673ffffffffffffffffffffffffffffffffffffffff16815260200190815260200160002054935060008411151561201157600080fd5b6002546007600086815260200190815260200160002054420311151561203657600080fd5b600160009054906101000a900473ffffffffffffffffffffffffffffffffffffffff1692506000809054906101000a900473ffffffffffffffffffffffffffffffffffffffff1691508273ffffffffffffffffffffffffffffffffffffffff166390559afe856000604051602001526040518263ffffffff167c010000000000000000000000000000000000000000000000000000000002815260040180828152602001915050602060405180830381600087803b15156120f657600080fd5b6102c65a03f1151561210757600080fd5b5050506040518051905090508173ffffffffffffffffffffffffffffffffffffffff1663b31c9cc885836040518363ffffffff167c01000000000000000000000000000000000000000000000000000000000281526004018083815260200182815260200192505050600060405180830381600087803b151561218957600080fd5b6102c65a03f1151561219a57600080fd5b5050504260076000868152602001908152602001600020819055507f60e7be082d1721960e15a9ebd82c9f2e704d97b328525ff70a15e402f40410fb846040518082815260200191505060405180910390a150505050565b600080600060076000600460003373ffffffffffffffffffffffffffffffffffffffff1673ffffffffffffffffffffffffffffffffffffffff1681526020019081526020016000205481526020019081526020016000205442039050600254811115612268576001600080905092509250612274565b60008160025403925092505b509091565b60008060008060008060008060098981548110151561229457fe5b906000526020600020906008020190508060010154816002015482600301548360040154846005015485600601548660070160009054906101000a900460ff16975097509750975097509750975050919395979092949650565b6122f66141fb565b600061230061420f565b600080600061230d6141fb565b6000600460003373ffffffffffffffffffffffffffffffffffffffff1673ffffffffffffffffffffffffffffffffffffffff16815260200190815260200160002054905060008111151561236057600080fd5b61236981611252565b97509750975097509750975097505090919293949596565b600080600460003373ffffffffffffffffffffffffffffffffffffffff1673ffffffffffffffffffffffffffffffffffffffff168152602001908152602001600020549150600160009054906101000a900473ffffffffffffffffffffffffffffffffffffffff1690508073ffffffffffffffffffffffffffffffffffffffff16637e0b9059836040518263ffffffff167c010000000000000000000000000000000000000000000000000000000002815260040180828152602001915050600060405180830381600087803b151561245957600080fd5b6102c65a03f1151561246a57600080fd5b5050507f1d64da29bd21ffd27835aa0a72c425cae124d6b07842499352282d93227aeb76826040518082815260200191505060405180910390a15050565b6124b061423a565b60006124ba61423a565b600080600080925060098054905091505b6000821180156124db5750600a83105b15612584576009600183038154811015156124f257fe5b90600052602060002090600802019050868160020154141561257657806000015442038484600a8110151561252357fe5b6020020151600060028110151561253657fe5b602002018181525050600182038484600a8110151561255157fe5b6020020151600160028110151561256457fe5b60200201818152505082806001019350505b8180600190039250506124cb565b83839550955050505050915091565b600080600460003373ffffffffffffffffffffffffffffffffffffffff1673ffffffffffffffffffffffffffffffffffffffff1681526020019081526020016000205490506000811115156125e757600080fd5b6125f081613c48565b91505090565b600080600460003373ffffffffffffffffffffffffffffffffffffffff1673ffffffffffffffffffffffffffffffffffffffff168152602001908152602001600020549150600160009054906101000a900473ffffffffffffffffffffffffffffffffffffffff1690508073ffffffffffffffffffffffffffffffffffffffff1663d27a783483856040518363ffffffff167c01000000000000000000000000000000000000000000000000000000000281526004018083815260200182815260200192505050600060405180830381600087803b15156126d657600080fd5b6102c65a03f115156126e757600080fd5b5050507f6656648d38e5e0c3fee01e298d927bf08e1f558de201fe28d11e710a6e9802068284604051808381526020018281526020019250505060405180910390a1505050565b600080600160009054906101000a900473ffffffffffffffffffffffffffffffffffffffff1690508073ffffffffffffffffffffffffffffffffffffffff16638e4060726000604051602001526040518163ffffffff167c0100000000000000000000000000000000000000000000000000000000028152600401602060405180830381600087803b15156127c257600080fd5b6102c65a03f115156127d357600080fd5b5050506040518051905091505090565b6127eb61429b565b60006127f561429b565b600080600080925060098054905091505b6000821180156128165750600583105b156128c05760096001830381548110151561282d57fe5b9060005260206000209060080201905086816002015414156128b25780600001544203848460058110151561285e57fe5b6020020151600060028110151561287157fe5b6020020181815250508060010154848460058110151561288d57fe5b602002015160016002811015156128a057fe5b60200201818152505082806001019350505b818060019003925050612806565b83839550955050505050915091565b600080600460003373ffffffffffffffffffffffffffffffffffffffff1673ffffffffffffffffffffffffffffffffffffffff16815260200190815260200160002054905060008111151561292357600080fd5b61292c81613acc565b91505090565b61293a61429b565b600080600460003373ffffffffffffffffffffffffffffffffffffffff1673ffffffffffffffffffffffffffffffffffffffff16815260200190815260200160002054905060008111151561298e57600080fd5b612997816127e3565b92509250509091565b600080600460003373ffffffffffffffffffffffffffffffffffffffff1673ffffffffffffffffffffffffffffffffffffffff1681526020019081526020016000205491506000821115156129f457600080fd5b6000809054906101000a900473ffffffffffffffffffffffffffffffffffffffff1690508073ffffffffffffffffffffffffffffffffffffffff1663f1b873ff83856040518363ffffffff167c01000000000000000000000000000000000000000000000000000000000281526004018083815260200182815260200192505050600060405180830381600087803b1515612a8e57600080fd5b6102c65a03f11515612a9f57600080fd5b5050507f4de8168c5f461e6eb205fe057f7a12ed755d098c0708bef0ea8875a035bc46b68284604051808381526020018281526020019250505060405180910390a1505050565b600080600160009054906101000a900473ffffffffffffffffffffffffffffffffffffffff1690508073ffffffffffffffffffffffffffffffffffffffff1663cbfc95656000604051602001526040518163ffffffff167c0100000000000000000000000000000000000000000000000000000000028152600401602060405180830381600087803b1515612b7a57600080fd5b6102c65a03f11515612b8b57600080fd5b5050506040518051905091505090565b600080600080600460003373ffffffffffffffffffffffffffffffffffffffff1673ffffffffffffffffffffffffffffffffffffffff168152602001908152602001600020549150600082111515612bf257600080fd5b600860008381526020019081526020016000205442039050600354811115612c24576001600080905093509350612c30565b60008160035403935093505b50509091565b600080600460003373ffffffffffffffffffffffffffffffffffffffff1673ffffffffffffffffffffffffffffffffffffffff168152602001908152602001600020549150600082111515612c8a57600080fd5b6000809054906101000a900473ffffffffffffffffffffffffffffffffffffffff1690508073ffffffffffffffffffffffffffffffffffffffff1663cf0e0af883856040518363ffffffff167c01000000000000000000000000000000000000000000000000000000000281526004018083815260200182815260200192505050600060405180830381600087803b1515612d2457600080fd5b6102c65a03f11515612d3557600080fd5b5050507fc67b48cb7fe654bbff71b7cf0af383327db7f9c7791b69b6f43f0487de584b1b8284604051808381526020018281526020019250505060405180910390a1505050565b612d846141e7565b6000600460003373ffffffffffffffffffffffffffffffffffffffff1673ffffffffffffffffffffffffffffffffffffffff168152602001908152602001600020549050600081111515612dd757600080fd5b612de081610fb5565b91505090565b612dee61423a565b600080600460003373ffffffffffffffffffffffffffffffffffffffff1673ffffffffffffffffffffffffffffffffffffffff168152602001908152602001600020549050600081111515612e4257600080fd5b612e4b81611950565b92509250509091565b600080600460003373ffffffffffffffffffffffffffffffffffffffff1673ffffffffffffffffffffffffffffffffffffffff168152602001908152602001600020549150600160009054906101000a900473ffffffffffffffffffffffffffffffffffffffff1690508073ffffffffffffffffffffffffffffffffffffffff1663bf788666836040518263ffffffff167c010000000000000000000000000000000000000000000000000000000002815260040180828152602001915050600060405180830381600087803b1515612f2c57600080fd5b6102c65a03f11515612f3d57600080fd5b5050507f6656648d38e5e0c3fee01e298d927bf08e1f558de201fe28d11e710a6e980206826000604051808381526020018281526020019250505060405180910390a15050565b6000600460003373ffffffffffffffffffffffffffffffffffffffff1673ffffffffffffffffffffffffffffffffffffffff16815260200190815260200160002054905090565b600080600460003373ffffffffffffffffffffffffffffffffffffffff1673ffffffffffffffffffffffffffffffffffffffff16815260200190815260200160002054915060008211151561301f57600080fd5b6000809054906101000a900473ffffffffffffffffffffffffffffffffffffffff1690508073ffffffffffffffffffffffffffffffffffffffff16639502f7d383856040518363ffffffff167c01000000000000000000000000000000000000000000000000000000000281526004018083815260200182815260200192505050600060405180830381600087803b15156130b957600080fd5b6102c65a03f115156130ca57600080fd5b5050507f298f72ff5878642622d1b6189cf8abc10cfa20471bc3fb0ccc3e28ff74e24d238284604051808381526020018281526020019250505060405180910390a1505050565b600080600460003373ffffffffffffffffffffffffffffffffffffffff1673ffffffffffffffffffffffffffffffffffffffff16815260200190815260200160002054915060008211151561316557600080fd5b6000809054906101000a900473ffffffffffffffffffffffffffffffffffffffff1690508073ffffffffffffffffffffffffffffffffffffffff16639932488283856040518363ffffffff167c01000000000000000000000000000000000000000000000000000000000281526004018083815260200182815260200192505050600060405180830381600087803b15156131ff57600080fd5b6102c65a03f1151561321057600080fd5b5050507f7612ba9bfbe68a6f136ea75f615a5b3eb755c8a4e66e32d678e92ba9016a51618284604051808381526020018281526020019250505060405180910390a1505050565b60006132616142ca565b600080600460003373ffffffffffffffffffffffffffffffffffffffff1673ffffffffffffffffffffffffffffffffffffffff1681526020019081526020016000205491506000821115156132b557600080fd5b6000809054906101000a900473ffffffffffffffffffffffffffffffffffffffff169050848214156133815760018173ffffffffffffffffffffffffffffffffffffffff16634ec4bb8887600060405160e001526040518263ffffffff167c01000000000000000000000000000000000000000000000000000000000281526004018082815260200191505060e060405180830381600087803b151561335a57600080fd5b6102c65a03f1151561336b57600080fd5b5050506040518060e0016040529350935061342b565b8073ffffffffffffffffffffffffffffffffffffffff16639572e0338387600060405161010001526040518363ffffffff167c0100000000000000000000000000000000000000000000000000000000028152600401808381526020018281526020019250505061010060405180830381600087803b151561340257600080fd5b6102c65a03f1151561341357600080fd5b5050506040518051906020018060e001604052935093505b5050915091565b600080600460003373ffffffffffffffffffffffffffffffffffffffff1673ffffffffffffffffffffffffffffffffffffffff1681526020019081526020016000205414151561348157600080fd5b60018310158015613493575060058311155b151561349e57600080fd5b6135088484608060405190810160405280600160ff168152602001600060ff168152602001600060ff168152602001600060ff1681525060a06040519081016040528060008152602001600081526020016000815260200160008152602001600081525086613dc4565b90509392505050565b6135196142ca565b6000600460003373ffffffffffffffffffffffffffffffffffffffff1673ffffffffffffffffffffffffffffffffffffffff16815260200190815260200160002054905060008111151561356c57600080fd5b6135758161411c565b91505090565b600080600460003373ffffffffffffffffffffffffffffffffffffffff1673ffffffffffffffffffffffffffffffffffffffff1681526020019081526020016000205411905090565b6135cc61423a565b600080600460003373ffffffffffffffffffffffffffffffffffffffff1673ffffffffffffffffffffffffffffffffffffffff16815260200190815260200160002054905060008111151561362057600080fd5b613629816124a8565b92509250509091565b600081600460003373ffffffffffffffffffffffffffffffffffffffff1673ffffffffffffffffffffffffffffffffffffffff16815260200190815260200160002054149050919050565b600080600460003373ffffffffffffffffffffffffffffffffffffffff1673ffffffffffffffffffffffffffffffffffffffff1681526020019081526020016000205491506000821115156136d157600080fd5b6000809054906101000a900473ffffffffffffffffffffffffffffffffffffffff1690508073ffffffffffffffffffffffffffffffffffffffff1663cc3bf17c8386866040518463ffffffff167c0100000000000000000000000000000000000000000000000000000000028152600401808481526020018381526020018281526020019350505050600060405180830381600087803b151561377357600080fd5b6102c65a03f1151561378457600080fd5b5050507f9e3e3d89cd4687ecd28dc092ba8e4097b70b2766695928f7880afb4b60d0934882858560405180848152602001838152602001828152602001935050505060405180910390a150505050565b6000806000600160009054906101000a900473ffffffffffffffffffffffffffffffffffffffff1691506000809054906101000a900473ffffffffffffffffffffffffffffffffffffffff1690508173ffffffffffffffffffffffffffffffffffffffff16631185f5af856000604051602001526040518263ffffffff167c010000000000000000000000000000000000000000000000000000000002815260040180828152602001915050602060405180830381600087803b151561389957600080fd5b6102c65a03f115156138aa57600080fd5b505050604051805190508173ffffffffffffffffffffffffffffffffffffffff16631185f5af866000604051602001526040518263ffffffff167c010000000000000000000000000000000000000000000000000000000002815260040180828152602001915050602060405180830381600087803b151561392b57600080fd5b6102c65a03f1151561393c57600080fd5b505050604051805190500292505050919050565b6000806000600160009054906101000a900473ffffffffffffffffffffffffffffffffffffffff1691506000809054906101000a900473ffffffffffffffffffffffffffffffffffffffff1690508173ffffffffffffffffffffffffffffffffffffffff16630ca62a8a856000604051602001526040518263ffffffff167c010000000000000000000000000000000000000000000000000000000002815260040180828152602001915050602060405180830381600087803b1515613a1557600080fd5b6102c65a03f11515613a2657600080fd5b505050604051805190508173ffffffffffffffffffffffffffffffffffffffff16630ca62a8a866000604051602001526040518263ffffffff167c010000000000000000000000000000000000000000000000000000000002815260040180828152602001915050602060405180830381600087803b1515613aa757600080fd5b6102c65a03f11515613ab857600080fd5b505050604051805190500292505050919050565b6000806000600160009054906101000a900473ffffffffffffffffffffffffffffffffffffffff1691506000809054906101000a900473ffffffffffffffffffffffffffffffffffffffff1690508173ffffffffffffffffffffffffffffffffffffffff1663daa37847856000604051602001526040518263ffffffff167c010000000000000000000000000000000000000000000000000000000002815260040180828152602001915050602060405180830381600087803b1515613b9157600080fd5b6102c65a03f11515613ba257600080fd5b505050604051805190508173ffffffffffffffffffffffffffffffffffffffff1663daa37847866000604051602001526040518263ffffffff167c010000000000000000000000000000000000000000000000000000000002815260040180828152602001915050602060405180830381600087803b1515613c2357600080fd5b6102c65a03f11515613c3457600080fd5b505050604051805190500292505050919050565b6000806000600160009054906101000a900473ffffffffffffffffffffffffffffffffffffffff1691506000809054906101000a900473ffffffffffffffffffffffffffffffffffffffff1690508173ffffffffffffffffffffffffffffffffffffffff1663fca1efec856000604051602001526040518263ffffffff167c010000000000000000000000000000000000000000000000000000000002815260040180828152602001915050602060405180830381600087803b1515613d0d57600080fd5b6102c65a03f11515613d1e57600080fd5b505050604051805190508173ffffffffffffffffffffffffffffffffffffffff1663fca1efec866000604051602001526040518263ffffffff167c010000000000000000000000000000000000000000000000000000000002815260040180828152602001915050602060405180830381600087803b1515613d9f57600080fd5b6102c65a03f11515613db057600080fd5b505050604051805190500292505050919050565b600080600080600160009054906101000a900473ffffffffffffffffffffffffffffffffffffffff1692506000809054906101000a900473ffffffffffffffffffffffffffffffffffffffff1691508273ffffffffffffffffffffffffffffffffffffffff1663a14eb8588989886000604051602001526040518463ffffffff167c0100000000000000000000000000000000000000000000000000000000028152600401808460ff1660ff16815260200183600460200280838360005b83811015613e9d578082015181840152602081019050613e82565b505050509050018281526020019350505050602060405180830381600087803b1515613ec857600080fd5b6102c65a03f11515613ed957600080fd5b5050506040518051905090508173ffffffffffffffffffffffffffffffffffffffff166370e5461c876000604051602001526040518263ffffffff167c01000000000000000000000000000000000000000000000000000000000281526004018082600560200280838360005b83811015613f61578082015181840152602081019050613f46565b50505050905001915050602060405180830381600087803b1515613f8457600080fd5b6102c65a03f11515613f9557600080fd5b505050604051805190505088600660008381526020019081526020016000209080519060200190613fc79291906142f2565b50336005600083815260200190815260200160002060006101000a81548173ffffffffffffffffffffffffffffffffffffffff021916908373ffffffffffffffffffffffffffffffffffffffff16021790555080600460003373ffffffffffffffffffffffffffffffffffffffff1673ffffffffffffffffffffffffffffffffffffffff168152602001908152602001600020819055507f8903d00f136209d2fb29b581df936c8cbc1f7f2f70aafe69e061eff9527d7cbd818a8a60405180848152602001806020018360ff168152602001828103825284818151815260200191508051906020019080838360005b838110156140d15780820151818401526020810190506140b6565b50505050905090810190601f1680156140fe5780820380516001836020036101000a031916815260200191505b5094505050505060405180910390a180935050505095945050505050565b6141246142ca565b60008060009054906101000a900473ffffffffffffffffffffffffffffffffffffffff1690508073ffffffffffffffffffffffffffffffffffffffff16634ec4bb8884600060405160e001526040518263ffffffff167c01000000000000000000000000000000000000000000000000000000000281526004018082815260200191505060e060405180830381600087803b15156141c157600080fd5b6102c65a03f115156141d257600080fd5b5050506040518060e001604052915050919050565b602060405190810160405280600081525090565b602060405190810160405280600081525090565b6080604051908101604052806004905b600060ff1681526020019060019003908161421f5790505090565b61028060405190810160405280600a905b614253614372565b81526020019060019003908161424b5790505090565b815481835581811511614296576008028160080283600052602060002091820191016142959190614399565b5b505050565b610140604051908101604052806005905b6142b4614372565b8152602001906001900390816142ac5790505090565b60e0604051908101604052806007905b60008152602001906001900390816142da5790505090565b828054600181600116156101000203166002900490600052602060002090601f016020900481019282601f1061433357805160ff1916838001178555614361565b82800160010185558215614361579182015b82811115614360578251825591602001919060010190614345565b5b50905061436e9190614404565b5090565b60408051908101604052806002905b60008152602001906001900390816143815790505090565b61440191905b808211156143fd576000808201600090556001820160009055600282016000905560038201600090556004820160009055600582016000905560068201600090556007820160006101000a81549060ff02191690555060080161439f565b5090565b90565b61442691905b8082111561442257600081600090555060010161440a565b5090565b905600a165627a7a72305820dd6e06950795743b5ea1a0223e288d8a06fc91717baa2d57ad059ba748bd6b960029",
  "source": "pragma solidity ^0.4.17;\n\nimport \"./MilitaryFactoryInterface.sol\";\nimport \"./KingdomFactoryInterface.sol\";\n\ncontract RealmOfWars {\n\n    event NewKingdom(uint kingdomId, string name, uint race);\n    event ChangedRace(uint kingdomId, uint race);\n    event UpgradeWeapon(uint kingdomId);\n    event UpgradeFortress(uint kingdomId);\n    event UpgradeCovert(uint kingdomId);\n    event BattleCompleted(uint battleId);\n    event Recruit(uint kingdomId);\n    event CommanderAssigned(uint kingdomId, uint commanderId);\n    event TrainedAttackSpecialists(uint kingdomId, uint count);\n    event TrainedDefenseSpecialists(uint kingdomId, uint count);\n    event ReassignedAttackSpecialists(uint kingdomId, uint count);\n    event ReassignedDefenseSpecialists(uint kingdomId, uint count);\n    event TrainedSpies(uint kingdomId, uint count);\n    event TrainedSentries(uint kingdomId, uint count);\n    event PurchasedMercs(uint id, uint attackMercsCount, uint defenseMercsCount);\n\n    address private militaryFactoryAddress;\n    address private kingdomFactoryAddress;\n\n    uint256 private recruitCooldown = 5 minutes; // 6 hours;\n    uint256 private attackCooldown = 5 minutes; // 1 hour;\n\n    mapping (address => uint256) private kingdomOf;\n    mapping (uint256 => address) private kingdomToOwner;\n    \n    mapping (uint256 => string)  private name;\n    mapping (uint256 => uint256) private recruitTime;\n    mapping (uint256 => uint256) private attackTime;\n\n    struct Battle {\n        uint256 time;\n        uint256 attacker;\n        uint256 defender;\n        uint256 attacker_damage;\n        uint256 defender_damage;\n        uint256 attacker_casualties;\n        uint256 defender_casualties;\n        bool success;\n    }\n\n    Battle[] private battles;\n\n    function RealmOfWars(address _kingdomFactoryAddress, address _militaryFactoryAddress) public {\n        kingdomFactoryAddress = _kingdomFactoryAddress;\n        militaryFactoryAddress = _militaryFactoryAddress;\n        _createKingdom(\"God\", 0, [50, 14, 16, 15], [uint(1000000), uint(200000), uint(200000), uint(10000), uint(10000)], 0);\n        _createKingdom(\"God\\'s Right Hand\", 0, [30, 12, 14, 10], [uint(100000), uint(20000), uint(20000), uint(1000), uint(1000)], 0);\n        _createKingdom(\"God\\'s Left Hand\", 0, [30, 12, 14, 10], [uint(100000), uint(20000), uint(20000), uint(1000), uint(1000)], 0);\n    }\n\n    function _createKingdom(string _name, uint8 _race, uint8[4] _level, uint[5] _militaryCount, uint _commander)\n        private returns (uint){\n    \n        KingdomFactoryInterface kf = KingdomFactoryInterface(kingdomFactoryAddress);\n        MilitaryFactoryInterface mf = MilitaryFactoryInterface(militaryFactoryAddress);\n        uint id = kf._createKingdom(_race,  _level,  _commander);\n        mf._createMilitary(_militaryCount);\n        name[id] = _name;\n        kingdomToOwner[id] = msg.sender;\n        kingdomOf[msg.sender] = id;\n        NewKingdom(id, _name, _race);\n        return id;\n    }\n\n    function createNewKingdom(string _name, uint _race, uint _commanderId) public returns (uint){\n        require(kingdomOf[msg.sender] == 0);\n        require(_race >= 1 && _race <= 5);\n        return _createKingdom(_name, uint8(_race), [1, 0, 0, 0], [uint(0), uint(0), uint(0), uint(0), uint(0)], _commanderId);\n    }\n\n    function getKingdom(uint _id) public view returns (string, uint8, uint8[4], uint, uint, uint, string) {\n        KingdomFactoryInterface kf = KingdomFactoryInterface(kingdomFactoryAddress);\n        var (race, level, gold, experience, commanderId) = kf.getKingdom(_id);\n        return (name[_id], race, level, gold, experience, commanderId, name[commanderId]);\n    }\n\n    function getPersonnel(uint _id) private view returns (uint256[7]) {\n      MilitaryFactoryInterface mf = MilitaryFactoryInterface(militaryFactoryAddress);\n      return mf.getMilitary(_id);\n    }\n\n\n    function spyOnPersonnel(uint _targetId) public view returns (bool, uint256[7]) {\n      uint256 senderId = kingdomOf[msg.sender];\n      require(senderId > 0);\n      MilitaryFactoryInterface mf = MilitaryFactoryInterface(militaryFactoryAddress);\n      if(senderId == _targetId){\n        //TODO: Can include success spy if target is commander\n        return (true, mf.getMilitary(_targetId));\n      }\n      return mf.spyOnMilitary(senderId, _targetId);\n    }\n\n    function gainExperience(uint _id, uint _exp) private {\n        KingdomFactoryInterface kf = KingdomFactoryInterface(kingdomFactoryAddress);\n        kf.gainExperience(_id, _exp);\n    }\n\n    function getWeaponMultiplier() public view returns (uint8) {\n        KingdomFactoryInterface kf = KingdomFactoryInterface(kingdomFactoryAddress);\n        return kf.getWeaponMultiplier();\n    }\n\n    function getFortressMultiplier() public view returns (uint8) {\n        KingdomFactoryInterface kf = KingdomFactoryInterface(kingdomFactoryAddress);\n        return kf.getFortressMultiplier();\n    }\n\n    /// @notice Returns a list of all kingdom IDs that are officers of target commander.\n    /// @param _commanderId The ID of the commander we are interested in.\n    /// @dev This method MUST NEVER be called by smart contract code. First, it's fairly\n    ///  expensive (it walks the entire kingdoms array looking for kingdoms belonging to commander),\n    ///  but it also returns a dynamic array, which is only supported for web3 calls, and\n    ///  not contract-to-contract calls.\n    function getOfficers(uint _commanderId) public view returns (uint[]){\n      KingdomFactoryInterface kf = KingdomFactoryInterface(kingdomFactoryAddress);\n      uint256 officerCount = kf.getOfficerCount(_commanderId);\n\n      if(officerCount == 0){\n        // Return an empty array\n        return new uint256[](0);\n      } else {\n        uint256 id; //for iterating over kingdoms\n        uint256 numOfKingdoms = kf.getKingdomCount();\n        uint256 officerIndex = 0;\n        uint256[] memory officers = new uint256[](officerCount);\n\n        // We count on the fact that all kingdoms have IDs starting at 1 and increasing\n        // sequentially up to kingdoms.length.\n        for(id = 0; id < numOfKingdoms; id++){\n          uint thisCommanderId = kf.getCommanderId(id);\n          if(thisCommanderId == _commanderId){\n            officers[officerIndex] = id;\n            officerIndex++;\n          }\n        }\n        return officers;\n      }\n    }\n\n    function getMyOfficers() external view returns (uint[]){\n      uint256 id = kingdomOf[msg.sender];\n      require(id > 0);\n      return getOfficers(id);\n    }\n\n    function haveKingdom() public view returns (bool) {\n      return (kingdomOf[msg.sender] > 0);\n    }\n\n    function getMyKingdomId() public view returns (uint){\n      return (kingdomOf[msg.sender]);\n    }\n\n    function isMyKingdomId(uint256 _id) public view returns (bool){\n      return (kingdomOf[msg.sender] == _id);\n    }\n\n    function getMyKingdom() public view returns (string, uint8, uint8[4], uint, uint, uint, string) {\n      uint256 id = kingdomOf[msg.sender];\n      require(id > 0);\n      return getKingdom(id);\n    }\n\n    function getMyPersonnel() public view returns (uint256[7]) {\n      uint256 id = kingdomOf[msg.sender];\n      require(id > 0);\n      return getPersonnel(id);\n    }\n\n    function getKingdomCount() public view returns (uint) {\n        KingdomFactoryInterface kf = KingdomFactoryInterface(kingdomFactoryAddress);\n        return kf.getKingdomCount();\n    }\n\n    //********* User-Specific Actions **********\n    //  #assignCommander - Assign new commander\n    //  #upgradeWeapon   - Upgrade weapon by 1 level\n    //  #upgradeFortress - Upgrade fortress by 1 level\n    //\n\n    function assignCommander(uint _commanderId) public {\n      uint256 id = kingdomOf[msg.sender];\n      KingdomFactoryInterface kf = KingdomFactoryInterface(kingdomFactoryAddress);\n      kf.assignCommander(id, _commanderId);\n      CommanderAssigned(id, _commanderId);\n    }\n\n    function ditchCommander() public {\n        uint256 id = kingdomOf[msg.sender];\n        KingdomFactoryInterface kf = KingdomFactoryInterface(kingdomFactoryAddress);\n        kf.ditchCommander(id);\n        CommanderAssigned(id, 0);\n    }\n\n    function isCommander(uint _commanderId) public view returns (bool) {\n        KingdomFactoryInterface kf = KingdomFactoryInterface(kingdomFactoryAddress);\n        return kf.isCommander(kingdomOf[msg.sender], _commanderId);\n    }\n\n    function changeRace(uint8 _race) public {\n      uint256 id = kingdomOf[msg.sender];\n      KingdomFactoryInterface kf = KingdomFactoryInterface(kingdomFactoryAddress);\n      kf.changeRace(id, _race);\n      ChangedRace(id, _race);\n    }\n\n    function upgradeWeapon() public {\n      uint256 id = kingdomOf[msg.sender];\n      KingdomFactoryInterface kf = KingdomFactoryInterface(kingdomFactoryAddress);\n      kf.upgradeWeapon(id);\n      UpgradeWeapon(id);\n    }\n\n    function upgradeFortress() public {\n      uint256 id = kingdomOf[msg.sender];\n      KingdomFactoryInterface kf = KingdomFactoryInterface(kingdomFactoryAddress);\n      kf.upgradeFortress(id);\n      UpgradeFortress(id);\n    }\n\n    function upgradeCovert() public {\n      uint256 id = kingdomOf[msg.sender];\n      KingdomFactoryInterface kf = KingdomFactoryInterface(kingdomFactoryAddress);\n      kf.upgradeCovert(id);\n      UpgradeCovert(id);\n    }\n\n    function strikeAction(uint256 _id) private view returns (uint256) {\n        KingdomFactoryInterface kf = KingdomFactoryInterface(kingdomFactoryAddress);\n        MilitaryFactoryInterface mf = MilitaryFactoryInterface(militaryFactoryAddress);\n        return mf.strikeAction(_id) * kf.strikeAction(_id);\n    }\n\n    function defensiveAction(uint256 _id) private view returns (uint256) {\n        KingdomFactoryInterface kf = KingdomFactoryInterface(kingdomFactoryAddress);\n        MilitaryFactoryInterface mf = MilitaryFactoryInterface(militaryFactoryAddress);\n        return mf.defensiveAction(_id) * kf.defensiveAction(_id);\n    }\n\n    function spyRating(uint256 _id) private view returns (uint256) {\n        KingdomFactoryInterface kf = KingdomFactoryInterface(kingdomFactoryAddress);\n        MilitaryFactoryInterface mf = MilitaryFactoryInterface(militaryFactoryAddress);\n        return mf.spyRating(_id) * kf.spyRating(_id);\n    }\n\n    function sentryRating(uint256 _id) private view returns (uint256) {\n        KingdomFactoryInterface kf = KingdomFactoryInterface(kingdomFactoryAddress);\n        MilitaryFactoryInterface mf = MilitaryFactoryInterface(militaryFactoryAddress);\n        return mf.sentryRating(_id) * kf.sentryRating(_id);\n    }\n\n    function myStrikeAction() public view returns (uint256) {\n      var id = kingdomOf[msg.sender];\n      require(id > 0);\n      return strikeAction(id);\n    }\n\n    function myDefensiveAction() public view returns (uint256) {\n      var id = kingdomOf[msg.sender];\n      require(id > 0);\n      return defensiveAction(id);\n    }\n\n    function mySpyRating() public view returns (uint256) {\n      var id = kingdomOf[msg.sender];\n      require(id > 0);\n      return spyRating(id);\n    }\n\n    function mySentryRating() public view returns (uint256) {\n      var id = kingdomOf[msg.sender];\n      require(id > 0);\n      return sentryRating(id);\n    }\n\n    //returns true,0 if can recruit, otherwise returns false and number of seconds remaining\n    function canAttack() public view returns (bool, uint256){\n      var id = kingdomOf[msg.sender];\n      require(id > 0);\n      uint256 timePassed = now - attackTime[id];\n      if(timePassed > attackCooldown){\n        return (true, 0);\n      }\n      return (false, attackCooldown - timePassed);\n    }\n\n    function attack(uint256 _targetId) public {\n      uint256 attackerId = kingdomOf[msg.sender];\n      require(attackerId > 0 && attackerId != _targetId);\n      require (now - attackTime[attackerId] > attackCooldown);\n\n      uint256 attacker_damage = strikeAction(attackerId);\n      uint256 defender_damage = defensiveAction(_targetId);\n      uint256 attacker_casualties = 0;\n      uint256 defender_casualties = 0;\n      bool success = attacker_damage > defender_damage;\n      uint256 battleID = battles.push(Battle(now, attackerId, _targetId, attacker_damage, defender_damage, attacker_casualties, defender_casualties, success)) - 1;\n      if(success){\n          KingdomFactoryInterface kf = KingdomFactoryInterface(kingdomFactoryAddress);\n          kf.gainExperience(attackerId, 100);\n      }\n      attackTime[attackerId] = now;\n      BattleCompleted(battleID);\n    }\n\n    function getBattle(uint _id) public view returns (uint256, uint256, uint256, uint256, uint256, uint256, bool) {\n      var battle = battles[_id];\n      return (battle.attacker, battle.defender, battle.attacker_damage, battle.defender_damage,\n          battle.attacker_casualties, battle.defender_casualties, battle.success);\n    }\n\n    function getRecentAttacks(uint _id) public view returns(uint[2][5], uint){\n      uint[2][5] memory result;\n      uint count = 0;\n      uint battleId;\n\n      for(battleId = battles.length; battleId > 0 && count < 5; battleId--){\n        var battle = battles[battleId - 1];\n        if(battle.defender == _id){\n          result[count][0] = now - battle.time;\n          result[count][1] = battle.attacker;\n          count++;\n        }\n      }\n      return (result, count);\n    }\n\n    function getMyRecentAttacks() public view returns(uint[2][5], uint){\n      var id = kingdomOf[msg.sender];\n      require(id > 0);\n      return getRecentAttacks(id);\n    }\n\n    function getRecent10IncomingAttacks(uint _id) public view returns(uint[2][10], uint){\n      uint[2][10] memory result;\n      uint count = 0;\n      uint battleId;\n\n      for(battleId = battles.length; battleId > 0 && count < 10; battleId--){\n        var battle = battles[battleId - 1];\n        if(battle.defender == _id){\n          result[count][0] = now - battle.time;\n          result[count][1] = battleId - 1;\n          count++;\n        }\n      }\n      return (result, count);\n    }\n\n    function getRecent10OutgoingAttacks(uint _id) public view returns(uint[2][10], uint){\n      uint[2][10] memory result;\n      uint count = 0;\n      uint battleId;\n\n      for(battleId = battles.length; battleId > 0 && count < 10; battleId--){\n        var battle = battles[battleId - 1];\n        if(battle.attacker == _id){\n          result[count][0] = now - battle.time;\n          result[count][1] = battleId - 1;\n          count++;\n        }\n      }\n      return (result, count);\n    }\n\n    function getMyRecent10IncomingAttacks() public view returns(uint[2][10], uint){\n      var id = kingdomOf[msg.sender];\n      require(id > 0);\n      return getRecent10IncomingAttacks(id);\n    }\n\n    function getMyRecent10OutgoingAttacks() public view returns(uint[2][10], uint){\n      var id = kingdomOf[msg.sender];\n      require(id > 0);\n      return getRecent10OutgoingAttacks(id);\n    }\n\n\n    //returns true,0 if can recruit, otherwise returns false and number of seconds remaining\n    function canRecruit() public view returns (bool, uint256){\n      uint256 timePassed = now - recruitTime[kingdomOf[msg.sender]];\n      if(timePassed > recruitCooldown){\n        return (true, 0);\n      }\n      return (false, recruitCooldown - timePassed);\n    }\n\n    function recruit() public {\n      var id = kingdomOf[msg.sender];\n      require(id > 0);\n      require (now - recruitTime[id] > recruitCooldown);\n      KingdomFactoryInterface kf = KingdomFactoryInterface(kingdomFactoryAddress);\n      MilitaryFactoryInterface mf = MilitaryFactoryInterface(militaryFactoryAddress);\n      uint numOfOfficers = kf.getOfficerCount(id);\n      mf.recruit(id, numOfOfficers);\n      recruitTime[id] = now;\n      Recruit(id);\n    }\n\n    function trainAttackSpecialists(uint256 _count) public {\n      var id = kingdomOf[msg.sender];\n      require(id > 0);\n      MilitaryFactoryInterface mf = MilitaryFactoryInterface(militaryFactoryAddress);\n      mf.trainAttackSpecialists(id, _count);\n      TrainedAttackSpecialists(id, _count);\n    }\n\n    function trainDefenseSpecialists(uint256 _count) public {\n      var id = kingdomOf[msg.sender];\n      require(id > 0);\n      MilitaryFactoryInterface mf = MilitaryFactoryInterface(militaryFactoryAddress);\n      mf.trainDefenseSpecialists(id, _count);\n      TrainedDefenseSpecialists(id, _count);\n    }\n\n    function trainSpies(uint256 _count) public {\n      var id = kingdomOf[msg.sender];\n      require(id > 0);\n      MilitaryFactoryInterface mf = MilitaryFactoryInterface(militaryFactoryAddress);\n      mf.trainSpies(id, _count);\n      TrainedSpies(id, _count);\n    }\n\n    function trainSentries(uint256 _count) public {\n      var id = kingdomOf[msg.sender];\n      require(id > 0);\n      MilitaryFactoryInterface mf = MilitaryFactoryInterface(militaryFactoryAddress);\n      mf.trainSentries(id, _count);\n      TrainedSentries(id, _count);\n    }\n\n    function reassignAttackSpecialists(uint256 _count) public {\n      var id = kingdomOf[msg.sender];\n      require(id > 0);\n      MilitaryFactoryInterface mf = MilitaryFactoryInterface(militaryFactoryAddress);\n      mf.reassignAttackSpecialists(id, _count);\n      ReassignedAttackSpecialists(id, _count);\n    }\n\n    function reassignDefenseSpecialists(uint256 _count) public {\n      var id = kingdomOf[msg.sender];\n      require(id > 0);\n      MilitaryFactoryInterface mf = MilitaryFactoryInterface(militaryFactoryAddress);\n      mf.reassignDefenseSpecialists(id, _count);\n      ReassignedDefenseSpecialists(id, _count);\n    }\n\n    function buyMercs(uint256 _attackMercsCount, uint256 _defenseMercsCount) public {\n      var id = kingdomOf[msg.sender];\n      require(id > 0);\n      MilitaryFactoryInterface mf = MilitaryFactoryInterface(militaryFactoryAddress);\n      mf.buyMercs(id, _attackMercsCount, _defenseMercsCount);\n      PurchasedMercs(id, _attackMercsCount, _defenseMercsCount);\n    }\n}",
  "sourcePath": "/Users/kevin/KingsOfChaos/contracts/RealmOfWars.sol",
  "compiler": {
    "name": "solc",
    "version": "0.4.19+commit.c4cbbb05.Emscripten.clang"
  },
  "schemaVersion": "2.0.0",
  "updatedAt": "2018-03-04T01:04:14.471Z"
}